:020000041008E2
:4000000000780408EB0208100D0000005103081051030810510308105103081000000000000000000000000000000000E15008104D0308100000000081510810E551081091
:400040004D0308104D0308104D0308104D0308104D0308104D0308104D0308104D0308104D0308104D0308104D0308104D0308104D0308104D0308104D0308104D03081000
:400080004D0308104D0308104D0308104D0308104D0308104D0308104D0308104D0308104D0308104D0308104D0308104D0308104D0308104D0308104D0308104D030810C0
:4000C0004D0308104D0308104D0308104D0308104D0308104D0308104D0308104D0308104D0308104D0308104D0308104D0308104D0308104D0308104D0308104D03081080
:400100004D0308104D0308104D0308104D0308104D0308104D0308104D0308104D0308104D0308104D0308104D0308104D0308104D0308104D0308104D0308104D0308103F
:400140004D0308104D0308104D0308104D0308104D0308104D0308104D0308104D0308104D0308104D0308104D0308104D0308104D0308104D0308104D0308104D030810FF
:400180004D0308104D0308104D0308104D0308104D0308104D0308104D0308104D0308104D0308104D0308104D0308104D0308104D0308104D0308104D0308104D030810BF
:4001C0004D0308104D0308104D0308104D0308104D0308104D0308104D0308104D0308104D0308104D0308104D0308104D0308104D0308104D0308104D0308104D0308107F
:400200004D0308104D0308104D0308104D0308104D0308104D0308104D0308104D0308104D0308104D0308104D0308104D0308104D0308104D0308104D0308104D0308103E
:400240004D0308104D0308104D0308104D0308104D0308104D0308104D0308104D0308104D0308104D0308104D0308104D0308104D0308104D0308104D0308104D030810FE
:400280004D0308104D0308104D03081010B5054C237833B9044B13B10448AFF300800123237010BD644A0208000000006CE70810084B10B51BB108490848AFF3008008484A
:4002C000036803B910BD074B002BFBD0BDE81040184700BF00000000684A02086CE7081030440208000000007047FFF7FDFF72B6104C114DAC4209DA21686268A368043B11
:40030000A2BFC858D050FAE70C34F3E70B490C4A00209142BCBF41F8040BFAE709480A490860BFF34F8F00F02DFA00F007FA00F0C9F8FEE770E7081088E70810644A0208F8
:40034000C8B703080040020808ED00E0FEE7FEE700B504207146084202D0EFF3098001E0EFF30880043003F0B7F9FEE708B50F4B1868002103F05CFD4FF47A7003F078F957
:400380000B4B5A6910225A615B690A4BB3F90030002B09DB5A0903F01F03012101FA03F36032054941F8223008BD00BFAC9403080000324074D7081000E100E070B584B07F
:4003C0000022354B1A8060E03449354800F08AFB314B1A8840F2E7339A4252D1314D304C4FF47A7300222946204600F0DFF92B4E4FF47A7300222C49304600F0D7F94FF407
:400400007A7300223146204600F032FA274C20604FF47A720021284600F0E2F9244E3060D4ED007A0A226946FDEEE77A17EE900A0DF0A9F81F4C2049204601F045FB69467D
:40044000204601F041FB1D4D2946204601F03CFBD6ED007A0A2202A9FDEEE77A17EE900A0DF091F81649204601F02EFB02A9204601F02AFB2946204601F026FB0022064B9D
:400480001A80054A138801331380034B1A88B2F57A7F99D304B070BD804A020864750308C4650308B094030880460308A894030804850308000066409CD60810A8D6081067
:4004C000A4D6081000B583B003220021012003F037FB294B186003220021012003F030FB264B1860186800231A46194603F04EFB62B600F04DFA04F095FF00F085FA04F0C4
:40050000D7FF002201210A2003F01AFB1C4B18601C4C1D49204603F071F8B4F90030002B08DB5A0903F01F00012181406032174840F82210002B08DB590903F01F030122BA
:4005400002FA03F3114A42F8213000230193052200924FF480620E490E4803F0D7FF04F007F84FF49F710C4803F0A6F804F048FF0028FBD1FEE700BFAC940308C06503081F
:40058000B4B4030874D708106D03081000E100E0ACD60810BD030810B8D6081008B5012001F0F4F908BD00BF704700BF5C4AD2F8803303F00F0303F1D00152F8212002F0E4
:4005C0000702032A04D0042A05D092B9554914E0554A116811E003F1C002514951F8222002F01F02112A06D0132A04D04FF4FA4103E04E4901E04FF400418BBB484BD3F8F7
:40060000902502F00100D3F88825C2F30172D3F8883513F0405F07D0414BD3F88835C3F30173012B02D102E0012300E0002303B108B9032A46D13A48D0F88025C2F31103BA
:40064000D0F88425C2F30C02D0F88005C0F300600130B1FBF2F202FB03F2B2FBF0F131E0012B2FD12E4BD3F8402602F00100D3F80026C2F30172D3F8003613F0405F07D038
:40068000274BD3F80036C3F30173012B02D102E0012300E0002303B108B9032A12D12048D0F8002602F07F02D0F80036C3F30423D0F80006C0F3044002FB01F2B2FBF3F225
:4006C000B2FBF0F1164BD3F88033C3F3011321FA03F215494A601648D0F89030C3F3072301330069000E0130B2FBF0F08860B2FBF3F3CB600B6103F5742202F23F220D4832
:40070000A0FB0202C2F387420A7503F2E7330A4AA2FB03239B098B61DB03CB61704700BF0000264000127A008C42020800366E010000214083DE1B43D34D621008B50D48B4
:4007400003F0B6F8FFF730FFFFF730FF00221146042000F0E3FE084800F076FF074B1B6893F8513013B1064800F0DEFF00F020FE08BD00BF7CDB0810844A0208DCB4030837
:40078000C4D6081008B503F004F8074AD2F8883043F47003C2F88830BFF34F8FBFF36F8F02F0FBFF08BD00BF00ED00E070B586B005460E464FF47A740094074B074A3221BA
:4007C00003A806F0D7F823463246294603A806F0E3F806B070BD00BF50A40308AC420208002301E001339BB2B3F57A7FFAD3704730B5ADF54D7D002306E050F8215004ACB7
:4008000044F82350013301319142F6D301AB03AAC82104A806F016F86B4602AAC82104A805F03CFF9DED037ADDED027A77EE677A17EE900A0DF54D7D30BD00BF30B5ADF5C2
:400840004B7D002306E050F8215002AC44F82350013301319142F6D301AAC82102A805F0B5FF01980DF54B7D30BD00BF000000002DE9F0472DED028B98B0814688469A46E8
:40088000414CA4FB0232940925E0C82505FB04F6671C05FB07F52A4631464846FFF7A8FF18AB03EB840444F8140C2A4631464846FFF7C4FF44F8280C2A4631464046FFF728
:4008C00097FF44F83C0C2A4631464046FFF7B6FF44F8500C3C462C4BA3FB0A23B4EB931FD3D303AA052113A805F070FF02AA05210EA805F06BFF01AA052109A805F066FFBE
:400900006A46052104A805F061FFDDED027ADDED036A86EEA77ADDED006A9DED016AC6EE267A87EE278A18EE100A0BF0E7FF00224FF0804304F0F0FD0FA3D3E900230CF098
:4009400031F804460D46DFED117A68EE277A17EE900A0BF0D3FF22462B460BF071FE08A3D3E900230BF06CFE0CF0CCFA18B0BDEC028BBDE8F08700BF000000E09188F93FF9
:40098000000000C0CCAC5D401F85EB517EA30AC208B507F007F9142000F0DEF8012000F0E3F8012007F006F8002007F045F86FF07F4007F037F807F0C3F808BD70B582B07F
:4009C00004460E460E4B00936423002257210D4801F0C2FE28B90A4B64222146094802F029F8074D074C2B4664223146204602F021F82A466421204601F090FF02B070BD7F
:400A0000D4B503080000634008B5642002F030FED0210220FFF7D2FF00210320FFF7CEFF00210420FFF7CAFF00210520FFF7C6FF00210620FFF7C2FF1F210820FFF7BEFF1F
:400A400003210920FFF7BAFF29210A20FFF7B6FF32210C20FFF7B2FF32210D20FFF7AEFF08BD00BF2DE9F04182B080460D4616461A4C1B4F0097642300225721204601F0C1
:400A80006BFE3B4664224146204601F0D3FF0097642301225721204601F0D6FE002409E00F4B009364232A1900210C4801F068FF0134E4B2731E9C42F2DB084E084F009756
:400AC00064232A190121304601F05AFF3A466421304601F023FF02B0BDE8F08100006340D4B5030870B584B005460E461446062202A90720FFF7B6FF9DF808301B0403F4E3
:400B000040339DF8092003EB02239DF80A20134445F824309DF80B209DF80C301B0203EB02439DF80D20134446F824300A22694655F824000CF027FD054C6946204600F07C
:400B4000C3FF0449204600F0BFFF04B070BD00BF00006640A8D6081010B5044600F048F9204600F0EBF910BD08B510B100F05AFA01E000F079FA08B9012008BD002008BD9D
:400B800008B50022024BC3F8082100F035FB08BD00003840014BD3F808017047000038400122014B5A6070470000384010B5074C074A0849204602F035F8236843F00043E1
:400BC00023600822044B9A6010BD00BF00006740B8B403087CD70810000632400822044B9A60044A136843F000431360704700BF000632400000674008B50249024802F074
:400C000045F908BDB8B403080000674008B50146154800F0FBFE144BD3F8C03F13F0040FF9D0114BD3F8042242F48032C3F80422D3F8042222F48032C3F80422D3F80422A0
:400C4000D3F8042342F48032C3F80423D3F8042322F48032C3F80423D3F804230422C3F8C02FD3F8C03F08BD0000674008B50146174800F0CBFE164BD3F8C03F13F0040FC7
:400C8000F9D0134BD3F84003D3F8042242F48032C3F80422D3F8042222F48032C3F80422D3F80422D3F8042342F48032C3F80423D3F8042322F48032C3F80423D3F8042370
:400CC0000422C3F8C02FD3F8C03FC0B208BD00BF0000674038B50C46054600B121B940F2E6511B4802F0E8FC22462946194800F0D3FE184AD2F80832C3F30803D2F80822F2
:400D0000C2F3C032D342F4D1124BD3F8042242F48032C3F80422D3F8042222F48032C3F80422D3F80422D3F8042342F48032C3F80423D3F8042322F48032C3F80423D3F86D
:400D400004230422C3F8C02FD3F8C03F204638BDF8D6081000006740044B1B6913F0080F01D0012070470020704700BF800232402DE9F04180460E4617460A4C08256560A4
:400D80007020FFF743FF4046FFF740FFA56065607220FFF73BFF39463046FFF79BFFA560BDE8F0810006324000B583B002AB03F8011D01221946FFF7DBFF03B05DF804FB05
:400DC000F8B507460E46094C082565607020FFF71DFF3846FFF71AFFA56065607320FFF715FF3046FFF742FFA560F8BD0006324038B50425084B5D60084C40236360102316
:400E00006360FFF7D3FE0822054B5A60656020236360FFF7B5FE38BD00003240800232400006324010B5434C6F22002120460CF0D2FB631C236704F14E03636704F1220345
:400E4000A367FFF79DFE03E0FFF7A4FE032868D8FFF782FF0028F7D1FFF7A2FE00217220FFF7AEFF00F00F0002285CD14021FFF79BFF00210F20FFF7A3FF10F0800F54D0BC
:400E800002210B20FFF790FF08222B490120FFF76FFFD1210720FFF787FF02210820FFF783FFC2210920FFF77FFF03210420FFF77BFF01210320FFF777FF00210320FFF7C1
:400EC00073FF0A2002F0D4FB002400E01C4601210520FFF769FF642002F0CAFB03210520FFF762FF322002F0C3FB0F210520FFF75BFF322002F0BCFB00210F20FFF760FF68
:400F000010F0400F05D040210220FFF74DFF234603E0631C9BB2042CD8D1032B07D9052010BD012010BD022010BD032010BD002010BD00BF044C020838D7081010F1090FC4
:400F40000EDB10F1040F0EDB05280FDD0A2810DD0F2811DD142811DD282811DC5A2210E04FF496620DE04FF461720AE04FF4167207E04FF4A57204E0DC2202E0B42200E0AD
:400F80003C22034BA3F87C20A3F87E20704700BF044C0208002307E01349086F5522C254496FCA5401339BB2202BF5D970B5002416E0A6080C4DAA6F04F003030B490B446F
:400FC0001B7A93556F2229460A20FFF7D1FE07210220FFF7E9FEAB6F00229A550134A4B2AF2CE6D970BD00BF044C020838D7081008B5002304E00021094AD1540133DBB283
:40100000152BF8D900210420FFF7CEFE6F2204490A20FFF7ADFE07210220FFF7C5FE08BD044C020838B50E4C1023A360142002F01FFBFFF7D3FD08220A4B9A604023A3606B
:401040000425A5600A2002F013FB65600A2002F00FFBA5600A2002F00BFBFFF7E3FE38BD800232400006324038B5FFF793FFFFF7BFFF1E2002F0FCFA234C40256560322094
:4010800002F0F6FAA56000210F20FFF799FE10F0400F36D000210B20FFF786FE01210320FFF782FE03210520FFF77EFE01210520FFF77AFE322002F0DBFA80210420FFF752
:4010C00073FE00210520FFF76FFE01210720FFF76BFE1E2002F0CCFAFFF78EFD102363606560142002F0C4FA0822084B5A60042363602025A5601E2002F0BAFA65600020E4
:4011000038BD042038BD00BF800232400006324010B582B002AC012344F8043D00231A461449154806F05CFE214607F0D6FE08F0FFFA60B14FF48472B021002008F0DDFB75
:401140004FF48472B021002008F003FC0BE0B0224FF48471002008F0D0FBB0224FF48471002008F0F6FB0549002008F0DDFB02B010BD00BF70E40810A4E40810744302081A
:40118000012901D1002070474FF0FF30704700BF08B54FF40041034806F01AF9024806F097FC08BD346302082CDD081008B5012002F0C0FD014B186008BD00BF34E3020893
:4011C00008B500231A4619460248006802F0DEFC08BD00BF34E3020808B54FF0FF31024B186802F02FFF08BD34E3020808B503F035FC08BD704700BF08B5084B1B783BB97B
:40120000074A0021074802F0CBFA0122034B1A70044B01229A609A6108BD00BF38E30208B0D70810000038401F4B98422DD00CD840282ED003D8E8B1102828D02FE080282E
:4012400029D0B0F5807F28D029E0184B984228D006D8B0F1204F0DD0154B984212D01EE0144B98420AD00133984209D0023B984215D101E0002070470F4870470F487047EB
:401280000F4870474FF4A0007047074870470D4870470D4870470D487047034870470C4870474FF4A400704706005200010000F0090000A0040000F0010052000200520024
:4012C00003005200010050000200500005005200FF00520038B5124B1B6893F83130012B04D840F2C3110F4802F0E6F90C4B1D682A6AB5F8B03013442C46D5F8B420D358CD
:40130000002B0BDB084B1868FFF78EFF6B6801229A6063689B68002BFBD138BD034838BDDCB40308FCD708103CE30208020050001A4B186128B102230370FF234370002314
:401340004380174B1B6893F850202AB300B583B0B3F93830ADF80030002301931149684602F04CF9BDF90030002B08DB590903F01F03012202FA03F30B4A42F82130084B73
:401380001B6893F8513023B102220849012000F077FA03B05DF804FB704700BF3CE30208DCB40308A144020800E100E05945020808B50248FFF7BCFF08BD00BF50E30208C1
:4013C00038B50B4B1B68D3F8B4301B58002B0DDA0D4604460B0C1B0423B140F2D521054802F06AF9A9B26160002038BD024838BDDCB403083CD8081001008A0038B5036868
:40140000002B01DA002300E0094B73B90D460446C2600B0C1B0423B140F2BB21054802F04BF9A9B2A160002038BD014838BD00BF01008A003CD8081038B504460D4619B948
:401440009921084802F038F9074B1B68D3F8B4301B59002B03DAE3682B60002038BD034838BD00BF7CD80810DCB4030801008A00254B1B6893F8313083423AD900293AD0D9
:401480000B6813F01F0F38D170B50D4604461E4B1B6893F83130984204D340F2C3111B4802F00AF9184B1B68186AB3F8B03004FB0304174E34602A68D208002168680CF08B
:4014C0008AF800212046FFF77BFF346825B940F293310E4802F0F0F82A4600212046FFF78DFF60B900210A4B1868FFF769FF40B970BD084870470748704706487047064867
:4015000070BD054870BD00BFDCB403083CD8081054E3020803018A0001018A0010B504461346B2B9A9B9124B1B6893F83130984204D340F2C3110F4802F0BEF80C4B1B6892
:401540001A6AB3F8B03004FB03240B4B1C60002010BD43B149B1084A51609360111D2046FFF786FF10BD054810BD044810BD00BFDCB403083CD8081054E3020803018A002F
:401580002DE9F0411B4B1B68DC68236883422CD90D464609A0EB4610012303FA00F819B902F0F7F8074600E00027124B18680368002B01DA002300E00F4B83B9626852F8C4
:4015C000263018EA030F05D023EA080342F82630002400E0094C0021FFF7F2FE00E0084C25B9384602F0D9F800E0064C2046BDE8F08100BF54E3020801008A00020188008D
:401600000301880004018A000B4B1B68DB681A6882420CD94109A0EB4110012202FA00F05B6853F82130184203D004487047044870470448704700BF54E3020801018800F4
:4016400004018A0000018800024B1B680BB9014B1860704760E302082DE9F8430446884691461D46089F2C4B1B681BB9B5212B4802F022F8284B1B682C2000FB04F01C1824
:40168000EEB21E50C5F3072363602D0CA560244B1B6893F831309E4204D340F2C311214802F00AF81E4B1B68196AB3F8B02006FB02162661666893F832309E4204D340F213
:4016C000DF11184801F0F8FF154B1B681D6A803605EB46156561A668330C1B0423B14FF4FF71104801F0E8FF330C1B0423B140F2FF110C4801F0E0FFB3B243EA0646AE60DA
:40170000C4F81C90C4F820800023A36117B1B7F90030A381BDE8F88360E30208BCD80810DCB403083CD80810F0B58FB0044618B95221274801F0C0FFA369072B03D95621F0
:40174000234801F0B9FFE36A1BB95821204801F0B3FF236B1BB959211D4801F0ADFF07AD04F114060FCE0FC537682F6002AD26460FCE0FC533682B60164B1B68B3F9362058
:40178000079B1344ADF83030089B0D93A26AE16A0CAD00953B460A98FFF75EFF00210091069B0A460598FFF757FF216B284601F025FFBDF93030002B08DB590903F01F0397
:4017C000012202FA03F3044A42F821300FB0F0BDBCD80810DCB4030800E100E0F8B506460F461D4614461AB9FD211F4801F064FF1E4B1B681BB9FE211B4801F05DFF1B4BDB
:401800001B682C2101FB063001FB07314B68012202FA03F31B04466802FA06F60269EAB18F69EFB91268002A01DA002200E0104AC2B92288134323600369DC6001238B61AE
:401840004D620469330C1B0423B140F2BB21094801F032FFB2B2A2600020F8BD0648F8BD0648F8BD0548F8BDBCD8081060E3020801008A003CD8081004028A0007028A0083
:40188000F8B505460F4616460E4B1B6823B94FF4AF710D4801F010FF0A4B1B682C2404FB0534236A23B94FF4B171074801F004FFE369B34204D9236A43F826700020F8BD4D
:4018C0000248F8BD60E30208BCD808100A028A0070B582B000230193044620B940F2D111284801F0E9FE236923B94FF4E971254801F0E2FE636923B940F2D311214801F072
:40190000DBFE236A23B94FF4EA711E4801F0D4FE6369DD682A0C20D012041A601B682069194B1B68D3F8B430C358002B15DA01A9FFF782FD60B9019803681E0CDBB2E269C2
:40194000934206D2226A52F8233013B1984700E0002631462069FFF733FDADB275B16369ADB21D601B68636A1BB198470023636202E0A36A03B198470023A36163691B68BA
:4019800002B070BDBCD80810DCB4030810B50446074B1B6823B940F2B111064801F08CFE034B1B682C2000FB0430FFF791FF10BD60E30208BCD8081010B4D0F8003303F03A
:4019C0000F03072B06D900230DE0D0F84043CC54013300E000239342F7D306E0D0F8404321F8134001339342F8D35DF8044B704710B51446D0F80833C3F308039A4200D315
:401A00001C462246FFF7D8FF204610BD036813F4006F01D0802200E04022D0F80832C3F30803934203D0C0F84012012070470020704700BF10B4D0F8003203F00F03072B6E
:401A400006D900230DE0CC5CC0F84042013300E000239342F7D306E031F81340C0F8404201339342F8D35DF8044B704710B51446036813F4006F01D0802200E04022D0F8F7
:401A80000832C3F30803D31AA34200D81C462246FFF7D0FF204610BDF8B507460D461446D0F8006206F00F060BE0224629463846FFF7DCFF072E01D9430000E003461D44F6
:401AC000241A002CF1D1F8BD30B4036813F4006F01D0802200E04022002408E0D0F80832C3F308039A42F9D0C0F8405201340D5D002DF3D130BC704702E0C0F84012013A73
:401B0000002AFAD1704700BF10B51446036813F4006F01D0802200E04022D0F80832C3F30803D31AA34200D81C462246FFF7E4FF204610BD10B54A6841F201039A4231D1B6
:401B4000D0F80833C3F30803B3B10B6A43F040030B620B7873B1D0F8043343F48033C0F80433D0F8043323F48033C0F80433D0F8043301E0D0F840330B6A43F020030B625B
:401B80000B6A23F010030B62036E23F4204303660023C0F8C83F0123C0F8C03FD0F8C03F202221E0D0F80832C3F30802D0F80832C3F3C03313440A6BD21A4A630A6A12F0BA
:401BC000080F05D1CA6A1A44CA628A6AD31A8B620B6A43F004030B620B6A23F001030B620023C0F8883F1022D0F84C4F40F201131C420DD0036823F000430360002383666F
:401C0000C366036843F000430360036842F040024FF080534B604B6C0BB11046984710BDD0F80C3F13F0020F1DD00222C0F8002FD0F8002FD0F8002F12F0040F02D04FF4EF
:401C4000001001E04FF480108A6802438A604A68B2F5B81F07D00A7B12B14FF4C01201E04FF4B0124A6013F4807F03D08A6842F400028A6013F0010F03D08A6842F480020E
:401C80008A6040F21112134202D04FF4C0134B60704700BF0023C0F8C83FC0F8883F836E23B140F21713C0F8083F704740F21313C0F8083F182383664FF4B8134B60704764
:401CC00038B5D0F80C4F036E23F4807303660023C0F8C83FC0F8883FC0F8083F40F21713C0F8003FD0F8003F8B6823F480338B604B7B13B18B69CB610BE08D69D0F8082211
:401D0000C2F30802D0F80832C3F3C0331344EB1ACB6140F201131C421BD0036E9B0F032B05D114F4827F14BF0123002300E001235BB1036823F00043036000238366C36677
:401D4000036843F00043036003684FF080534B601BE00B7893B1D0F8043343F48033C0F80433D0F8043323F48033C0F80433D0F804330123C0F8C03FD0F8C03F0B7B0BB1C2
:401D80000B4B01E04FF080534B604A6C72B14B7B13B14FF4802001E04FF400308B6813F0F87301D04FF400231843904738BD00BF000010100346002940DB11F0C00F06D0C4
:401DC000002181664FF0805050602F4844E011F4807F36D111F0010F0ED050682B49884232D1196E11F0804F0CBF012100214FF08050506026482FE011F0020F06D050684D
:401E00002249884223D10021224825E011F0100F05D04FF080515160002108461CE050681A49884216D1517B11B14FF4881101E04FF4A0115160002108460DE00121164830
:401E40000AE00121154807E00121114804E00021134801E00021084679B1196821F00041196000219966D966196841F0004119601B684FF080535360704740F21712C3F891
:401E8000002FD3F8003F70470820AA00000013100620AA000420AA000320AA000720AA000520AA00036853B110B50446012001F0F7FB2368013B23601BB1002010BD00208D
:401EC00070474FF0004010BD70B505460C4691F8243013F0FF0F0ED1CB6A63B94B6C0BB108209847E36AB3FA83F35B0984F824300123C5F8883F94F8243013F0FF0F16D062
:401F000063783BB12B6813F4006F01D0802202E0402200E00122FF212846FFF7F5FD236B18442063236A43F00803236270BDE26A012A11D963780BB1013A00E00122A16A76
:401F40002846FFF793FD236B03442363E36A1B1AE362A36A1844A062D5F80832C3F30803802B23D0E36A012B20D101F012FCA36A1B78C5F840324026C5F8806FD5F8803FA4
:401F800001F00BFC236B013323630023E362A36A0133A362C5F8886F63783BB1236A43F002032362636C0BB10420984770BD00BF38B54B68B3F5A81F03D14FF4C0134B6050
:401FC00038BD4B68B3F5A01F4DD10C4605464A69012A11D94B780BB1013A00E0012221692846FFF743FDA3690344A36163691B1A6361236903442361D5F80832C3F3080329
:40200000802B14D06369012B11D101F0C2FB23691B78C5F840324023C5F8803FD5F8803F01F0BBFBA3690133A361002363616369CBB9237B33B14023C5F8883F4FF4A81347
:40204000636005E00023C5F8883F4FF4B0136360637843B1A36843F40033A360636C13B14FF48030984738BD70B504460D468A6C82B3036813F4803F06D0D0F84C3F13F05D
:40208000400F03D0022002E0002000E00020236E13F4006F06D1D4F84C3F13F0800300D001231843C0B190470123C4F8C03FD4F8C03F024648B91023C4F8403FD4F8403FDC
:4020C00040F2D113C4F8483F07E040F2C113C4F8483F02E0002200E00022D4F8043243F48033C4F80432D4F8043223F48033C4F80432D4F804320AB9012300E00223E3667E
:40210000002A59D1666E06F010066B6C23B10EB1012000E0022098477EB141F202036B602B6A43F001032B626B6B2B63002385F824300123C4F8883F70BD41F201036B6046
:402140002B6A43F010032B620123C4F8C83F2B78BBB1EB6BBBB1236E43F400532366ED6B802D05D9A5F18003802B0ED8813D0DE0013D236E43F4004323660023C4F8C83FAB
:4021800004E0002502E0002500E03F25236813F4006F01D0802300E040239D4204D34FF42071064801F088FAD4F8043323F0FF03EDB21D43C4F8045370BD00BFFCD80810C6
:4021C00038B54B68B3F5881F03D0B3F5901F1AD038BD0B69D0F840231A708B6901338B614B69013B4B612BB10B6901330B610423836638BD0B7B13B14FF4C01301E04FF495
:40220000B0134B6038BD0C4605464A690969FFF7EFFBA3690344A36163691B1A6361226910442061012B24D82B6E23F480732B666369012B16D12B6813F4006F01D0802365
:4022400000E0402323B94FF42071184801F034FAD5F8043323F0FF03C5F804334FF48813636038BD0023C5F8C83F4FF4B013636038BD402B01D89C1E00E03F242B6813F4C9
:40228000006F01D0802300E040239C4204D34FF42071064801F010FAD5F8043323F0FF02E3B21343C5F8043338BD00BFFCD8081038B5CB6B002B50D00B78002B3FD00C4612
:4022C0000546D0F80423D2B20132896BFFF790FB236C03442364E36B1B1AE363A26B1044A063802B06D9A3F18002802A0FD8A3F181040DE02B6E43F400432B66E36B0BB109
:402300005C1E00E000240023C5F8C83F00E03F242B6813F4006F01D0802300E040239C4204D34FF42071104801F0C6F9D5F8043323F0FF02E3B21343C5F8043338BD012394
:40234000C3668A6B0B6CD0F84003D0540B6C01330B64CB6B013BCB6338BD0223C3660023C0F8C83F38BD00BFFCD80810F8B50B78012B03D00C7A1CB9002702E0002700E080
:402380000127002800F0A780002900F0A680002A00F0A58016460C460546013BDBB2022B03D94F214F4801F087F9637803B163791BB150214B4801F07FF994F90330002B66
:4023C00003DA5121474801F077F9237913F0010F03D05221434801F06FF92369102B03D95321404801F068F9E368102B03D954213C4801F061F9637913B14FF4803100E0BA
:402400000021E27912B14FF4807300E000230B4343F400632B60A37913B94FF4006300E000232269013A02F00F021A43E368013B1B01DBB21343227843EA82732B6617B15F
:4024400040F2073301E040F20713C5F800330FB1254B00E0254B2B6763780BB17F2300E00023C5F80433E3785B00DBB2227943EA0243C5F810331E4BC5F80032A3780BB112
:40248000402300E00123C5F804320023C5F8C83EC5F8883EC5F8C83FC5F8883FC5F8083F2378022B02D040F2D11300E00023C5F8483F63783370A37873704FF080537360B5
:4024C0000020B060B06130623064F0633063F0627064B064F8BD0748F8BD0648F8BD0548F8BD00BF40D9081003002A0013102A00070101000120AA0038B505460C4621B9F5
:4025000040F2C321194801F0D7F82B6E9B0F012B17D1174B2344174A93421ED9A4F5BD13A3F5D66302F5611202F56162934216D9A4F57104A4F533440F4B9C4211D80F485F
:4025400038BD84B1286EC0F303102B6E03F00F0318440230B4FBF0F038BD094838BD094838BD002038BD002038BD00BF40D9081020AD88FF405B730040555C0440420F0097
:40258000801A0600A08601002DE9F84307468846914622B940F21221624801F08DF808F1FF34614B9C4204D940F213215D4801F083F83B6E9B0F012B0DD149463846FFF747
:4025C0009BFF0546D7F8003323F40073C7F80033564B3B67A2E0544B9C421FD8544B984509D8A9F5BD13A3F5D663524A934218D90021012328E0504B984507D84F4B4B4474
:402600004F4A934213D9002101231DE04D4B4B444D4A934212D90021012315E00021012312E0002141F288352E460B460CE000214FF461754FF4C8660B4605E001214FF407
:40264000BE754FF41B760023002B66D13F4BB3FBF9F3B6FBF3F404FB03F2964200D90134102C00D910240F2C8CBF00220122B5FBF3F606FB03F39D4200D90136102E00D98E
:402680001026A519B9FBF5F50FE022B10F2C09D80134002206E00F2E04D801360F2C8CBF00220122A519B9FBF5F5454502D9A3191F2BEAD941B1D7F8003343F40073C7F86B
:4026C0000033234B3B6707E0D7F8003323F40073C7F80033154B3B67E31F092B04D940F283511C4800F0E8FF3B6E23F0F003013C2401E4B223433B66731F0B2B04D94FF446
:40270000B461144800F0D8FF3B6E23F00F03013E06F00F061E433E6600E000252846BDE8F88300BF40D908103F420F0013102A00A0860100502D1900801A060020AD88FF33
:40274000A0432100807E25FFC02BAF0000CA9A3B03002A0080D908102DE9F04182B005460C4617469846089E11F0800F04D04FF4D961314800F0A0FF304B984504D940F215
:40278000C9612D4800F098FF012F04D940F2CA61294800F091FF0023C5F8483F7368B3F1805F41D14FF47A7303FB08F30193244B7360012F14BF00230123737340F2171336
:4027C000C5F8003FD5F8003F0423C5F8C03FD5F8C03FD5F8043243F48033C5F80432D5F8043223F48033C5F80432D5F804326400E4B23C43C5F840420223AB66D5F8004F75
:4028000024F0F804E405E40DD5F8403F03F0C0031C4301A8FFF746FB54EA0001EED032462846FFF7C7FA00E0064840F2D113C5F8483F02B0BDE8F08140D908103789410051
:40284000000013100220AA002DE9F04182B005460F4614469846089E11F0800F04D040F229712A4800F028FF294B984504D940F22A71264800F020FF012C04D940F22B7169
:40288000224800F019FF736813F4801F39D04FF47A7303FB08F301931E4B7360012C14BF0023012373736B6E13F0200F01D0092300E00123AB666B6E13F0200F05D00020D9
:4028C00009E001A8FFF7EEFA00E0002018B9AB6E13F0010FF5D170B97F00FFB23C43C5F84042D5F8000F40F20714044001A8FFF7D9FA2043F5D0324601462846FFF75AFA10
:4029000000E0054802B0BDE8F08100BF40D9081037894100000013100220AA0070B582B005460C461646134B994204D940F28C71114800F0C1FE736813F4801F17D04FF47A
:402940007A7303FB04F401941823AB66D5F8004F24F0EE04E405E40D01A8FFF7A3FA54EA0001F3D032462846FFF724FA00E0034802B070BD3789410040D908100220AA0057
:402980002DE9F04383B0074688461C460A9D914622B94FF4FB61244800F08EFE234B9C4204D940F2D971204800F086FEB8F1010F04D940F2DA711C4800F07EFE6B68B3F55F
:4029C000881F2BD14FF47A7303FB04F40194D7F8C06F06F00406D7F8001F40F201140C4001A8FFF75FFA44EA00010EB90029EED046B1D7F8403389F800300523C7F8C03F55
:402A0000D7F8C03F2A463846FFF7D4F9034630B9B8F1000F03D10422BA6600E0044B184603B0BDE8F08300BF40D90810378941000220AA00F0B583B005460F4614461E46C8
:402A4000134B9A4204D940F63201124800F034FE7368B3F5A01F17D14FF47A7303FB04F40194C5F84072D5F8004F24F0F804E405E40D01A8FFF716FA54EA0001F3D03246D7
:402A80002846FFF797F900E0034803B0F0BD00BF3789410040D908100220AA0070B504460E46D0F88C3E13F0010F07D04FF480534B600123C0F8803ED0F8803ED4F84C5F43
:402AC00040F201131D420FD0336A15F4807F02D04FF4807200E08022134333620023C4F8C83F45F010050EE015F0100F0BD0D4F80833C3F3080333B1F36B23B10123C4F85E
:402B0000C43FC4F8C83FD4F8CC3F13F0010F08D031462046FFF7CCFB0123C4F8C03FD4F8C03F15F0100F0AD031462046FFF702F81023C4F8403FD4F8403FD4F84C5F15F0C9
:402B4000C00F0DD031462046FFF78EFA0123C4F8803ED4F8803EC023C4F8403FD4F8403FD4F88C3F13F0410F08D031462046FFF7ABF90123C4F8803FD4F8803F70BD00BF6E
:402B800070B506460D46D0F8004E14F0020F0AD0836E2BB1002383668B6843F080738B604FF4C0136B6014F0010F05D029463046FFF736F824F0040414F0080F08D029461E
:402BC0003046FFF7FDFA0123C6F8C03FD6F8C03F14F0040F08D029463046FFF7E9F90123C6F8803FD6F8803F6B68B3F5C01F03D129463046FFF764F86B68B3F5B01F03D167
:402C000029463046FFF746F870BD00BF08B54B6813F4801F02D0FFF7B3FF08BDFFF73EFF08BD00BF002800F02481F8B50546002900F0218117460C460B78012B03D93F2179
:402C40008F4800F039FD6378012B07D9052B05D0022B03D040218A4800F02EFDA378032B03D94121864800F027FD2378012B07D16368023B0E2B03D94321814800F01CFDC2
:402C8000A36933F00F0303D044217D4800F014FDA368043B0C2B03D94521794800F00CFDE368043B0C2B03D94621754800F004FD6378022B07D0A268E3689A4203D047215B
:402CC0006F4800F0F9FC636A33F06D0303D049216B4800F0F1FCE36A33F0730303D04A21674800F0E9FC236B33F4206303D04B21634800F0E1FC6378A678052B07D8DFE8A5
:402D000003F0060305060603022600E00026A368082B04D8E368082B03D9002302E0002300E0012313B14FF4006200E00022237F13B14FF4807300E000231A436368013B47
:402D400003F00F03134343F080732B60226A2B6813F4006F01D0802300E040239A4203D35821474800F0A8FCA26A2B6813F4006F01D0802300E040239A4203D3592140482D
:402D800000F09AFC237D0BB9012100E000216278052A01D1022300E000230B43E17C09B1102100E000210B43617C09B1202100E000210B432178012902D14FF0004100E001
:402DC00000210B43B60006F00C063343A169090201F470610B43120602F0407213432B62237C13B14FF4807200E00022A37C13B14FF4007300E000231A43A368013B03F09B
:402E00000F031343C5F8003394F82030C5F80433237C13B14FF4807200E00022E368013B03F00F031343C5F8003294F82830C5F80432636A03F06D03C5F8C83FE36A03F0F4
:402E40007303C5F8883F236B03F40073C5F8003F236B03F40063C5F8403F0023C5F8C83E5FB118463B60BB61FB60FB61054B3B62F8BD054870470448F8BD0020F8BD00BF43
:402E8000C0D90810EFCDAB000140AA00036823F00043036019B100220A60CA608A61036A002B04DB0023C0F8C83FC0F8883F70472DE9F84305460C46036813F4006F02D050
:402EC0004FF0800801E04FF04008D5F8007207F00F07A26A012A19D9D4F82490E262561EB9F1000F00D026B940F27351254800F0E3FB324649462846FEF7B8FDA36A1B1AFC
:402F0000A362072F00D9400048446062D5F80832C3F30803984533D0A36A012B30D10023A362072F02D8636A1E7801E0636A1E8800F02FFCC5F840624FF40073C5F8803F72
:402F4000D5F8803F00F029FCD5F8883F23F4007222F0010242F4007623F4EE6323F0030323B140F22A41084800F0A6FBC5F8886F236843F002032360236B0BB101209847BB
:402F8000BDE8F88300DA0810FCD808102DE9F04105460C46036813F4006F01D0802600E040267608A769D4F81C8017B1B8F1000F04D14FF49961314800F07EFB4246394620
:402FC0002846FEF715FD236A03442362E3691B1AE36173BBA368FBB1E3689E4201D8013E00E05E1E2B6813F4006F01D0802300E040239E4204D34FF42071214800F05CFBBF
:40300000D5F8043323F0FF03F6B21E43C5F804630123C5F8C83F02E00023C5F8C83F636823F001036360236B33B304209847BDE8F081A169D5F8002302F00F02072A00D960
:4030400040000844A0619E4216D95C1E2B6813F4006F01D0802300E040239C4204D34FF42071074800F028FBD5F8043323F0FF02E3B21343C5F80433BDE8F08100DA0810D0
:40308000FCD80810002800F0A48170B50546002900F0A18116460C460B78022B03D93F21A24800F009FB637B023BDBB2062B03D940219E4800F000FBA37B3BB1022B05D0D1
:4030C000032B03D04121994800F0F6FA94F82130012B03D94221954800F0EEFA94F82830012B03D94321914800F0E6FA2378012B06D86368083B082B94BF0023012307E04F
:40310000A37F2BB16368013B062B94BF002301231BB14521854800F0CFFAA368053B042B03D94621814800F0C7FA6369FF2B03D947217E4800F0C0FAA369FF2B03D94821AB
:403140007A4800F0B9FAA37C6BB1237833B9A368092B05D1A37B2BB1012304E0012302E0012300E000231BB14A21704800F0A4FA636B23F4366323F00D031BB14C216B48DA
:4031800000F09AFAE36B23F4EE6323F003031BB14D21664800F090FA2378022B01D1A37F13B16268013A00E00022237F13B14FF4803100E00021A368082B02D84FF40063BA
:4031C00000E000230B4302F00F02134343F000732B60226B2B6813F4006F01D0802300E040239A4203D36221504800F065FAA26B2B6813F4006F01D0802300E040239A42E2
:4032000003D36321494800F057FA626A2B6813F4006F01D0802300E040239A4203D36421424800F049FA23781B0603F040732B64637F0BB1402200E00022A37C13B14FF4C9
:40324000806300E000231343227C12B14FF4807200E000221343627C12B14FF4007200E000221A43E36A013B1B0403F470231343627B013A02F007021343A27B120102F05C
:4032800030021343AB64237B13B14FF4807200E00022E37B23B92378022B03D1012302E0012300E0002313B14FF4007300E000231A43A368013B03F00F031343C5F800336F
:4032C000227DA3691B0403F47F031343C5F81033E26AD5F8003303F00F0303339A4201D3102A03D97A21114800F0E6F9E37F23B12378012B03D0002302E0002300E0012329
:4033000013B14FF4807200E00022637B013B03F007031A43A37B1B0103F0300313436B64237B2BB14FF4807203E000BF40DA08100022A368013B03F00F0313432278012A8D
:4033400002D14FF4803200E000221343C5F8003294F83030C5F8043394F8203013B14FF0007200E0002294F82130012B02D14FF0807300E00023134394F82820012A02D1D2
:403380004FF4803200E00022134394F8242013432B6594F83830C5F80432636B23F4926323F002031B051B0DC5F8C83FE36B23F08C035B055B0DC5F8883F76B100207060D2
:4033C0003060B060F0603062F0623063044B736370BD04487047034870BD002070BD00BFEFCDAB000160AA000B694A69934202D34869181A7047CA694869101A184470478F
:403400002DE9F04107460D46036813F4006F02D04FF0800801E04FF040084FEA5808D7F80863C6F308062C6926E00134EB689C4200D100246B699C420FD12B6B0BB1082027
:4034400098476B699C4208D10023C7F8C83F0CB1013C13E0EC68013C10E0D7F84023D7F8003303F00F03072B02D8AB681A5502E0AB6823F81420013E002ED6D12C61EC688B
:4034800029463846FFF7B0FF201A804519D908B1441E00E000243B6813F4006F01D0802300E040239C4204D34FF42071064800F003F9D7F8040320F0FF03E0B21843C7F843
:4034C0000403BDE8F08100BFFCD8081038B504460D46D0F8003E13F0080F35D0D0F8CC3F13F448730AD04A681A434A60C0F8C03FD0F8C03F0B6B0BB110209847D4F8CC3F97
:4035000013F4006F09D06B6843F400636B604FF40063C4F8C03FD4F8C03FD4F8CC3F13F0010F11D0EB6923B129462046FFF72EFD05E0AB681BB129462046FFF761FF0123DC
:40354000C4F8C03FD4F8C03FD4F8003E13F0040F2ED0D4F88C3F13F4A0630AD02A681A432A60C4F8803FD4F8803F2B6B0BB120209847D4F88C3F13F0010F08D029462046E5
:40358000FFF796FC0123C4F8803FD4F8803FD4F88C3F13F4007F0BD00022C4F8882F2B6823F001032B60EA622B6B0BB10220984738BD00BF38B50D4B9A680D4B9A420FD1E9
:4035C0000D46044621B940F237110A4800F074F804F11003064A52F8230042F8235038BD1030054B53F8200038BD00BF00ED00E00040020880DA08100000081048B338B58D
:4036000004460D464368072B03D93221134800F053F8B4F900306268002B08DB5201D2B203F1604303F5614383F8002305E003F00F035201D2B20A49CA540A4B9A680A4B10
:403640009A4208D12946B4F90000FFF7B3FF002038BD06487047002038BD00BF80DA081014ED00E000ED00E0004002080100560010B5044605E0084B186800F081F8A4F559
:403680000044B4F5004FF6D8044B186800FB04F000F076F810BD00BFA8420208A442020808B5034B1B7800FB03F000F069F808BDA042020801BEFEE738B50D46044C182278
:4036C0000146204609F08FFFA5610020FFF7F2FFD0490208FEE700BF08B50268254BDA6142681A6282685A62C2689A620269DA6242691A6382695A63C2699A631E4A916AFC
:40370000D963D16A1964516A5964516B9964926BDA64F1EE103A13F0900F27D0026A154B1A65426A5A65826A9A65C26ADA65026B1A66426B5A66826B9A66C26BDA66026C39
:403740001A67426C5A67826C9A67C26CDA67026DC3F88020426DC3F88420826DC3F88820C26DC3F88C20026EC3F89020FFF7B2FF08BD00BFD049020800ED00E00000000045
:403780000230800803D001300238FCD100BF00BF7047EFF3108072B6704780F31088704700287DD00346002A7CD070B45068000280B29568AD0405F480252843D46824049D
:4037C00004F4403404431069000600F0E0602043147F0CB1012400E0002420430C1DA4011851D06828B903EB81100024C0F808410CE0012805D1146803EB8110C0F808414D
:4038000004E003EB81100124C0F80841106938B9546903EB8110C0F80C419469C0F81041146803EB8110C0F81441906CB0F1FF3F17D0946A04F00F04166B360206F47066F6
:403840003443956B2D0405F470252543146C2403A4B22C430001C0B2204303EB8114C4F82001506A00F00300D66A360106F030063043556B2D0205F440752843D46BA40159
:40388000E4B20443506C800000F00C00204303EB8113C3F82401126AC3F83821002003E0024870470148704770BC70470100B600014B1860704700BFDCB4030800F108032F
:4038C00043604FF0FF328260C360036100230360704700BF00230361704700BF43684B609A688A609A68516099600861036801330360704730B40D68B5F1FF3F01D10269C9
:4039000007E000F1080200E01A4653681C68A542FAD253684B6099608A605160086103680133036030BC704703694268816891608268416851605A68904201D182685A602D
:40394000002202611A68013A1A601868704700BF436A23B1036B1868C0F1070070470020704700BF10B5044601F0CCFBA26BE36B9A4201D1012400E0002401F0E5FB2046F1
:4039800010BD00BF10B5044601F0BCFBA36B0BB9012400E0002401F0D7FB204610BD00BF70B504461646856B026C3AB9036843BB406801F0BDF80023636029E06EB9806843
:4039C00009F0E3FDA268236C1344A3606268934219D32368A36000201AE0C06809F0D5FD236C5B42E2681A44E26021688A4202D262681344E360022E07D145B1013D0020D6
:403A000006E0002004E0002002E0002000E000200135A56370BD00BF026C72B110B50346C4681444C4604068844201D31868D8600846D96809F0A9FD10BD704738B5054625
:403A400001F060FB95F8454064B20AE06B6A53B105F1240000F06CFF08B100F0F7FF013C64B2002CF2DCFF2385F8453001F06CFB01F048FB95F8444064B20AE02B6953B165
:403A800005F1100000F054FF08B100F0DFFF013C64B2002CF2DCFF2385F8443001F054FB38BD00BF38B540B94FF03F0383F31188BFF36F8FBFF34F8FFEE704460D4601F0B9
:403AC00021FB2168E26B236C03FB021060600020A063A160013A02FB0313E360FF2384F8443084F845307DB92369ABB104F1100000F01EFF80B14FF08052094B1A60BFF3CB
:403B00004F8FBFF36F8F07E004F11000FFF7D6FE04F12400FFF7D2FE01F016FB012038BD04ED00E010B5029B0C4609B91B6000E01A60D8631C6401211846FFF7B3FF10BD7E
:403B400040B94FF03F0383F31188BFF36F8FBFF34F8FFEE7F0B583B0034611B101FB00F000E000201D4617460C46483001F00CFC064638B100903B4600F1480221462846EF
:403B8000FFF7D0FF304603B0F0BD00BFF0B585B0019240B94FF03F0383F31188BFF36F8FBFF34F8FFEE7044619B9026C1AB9012202E0012200E0002242B94FF03F0383F317
:403BC0001188BFF36F8FBFF34F8FFEE7022B03D1E26B012A02D102E0012200E0002242B94FF03F0383F31188BFF36F8FBFF34F8FFEE71D460E4600F037FF18B9019B1BB9E6
:403C0000012302E0012300E0002343B94FF03F0383F31188BFF36F8FBFF34F8FFEE7002701F070FAA26BE36B9A4201D3022D21D12A4631462046FFF7B3FE636A6BB104F126
:403C4000240000F075FE88B14FF08052324B1A60BFF34F8FBFF36F8F08E038B14FF080522D4B1A60BFF34F8FBFF36F8F01F06CFA01204EE0019B1BB901F066FA002048E079
:403C80001FB902A800F098FE012701F05DFA00F0ADFC01F037FA94F844305BB2B3F1FF3F02D1002384F8443094F845305BB2B3F1FF3F02D1002384F8453001F045FA01A94B
:403CC00002A800F083FEF0B92046FFF74BFEA0B1019904F1100000F0F3FD2046FFF7AEFE00F012FD00289BD14FF080520A4B1A60BFF34F8FBFF36F8F92E72046FFF79EFE5F
:403D000000F002FD8CE72046FFF798FE00F0FCFC002005B0F0BD00BF04ED00E048B108B5002141600160C1600B460A46FFF72EFF08BD704710B5024600210120FFF700FFB7
:403D40000446FFF7EBFF204610BD00BF2DE9F84340B94FF03F0383F31188BFF36F8FBFF34F8FFEE7044619B9006C18B9012002E0012000E0002040B94FF03F0383F3118822
:403D8000BFF36F8FBFF34F8FFEE7022B03D1E06B012802D102E0012000E0002040B94FF03F0383F31188BFF36F8FBFF34F8FFEE71F469046894601F0A9FAEFF311864FF08F
:403DC0003F0383F31188BFF36F8FBFF34F8FA26BE36B9A4201D3022F1ED194F845506DB23A4649462046FFF7DBFDB5F1FF3F0DD1636A9BB104F1240000F09AFD80B1B8F12F
:403E0000000F0FD00120C8F800000CE06B1C5BB284F84530012006E0002004E0012002E0012000E0012086F31188BDE8F88300BF40B94FF03F0383F31188BFF36F8FBFF336
:403E40004F8FFEE770B50446036C43B14FF03F0383F31188BFF36F8FBFF34F8FFEE703681BB943681BB9012302E0012300E0002343B94FF03F0383F31188BFF36F8FBFF31F
:403E80004F8FFEE70E4601F041FAEFF311854FF03F0383F31188BFF36F8FBFF34F8FA26BE36B9A4218D294F845305BB20132A263B3F1FF3F0AD1636A83B104F1240000F049
:403EC00037FD68B176B1012030600CE001335BB284F84530012006E0002004E0012002E0012000E0012085F3118870BDF0B585B0019240B94FF03F0383F31188BFF36F8F6B
:403F0000BFF34F8FFEE7044619B9036C1BB9012302E0012300E0002343B94FF03F0383F31188BFF36F8FBFF34F8FFEE70E4600F09BFD18B9019B1BB9012302E0012300E0A8
:403F4000002343B94FF03F0383F31188BFF36F8FBFF34F8FFEE7002701F0D4F8A56BC5B131462046FFF758FD013DA563236963B104F1100000F0DCFC38B14FF08052304BB3
:403F80001A60BFF34F8FBFF36F8F01F0DDF8012053E0019B1BB901F0D7F800204DE01FB902A800F009FD012701F0CEF800F01EFB01F0A8F894F844305BB2B3F1FF3F02D1FD
:403FC000002384F8443094F845305BB2B3F1FF3F02D1002384F8453001F0B6F801A902A800F0F4FCF0B92046FFF7CCFCA0B1019904F1240000F064FC2046FFF71FFD00F07B
:4040000083FB0028A8D14FF080520D4B1A60BFF34F8FBFF36F8F9FE72046FFF70FFD00F073FB99E72046FFF709FD00F06DFB2046FFF7A8FC00288FD0002005B0F0BD00BFF0
:4040400004ED00E070B584B0019140B94FF03F0383F31188BFF36F8FBFF34F8FFEE70446036C43B14FF03F0383F31188BFF36F8FBFF34F8FFEE700F0F7FC18B9019B1BB950
:40408000012302E0012300E0002343B94FF03F0383F31188BFF36F8FBFF34F8FFEE700252E4601F02FF8A36BCBB1013BA363236813B900F0DDFD6060236963B104F110001F
:4040C00000F036FC38B14FF08052414B1A60BFF34F8FBFF36F8F01F037F8012076E0019B6BB945B14FF03F0383F31188BFF36F8FBFF34F8FFEE701F027F8002066E01EB90F
:4041000002A800F059FC012601F01EF800F06EFA00F0F8FF94F844305BB2B3F1FF3F02D1002384F8443094F845305BB2B3F1FF3F02D1002384F8453001F006F801A902A834
:4041400000F044FC40BB2046FFF71CFCF0B123683BB900F0D7FF606800F096FC054600F0F3FF019904F1240000F0AAFB2046FFF765FC00F0C9FA002893D14FF08052144B8F
:404180001A60BFF34F8FBFF36F8F8AE72046FFF755FC00F0B9FA84E72046FFF74FFC00F0B3FA2046FFF7EEFB00283FF47AAF65B100F0A8FF2046FFF7CBFB0146606800F03E
:4041C00001FD00F0C1FF002000E0002004B070BD04ED00E000230BE0074A52F8332032B9054A42F8331002EBC303586070470133092BF1D9704700BFE0B4030870B50446B4
:404200000D46164600F07EFF94F844305BB2B3F1FF3F02D1002384F8443094F845305BB2B3F1FF3F02D1002384F8453000F08CFFA36B2BB93246294604F1240000F05AFB04
:404240002046FFF7FBFB70BD094B9B6A1B680BB9012300E0002323B14FF0FF32044BDA627047034B9A6AD268D2685268DA627047A0E3020810B50446006B01F0B5F82046F4
:4042800001F0B2F810BD00BF2DE9F04780460D4616469946DDF820A0099F0A9C9200A521206B09F098F9236B06F18042013A03EB820626F00706002306E0E95CE21882F809
:4042C0003410EA5C12B101330F2BF6D9002384F84330BAF1060F01D94FF0060AC4F82CA0C4F844A00025A564201DFFF7F3FA04F11800FFF7EFFA2461CAF10703A3616462C3
:404300002B4606E003F1120204EB8202002151600133042BF6D90023236684F864304A464146304600F0C6FE206007B13C60BDE8F08700BF70B5002407E004EB84029300C3
:4043400010481844FFF7BAFA0134062CF5D90E4C04F1BC063046FFF7B1FA04F1D0052846FFF7ACFA04F11400FFF7A8FA04F1E400FFF7A4FA2046FFF7A1FAA662C4F8F8509D
:4043800070BD00BFD0E30208A0E3020838B5044600F0B8FE264BD3F8FC200132C3F8FC20D3F800314BB9224BC3F80041D3F8FC30012B10D1FFF7BEFF0DE01D4BD3F8043113
:4043C0004BB91B4BD3F80031DA6AE36A9A4202D8174BC3F80041164AD2F808310133C2F80831E36AD2F80C21934202D9104AC2F80C310F4D05F1300003EB83039A00211D15
:404400001044FFF76BFA00F09FFED5F804316BB1D5F80031DA6AE36A9A4207D24FF08052044B1A60BFF34F8FBFF36F8F38BD00BFA0E3020804ED00E038B517E000F062FE7E
:404440000D4CD4F8F030DD68281DFFF76DFAD4F8FC30013BC4F8FC30D4F81031013BC4F8103100F071FE2846FFF704FF024BD3F81031002BE2D138BDA0E3020808B5FFF77C
:40448000DBFF064B1B6B012BF9D94FF08052044B1A60BFF34F8FBFF36F8FF0E7A0E3020804ED00E070B504460E46174BD3F81451D3F800010430FFF737FAB4F1FF3F07D1C7
:4044C00036B11148D0F800110431FFF707FA70BD2C440D4BD3F800315C60A54208D90A4BD3F8F800D3F800110431FFF703FA70BD054DA86AD5F800110431FFF7FBF9EB6A03
:404500009C4200D2EC6270BDA0E302082DE9F04385B006460F4615469846900000F034FF60B18146682000F02FFF044610B1C0F8309004E0484600F057FF00E000248CB1BE
:404540000023039302940D9B01930C9B009343462A4639463046FFF797FE2046FFF716FF012001E04FF0FF3005B0BDE8F08300BF00B583B0194B01930023009380221849F7
:404580001848FFF7C3FF012801D100F0D7FB012814D14FF03F0383F31188BFF36F8FBFF34F8F114B4FF0FF32DA620122C3F804210022C3F8142100F047FE0BE0B0F1FF3F2C
:4045C00008D14FF03F0383F31188BFF36F8FBFF34F8FFEE703B05DF804FB00BFBCE4020834DC08107D440810A0E30208034AD2F818310133C2F81831704700BFA0E3020895
:40460000014BD3F814017047A0E302082DE9F0413C4BD3F81831002B65D13A4BD3F814410134C3F81441CCB99B6A1B6843B14FF03F0383F31188BFF36F8FBFF34F8FFEE727
:40464000304B9A6AD3F8F8109962C3F8F820D3F820210132C3F82021FFF7F6FD294BDB6A9C4203D2002645E0012600E00026254B9B6A1B680BB9012300E0002323B14FF01C
:40468000FF32204BDA6235E01E4B9B6ADB68DD686B689C4202D21B4AD3622BE005F104084046FFF741F9AB6A1BB105F11800FFF73BF9EB6A134AD2F80C21934202D9114A68
:4046C000C2F80C310F4F07F1300003EB83039A0041461044FFF702F9EA6AD7F80031DB6A9A42C1D2C3E7074AD2F824310133C2F824310026034BD3F8283103B10126304615
:40470000BDE8F081A0E30208394BD3F8183143B94FF03F0383F31188BFF36F8FBFF34F8FFEE770B500F0EEFC314BD3F81821013AC3F81821D3F81831002B52D12C4BD3F83B
:40474000FC303BBB00244FE0294D2B6ADC6804F11800FFF7E9F8261D3046FFF7E5F8E36AD5F80C21934201D9C5F80C31204D05F1300003EB83039A0031461044FFF7AEF80D
:40478000E26AD5F80031DB6A9A4204D30122C5F8282100E00024164B5B69002BD4D10CB1FFF752FD124BD3F8244164B1FFF72EFF18B101220E4BC3F82821013CF6D100225F
:4047C0000B4BC3F824210A4BD3F828315BB14FF08052084B1A60BFF34F8FBFF36F8F012402E0002400E0002400F0AEFC204670BDA0E3020804ED00E0304BD3F8183123B1A3
:4048000001222E4BC3F82821704710B52B4B0022C3F82821D3F800311B6B1A68B2F1A53F0BD15A68B2F1A53F07D19A68B2F1A53F03D1DB68B3F1A53F07D0204BD3F8000102
:40484000D3F80011343100F08DFD1C4BD3F80C310AE043B94FF03F0383F31188BFF36F8FBFF34F8FFEE7013B03EB83018A0013490A44126B002AECD008469900CC18A200C1
:404880000244546B64685463303019448A0008320244944206D1606803EB83018A0007490A445063054903EB830082000A44526BD268C1F80021C1F80C3110BDA0E3020837
:4048C00040B94FF03F0383F31188BFF36F8FBFF34F8FFEE710B50C46054BD3F800111831FFF708F801212046FFF7DCFD10BD00BFA0E3020838B540B94FF03F0383F31188A2
:40490000BFF36F8FBFF34F8FFEE70C461546074AD2F800111831FEF7E1FF0DB14FF0FF3429462046FFF7BEFD38BD00BFA0E3020838B5C368DC6844B94FF03F0383F311887B
:40494000BFF36F8FBFF34F8FFEE704F118052846FEF7EAFF154BD3F81831ABB9251D2846FEF7E2FFE36A114AD2F80C21934202D90E4AC2F80C3103EB83039A0029460C48E7
:404980001044FEF7ABFF03E029460A48FEF7A6FFE26A064BD3F80031DB6A9A4204D90120024BC3F8280138BD002038BDA0E30208D0E30208B4E30208034BD3F8202102602C
:4049C000D3F8143143607047A0E30208F8B540B94FF03F0383F31188BFF36F8FBFF34F8FFEE7054641B94FF03F0383F31188BFF36F8FBFF34F8FFEE70C4600F083FB124B4E
:404A0000D3F814016968421A2368B3F1FF3F14D02F680D4ED6F82061B74201D088420ED29A4206D29B1A23602846FFF7C5FF002406E000232360012402E0002400E001246F
:404A400000F082FB2046F8BDA0E302080122024BC3F82821704700BFA0E30208014BD3F800017047A0E30208064BD3F804312BB1044BD3F818311BB9022070470120704739
:404A800000207047A0E30208002849D038B50346C26A2549D1F80011C96A8A4237D28169002906DB2049D1F80011C96AC1F107018161586902EB820291001C4A1144884251
:404AC00001D1012200E00022D2B11D461C1D2046FEF72AFF144AD2F80031DB6AEB62D2F80C21934202D9104AC2F80C3103EB83039A0021460D481044FEF7F0FE012038BD22
:404B0000094AD2F80021D26ADA62012038BD426C054BD3F80031DB6A9A4203D3002038BD00207047012038BDA0E30208D0E3020800283DD038B50346204AD2F800219042DA
:404B400008D04FF03F0383F31188BFF36F8FBFF34F8FFEE7826C42B94FF03F0383F31188BFF36F8FBFF34F8FFEE7013A8264C06A596C88421ED0FAB91C461D1D2846FEF790
:404B8000D3FE636CE362C3F10702A2610B4AD2F80C21934202D9094AC2F80C3103EB83039A00294606481044FEF798FE012038BD00207047002038BD002038BDA0E30208BC
:404BC000D0E3020800284DD038B50346806C40B94FF03F0383F31188BFF36F8FBFF34F8FFEE75A6C8A4200D20A46D96A8A4238D0012836D11C48D0F80001834208D14FF0DE
:404C00003F0383F31188BFF36F8FBFF34F8FFEE7DA629869002802DBC2F107029A61586901EB81018A0011490A44904201D1012200E00022AAB11C461D1D2846FEF774FE0F
:404C4000E36A094AD2F80C21934202D9064AC2F80C3103EB83039A00294604481044FEF73DFE38BD704700BFA0E30208D0E30208064BD3F800312BB1044BD3F80021936C41
:404C800001339364014BD3F800017047A0E30208064B1A681368B3FA83F35B09036013B9D368186870470020704700BFCCE4020808B54160006191420AD8D21A83699A427F
:404CC00011D2011D0A4B5868FEF714FE002008BD9A4201D2994208D2011D054B1868FEF709FE002008BD012008BD012008BD00BFCCE4020870B500F005FA0E4B9B68B3B95E
:404D00000C4C04F10C063046FEF7D8FD04F120052846FEF7D3FD2660656000220C210A20FEF70EFFA06010B10349FFF753FA00F00BFA70BDCCE402083CDC081000B583B07D
:404D4000FFF7D8FF0D4B9B6853B10D4B019303230093002380220B490B48FFF7D7FB00E0002040B94FF03F0383F31188BFF36F8FBFF34F8FFEE703B05DF804FBCCE40208BF
:404D800000E5020844DC08102150081040B94FF03F0383F31188BFF36F8FBFF34F8FFEE730B585B015460446124A9068F0B11A46019102950394052913DCFFF755FE022831
:404DC00007D10023089A01A90A488068FEF7DEFE0DE000231A4601A906488068FEF7D6FE05E0002301A9FEF7B1FF00E0002005B030BD00BFCCE4020870B582B029E0DB6833
:404E00001E68DC68251D2846FEF78EFD636A20469847E369012B1CD1A36933449E4207D2636024612946104B1868FEF763FD10E0002100910B4632462046FFF7A7FF40B978
:404E40004FF03F0383F31188BFF36F8FBFF34F8FFEE7054B1B681A68002AD0D1024A51681160536002B070BDCCE4020838B50546FFF7C6FB0446074B9B6B984204D2FFF764
:404E8000BBFF01232B6001E000232B60014B9C63204638BDCCE4020870B582B005460E46134B1B68DB68DC68201DFEF73DFDE369012B18D1A1692B46324629442046FFF7B3
:404EC000F7FE80B1002100910B462A462046FFF75DFF40B94FF03F0383F31188BFF36F8FBFF34F8FFEE7636A2046984702B070BDCCE4020870B582B006460C46FFF776FBAC
:404F000001A8FFF7B3FF019B1BBB054644B9B04206D3FFF7F9FB29463046FFF7BDFF1AE02CB10E4B5B681C68B4FA84F464092246711B0A4B9868FFF761F9FFF7E5FB50B998
:404F40004FF08052064B1A60BFF34F8FBFF36F8F01E0FFF7D9FB02B070BD00BFCCE4020804ED00E030B587B04DE0039B002B4ADB059C636913B1201DFEF7D6FC02A8FFF735
:404F800075FF039B092B3ED8DFE803F00505053D273A05053D270499A5690B46024629442046FFF785FE70B3636A20469847E369012B28D1A269002100910B46049802449A
:404FC0002046FFF7E3FEF0B94FF03F0383F31188BFF36F8FBFF34F8FFEE70499A16141B94FF03F0383F31188BFF36F8FBFF34F8FFEE70346024601442046FFF759FE02E05D
:40500000204600F0F1F9002203A9044B9868FEF76DFF0028A9D107B030BD00BFCCE4020800B583B001A8FFF733FE0199FFF762FFFFF798FFF6E700BF82B0002301930D4BE0
:405040001B68B3F1FF3F08D04FF03F0383F31188BFF36F8FBFF34F8FFEE74FF03F0383F31188BFF36F8FBFF34F8F019B002BFCD002B070479443020808480068006880F3FE
:4050800008884FF0000080F3148862B661B6BFF34F8FBFF36F8F00DF00BF000008ED00E0DFF80C00016841F4700101607047000088ED00E04FF0807340F8043C21F0010114
:4050C00040F8081C054B40F80C3C40F8202C6FF0020340F8243C4438704700BF39500810074B19680868B0E8F04F80F30988BFF36F8F4FF0000080F311887047AFF300807F
:40510000A0E402084FF03F0383F31188BFF36F8FBFF34F8F0A4A136801331360012B0DD1084B1B6813F0FF0F08D04FF03F0383F31188BFF36F8FBFF34F8FFEE7704700BFA7
:405140009443020804ED00E0094B1B6843B94FF03F0383F31188BFF36F8FBFF34F8FFEE7013B034A13600BB983F31188704700BF94430208000000000000000000000000CF
:40518000EFF30980BFF36F8F154B1A681EF0100F08BF20ED108A20E9F04F10602DE909004FF03F0080F31188BFF34F8FBFF36F8FFFF722FB4FF0000080F3118809BC196812
:4051C0000868B0E8F04F1EF0100F08BFB0EC108A80F30988BFF36F8F704700BFAFF30080A0E4020808B54FF03F0383F31188BFF36F8FBFF34F8FFFF709FA18B14FF0805204
:40520000024B1A60002383F3118808BD04ED00E0084A0023136008490B60084B1B680849A1FB03139B09013B06490B6007231360704700BF10E000E018E000E09842020829
:40524000D34D621014E000E010B582B02A4B1A78D2B20192FF221A701B78DBB28DF803309DF80330254A03F03F0313700723536009E0224A5368013B53609DF803305B0042
:40528000DBB28DF803309DF8033013F0800FF0D11A4B5B68042B08D04FF03F0383F31188BFF36F8FBFF34F8FFEE71B0203F4E063124A5360019BDBB20F4A1370104B1A6862
:4052C00042F47F021A601A6842F07F421A60FFF79FFF00240B4B1C60FFF7E2FE0A4A136843F040431360FFF7C7FEFFF785FAFFF7A3FE204602B010BD00E400E008E50208CF
:4053000020ED00E09443020834EF00E0EFF305830F2B0FD9104A9B5CDBB2104A1278934208D24FF03F0383F31188BFF36F8FBFF34F8FFEE70A4B1B6803F4E063074A5268CD
:40534000934208D94FF03F0383F31188BFF36F8FBFF34F8FFEE77047F0E300E008E502080CED00E008B54FF03F0383F31188BFF36F8FBFF34F8F4FF441710248FEF79CF932
:40538000FEE700BF4CDC081038B5044610F0070F02D020F007040834FFF728F9104B1B682BB90F4A02F10C0323F0070313600D4BD3F82C3B1C4445F6F772944208D8A342A6
:4053C00008D2074A15681D44064BC3F82C4B02E0002500E00025FFF797F9284638BD00BF10E50208E839030840B14FF03F0383F31188BFF36F8FBFF34F8FFEE7704700BF26
:40540000024BD86800F08000704700BF30B5030808B502490248FDF7F9FB08BDD4B503080000634010B5144B1B788BB9134C144A14492046FCF79AFF134A14492046FDF7B8
:40544000A3F813491348FEF7D9F801220A4B1A70104BB3F90030002B08DB590903F01F03012202FA03F30C4A42F82130034A136843F00043136010BD1845030800006340D7
:40548000D4B503089CDC081013607500801A0600115408106CD7081000E100E008B502490248FEF713F808BD20B603080000664008B5114B1B785BB9104A11491148FDF748
:4054C000E1FD11491148FEF799F801220A4B1A700E4BB3F90030002B08DB590903F01F03012202FA03F30A4A42F82130054A136843F00043136008BD1945030820B6030823
:40550000B0DC0810000066409D5408105CD7081000E100E0000000002DE9F04FDFF8F4928DB006460F4614461D4600F079F999F90080B8F1FF3FCDE9000145D022462B46BF
:405540002046294607F0C8FC834600283CD132463B463046394607F0BFFC8246002840F08580304639460022002307F083FC80B3002200232046294607F07CFC8346A8B14A
:405580009FED9D7B01229E4BCDF828A00292CDE90467CDE906458DED087B0393B8F1000F53D0984900200DB0BDE8F08F2046294600F054FF40B1002200232046294607F08E
:4055C00063FC002840F0BA80DDE900010DB0BDE8F08FDDE9000100F041FF804600285FD04FF0000A4FF0000BDDE9000152465B4607F040FC0028E7D03046394600F02EFF47
:405600000028E1D02046294600F028FF0028DBD099F900307A4A039204210022022BCDE90467CDE90645CDE908AB02910A9203D002A800F019FF70B907F088FF22230360B5
:4056400009E09FED6D7B8DED087B02A800F00CFF002800F089800A9B1BB107F077FF0A9B0360DDE908010DB0BDE8F08F002200232046294607F0FEFB0028A5D06149604B78
:40568000CDF828B000200122B8F1020FCDE904670292CDE90645CDE908010393D5D195E73046394600F0DAFE002899D02046294600F0D4FE002893D0DDE900231046194615
:4056C00007F00AFC00287AD1032399F9008002934B4B0A90CDE90467CDE906450393B8F1000F46D1DFF830B14FF0604A0022002330463946CDE908AB07F0C6FB002897D02B
:405700000022414B2046294607F04CF904460D4600F0B2FE02460B462046294607F0AAFB002849D1394B99F900804FF06042CDE90823B8F1020F7FF47BAF7DE799F900304C
:405740002F4ACDF828B00121CDE90467CDE9064502910392002B3FF474AF2D490020022BCDE908017FF471AF07F0F0FE2123036071E7DFF8A8B04FF0000A002200233046FA
:405780003946CDE908AB07F07FFB0028D1D000221D4B2046294607F005F904460D4600F06BFE02460B462046294607F063FB18B9174B0022CDE9082399F90080B9E799F940
:4057C00000900F4BCDF828800122CDE90467CDE9064502920393B9F1000F3FF432AF002200231046194607F007FAB9F1020FCDE90801B9D029E700BF000000000000000052
:40580000F0DC08100000F03F0000E03FFFFFEFC70000F0FF98430208FFFFEF470000F07F2DE9F04F23F0004757EA020493B037D0674C21F00046A64283460D4629DC9A46D8
:40584000964625D0A74224DC614CA74279D0002D80468946CDE9002377DB0024BEF1000F2CD15B4B9F4200F08B805A4B9F4261D0BAF1804F00F0C283574B9A451ED1002D3E
:405880001CDB4046494613B0BDE8F04F00F020BD58B106F1404606F5801656EA0B0306D14C49002013B0BDE8F08FB742CCDD4B4813B0BDE8F04F00F0D9BD002440464946F5
:4058C00000F0C8FDBBF1000F19D126B1414B25F040429A4213D1BAF1000FC0F2C983002DE0DA06F1404606F5801656EA040300F0A184012CD6D101F100494946D2E7ED0F38
:40590000013D54EA05034ED0354B9F426EDD03F104739F4240F3EE83324B9E424EDDBAF1000F4EDD28A3D3E900231046194607F039F8B7E7BAF1000FC0F24E844046494644
:40594000B0E7BEF1000F82D0A3E7274B9F4228DCA3F154739F4280DD3B15A3F2FF33142B40F35084C3F134032EFA03F202FA03F39E457FF472AF02F00102C2F102046DE736
:4059800006F1404303F5801353EA0B0388D0154B9E4240F36383BAF1000F12DBDDE9000180E702245AE742464B461046194606F045FE02460B4607F01FF973E7BAF1000FE7
:4059C000B0DB002000216DE79C7500883CE4377E0000F07F0000F03F0000E03F38DC08100000E041FFFFEF3FFFFF3F43B6F5801F4FF0000205DAD84B06F0D4FF6FF0340278
:405A00000E463315D54FC6F31306A3F2FF33134446F07F5ABE421A460D934AF4401A40F3CF83CF4B9E4240F309849FEDB57B8DED087B8DED0E7B9FEDB47B13468DED067B05
:405A400001330D93AAF5801A0027DDE906235146CDE90A0106F0F2FDDDE9062380468946DDE90A0106F0ECFD02460B460020BD4907F0C2F80A460146CDE9101213464946CB
:405A80000246404606F08EFF4FEA6A0343F000538C46834603F50023CDE904BCDA468B46D9190023CDE902AB0293DDE902AB002006460F4602460B465046594606F072FFD6
:405AC00002460B464046494606F0B8FDDDE90623804689463046394606F0B0FD02460B46DDE90A0106F0AAFD52465B4606F05AFF02460B464046494606F0A0FDDDE9102368
:405B000006F050FFDDE90467CDE9060132463B463046394606F046FF7DA3D3E9002306460F4606F03FFF7CA3D3E9002306F088FD32463B4606F036FF79A3D3E9002306F0A7
:405B40007FFD32463B4606F02DFF77A3D3E9002306F076FD32463B4606F024FF74A3D3E9002306F06DFD32463B4606F01BFF72A3D3E9002306F064FD3246804689463B46E2
:405B80003046394606F00EFF02460B464046494606F008FF524606460F465B46DDE9040106F04EFDDDE9062306F0FCFE32463B4606F046FD5246804689465B465046594648
:405BC00006F0F0FE0022684BCDE90A0106F038FD42464B4606F034FD02980F46064632463B465046594606F0DDFE002282468B465D4B3046394606F021FDDDE90A2306F031
:405C00001DFD02460B464046494606F017FDDDE9042306F0C7FE3246804689463B46DDE9060106F0BFFE02460B464046494606F007FD8046894602460B4650465946CDE91B
:405C400004AB06F0FDFCDDE902AB3DA3D3E9002350460F4606F0A6FEDDE90423CDE902013946504606F0EAFC02460B464046494606F0E4FC34A3D3E9002306F093FE34A3A0
:405C8000D3E90023804689465046394606F08AFE02460B464046494606F0D2FCDDE90E2306F0CEFC80460D98894606F015FE424606460F464B46DDE9020106F0C1FCDDE975
:405CC000082306F0BDFC32463B4606F0B9FC32463B4650468B4606F0B1FCDDE9082306F0ADFCDDE9022306F0A9FC02460B464046494606F0A3FC8046894637E0AFF30080FC
:405D00000000000000000000000000000000F03FEF4E454A287ECA3F65DBC9934A86CD3F01411DA96074D13F4D268F515555D53FFFAB6FDBB66DDB3F033333333333E33FEF
:405D4000000000E009C7EE3FFD033ADC09C7EE3FF5015B14E02F3EBE000040438E98030079B60B000000F03F00000840013C54EA050300F06E819FEDC27B8DED047BDDE97C
:405D800000120B461446CDE9023400230293DDE9024508462B461146224606F04FFC52465B4606F0FFFDDDE9002306460F464046494606F0F7FD02460B463046394606F07E
:405DC0003FFC2246804689462B4650465946CDE9008906F0E7FD0B46024606460F464046494606F02DFCBE4B994204460D468A4640F30B8101F13F4303F5E003034340F069
:405E0000F381A1A3D3E90023DDE9000106F018FC3246804689463B462046294606F00EFC02460B464046494607F04CF8002840F0DB81A8464FEA28534FF48012A3F2FE33BD
:405E400042FA03F35344C3F30A52A64DA2F2FF321541C3F3130B0020C2F1140423EA05014BF4801BBAF1000F02460B464BFA04FB30463946B8BFCBF1000B06F0DFFB0246AB
:405E80000B4606460F46DDE9000106F0D9FB4FEA0B5A00247EA3D3E9002320460D4606F081FD3246804689463B462046294606F0C5FB02460B46DDE9000106F0BFFB76A32E
:405EC000D3E9002306F06EFD75A3D3E9002306460F462046294606F065FD02460B463046394606F0ADFB06460F4602460B464046494606F0A5FB42464B4604460D4606F0E0
:405F00009DFB02460B463046394606F097FB2246804689462B462046294606F043FD62A3D3E9002306460F4606F03CFD60A3D3E9002306F083FB32463B4606F033FD5EA310
:405F4000D3E9002306F07CFB32463B4606F02AFD5BA3D3E9002306F071FB32463B4606F021FD59A3D3E9002306F06AFB32463B4606F018FD02460B462046294606F05EFB7C
:405F800006460F4602460B462046294606F00AFD0022CDE900014FF080433046394606F04DFB02460B46DDE9000106F025FE424606460F464B462046294606F0F3FC424652
:405FC0004B4606F03DFB02460B463046394606F035FB22462B4606F031FB02460B460020414906F02BFB8A44BAF5801FC0F236815146DDE9042306F0D5FC53E442464B46B4
:406000004046494606F0CEFC4CE4384B21F00048984540F30681364B0B4403430CD132463B4606F00BFB02460B46DDE9000106F035FF00283FF4FEAEDDE9040124A3D3E921
:40604000002306F0AFFC22A3D3E9002306F0AAFC28E49FED217B8DED047B90E6BAF1000FBFF6AFACDDE90034184604F1004119E402460B4600201C4906F0BEFD2FE400BF83
:40608000000000000000F03FFE822B654715973C00000000432EE63FEF39FAFE422EE63F396CA80C615C20BED0A4BE726937663EF16BD2C541BDBB3E2CDE25AF6A56113F73
:4060C00093BDBE166CC1663F3E5555555555C53F59F3F8C21F6EA501000000000000F0BFFFFF8F40FFFF0F000000F03FFFCB904000346F3F724B9E427FF760AC714B9E4297
:406100003FF70DAC00226F4B06F098FA58A3D3E9002306460F4606F045FC57A3D3E90023804689463046394606F03CFC002282468B46654B3046394606F034FC02460B46AA
:406140004FA1D1E9000106F079FA32463B4606F029FC02460B4600205C4906F06FFA3246CDE902013B463046394606F01BFC02460B46DDE9020106F015FC43A3D3E9002358
:4061800006F010FC02460B465046594606F056FA02460B4606460F464046494606F050FA42464B46002082468B4606F047FA02460B463046394606F041FA80468946D5E523
:4061C0009FED337B8DED087B8DED0E7B9FED327B00278DED067B38E442464B460020394906F00AFDFFF75EBBDDE904012CA3D3E9002306F0D7FB2AA3D3E9002306F0D2FB77
:40620000FFF750BBBEF1000F7FF457ABC3F1140347FA03F202FA03F39F4223D07446FFF724BB2A4B98453FF705AEDDE902349A469B462EE602460B46FFF7B7BB9FED1A7BA6
:406240008DED087B9FED1A7B8DED0E7B9FED1A7B4FF480278DED067BFFF7F7BB5A4600F097F9C6E602F00102C2F10204FFF7FDBA000000604715F73F44DF5DF80BAE543E73
:40628000555555555555D53FFE822B654715F73F0000000000000000000000000000F03F9C7500883CE4377E0000004003B8E23F06D0CF43EBFD4C3E000000000000F83FE0
:4062C000FEFFEF3F0000F03F0000D03F0000E03F2DE9F0415E4EB6460E40764504460D4600F0948000290B46024672DD0F157DD0A7F2FF37C3F31303F80743F4801363D460
:4063000003EBD27100260B447F105200B64616204FF400110EEB01049C424FEAD2754FEA420203DC1B1B04EB010E0E44013805EB43034FEA5101EDD1844620244FF00041CC
:4063400009E020D003EBD275013C4FEA51012B444FEA420220D09E4501EB0C05F1DA002D05EB010C09DBF0469542CEEB030300D9013B521B0844C646E4E7BCF1000FF2DBB8
:406380000EF10108F0E795421CD8002D05EB010C48DB98460023ECE7134304D0411C45D000F00104204444087310F20703F17F5303F5001348BF44F0004403EB0751204659
:4063C000BDE8F0817346BDE75B0003EBD273520096E721F00046064322D071BB0F46D30A153F5205002BFAD0DD0221D4002100E001465B00DC0201F10100F9D5C0F1200452
:4064000022FA04F423437F1A824071E702460B4606F0C8FA22462B4606F012F9BDE8F081BDE8F081BCF1000FAADAB2E70136BBE720244FF0FF310020E2E702460B4606F0FB
:40644000FDF802460B4606F0D7FBBDE8F08100BF0000F07F21F00041704700BF41F0004101F58010C00F70470020704700200149704700BF0000F87FF0B5C1F30A5EAEF2AD
:40648000FF36132E83B002460B460C464FEAD17507462EDC002E49DB3B49314103EA010010432BD049080B4053EA02070CD04FF48023132E24EA010143FA06F444EA01048F
:4064C0000CBF4FF000470027304B03EBC5052146D5E90045384622462B4606F0B1F8CDE9000122462B46DDE9000106F0A7F803B0F0BD332E06DDB6F5806F42D010461946A0
:4065000003B0F0BDAEF2134E4FF0FF3121FA0EF10842F3D049080842D6D04FF0804320EA010143FA0EFE4EEA0107CDE721F000410143E3D0C3F31301144E41EA000CCCF16F
:4065400000015C0C06EBC503D3E9006741EA0C0C4FEA1C3C0CF4002C64044CEA040132463B4606F06DF8CDE900013B463246DDE9000106F063F821F0004444EAC5731946FD
:40658000BEE706F05DF8BBE7FFFF0F00F8DC0810F8B5C1F30A5604460D460B46174606BB21F00043034325D00022354B06F0FAF9344A974204460D460B462ADBC1F30A560B
:4065C000363E3E4440F2FE72964228DC002E12DD23F0FF4323F4E00343EA065520462946F8BD40F2FF729642EBD102460B4606F027F8F8BDF8BD16F1350F1DDA4CF2503357
:406600009F4222462B4625DC19A1D1E9000100F03DF817A3D3E9002306F0C4F9F8BD22462B4615A1D1E9000100F030F812A3D3E9002306F0B7F9F8BD23F0FF4323F4E00364
:40664000363643EA06552046294600220E4B06F0A9F9F8BD08A1D1E9000100F017F806A3D3E9002306F09EF9F8BD00BFAFF3008059F3F8C21F6EA5019C7500883CE4377ED4
:4066800000005043B03CFFFF0000903C03F0004321F0004242EA0301704700BF2DE9F04F89B000F1040A0691013904938B0802910392D0F80090059300F0858000F11406C2
:4066C000019304270024CDF81CA03EE0D0464946504606F013FF5946002818BF2C464046BD1E06F029FF002840D0D9465946404606F022FF56F808AC56F8048C002818BFD4
:406700002C465146484607F1FF3B06F015FF58B355465146484606F00FFF4146002818BF5C46284606F008FFE0B1C1464146284606F002FF019B002818BF3C46013B06F150
:40674000100607F10407019312D056F810AC56F80CBC50464946FD1E06F0D0FE0028B5D1C846B4E7A946E1E74D46D2E7C146BDE7059BDDF81CA00AEB031A029B13F0030576
:4067800019D0069B5D1B98460BE03E464946384606F0B4FE002818BF2C460135A845B1460AD05AF8047B4946384606F0A7FE0028EBD14E46EAE74E46039B1E60049B1C60E3
:4067C00009B0BDE8F08F1C460B46D7E72DE9F0475FEA91098846074692464FF000051AD000F110044E4654F8101C284606F0E0FB54F80C1C06F0DCFB54F8081C06F0D8FB30
:4068000054F8041C06F0D4FB013E054604F11004E9D107EB091718F0030407D0284657F8041B06F0C5FB013C0546F7D1404606F06FFC0146284606F077FDCAF80000BDE893
:40684000F08700BF2DE9F04F89B000F1040A0691013904938B0802910392D0F80090059300F0858000F11406019304270024CDF81CA03EE0D0464946504606F05DFE594695
:40688000002818BF2C464046BD1E06F037FE002840D0D9465946404606F030FE56F808AC56F8048C002818BF2C465146484607F1FF3B06F023FE58B355465146484606F0BB
:4068C0001DFE4146002818BF5C46284606F016FEE0B1C1464146284606F010FE019B002818BF3C46013B06F1100607F10407019312D056F810AC56F80CBC50464946FD1E0D
:4069000006F01AFE0028B5D1C846B4E7A946E1E74D46D2E7C146BDE7059BDDF81CA00AEB031A029B13F0030519D0069B5D1B98460BE03E464946384606F0FEFD002818BF0D
:406940002C460135A845B1460AD05AF8047B4946384606F0F1FD0028EBD14E46EAE74E46039B1E60049B1C6009B0BDE8F08F1C460B46D7E770B5049C826004F18044013CF0
:4069800005460C4401801E46A2001846002106F022FE6E6070BD00BF2DE9F04F0546A1B06C681E9000881A94264600F18048AC681F9308F1FF3827461494DB0806EB88042D
:4069C000159011911C921B941D9300F0838396461A46C3082546169304465B0138461844043B199304F00703179305F120030F930B462033109306F120030E937346203356
:406A0000189013931292109A0F9C52F8203C44F8203C52F81C3C44F81C3C11460A4651F8183C44F8183C51F8143C44F8143C51F8103C44F8103C51F80C3C44F80C3C52F826
:406A4000083C44F8083C52F8043C0E9A44F8043C52F8203C0093134652F81C2C03921A46194653F8183C049352F8143C059351F80C3C52F8102C079351F8083C0692089353
:406A800016980B1F002800F08A83149B0B900022203301F11C040193164617460A92914692469346904615460294019B029A53F8204C52F8201C09912046009906F080FB51
:406AC000414606F075FA03990D90204606F078FB594606F06DFA04998346204606F070FB514606F065FA05998246204606F068FB494606F05DFA06998146204606F060FB6F
:406B00000A9906F055FA07998046204606F058FB394606F04DFA08990746204606F050FB314606F045FA09990646204606F048FB029B019C53F81CEC294654F81C5CCDF849
:406B400000E006F035FA03990C90284606F038FB0D9B0146184606F02BFA04990A90284606F02EFB594606F023FA05998346284606F026FB514606F01BFA06998246284600
:406B800006F01EFB494606F013FA07998146284606F016FB414606F00BFA029B089953F818CCCDF80CC080462846019406F008FB394606F0FDF929460746099854F8184C9E
:406BC00006F0FEFA314606F0F3F900990646284606F0F6FA0C9A114606F0EAF904990546204606F0EDFA0A9B0146184606F0E0F905990A90204606F0E3FA594606F0D8F924
:406C000006998346204606F0DBFA514606F0D0F907998246204606F0D3FA494606F0C8F908998146204606F0CBFA414606F0C0F921468046099806F0C3FA394606F0B8F928
:406C400021460746009806F0BBFA314606F0B0F903990646204606F0B3FA029A019C52F814ECCDF810E029460B9D013D0B9506F09FF954F8145C05990C90284606F0A0FA67
:406C80000A9B0146184606F093F90A900699284606F096FA594606F08BF907998346284606F08EFA514606F083F9029B089953F810CCCDF814C082462846019406F080FA2B
:406CC000494606F075F929468146099854F8104C06F076FA414606F06BF929468046009806F06EFA394606F063F929460746039806F066FA314606F05BF90499064628461A
:406D000006F05EFA0C9A114606F052F906990546204606F055FA0A9B0146184606F048F907990D90204606F04BFA594606F040F908998346204606F043FA514606F038F944
:406D400021468246099806F03BFA494606F030F921468146009806F033FA414606F028F921460A90039806F02BFA394606F020F921460746049806F023FA314606F018F9BD
:406D800005990646204606F01BFA029B019C53F80C8CCDF81880294606F00AF954F80C5C07990C90284606F00BFA0D9B0146184606F0FEF8029A019B52F808EC089953F8A2
:406DC000084CCDF81CE08046284606F0F9F9594606F0EEF829468346099806F0F1F9514606F0E6F829468246009806F0E9F9494606F0DEF829468146039806F0E1F90A997D
:406E000006F0D6F829460A90049806F0D9F9394606F0CEF829460746059806F0D1F9314606F0C6F806990646284606F0C9F90C9A114606F0BDF808990546204606F0C0F9E8
:406E40000146404606F0B4F821468046099806F0B7F9594606F0ACF821468346009806F0AFF9514606F0A4F821468246039806F0A7F9494606F09CF821468146049806F02E
:406E80009FF90A9B194606F093F821460A90059806F096F9394606F08BF821460746069806F08EF9314606F083F8029B019A53F804CC0799CDF820C00646204652F8044CFF
:406EC00006F07EF9294606F073F821460546099806F076F9414606F06BF821468046009806F06EF9594606F063F821468346039806F066F9514606F05BF8214682460498E0
:406F000006F05EF9494606F053F821468146059806F056F90A9B194606F04AF821460A90069806F04DF9394606F042F821460746079806F045F9314606F03AF8089906464B
:406F4000204606F03DF9029B019A294602F1200403F120020194029206F02AF80B9B0546002B7FF4A2AD199B0E990196189E02460B44179900297BD0CDF80880DDF8148073
:406F8000CDF814B0DDF820B0CDF820A0DDF81CA0CDF81C90DDF818900697049F04933346039E099153F8044B0393049B009953F8045B049320460B9206F002F90146029896
:406FC00005F0F6FF31460290204606F0F9F80146059805F0EDFF39460590204606F0F0F80146089805F0E4FF41460890204606F0E7F80146079805F0DBFF494607902046DA
:4070000006F0DEF801460A9805F0D2FF51460A90204606F0D5F80146069805F0C9FF59460690204606F0CCF80146019805F0C0FF29460190204606F0C3F80B9A0096014657
:40704000104605F0B5FF099B013B3E46099347460246C846039BD146DA46AB46A2D1DDF80880DDF814B0DDF820A0DDF81C90069F13990A9841F8208C0B4641F81CBC41F876
:4070800018AC41F8149C41F8100C41F80C7C43F8042C0F9A019943F8081C20320F92109A20332032109213930E9A129B2032013B0E9212937FF4A7AC1D9B1B9A5B011A4461
:4070C0001B92119A1A4411921A9A1A441A921C9A1A441C921F9B13F007092CD01B9B1A9EDDF870A0CDF80090A3F104084F46119A159C52F8043B48F8043FDDF85090119251
:407100000025B34659F8041B5BF8040B06F058F80146284605F04CFF013C0546F2D1013F4AF8040B06F10406E1D11A9BDDF8009003EB89031A93159B591E1E9B8E085C681A
:407140001FD01A9B04F110021033304653F8105C42F8105C53F80C5C42F80C5C53F8085C42F8085C53F8045C42F8045C013803F1100302F11002E9D11A9A33011A441C44C2
:407180001A9211F0030307D01A99221F51F8040B42F8040F013BF9D121B0BDE8F08F0022149E019217460A929146924693469046DFE600BF064B5A68596B01325A60C200E9
:4071C0008A18596A51600021117058627047C04658B603080F2330B542680E4CD90009190D6C2100AA4202D2013BF7D211E00F2B0FD82468A21A0A608268C068002A00D002
:407200005060002801D0026003E00833DB00CB185A6030BD58B60308F8B5284C0600E368A26B013B0818D3180D00984206D80368002B03D14368F618FFF7CCFFA36B9D424B
