:020000041008E2
:4000000000780408EB0208100D0000005103081051030810510308105103081000000000000000000000000000000000B16508104D0308100000000051660810B5660810E2
:400040004D0308104D0308104D0308104D0308104D0308104D0308104D0308104D0308104D0308104D0308104D0308104D0308104D0308104D0308104D0308104D03081000
:400080004D0308104D0308104D0308104D0308104D0308104D0308104D0308104D0308104D0308104D0308104D0308104D0308104D0308104D0308104D0308104D030810C0
:4000C0004D0308104D0308104D0308104D0308104D0308104D0308104D0308104D0308104D0308104D0308104D0308104D0308104D0308104D0308104D0308104D03081080
:400100004D0308104D0308104D0308104D0308104D0308104D0308104D0308104D0308104D0308104D0308104D0308104D0308104D0308104D0308104D0308104D0308103F
:400140004D0308104D0308104D0308104D0308104D0308104D0308104D0308104D0308104D0308104D0308104D0308104D0308104D0308104D0308104D0308104D030810FF
:400180004D0308104D0308104D0308104D0308104D0308104D0308104D0308104D0308104D0308104D0308104D0308104D0308104D0308104D0308104D0308104D030810BF
:4001C0004D0308104D0308104D0308104D0308104D0308104D0308104D0308104D0308104D0308104D0308104D0308104D0308104D0308104D0308104D0308104D0308107F
:400200004D0308104D0308104D0308104D0308104D0308104D0308104D0308104D0308104D0308104D0308104D0308104D0308104D0308104D0308104D0308104D0308103E
:400240004D0308104D0308104D0308104D0308104D0308104D0308104D0308104D0308104D0308104D0308104D0308104D0308104D0308104D0308104D0308104D030810FE
:400280004D0308104D0308104D03081010B5054C237833B9044B13B10448AFF300800123237010BD9C5802080000000030B40910084B10B51BB108490848AFF30080084872
:4002C000036803B910BD074B002BFBD0BDE81040184700BF00000000A058020830B409106C520208000000007047FFF7FDFF72B6104C114DAC4209DA21686268A368043BEF
:40030000A2BFC858D050FAE70C34F3E70B490C4A00209142BCBF41F8040BFAE709480A490860BFF34F8F00F0A9FA00F083FA00F005F9FEE734B409104CB409109C58020859
:400340006C3304080040020808ED00E0FEE7FEE700B504207146084202D0EFF3098001E0EFF30880043004F0F5FBFEE708B50F4B1868002104F098FF4FF47A7004F0B6FB75
:400380000B4B5A6910225A615B690A4BB3F90030002B09DB5A0903F01F03012101FA03F36032054941F8223008BD00BFF4C30308000032405C34091000E100E000B583B033
:4003C00003238DF807300C4B18684FF0FF3105F075F80128F7D102A9022301F8013D00231A460648006804F00DFE03238DF80730642005F03DFCE6E7F4C30308FCE3030836
:4004000008B54FF47A7300220749084800F04AFA4FF47A7300220649064800F043FA4FF4FA7005F025FCECE7F8C3030814950308D0750308B4A4030808B500220D4B1A8029
:4004400007E00D490D4801F073F90A4A138801331380084B1A88B2F57A7FF2D3EDD100221A800749074802F06DFD4FF47A7005F0FFFBE2E7B8580208B4A4030814950308F2
:400480002C2F09100000664030B585B0214B1B88002B39D14FF47A7300221F491F4800F087FA1F4C20604FF47A7200211D4800F037FA1D4D2860D4ED007A0A226946FDEE7E
:4004C000E77A17EE900A11F0AEF9184C1849204602F038FD6946204602F034FDD5ED007A0A2202A9FDEEE77A17EE900A11F09BF91049204602F026FD02A9204602F022FD41
:400500000D49204602F01EFD4FF4FA7005F0B0FBBCE700BFB8580208D07503081495030888430208F8C303088443020800006640742F09107C2F0910842F091000B583B0DF
:4005400003220021012004F037FD3F4B186003220021012004F030FD3C4B1860186800231A46194604F04EFD62B600F0C7FA08F063FB01F06FF808F0A5FB002201210A2045
:4005800004F01AFD324B1860324C3349204604F073FAB4F90030002B08DB5A0903F01F000121814060322D4840F82210002B08DB590903F01F03012202FA03F3274A42F881
:4005C0002130002401940A230093234680222449244805F0D7F901940526009623464FF480622149214805F0CDF9019404250095234680221E491F4805F0C4F9019400960D
:4006000023464FF480621C491C4805F0BBF90194009523464FF4806219491A4805F0B2F90194009523464FF480621749174805F0A9F905F0D9F9FE21154804F07BFA06F0EE
:4006400061FD0028FBD1FEE7F4C3030810950308FCE303085C3409106D03081000E100E0D42F0910A5170810E02F0910A5120810E82F0910BD030810F82F09103904081071
:40068000043009100104081010300910890408101C30091008B5012002F0B6FB08BD00BF704700BF5C4AD2F8803303F00F0303F1D00152F8212002F00702032A04D0042A50
:4006C00005D092B9554914E0554A116811E003F1C002514951F8222002F01F02112A06D0132A04D04FF4FA4103E04E4901E04FF400418BBB484BD3F8902502F00100D3F8BB
:400700008825C2F30172D3F8883513F0405F07D0414BD3F88835C3F30173012B02D102E0012300E0002303B108B9032A46D13A48D0F88025C2F31103D0F88425C2F30C02F8
:40074000D0F88005C0F300600130B1FBF2F202FB03F2B2FBF0F131E0012B2FD12E4BD3F8402602F00100D3F80026C2F30172D3F8003613F0405F07D0274BD3F80036C3F342
:400780000173012B02D102E0012300E0002303B108B9032A12D12048D0F8002602F07F02D0F80036C3F30423D0F80006C0F3044002FB01F2B2FBF3F2B2FBF0F1164BD3F893
:4007C0008033C3F3011321FA03F215494A601648D0F89030C3F3072301330069000E0130B2FBF0F08860B2FBF3F3CB600B6103F5742202F23F220D48A0FB0202C2F38742CE
:400800000A7503F2E7330A4AA2FB03239B098B61DB03CB61704700BF0000264000127A008C42020800366E010000214083DE1B43D34D621008B50D4804F076FAFFF730FF47
:40084000FFF730FF00221146042002F0A5F8084802F038F9074B1B6893F8513013B1064802F0A0F901F066FF08BD00BFE4380910BC580208743004082830091008B504F037
:40088000C4F9074AD2F8883043F47003C2F88830BFF34F8FBFF36F8F04F0BBF908BD00BF00ED00E070B588B005460E4600E001329A42FCD34FF47A740094144B144A3221C4
:4008C00005A809F027FD23463246294605A809F033FD1049104802F035FB002410E00A2203A956F8240010F09EFF0B4D03A9284602F028FB0949284602F024FB0134A4B257
:40090000B4F57A7FEBD308B070BD00BF98D30308AC4202085C30091000006640802F0910002301E001339BB2B3F57A7FFAD3704730B5ADF54D7D002306E050F8215004ACC5
:4009400044F82350013301319142F6D301AB03AAC82104A809F046FC6B4602AAC82104A809F06CFB9DED037ADDED027A77EE677A17EE900A0DF54D7D30BD00BF30B5ADF51A
:400980004B7D002306E050F8215002AC44F82350013301319142F6D301AAC82102A809F0E5FB01980DF54B7D30BD00BF000000002DE9F0472DED028B98B0814688469A4677
:4009C000414CA4FB0232940925E0C82505FB04F6671C05FB07F52A4631464846FFF7A8FF18AB03EB840444F8140C2A4631464846FFF7C4FF44F8280C2A4631464046FFF7E7
:400A000097FF44F83C0C2A4631464046FFF7B6FF44F8500C3C462C4BA3FB0A23B4EB931FD3D303AA052113A809F0A0FB02AA05210EA809F09BFB01AA052109A809F096FBEC
:400A40006A46052104A809F091FBDDED027ADDED036A86EEA77ADDED006A9DED016AC6EE267A87EE278A18EE100A10F03FF800224FF0804308F020FA0FA3D3E9002310F09C
:400A800089F804460D46DFED117A68EE277A17EE900A10F02BF822462B460FF0C9FE08A3D3E900230FF0C4FE10F04CFB18B0BDEC028BBDE8F08700BF000000E09188F93FCD
:400AC000000000C0CCAC5D401F85EB517EA30AC2F8B506460F4601F019FD0546064C3B4632460146204600F0B9FE41F2B0622946204610F09AFEF8BD3C5A020808B50AF057
:400B0000E7FD142000F096FE012000F09BFE01200AF0D6FC00200AF015FD6FF07F400AF007FD0AF0A3FD08BD30B4002408E051F82430054DA5FB03535B0920F81430013411
:400B40009442F4D330BC70471F85EB5110B40446B0F90000012305E034F91320904200DD104601338B42F7D35DF8044B704700BF10B40446B0F90000012305E034F913202B
:400B8000904200DA104601338B42F7D35DF8044B704700BF2DE9F0410646884615461F461146FFF7D3FF044629463046FFF7E0FF00218E4610E036F911301B1B962202FBCA
:400BC00003F3021B93FBF2F31BB2C3F1960328F81E300EF1010E39448D42ECD8BDE8F08110B52DED028B8AB008EE101A07AA042110F0F0FD04AA042118EE100A10F0EAFD50
:400C0000504C20460AF0A8FC992205214E480AF02BFF9922352107A80AF026FF99225A214A480AF021FF20460AF096FC99227D2147480AF019FF9922A82104A80AF014FF8F
:400C400001210846FFF744FF424B93F8B835002B73D141480AF080FC404BD3ED007AB4EEE78AF1EE10FA30DD01AA042117EE900A10F0B0FD0AF0FAFC0A22114638480AF081
:400C8000F3FE1A220A2137480AF0EEFE2A220A2104A80AF0E9FE344C2A223C2120460AF0E3FE3A220A2131480AF0DEFE4A220A2101A80AF0D9FE4A223C2120460AF0D4FE27
:400CC00001210846FFF704FF37E0244BD3ED017AB4EEE78AF1EE10FA2FD501AA042117EE900A10F077FD0AF0C1FC0A2211461C480AF0BAFE1A220A211A480AF0B5FE2A22D5
:400D00000A2104A80AF0B0FE174C2A223C2120460AF0AAFE3A220A2115480AF0A5FE4A220A2101A80AF0A0FE4A223C2120460AF09BFE01210846FFF7CBFE0AB0BDEC028BE6
:400D400010BD00BF28520910A0300910A8300910AC300910346B0208483C091074430208B4300910C0300910E0300910E4300910083109102DE9F0418046134CA368E6680B
:400D8000B3FBF6F60AF072FC104D05F2BC57A26841463846FFF7C8FE05F68C55E368A26829463846FFF7F6FE00231A46314628460AF06CFE01210846FFF78AFE21696069EA
:400DC000FFF70EFFBDE8F08174430208346B020810B504460AF04AFC1B480AF0BDFB0A2228211A480AF040FE1E223C2118480AF03BFE3222282117480AF036FE46223C21DE
:400E000015480AF031FE5A22282114480AF02CFE6E223C2112480AF027FE8222282111480AF022FE96223C210F480AF01DFE1E231A460A2108460AF0A7FE01210846FFF781
:400E400047FE0123237010BD906709102C31091048310910503109106C3109107C3109109C310910A4310910BC31091010B504460378013B032B4ED8DFE803F00215283B53
:400E80001E231A460A2108460AF0BEFB46231E2232210A200AF078FE01210846FFF718FE0223237010BD46231E2232210A200AF0ABFB6E231E225A210A200AF065FE012113
:400EC0000846FFF705FE0323237010BD6E231E225A210A200AF098FB96231E2282210A200AF052FE01210846FFF7F2FD0423237010BD96231E2282210A200AF085FB1E23B5
:400F00001A460A2108460AF03FFE01210846FFF7DFFD0123237010BD10B504460AF0A6FB0F480AF019FB0A2228210E480AF09CFD322228210C480AF097FD5A2228210B48D7
:400F40000AF092FD46231E2232210A200AF01CFE01210846FFF7BCFD0123237010BD00BF90670910C8310910E4310910F431091010B504460AF07AFB0F480AF0EDFA0A22DC
:400F800028210E480AF070FD322228210C480AF06BFD5A2228210B480AF066FD46231E2232210A200AF0F0FD01210846FFF790FD0123237010BD00BF9067091008320910BD
:400FC000243209104032091010B504460AF04EFB0F480AF0C1FA0A2228210E480AF044FD322228210C480AF03FFD5A2228210B480AF03AFD46231E2232210A200AF0C4FD42
:4010000001210846FFF764FD0123237010BD00BF906709105C320910743209108C32091010B504460AF022FB0F480AF095FA0A2228210E480AF018FD322228210C480AF08E
:4010400013FD5A2228210B480AF00EFD46231E2232210A200AF098FD01210846FFF738FD0123237010BD00BF906709109C320910B4320910C832091010B504460378012BF1
:4010800002D0022B13D010BD46231E2232210A200AF0BAFA6E231E225A210A200AF074FD01210846FFF714FD0223237010BD6E231E225A210A200AF0A7FA46231E223221C3
:4010C0000A200AF061FD01210846FFF701FD0123237010BD30B585B004460D460AF0C6FA23480AF039FA2B78012B05D10A22282120480AF0B9FC06E0022B04D10A222821EF
:401100001D480AF0B1FC822228211C480AF0ACFC962228211A480AF0A7FC4622282119480AF0A2FC46228C2117480AF09DFC237807EE903AF8EE677A9FED147A67EE877A6E
:401140009FED137AC7EE876A16EE900A0FF0CEFC01AB042210F01AFB46225A2101A80AF083FC01210846FFF7B3FC05B030BD00BF90670910E4320910F83209101433091005
:40118000243309103C3309104033091000004C4200007F4330B585B004460D460AF066FA16480AF0D9F92B78012B05D10A22282113480AF059FC06E0022B04D10A222821FF
:4011C00010480AF051FC462228210F480AF04CFC46228C210D480AF047FC01AA0421206810F0F8FA46225A2101A80AF03DFC01210846FFF76DFC05B030BD00BF9067091016
:40120000443309105C3309103C3309104033091038B504460D460AF029FA1A480AF09CF92B78012B05D10A22142117480AF01CFC06E0022B04D10A22142114480AF014FCA4
:4012400023782BB91E22142111480AF00DFC06E0012B04D11E2214210E480AF005FC0E480AF07AF95A2214210C480AF0FDFB5A227D210B480AF0F8FB01210846FFF728FCD3
:4012800038BD00BF90670910743309108C3309109C330910B4330910EC870910CC330910D433091030B583B0FFF728FC00248DF807408DF80640BC4D2846FFF75BFD4FF035
:4012C000FF320DF10501B94B186804F04BF80128F5D19DF80530002B40F0D6800B2CEED8DFE804F0060C2E42566A7D8E9EACBCC70DF10700FFF76CFD0124E0E79DF80730A6
:40130000012B05D10DF10600FFF706FE0224D6E7022B05D10DF10600FFF72AFE0324CEE7032B05D10DF10600FFF74EFE0424C6E7042B05D10DF10600FFF772FE0524BEE76D
:401340009DF80630012B06D10DF106019848FFF7C1FE0624B3E7022B06D10DF106019548FFF7B8FE0724AAE79DF80630012B06D10DF106019048FFF70DFF08249FE7022B67
:4013800006D10DF106018D48FFF704FF092496E79DF80630012B06D10DF106018848FFF737FF0A248BE7022B06D10DF106018548FFF72EFF0B2482E79DF80630012B05D10C
:4013C000794D2846FFF7D6FC002478E7022B7FF476AF7D4D2846FFF7CDFC00246FE7764B1B7E182B03D9193B734A137602E00022714B1A760DF106016D48FFF76BFE5EE777
:401400006D4B5B7E182B03D9193B6B4A537602E00022694B5A760DF106016648FFF75AFE6548D0ED007AB1EE047A77EEC77AC0ED007A0DF10601FFF7ADFE40E75E48D0EDA3
:40144000017AB1EE047A77EEC77A17EE903A40F8043F0DF10601FFF79DFE30E75B48002380F8803F0DF1060100F57860FFF7D0FE25E75648002380F8B8350DF1060100F578
:40148000B760FFF7C5FE1AE7012B72D1012C04D10DF10700FFF7EAFC11E7A31EDBB2032B04D80DF10600FFF7E7FD08E7062C10D1414B1B7EE62B03D819333F4A137602E088
:4014C000FF223D4B1A760DF106013948FFF702FEF5E6072C10D1384B5B7EE62B03D81933354A537602E0FF22334B5A760DF106013048FFF7EFFDE2E6082C0DD12E48D0EDAF
:40150000007AB1EE047A77EE877AC0ED007A0DF10601FFF73FFED2E6092C0FD12648D0ED017AB1EE047A77EE877A17EE903A40F8043F0DF10601FFF72DFEC0E60A2C0AD132
:401540002248012380F8803F0DF1060100F57860FFF75EFEB3E60B2C7FF4B1AE1B48012380F8803F0DF1060100F5B760FFF750FEA5E6022B7FF4A3AE012C04D12846FFF7EB
:40158000F9FB00249BE6A31EDBB2032B05D80DF10700FFF71DFC012491E6062C18D12846FFF7E8FB00248AE670850308FCE303088C4302088D430208744302087843020870
:4015C000B47A0208EC70020854B40308346B0208072C04D12846FFF7CDFB00246FE6A4F10803DBB2012B04D82846FFF7C3FB002465E6A4F10A03DBB2012B3FF660AE284612
:40160000FFF7B8FB00245AE670B582B004460E460E4B00936423002257210D4802F0DAFA28B90A4B64222146094802F041FC074D074C2B4664223146204602F039FC2A46CB
:401640006421204602F0A8FB02B070BD743104080000634008B5642003F048FAD0210220FFF7D2FF00210320FFF7CEFF00210420FFF7CAFF00210520FFF7C6FF0021062014
:40168000FFF7C2FF1F210820FFF7BEFF03210920FFF7BAFF29210A20FFF7B6FF1F210C20FFF7B2FF1F210D20FFF7AEFF08BD00BF2DE9F04182B080460D4616461A4C1B4FD8
:4016C0000097642300225721204602F083FA3B4664224146204602F0EBFB0097642301225721204602F0EEFA002409E00F4B009364232A1900210C4802F080FB0134E4B227
:40170000731E9C42F2DB084E084F009764232A190121304602F072FB3A466421304602F03BFB02B0BDE8F081000063407431040870B584B005460E461446062202A907205D
:40174000FFF7B6FF9DF808301B0403F440339DF8092003EB02239DF80A20134445F824309DF80B209DF80C301B0203EB02439DF80D20134446F824300A22694655F8240018
:4017800010F051F8054C6946204601F0DBFB0449204601F0D7FB04B070BD00BF00006640802F091000B583B005F0A4F805F01AFD05F0A8FC0028FBD105F0B6F803238DF8CF
:4017C0000730012005F0D8FA40B1184B1B780BB98DF807300122154B1A7002E00022134B1A70022005F0C8FA48B1104B5B7813B901238DF8073001220C4B5A7002E0002276
:401800000A4B5A709DF80730032B07D000231A460DF107010648006803F0F4FB05F0D0FB05F0E0FC642004F023FAC1E7B57A0208FCE3030810B5044600F072F9204600F0E6
:4018400015FA10BD08B510B100F0AAFD01E000F0C9FD08B9012008BD002008BDF8B507460E4614461D4613B10120FFF7EBFF24B93146384600F038FC15E0631EDBB2012B5F
:4018800011D80021384600F01DFA012C07D10121384600F017FA0221304600F013FA0321304600F00FFA15B10020FFF7CBFFF8BD08B50022024BC3F8082100F05FFE08BD4D
:4018C00000003840014BD3F808017047000038400122014B5A6070470000384010B5074C074A0849204602F0DBFB236843F0004323600822044B9A6010BD00BF00006740B7
:401900005030040864340910000632400822044B9A60044A136843F000431360704700BF000632400000674008B50249024802F0EBFC08BD503004080000674008B5014611
:40194000154801F0A1FA144BD3F8C03F13F0040FF9D0114BD3F8042242F48032C3F80422D3F8042222F48032C3F80422D3F80422D3F8042342F48032C3F80423D3F8042327
:4019800022F48032C3F80423D3F804230422C3F8C02FD3F8C03F08BD0000674008B50146174801F071FA164BD3F8C03F13F0040FF9D0134BD3F84003D3F8042242F4803277
:4019C000C3F80422D3F8042222F48032C3F80422D3F80422D3F8042342F48032C3F80423D3F8042322F48032C3F80423D3F804230422C3F8C02FD3F8C03FC0B208BD00BFA1
:401A00000000674038B50C46054600B121B940F2E6511B4803F08EF822462946194801F079FA184AD2F80832C3F30803D2F80822C2F3C032D342F4D1124BD3F8042242F4E9
:401A40008032C3F80422D3F8042222F48032C3F80422D3F80422D3F8042342F48032C3F80423D3F8042322F48032C3F80423D3F804230422C3F8C02FD3F8C03F204638BD09
:401A8000E033091000006740044B1B6913F0080F01D0012070470020704700BF800232402DE9F04180460E4617460A4C082565607020FFF743FF4046FFF740FFA5606560E0
:401AC0007220FFF73BFF39463046FFF79BFFA560BDE8F0810006324000B583B002AB03F8011D01221946FFF7DBFF03B05DF804FBF8B507460E46094C082565607020FFF7EA
:401B00001DFF3846FFF71AFFA56065607320FFF715FF3046FFF742FFA560F8BD0006324038B50425084B5D60084C4023636010236360FFF7D3FE0822054B5A60656020231D
:401B40006360FFF7B5FE38BD00003240800232400006324010B5434C6F22002120460FF08AFE631C236704F14E03636704F12203A367FFF79DFE03E0FFF7A4FE032868D87F
:401B8000FFF782FF0028F7D1FFF7A2FE00217220FFF7AEFF00F00F0002285CD14021FFF79BFF00210F20FFF7A3FF10F0800F54D002210B20FFF790FF08222B490120FFF768
:401BC0006FFFD1210720FFF787FF02210820FFF783FFC2210920FFF77FFF03210420FFF77BFF01210320FFF777FF00210320FFF773FF0A2002F07AFF002400E01C4601216D
:401C00000520FFF769FF642002F070FF03210520FFF762FF322002F069FF0F210520FFF75BFF322002F062FF00210F20FFF760FF10F0400F05D040210220FFF74DFF2346AF
:401C400003E0631C9BB2042CD8D1032B07D9052010BD012010BD022010BD032010BD002010BD00BFB87A02082034091010F1090F0EDB10F1040F0EDB05280FDD0A2810DD83
:401C80000F2811DD142811DD282811DC5A2210E04FF496620DE04FF461720AE04FF4167207E04FF4A57204E0DC2202E0B42200E03C22034BA3F87C20A3F87E20704700BFEC
:401CC000B87A02082DE9F84F06460D46047828B1CA4B984205D10127002403E00127FF2400E00027FFF7E4FD4FF00008D0E1C8EBC80AC8EB0A1ADFF80C930AEB090B6F22D6
:401D0000002158460FF0B7FD0BF1010EBC4BC3F870E00AF148004844063058670AF1200AD14409F10209C3F878902022002397E10FB934780136032D00F29081DFE815F0C7
:401D400004006500C600270100EB030C14F0400F01D0C02100E080218CF8001049B214F0100F02D04FF0300A01E04FF0200A4AEA01018CF8001014F0040F02D04FF00C0A3D
:401D800001E04FF0080A4AEA01018CF8001014F0010F02D04FF0030A01E04FF0020A4AEA01018CF800100EEB020C14F0800F01D0032100E002218CF8001049B214F0200FAB
:401DC00002D04FF00C0A01E04FF0080A4AEA01018CF8001014F0080F02D04FF0300A01E04FF0200A4AEA01018CF80010013A92B214F0020F02D06FF03F0A01E06FF07F0A6F
:401E00004AEA01018CF8001028E100EB030C14F0400F01D0802100E040218CF8001049B214F0100F02D04FF0200A01E04FF0100A4AEA01018CF8001014F0040F02D04FF0B6
:401E4000080A01E04FF0040A4AEA01018CF8001014F0010F02D04FF0020A01E04FF0010A4AEA01018CF800100EEB020C14F0800F01D0022100E001218CF8001049B214F00F
:401E8000200F02D04FF0080A01E04FF0040A4AEA01018CF8001014F0080F02D04FF0200A01E04FF0100A4AEA01018CF80010013A92B214F0020F02D06FF07F0A01E04FF010
:401EC000400A4AEA01018CF80010C7E000EB030C14F0400F01D0C02100E040218CF8001049B214F0100F02D04FF0300A01E04FF0100A4AEA01018CF8001014F0040F02D0FD
:401F00004FF00C0A01E04FF0040A4AEA01018CF8001014F0010F02D04FF0030A01E04FF0010A4AEA01018CF800100EEB020C14F0800F01D0032100E001218CF8001049B20D
:401F400014F0200F02D04FF00C0A01E04FF0040A4AEA01018CF8001014F0080F02D04FF0300A01E04FF0100A4AEA01018CF80010013A92B214F0020F02D06FF03F0A01E0B6
:401F80004FF0400A4AEA01018CF8001066E000EB030C14F0400F01D0802100E0C0218CF8001049B214F0100F02D04FF0200A01E04FF0300A4AEA01018CF8001014F0040FE0
:401FC00002D04FF0080A01E04FF00C0A4AEA01018CF8001014F0010F02D04FF0020A01E04FF0030A4AEA01018CF800100EEB020C14F0800F08D0022107E000BFFFFF0F103E
:40200000B87A020800E4030803218CF8001049B214F0200F02D04FF0080A01E04FF00C0A4AEA01018CF8001014F0080F02D04FF0200A01E04FF0300A4AEA01018CF80010F2
:40204000013A92B214F0020F02D06FF07F0A01E06FF03F0A4AEA01018CF8001001339BB2202B7FF665AEC8F1AF031BB299101A4A134003D5013B63F003030133174A02FAD5
:4020800083F31B7A09F8013008F101081FFA88F8B8F1AF0F7FF62BAE00240FE0C4EBC403C4EB03136F220E4919440A20FFF7F8FC07210220FFF710FD0134A4B2AF2CEDD973
:4020C000084BB3F87C40FFF7FDFB8442E4D8FFF7FFFBBDE8F88F00BF030000802034091000E40308B87A02082DE9F04706460D46FFF7DEFBD2210920FFF7EEFC0024C6E03F
:40210000C4EBC407C4EB0717DFF8008207EB08096F22002148460FF0AEFB09F1010C784BC3F870C007F1480EC6440EF1060EC3F874E02037B84408F10208C3F8788020209C
:4021400000218EE0771C32786E1C95F800900EEB010582EA090212F0400F04D019F0400F03D0802302E0402300E0C0232B705BB212F0100F05D019F0100F05D04FF0200A77
:4021800004E04FF0100A01E04FF0300A4AEA03032B7012F0040F05D019F0040F05D04FF0080A04E04FF0040A01E04FF00C0A4AEA03032B7012F0010F05D019F0010F05D076
:4021C0004FF0020A04E04FF0010A01E04FF0030A4AEA03032B700CEB000512F0800F04D019F0800F03D0022302E0012300E003232B705BB212F0200F05D019F0200F05D0AC
:402200004FF0080A04E04FF0040A01E04FF00C0A4AEA03032B7012F0080F05D019F0080F05D04FF0200A04E04FF0100A01E04FF0300A4AEA03032B70013880B212F0020FDB
:4022400005D019F0020F04D06FF07F0203E0402201E06FF03F0213432B70013189B235463E4620297FF66EAFC4F1AF031BB29910244A134003D5013B63F003030133224A12
:4022800002FA83F31B7A08F801300134A4B2AF2C7FF636AF002421E0C4EBC405C4EB05151A4B1D446F2229460A20FFF7F9FB07210220FFF711FCC4F1AF0343F38D032B44FD
:4022C000002283F822206F2229460A20FFF7E8FB07210220FFF700FC0134A4B2AF2CDBD9074BB3F87E40FFF7EDFA8442D2D8FFF7EFFAC2210920FFF7EFFBBDE8F08700BFF8
:40230000B87A0208030000802034091000E40308002307E01349086F5522C254496FCA5401339BB2202BF5D970B5002416E0A6080C4DAA6F04F003030B490B441B7A93552F
:402340006F2229460A20FFF7ABFB07210220FFF7C3FBAB6F00229A550134A4B2AF2CE6D970BD00BFB87A02082034091008B5002304E00021094AD1540133DBB2152BF8D985
:4023800000210420FFF7A8FB6F2204490A20FFF787FB07210220FFF79FFB08BDB87A020838B50E4C1023A360142002F09FFBFFF7ADFA08220A4B9A604023A3600425A560FD
:4023C0000A2002F093FB65600A2002F08FFBA5600A2002F08BFBFFF7BDFB38BD800232400006324038B5FFF793FFFFF7BFFF1E2002F07CFB234C40256560322002F076FBF4
:40240000A56000210F20FFF773FB10F0400F36D000210B20FFF760FB01210320FFF75CFB03210520FFF758FB01210520FFF754FB322002F05BFB80210420FFF74DFB002183
:402440000520FFF749FB01210720FFF745FB1E2002F04CFBFFF768FA102363606560142002F044FB0822084B5A60042363602025A5601E2002F03AFB6560002038BD0420C1
:4024800038BD00BF800232400006324010B582B002AC012344F8043D00231A461449154809F034FA21460AF01AFC0BF079F860B14FF48472B02100200BF057F94FF48472B0
:4024C000B02100200BF07DF90BE0B0224FF4847100200BF04AF9B0224FF4847100200BF070F9054900200BF057F902B010BD00BF28B009105CB00910A0510208012901D195
:40250000002070474FF0FF30704700BF00487047387B020808B54FF40041034808F028FC024809F06BF808BDE8910208E4A8091008B5012002F03AFE014B186008BD00BF99
:40254000E811030808B500231A4619460248006802F058FD08BD00BFE811030808B54FF0FF31024B186802F0A9FF08BDE811030808B503F0D7FC08BD704700BF08B5084B0D
:402580001B783BB9074A0021074802F045FB0122034B1A70044B01229A609A6108BD00BFEC11030898340910000038401F4B98422DD00CD840282ED003D8E8B1102828D027
:4025C0002FE0802829D0B0F5807F28D029E0184B984228D006D8B0F1204F0DD0154B984212D01EE0144B98420AD00133984209D0023B984215D101E0002070470F487047AF
:402600000F4870470F4870474FF4A0007047074870470D4870470D4870470D487047034870470C4870474FF4A400704706005200010000F0090000A0040000F001005200D6
:402640000200520003005200010050000200500005005200FF00520038B5124B1B6893F83130012B04D840F2C3110F4802F062FA0C4B1D682A6AB5F8B03013442C46D5F867
:40268000B420D358002B0BDB084B1868FFF78EFF6B6801229A6063689B68002BFBD138BD034838BD74300408E4340910F0110308020050001A4B186128B102230370FF231A
:4026C000437000234380174B1B6893F850202AB300B583B0B3F93830ADF80030002301931149684602F0C8F9BDF90030002B08DB590903F01F03012202FA03F30B4A42F832
:402700002130084B1B6893F8513023B102220849012000F0F3FA03B05DF804FB704700BFF011030874300408DD52020800E100E09553020808B50248FFF7BCFF08BD00BFBE
:40274000041203082DE9F04104460D46174698469DF81860072903D9D921354802F0EAF937F00F0303D0DA21314802F0E3F9B8F1010F03D9DB212E4802F0DCF936F01F0350
:4027800003D0DC212A4802F0D5F922680123AB4022EA030308F0010808FA05F843EA08032360244B1B6893F87D100B59A8000F22824023EA020207F00F0303FA00F7174340
:4027C0000F51072D04D94FF422711B4802F0B2F936F01F0304D040F28921174802F0AAF9144B1B689A69A41AE4095B6924011919032D0DD81959ED001F22AA4021EA02024D
:4028000006F01F0606FA05F515431D51BDE8F081043D4A68ED001F23AB4022EA030306F01F0606FA05F51D434D60BDE8F08100BF24350910743004086435091038B50B4B7A
:402840001B68D3F8B4301B58002B0DDA0D4604460B0C1B0423B140F2D521054802F06AF9A9B26160002038BD024838BD74300408A435091001008A0038B50368002B01DA35
:40288000002300E0094B73B90D460446C2600B0C1B0423B140F2BB21054802F04BF9A9B2A160002038BD014838BD00BF01008A00A435091038B504460D4619B999210848EA
:4028C00002F038F9074B1B68D3F8B4301B59002B03DAE3682B60002038BD034838BD00BFE43509107430040801008A00254B1B6893F8313083423AD900293AD00B6813F0FE
:402900001F0F38D170B50D4604461E4B1B6893F83130984204D340F2C3111B4802F00AF9184B1B68186AB3F8B03004FB0304174E34602A68D208002168680EF09CFF0021AE
:402940002046FFF77BFF346825B940F293310E4802F0F0F82A4600212046FFF78DFF60B900210A4B1868FFF769FF40B970BD084870470748704706487047064870BD0548FB
:4029800070BD00BF74300408A43509100812030803018A0001018A0010B504461346B2B9A9B9124B1B6893F83130984204D340F2C3110F4802F0BEF80C4B1B681A6AB3F88A
:4029C000B03004FB03240B4B1C60002010BD43B149B1084A51609360111D2046FFF786FF10BD054810BD044810BD00BF74300408A43509100812030803018A002DE9F041C4
:402A00001B4B1B68DC68236883422CD90D464609A0EB4610012303FA00F819B902F0F5F8074600E00027124B18680368002B01DA002300E00F4B83B9626852F8263018EA20
:402A4000030F05D023EA080342F82630002400E0094C0021FFF7F2FE00E0084C25B9384602F0D7F800E0064C2046BDE8F08100BF0812030801008A000201880003018800E2
:402A800004018A000B4B1B68DB681A6882420CD94109A0EB4110012202FA00F05B6853F82130184203D004487047044870470448704700BF081203080101880004018A0079
:402AC00000018800024B1B680BB9014B18607047141203082DE9F8430446884691461D46089F2C4B1B681BB9B5212B4802F022F8284B1B682C2000FB04F01C18EEB21E502D
:402B0000C5F3072363602D0CA560244B1B6893F831309E4204D340F2C311214802F00AF81E4B1B68196AB3F8B02006FB02162661666893F832309E4204D340F2DF1118483C
:402B400001F0F8FF154B1B681D6A803605EB46156561A668330C1B0423B14FF4FF71104801F0E8FF330C1B0423B140F2FF110C4801F0E0FFB3B243EA0646AE60C4F81C902D
:402B8000C4F820800023A36117B1B7F90030A381BDE8F883141203082436091074300408A4350910F0B58FB0044618B95221274801F0C0FFA369072B03D95621234801F0E2
:402BC000B9FFE36A1BB95821204801F0B3FF236B1BB959211D4801F0ADFF07AD04F114060FCE0FC537682F6002AD26460FCE0FC533682B60164B1B68B3F93620079B134427
:402C0000ADF83030089B0D93A26AE16A0CAD00953B460A98FFF75EFF00210091069B0A460598FFF757FF216B284601F025FFBDF93030002B08DB590903F01F03012202FADC
:402C400003F3044A42F821300FB0F0BD243609107430040800E100E0F8B506460F461D4614461AB9FD211F4801F064FF1E4B1B681BB9FE211B4801F05DFF1B4B1B682C21B9
:402C800001FB063001FB07314B68012202FA03F31B04466802FA06F60269EAB18F69EFB91268002A01DA002200E0104AC2B92288134323600369DC6001238B614D620469CE
:402CC000330C1B0423B140F2BB21094801F032FFB2B2A2600020F8BD0648F8BD0648F8BD0548F8BD243609101412030801008A00A435091004028A0007028A00F8B50546A2
:402D00000F4616460E4B1B6823B94FF4AF710D4801F010FF0A4B1B682C2404FB0534236A23B94FF4B171074801F004FFE369B34204D9236A43F826700020F8BD0248F8BDB1
:402D400014120308243609100A028A0070B582B000230193044620B940F2D111284801F0E9FE236923B94FF4E971254801F0E2FE636923B940F2D311214801F0DBFE236ACB
:402D800023B94FF4EA711E4801F0D4FE6369DD682A0C20D012041A601B682069194B1B68D3F8B430C358002B15DA01A9FFF782FD60B9019803681E0CDBB2E269934206D2E7
:402DC000226A52F8233013B1984700E0002631462069FFF733FDADB275B16369ADB21D601B68636A1BB198470023636202E0A36A03B198470023A36163691B6802B070BDF4
:402E0000243609107430040810B50446074B1B6823B940F2B111064801F08CFE034B1B682C2000FB0430FFF791FF10BD141203082436091010B4D0F8003303F00F03072BB9
:402E400006D900230DE0D0F84043CC54013300E000239342F7D306E0D0F8404321F8134001339342F8D35DF8044B704710B51446D0F80833C3F308039A4200D31C462246FA
:402E8000FFF7D8FF204610BD036813F4006F01D0802200E04022D0F80832C3F30803934203D0C0F84012012070470020704700BF10B4D0F8003203F00F03072B06D90023A2
:402EC0000DE0CC5CC0F84042013300E000239342F7D306E031F81340C0F8404201339342F8D35DF8044B704710B51446036813F4006F01D0802200E04022D0F80832C3F375
:402F00000803D31AA34200D81C462246FFF7D0FF204610BDF8B507460D461446D0F8006206F00F060BE0224629463846FFF7DCFF072E01D9430000E003461D44241A002CE7
:402F4000F1D1F8BD30B4036813F4006F01D0802200E04022002408E0D0F80832C3F308039A42F9D0C0F8405201340D5D002DF3D130BC704702E0C0F84012013A002AFAD153
:402F8000704700BF10B51446036813F4006F01D0802200E04022D0F80832C3F30803D31AA34200D81C462246FFF7E4FF204610BD10B54A6841F201039A4231D1D0F8083314
:402FC000C3F30803B3B10B6A43F040030B620B7873B1D0F8043343F48033C0F80433D0F8043323F48033C0F80433D0F8043301E0D0F840330B6A43F020030B620B6A23F042
:4030000010030B62036E23F4204303660023C0F8C83F0123C0F8C03FD0F8C03F202221E0D0F80832C3F30802D0F80832C3F3C03313440A6BD21A4A630A6A12F0080F05D1C0
:40304000CA6A1A44CA628A6AD31A8B620B6A43F004030B620B6A23F001030B620023C0F8883F1022D0F84C4F40F201131C420DD0036823F00043036000238366C366036833
:4030800043F000430360036842F040024FF080534B604B6C0BB11046984710BDD0F80C3F13F0020F1DD00222C0F8002FD0F8002FD0F8002F12F0040F02D04FF4001001E0FE
:4030C0004FF480108A6802438A604A68B2F5B81F07D00A7B12B14FF4C01201E04FF4B0124A6013F4807F03D08A6842F400028A6013F0010F03D08A6842F480028A6040F24F
:403100001112134202D04FF4C0134B60704700BF0023C0F8C83FC0F8883F836E23B140F21713C0F8083F704740F21313C0F8083F182383664FF4B8134B60704738B5D0F836
:403140000C4F036E23F4807303660023C0F8C83FC0F8883FC0F8083F40F21713C0F8003FD0F8003F8B6823F480338B604B7B13B18B69CB610BE08D69D0F80822C2F3080272
:40318000D0F80832C3F3C0331344EB1ACB6140F201131C421BD0036E9B0F032B05D114F4827F14BF0123002300E001235BB1036823F00043036000238366C366036843F004
:4031C0000043036003684FF080534B601BE00B7893B1D0F8043343F48033C0F80433D0F8043323F48033C0F80433D0F804330123C0F8C03FD0F8C03F0B7B0BB10B4B01E095
:403200004FF080534B604A6C72B14B7B13B14FF4802001E04FF400308B6813F0F87301D04FF400231843904738BD00BF000010100346002940DB11F0C00F06D0002181665E
:403240004FF0805050602F4844E011F4807F36D111F0010F0ED050682B49884232D1196E11F0804F0CBF012100214FF08050506026482FE011F0020F06D05068224988428B
:4032800023D10021224825E011F0100F05D04FF080515160002108461CE050681A49884216D1517B11B14FF4881101E04FF4A0115160002108460DE0012116480AE00121C5
:4032C000154807E00121114804E00021134801E00021084679B1196821F00041196000219966D966196841F0004119601B684FF080535360704740F21712C3F8002FD3F80F
:40330000003F70470820AA00000013100620AA000420AA000320AA000720AA000520AA00036853B110B50446012001F0F7FB2368013B23601BB1002010BD002070474FF0FC
:40334000004010BD70B505460C4691F8243013F0FF0F0ED1CB6A63B94B6C0BB108209847E36AB3FA83F35B0984F824300123C5F8883F94F8243013F0FF0F16D063783BB1FC
:403380002B6813F4006F01D0802202E0402200E00122FF212846FFF7F5FD236B18442063236A43F00803236270BDE26A012A11D963780BB1013A00E00122A16A2846FFF745
:4033C00093FD236B03442363E36A1B1AE362A36A1844A062D5F80832C3F30803802B23D0E36A012B20D101F010FCA36A1B78C5F840324026C5F8806FD5F8803F01F009FC80
:40340000236B013323630023E362A36A0133A362C5F8886F63783BB1236A43F002032362636C0BB10420984770BD00BF38B54B68B3F5A81F03D14FF4C0134B6038BD4B680B
:40344000B3F5A01F4DD10C4605464A69012A11D94B780BB1013A00E0012221692846FFF743FDA3690344A36163691B1A6361236903442361D5F80832C3F30803802B14D0AD
:403480006369012B11D101F0C0FB23691B78C5F840324023C5F8803FD5F8803F01F0B9FBA3690133A361002363616369CBB9237B33B14023C5F8883F4FF4A813636005E09E
:4034C0000023C5F8883F4FF4B0136360637843B1A36843F40033A360636C13B14FF48030984738BD70B504460D468A6C82B3036813F4803F06D0D0F84C3F13F0400F03D04F
:40350000022002E0002000E00020236E13F4006F06D1D4F84C3F13F0800300D001231843C0B190470123C4F8C03FD4F8C03F024648B91023C4F8403FD4F8403F40F2D11353
:40354000C4F8483F07E040F2C113C4F8483F02E0002200E00022D4F8043243F48033C4F80432D4F8043223F48033C4F80432D4F804320AB9012300E00223E366002A59D1AB
:40358000666E06F010066B6C23B10EB1012000E0022098477EB141F202036B602B6A43F001032B626B6B2B63002385F824300123C4F8883F70BD41F201036B602B6A43F03E
:4035C00010032B620123C4F8C83F2B78BBB1EB6BBBB1236E43F400532366ED6B802D05D9A5F18003802B0ED8813D0DE0013D236E43F4004323660023C4F8C83F04E00025D6
:4036000002E0002500E03F25236813F4006F01D0802300E040239D4204D34FF42071064801F088FAD4F8043323F0FF03EDB21D43C4F8045370BD00BF6436091038B54B68D3
:40364000B3F5881F03D0B3F5901F1AD038BD0B69D0F840231A708B6901338B614B69013B4B612BB10B6901330B610423836638BD0B7B13B14FF4C01301E04FF4B0134B6032
:4036800038BD0C4605464A690969FFF7EFFBA3690344A36163691B1A6361226910442061012B24D82B6E23F480732B666369012B16D12B6813F4006F01D0802300E04023FC
:4036C00023B94FF42071184801F034FAD5F8043323F0FF03C5F804334FF48813636038BD0023C5F8C83F4FF4B013636038BD402B01D89C1E00E03F242B6813F4006F01D038
:40370000802300E040239C4204D34FF42071064801F010FAD5F8043323F0FF02E3B21343C5F8043338BD00BF6436091038B5CB6B002B50D00B78002B3FD00C460546D0F8E3
:403740000423D2B20132896BFFF790FB236C03442364E36B1B1AE363A26B1044A063802B06D9A3F18002802A0FD8A3F181040DE02B6E43F400432B66E36B0BB15C1E00E02D
:4037800000240023C5F8C83F00E03F242B6813F4006F01D0802300E040239C4204D34FF42071104801F0C6F9D5F8043323F0FF02E3B21343C5F8043338BD0123C3668A6B3C
:4037C0000B6CD0F84003D0540B6C01330B64CB6B013BCB6338BD0223C3660023C0F8C83F38BD00BF64360910F8B50B78012B03D00C7A1CB9002702E0002700E001270028F3
:4038000000F0A780002900F0A680002A00F0A58016460C460546013BDBB2022B03D94F214F4801F087F9637803B163791BB150214B4801F07FF994F90330002B03DA5121D2
:40384000474801F077F9237913F0010F03D05221434801F06FF92369102B03D95321404801F068F9E368102B03D954213C4801F061F9637913B14FF4803100E00021E279F8
:4038800012B14FF4807300E000230B4343F400632B60A37913B94FF4006300E000232269013A02F00F021A43E368013B1B01DBB21343227843EA82732B6617B140F20733DB
:4038C00001E040F20713C5F800330FB1254B00E0254B2B6763780BB17F2300E00023C5F80433E3785B00DBB2227943EA0243C5F810331E4BC5F80032A3780BB1402300E0A7
:403900000123C5F804320023C5F8C83EC5F8883EC5F8C83FC5F8883FC5F8083F2378022B02D040F2D11300E00023C5F8483F63783370A37873704FF0805373600020B06033
:40394000B06130623064F0633063F0627064B064F8BD0748F8BD0648F8BD0548F8BD00BFA836091003002A0013102A00070101000120AA0038B505460C4621B940F2C321B4
:40398000194801F0D7F82B6E9B0F012B17D1174B2344174A93421ED9A4F5BD13A3F5D66302F5611202F56162934216D9A4F57104A4F533440F4B9C4211D80F4838BD84B1B7
:4039C000286EC0F303102B6E03F00F0318440230B4FBF0F038BD094838BD094838BD002038BD002038BD00BFA836091020AD88FF405B730040555C0440420F00801A0600C7
:403A0000A08601002DE9F84307468846914622B940F21221624801F08DF808F1FF34614B9C4204D940F213215D4801F083F83B6E9B0F012B0DD149463846FFF79BFF05466D
:403A4000D7F8003323F40073C7F80033564B3B67A2E0544B9C421FD8544B984509D8A9F5BD13A3F5D663524A934218D90021012328E0504B984507D84F4B4B444F4A934256
:403A800013D9002101231DE04D4B4B444D4A934212D90021012315E00021012312E0002141F288352E460B460CE000214FF461754FF4C8660B4605E001214FF4BE754FF46B
:403AC0001B760023002B66D13F4BB3FBF9F3B6FBF3F404FB03F2964200D90134102C00D910240F2C8CBF00220122B5FBF3F606FB03F39D4200D90136102E00D91026A5197C
:403B0000B9FBF5F50FE022B10F2C09D80134002206E00F2E04D801360F2C8CBF00220122A519B9FBF5F5454502D9A3191F2BEAD941B1D7F8003343F40073C7F80033234B29
:403B40003B6707E0D7F8003323F40073C7F80033154B3B67E31F092B04D940F283511C4800F0E8FF3B6E23F0F003013C2401E4B223433B66731F0B2B04D94FF4B4611448E1
:403B800000F0D8FF3B6E23F00F03013E06F00F061E433E6600E000252846BDE8F88300BFA83609103F420F0013102A00A0860100502D1900801A060020AD88FFA043210046
:403BC000807E25FFC02BAF0000CA9A3B03002A00E83609102DE9F04182B005460C4617469846089E11F0800F04D04FF4D961314800F0A0FF304B984504D940F2C9612D4820
:403C000000F098FF012F04D940F2CA61294800F091FF0023C5F8483F7368B3F1805F41D14FF47A7303FB08F30193244B7360012F14BF00230123737340F21713C5F8003F44
:403C4000D5F8003F0423C5F8C03FD5F8C03FD5F8043243F48033C5F80432D5F8043223F48033C5F80432D5F804326400E4B23C43C5F840420223AB66D5F8004F24F0F804CC
:403C8000E405E40DD5F8403F03F0C0031C4301A8FFF746FB54EA0001EED032462846FFF7C7FA00E0064840F2D113C5F8483F02B0BDE8F081A83609103789410000001310E4
:403CC0000220AA002DE9F04182B005460F4614469846089E11F0800F04D040F229712A4800F028FF294B984504D940F22A71264800F020FF012C04D940F22B71224800F09E
:403D000019FF736813F4801F39D04FF47A7303FB08F301931E4B7360012C14BF0023012373736B6E13F0200F01D0092300E00123AB666B6E13F0200F05D0002009E001A80C
:403D4000FFF7EEFA00E0002018B9AB6E13F0010FF5D170B97F00FFB23C43C5F84042D5F8000F40F20714044001A8FFF7D9FA2043F5D0324601462846FFF75AFA00E00548E0
:403D800002B0BDE8F08100BFA836091037894100000013100220AA0070B582B005460C461646134B994204D940F28C71114800F0C1FE736813F4801F17D04FF47A7303FB62
:403DC00004F401941823AB66D5F8004F24F0EE04E405E40D01A8FFF7A3FA54EA0001F3D032462846FFF724FA00E0034802B070BD37894100A83609100220AA002DE9F0439F
:403E000083B0074688461C460A9D914622B94FF4FB61244800F08EFE234B9C4204D940F2D971204800F086FEB8F1010F04D940F2DA711C4800F07EFE6B68B3F5881F2BD170
:403E40004FF47A7303FB04F40194D7F8C06F06F00406D7F8001F40F201140C4001A8FFF75FFA44EA00010EB90029EED046B1D7F8403389F800300523C7F8C03FD7F8C03F95
:403E80002A463846FFF7D4F9034630B9B8F1000F03D10422BA6600E0044B184603B0BDE8F08300BFA8360910378941000220AA00F0B583B005460F4614461E46134B9A4202
:403EC00004D940F63201124800F034FE7368B3F5A01F17D14FF47A7303FB04F40194C5F84072D5F8004F24F0F804E405E40D01A8FFF716FA54EA0001F3D032462846FFF719
:403F000097F900E0034803B0F0BD00BF37894100A83609100220AA0070B504460E46D0F88C3E13F0010F07D04FF480534B600123C0F8803ED0F8803ED4F84C5F40F2011306
:403F40001D420FD0336A15F4807F02D04FF4807200E08022134333620023C4F8C83F45F010050EE015F0100F0BD0D4F80833C3F3080333B1F36B23B10123C4F8C43FC4F850
:403F8000C83FD4F8CC3F13F0010F08D031462046FFF7CCFB0123C4F8C03FD4F8C03F15F0100F0AD031462046FFF702F81023C4F8403FD4F8403FD4F84C5F15F0C00F0DD048
:403FC00031462046FFF78EFA0123C4F8803ED4F8803EC023C4F8403FD4F8403FD4F88C3F13F0410F08D031462046FFF7ABF90123C4F8803FD4F8803F70BD00BF70B5064615
:404000000D46D0F8004E14F0020F0AD0836E2BB1002383668B6843F080738B604FF4C0136B6014F0010F05D029463046FFF736F824F0040414F0080F08D029463046FFF78E
:40404000FDFA0123C6F8C03FD6F8C03F14F0040F08D029463046FFF7E9F90123C6F8803FD6F8803F6B68B3F5C01F03D129463046FFF764F86B68B3F5B01F03D12946304659
:40408000FFF746F870BD00BF08B54B6813F4801F02D0FFF7B3FF08BDFFF73EFF08BD00BF002800F02481F8B50546002900F0218117460C460B78012B03D93F218F4800F003
:4040C00039FD6378012B07D9052B05D0022B03D040218A4800F02EFDA378032B03D94121864800F027FD2378012B07D16368023B0E2B03D94321814800F01CFDA36933F0C6
:404100000F0303D044217D4800F014FDA368043B0C2B03D94521794800F00CFDE368043B0C2B03D94621754800F004FD6378022B07D0A268E3689A4203D047216F4800F04E
:40414000F9FC636A33F06D0303D049216B4800F0F1FCE36A33F0730303D04A21674800F0E9FC236B33F4206303D04B21634800F0E1FC6378A678052B07D8DFE803F00603BB
:4041800005060603022600E00026A368082B04D8E368082B03D9002302E0002300E0012313B14FF4006200E00022237F13B14FF4807300E000231A436368013B03F00F03AA
:4041C000134343F080732B60226A2B6813F4006F01D0802300E040239A4203D35821474800F0A8FCA26A2B6813F4006F01D0802300E040239A4203D35921404800F09AFC18
:40420000237D0BB9012100E000216278052A01D1022300E000230B43E17C09B1102100E000210B43617C09B1202100E000210B432178012902D14FF0004100E000210B4383
:40424000B60006F00C063343A169090201F470610B43120602F0407213432B62237C13B14FF4807200E00022A37C13B14FF4007300E000231A43A368013B03F00F0313430D
:40428000C5F8003394F82030C5F80433237C13B14FF4807200E00022E368013B03F00F031343C5F8003294F82830C5F80432636A03F06D03C5F8C83FE36A03F07303C5F895
:4042C000883F236B03F40073C5F8003F236B03F40063C5F8403F0023C5F8C83E5FB118463B60BB61FB60FB61054B3B62F8BD054870470448F8BD0020F8BD00BF283709106A
:40430000EFCDAB000140AA00036823F00043036019B100220A60CA608A61036A002B04DB0023C0F8C83FC0F8883F70472DE9F84305460C46036813F4006F02D04FF08008A5
:4043400001E04FF04008D5F8007207F00F07A26A012A19D9D4F82490E262561EB9F1000F00D026B940F27351254800F0E3FB324649462846FEF7B8FDA36A1B1AA362072FF3
:4043800000D9400048446062D5F80832C3F30803984533D0A36A012B30D10023A362072F02D8636A1E7801E0636A1E8800F02DFCC5F840624FF40073C5F8803FD5F8803F8F
:4043C00000F027FCD5F8883F23F4007222F0010242F4007623F4EE6323F0030323B140F22A41084800F0A6FBC5F8886F236843F002032360236B0BB101209847BDE8F88395
:4044000068370910643609102DE9F04105460C46036813F4006F01D0802600E040267608A769D4F81C8017B1B8F1000F04D14FF49961314800F07EFB424639462846FEF7BB
:4044400015FD236A03442362E3691B1AE36173BBA368FBB1E3689E4201D8013E00E05E1E2B6813F4006F01D0802300E040239E4204D34FF42071214800F05CFBD5F8043389
:4044800023F0FF03F6B21E43C5F804630123C5F8C83F02E00023C5F8C83F636823F001036360236B33B304209847BDE8F081A169D5F8002302F00F02072A00D94000084444
:4044C000A0619E4216D95C1E2B6813F4006F01D0802300E040239C4204D34FF42071074800F028FBD5F8043323F0FF02E3B21343C5F80433BDE8F08168370910643609104F
:40450000002800F0A48170B50546002900F0A18116460C460B78022B03D93F21A24800F009FB637B023BDBB2062B03D940219E4800F000FBA37B3BB1022B05D0032B03D027
:404540004121994800F0F6FA94F82130012B03D94221954800F0EEFA94F82830012B03D94321914800F0E6FA2378012B06D86368083B082B94BF0023012307E0A37F2BB1BD
:404580006368013B062B94BF002301231BB14521854800F0CFFAA368053B042B03D94621814800F0C7FA6369FF2B03D947217E4800F0C0FAA369FF2B03D948217A4800F063
:4045C000B9FAA37C6BB1237833B9A368092B05D1A37B2BB1012304E0012302E0012300E000231BB14A21704800F0A4FA636B23F4366323F00D031BB14C216B4800F09AFA74
:40460000E36B23F4EE6323F003031BB14D21664800F090FA2378022B01D1A37F13B16268013A00E00022237F13B14FF4803100E00021A368082B02D84FF4006300E00023A6
:404640000B4302F00F02134343F000732B60226B2B6813F4006F01D0802300E040239A4203D36221504800F065FAA26B2B6813F4006F01D0802300E040239A4203D36321F6
:40468000494800F057FA626A2B6813F4006F01D0802300E040239A4203D36421424800F049FA23781B0603F040732B64637F0BB1402200E00022A37C13B14FF4806300E0CC
:4046C00000231343227C12B14FF4807200E000221343627C12B14FF4007200E000221A43E36A013B1B0403F470231343627B013A02F007021343A27B120102F03002134303
:40470000AB64237B13B14FF4807200E00022E37B23B92378022B03D1012302E0012300E0002313B14FF4007300E000231A43A368013B03F00F031343C5F80033227DA369B7
:404740001B0403F47F031343C5F81033E26AD5F8003303F00F0303339A4201D3102A03D97A21114800F0E6F9E37F23B12378012B03D0002302E0002300E0012313B14FF438
:40478000807200E00022637B013B03F007031A43A37B1B0103F0300313436B64237B2BB14FF4807203E000BFA83709100022A368013B03F00F0313432278012A02D14FF424
:4047C000803200E000221343C5F8003294F83030C5F8043394F8203013B14FF0007200E0002294F82130012B02D14FF0807300E00023134394F82820012A02D14FF480325F
:4048000000E00022134394F8242013432B6594F83830C5F80432636B23F4926323F002031B051B0DC5F8C83FE36B23F08C035B055B0DC5F8883F76B1002070603060B06092
:40484000F0603062F0623063044B736370BD04487047034870BD002070BD00BFEFCDAB000160AA000B694A69934202D34869181A7047CA694869101A184470472DE9F04153
:4048800007460D46036813F4006F02D04FF0800801E04FF040084FEA5808D7F80863C6F308062C6926E00134EB689C4200D100246B699C420FD12B6B0BB1082098476B6927
:4048C0009C4208D10023C7F8C83F0CB1013C13E0EC68013C10E0D7F84023D7F8003303F00F03072B02D8AB681A5502E0AB6823F81420013E002ED6D12C61EC6829463846BD
:40490000FFF7B0FF201A804519D908B1441E00E000243B6813F4006F01D0802300E040239C4204D34FF42071064800F003F9D7F8040320F0FF03E0B21843C7F80403BDE8EF
:40494000F08100BF6436091038B504460D46D0F8003E13F0080F35D0D0F8CC3F13F448730AD04A681A434A60C0F8C03FD0F8C03F0B6B0BB110209847D4F8CC3F13F4006F71
:4049800009D06B6843F400636B604FF40063C4F8C03FD4F8C03FD4F8CC3F13F0010F11D0EB6923B129462046FFF72EFD05E0AB681BB129462046FFF761FF0123C4F8C03F03
:4049C000D4F8C03FD4F8003E13F0040F2ED0D4F88C3F13F4A0630AD02A681A432A60C4F8803FD4F8803F2B6B0BB120209847D4F88C3F13F0010F08D029462046FFF796FC84
:404A00000123C4F8803FD4F8803FD4F88C3F13F4007F0BD00022C4F8882F2B6823F001032B60EA622B6B0BB10220984738BD00BF38B50D4B9A680D4B9A420FD10D4604463F
:404A400021B940F237110A4800F074F804F11003064A52F8230042F8235038BD1030054B53F8200038BD00BF00ED00E000400208E83709100000081048B338B504460D4632
:404A80004368072B03D93221134800F053F8B4F900306268002B08DB5201D2B203F1604303F5614383F8002305E003F00F035201D2B20A49CA540A4B9A680A4B9A4208D164
:404AC0002946B4F90000FFF7B3FF002038BD06487047002038BD00BFE837091014ED00E000ED00E0004002080100560010B5044605E0084B186800F07FF8A4F50044B4F5C9
:404B0000004FF6D8044B186800FB04F000F074F810BD00BFA8420208A442020808B5034B1B7800FB03F000F067F808BDA042020801BEFEE738B50D46044C18220146204627
:404B40000CF0A9FEA5610020FFF7F2FF08580208FEE700BF08B50268254BDA6142681A6282685A62C2689A620269DA6242691A6382695A63C2699A631E4A916AD963D16A3A
:404B80001964516A5964516B9964926BDA64F1EE103A13F0900F27D0026A154B1A65426A5A65826A9A65C26ADA65026B1A66426B5A66826B9A66C26BDA66026C1A67426CED
:404BC0005A67826C9A67C26CDA67026DC3F88020426DC3F88420826DC3F88820C26DC3F88C20026EC3F89020FFF7B2FF08BD00BF0858020800ED00E00230800803D00130DB
:404C00000238FCD100BF00BF7047EFF3108072B6704780F31088704700287DD00346002A7CD070B45068000280B29568AD0405F480252843D468240404F44034044310699A
:404C4000000600F0E0602043147F0CB1012400E0002420430C1DA4011851D06828B903EB81100024C0F808410CE0012805D1146803EB8110C0F8084104E003EB811001245C
:404C8000C0F80841106938B9546903EB8110C0F80C419469C0F81041146803EB8110C0F81441906CB0F1FF3F17D0946A04F00F04166B360206F470663443956B2D0405F449
:404CC00070252543146C2403A4B22C430001C0B2204303EB8114C4F82001506A00F00300D66A360106F030063043556B2D0205F440752843D46BA401E4B20443506C80004D
:404D000000F00C00204303EB8113C3F82401126AC3F83821002003E0024870470148704770BC70470100B600014B1860704700BF7430040800F1080343604FF0FF328260A9
:404D4000C360036100230360704700BF00230361704700BF43684B609A688A609A68516099600861036801330360704730B40D68B5F1FF3F01D1026907E000F1080200E067
:404D80001A4653681C68A542FAD253684B6099608A605160086103680133036030BC704703694268816891608268416851605A68904201D182685A60002202611A68013A19
:404DC0001A601868704700BF436A23B1036B1868C0F1070070470020704700BF10B5044601F0F8FBA26BE36B9A4201D1012400E0002401F011FC204610BD00BF10B50446AB
:404E000001F0E8FBA36B0BB9012400E0002401F003FC204610BD00BF70B504461646856B026C3AB9036843BB406801F0E5F80023636029E06EB980680CF0F7FCA268236C40
:404E40001344A3606268934219D32368A36000201AE0C0680CF0E9FC236C5B42E2681A44E26021688A4202D262681344E360022E07D145B1013D002006E0002004E0002093
:404E800002E0002000E000200135A56370BD00BF026C72B110B50346C4681444C4604068844201D31868D8600846D9680CF0BDFC10BD704738B5054601F08CFB95F84540FB
:404EC00064B20AE06B6A53B105F1240000F094FF08B101F01FF8013C64B2002CF2DCFF2385F8453001F098FB01F074FB95F8444064B20AE02B6953B105F1100000F07CFF1C
:404F000008B101F007F8013C64B2002CF2DCFF2385F8443001F080FB38BD00BF38B540B94FF03F0383F31188BFF36F8FBFF34F8FFEE704460D4601F04DFB2168E26B236C72
:404F400003FB021060600020A063A160013A02FB0313E360FF2384F8443084F845307DB92369ABB104F1100000F046FF80B14FF08052094B1A60BFF34F8FBFF36F8F07E01A
:404F800004F11000FFF7D6FE04F12400FFF7D2FE01F042FB012038BD04ED00E010B5029B0C4609B91B6000E01A60D8631C6401211846FFF7B3FF10BD40B94FF03F0383F343
:404FC0001188BFF36F8FBFF34F8FFEE7F0B583B0034611B101FB00F000E000201D4617460C46483001F038FC064638B100903B4600F1480221462846FFF7D0FF304603B031
:40500000F0BD00BFF0B585B0019240B94FF03F0383F31188BFF36F8FBFF34F8FFEE7044619B9026C1AB9012202E0012200E0002242B94FF03F0383F31188BFF36F8FBFF375
:405040004F8FFEE7022B03D1E26B012A02D102E0012200E0002242B94FF03F0383F31188BFF36F8FBFF34F8FFEE71D460E4600F05FFF18B9019B1BB9012302E0012300E01A
:40508000002343B94FF03F0383F31188BFF36F8FBFF34F8FFEE7002701F09CFAA26BE36B9A4201D3022D21D12A4631462046FFF7B3FE636A6BB104F1240000F09DFE88B188
:4050C0004FF08052324B1A60BFF34F8FBFF36F8F08E038B14FF080522D4B1A60BFF34F8FBFF36F8F01F098FA01204EE0019B1BB901F092FA002048E01FB902A800F0C0FE1D
:40510000012701F089FA00F0ADFC01F063FA94F844305BB2B3F1FF3F02D1002384F8443094F845305BB2B3F1FF3F02D1002384F8453001F071FA01A902A800F0ABFEF0B94E
:405140002046FFF74BFEA0B1019904F1100000F01BFE2046FFF7AEFE00F012FD00289BD14FF080520A4B1A60BFF34F8FBFF36F8F92E72046FFF79EFE00F002FD8CE720469D
:40518000FFF798FE00F0FCFC002005B0F0BD00BF04ED00E048B108B5002141600160C1600B460A46FFF72EFF08BD704710B5024600210120FFF700FF0446FFF7EBFF20465B
:4051C00010BD00BF2DE9F84340B94FF03F0383F31188BFF36F8FBFF34F8FFEE7044619B9006C18B9012002E0012000E0002040B94FF03F0383F31188BFF36F8FBFF34F8FDE
:40520000FEE7022B03D1E06B012802D102E0012000E0002040B94FF03F0383F31188BFF36F8FBFF34F8FFEE71F469046894601F0D5FAEFF311864FF03F0383F31188BFF30B
:405240006F8FBFF34F8FA26BE36B9A4201D3022F1ED194F845506DB23A4649462046FFF7DBFDB5F1FF3F0DD1636A9BB104F1240000F0C2FD80B1B8F1000F0FD00120C8F8A6
:4052800000000CE06B1C5BB284F84530012006E0002004E0012002E0012000E0012086F31188BDE8F88300BF40B94FF03F0383F31188BFF36F8FBFF34F8FFEE770B504463F
:4052C000036C43B14FF03F0383F31188BFF36F8FBFF34F8FFEE703681BB943681BB9012302E0012300E0002343B94FF03F0383F31188BFF36F8FBFF34F8FFEE70E4601F0B5
:405300006DFAEFF311854FF03F0383F31188BFF36F8FBFF34F8FA26BE36B9A4218D294F845305BB20132A263B3F1FF3F0AD1636A83B104F1240000F05FFD68B176B10120D3
:4053400030600CE001335BB284F84530012006E0002004E0012002E0012000E0012085F3118870BDF0B585B0019240B94FF03F0383F31188BFF36F8FBFF34F8FFEE70446AC
:4053800019B9036C1BB9012302E0012300E0002343B94FF03F0383F31188BFF36F8FBFF34F8FFEE70E4600F0C3FD18B9019B1BB9012302E0012300E0002343B94FF03F030B
:4053C00083F31188BFF36F8FBFF34F8FFEE7002701F000F9A56BC5B131462046FFF758FD013DA563236963B104F1100000F004FD38B14FF08052304B1A60BFF34F8FBFF3AD
:405400006F8F01F009F9012053E0019B1BB901F003F900204DE01FB902A800F031FD012701F0FAF800F01EFB01F0D4F894F844305BB2B3F1FF3F02D1002384F8443094F8AB
:4054400045305BB2B3F1FF3F02D1002384F8453001F0E2F801A902A800F01CFDF0B92046FFF7CCFCA0B1019904F1240000F08CFC2046FFF71FFD00F083FB0028A8D14FF0AA
:4054800080520D4B1A60BFF34F8FBFF36F8F9FE72046FFF70FFD00F073FB99E72046FFF709FD00F06DFB2046FFF7A8FC00288FD0002005B0F0BD00BF04ED00E070B584B090
:4054C000019140B94FF03F0383F31188BFF36F8FBFF34F8FFEE70446036C43B14FF03F0383F31188BFF36F8FBFF34F8FFEE700F01FFD18B9019B1BB9012302E0012300E0B3
:40550000002343B94FF03F0383F31188BFF36F8FBFF34F8FFEE700252E4601F05BF8A36BCBB1013BA363236813B900F005FE6060236963B104F1100000F05EFC38B14FF0CD
:405540008052414B1A60BFF34F8FBFF36F8F01F063F8012076E0019B6BB945B14FF03F0383F31188BFF36F8FBFF34F8FFEE701F053F8002066E01EB902A800F081FC01262E
:4055800001F04AF800F06EFA01F024F894F844305BB2B3F1FF3F02D1002384F8443094F845305BB2B3F1FF3F02D1002384F8453001F032F801A902A800F06CFC40BB20467F
:4055C000FFF71CFCF0B123683BB901F003F8606800F0BEFC054601F01FF8019904F1240000F0D2FB2046FFF765FC00F0C9FA002893D14FF08052144B1A60BFF34F8FBFF334
:405600006F8F8AE72046FFF755FC00F0B9FA84E72046FFF74FFC00F0B3FA2046FFF7EEFB00283FF47AAF65B100F0D4FF2046FFF7CBFB0146606800F029FD00F0EDFF002017
:4056400000E0002004B070BD04ED00E000230BE0074A52F8332032B9054A42F8331002EBC303586070470133092BF1D9704700BF7830040870B504460D46164600F0AAFF90
:4056800094F844305BB2B3F1FF3F02D1002384F8443094F845305BB2B3F1FF3F02D1002384F8453000F0B8FFA36B2BB93246294604F1240000F082FB2046FFF7FBFB70BDB9
:4056C000094B9B6A1B680BB9012300E0002323B14FF0FF32044BDA627047034B9A6AD268D2685268DA6270475412030810B50446006B01F0E1F8204601F0DEF810BD00BF7C
:405700002DE9F04780460D4616469946DDF820A0099F0A9C9200A521206B0CF0ACF8236B06F18042013A03EB820626F00706002306E0E95CE21882F83410EA5C12B1013304
:405740000F2BF6D9002384F84330BAF1060F01D94FF0060AC4F82CA0C4F844A00025A564201DFFF7F3FA04F11800FFF7EFFA2461CAF10703A36164622B4606E003F1120250
:4057800004EB8202002151600133042BF6D90023236684F864304A464146304600F0EEFE206007B13C60BDE8F08700BF70B5002407E004EB8402930010481844FFF7BAFA08
:4057C0000134062CF5D90E4C04F1BC063046FFF7B1FA04F1D0052846FFF7ACFA04F11400FFF7A8FA04F1E400FFF7A4FA2046FFF7A1FAA662C4F8F85070BD00BF84120308DA
:405800005412030838B5044600F0E4FE264BD3F8FC200132C3F8FC20D3F800314BB9224BC3F80041D3F8FC30012B10D1FFF7BEFF0DE01D4BD3F804314BB91B4BD3F80031B1
:40584000DA6AE36A9A4202D8174BC3F80041164AD2F808310133C2F80831E36AD2F80C21934202D9104AC2F80C310F4D05F1300003EB83039A00211D1044FFF76BFA00F047
:40588000CBFED5F804316BB1D5F80031DA6AE36A9A4207D24FF08052044B1A60BFF34F8FBFF36F8F38BD00BF5412030804ED00E038B517E000F08EFE0D4CD4F8F030DD68C3
:4058C000281DFFF76DFAD4F8FC30013BC4F8FC30D4F81031013BC4F8103100F09DFE2846FFF704FF024BD3F81031002BE2D138BD5412030808B5FFF7DBFF064B1B6B012B85
:40590000F9D94FF08052044B1A60BFF34F8FBFF36F8FF0E75412030804ED00E070B504460E46174BD3F81451D3F800010430FFF737FAB4F1FF3F07D136B11148D0F8001112
:405940000431FFF707FA70BD2C440D4BD3F800315C60A54208D90A4BD3F8F800D3F800110431FFF703FA70BD054DA86AD5F800110431FFF7FBF9EB6A9C4200D2EC6270BD5C
:40598000541203082DE9F04385B006460F4615469846900000F060FF60B18146682000F05BFF044610B1C0F8309004E0484600F083FF00E000248CB10023039302940D9BF6
:4059C00001930C9B009343462A4639463046FFF797FE2046FFF716FF012001E04FF0FF3005B0BDE8F08300BF00B583B0194B019300230093802218491848FFF7C3FF012819
:405A000001D100F0FFFB012814D14FF03F0383F31188BFF36F8FBFF34F8F114B4FF0FF32DA620122C3F804210022C3F8142100F073FE0BE0B0F1FF3F08D14FF03F0383F3B4
:405A40001188BFF36F8FBFF34F8FFEE703B05DF804FB00BF701303089C390910F558081054120308034AD2F818310133C2F81831704700BF54120308014BD3F814017047EF
:405A8000541203082DE9F0413C4BD3F81831002B65D13A4BD3F814410134C3F81441CCB99B6A1B6843B14FF03F0383F31188BFF36F8FBFF34F8FFEE7304B9A6AD3F8F81040
:405AC0009962C3F8F820D3F820210132C3F82021FFF7F6FD294BDB6A9C4203D2002645E0012600E00026254B9B6A1B680BB9012300E0002323B14FF0FF32204BDA6235E0ED
:405B00001E4B9B6ADB68DD686B689C4202D21B4AD3622BE005F104084046FFF741F9AB6A1BB105F11800FFF73BF9EB6A134AD2F80C21934202D9114AC2F80C310F4F07F173
:405B4000300003EB83039A0041461044FFF702F9EA6AD7F80031DB6A9A42C1D2C3E7074AD2F824310133C2F824310026034BD3F8283103B101263046BDE8F0815412030846
:405B8000394BD3F8183143B94FF03F0383F31188BFF36F8FBFF34F8FFEE770B500F01AFD314BD3F81821013AC3F81821D3F81831002B52D12C4BD3F8FC303BBB00244FE0A8
:405BC000294D2B6ADC6804F11800FFF7E9F8261D3046FFF7E5F8E36AD5F80C21934201D9C5F80C31204D05F1300003EB83039A0031461044FFF7AEF8E26AD5F80031DB6A5F
:405C00009A4204D30122C5F8282100E00024164B5B69002BD4D10CB1FFF752FD124BD3F8244164B1FFF72EFF18B101220E4BC3F82821013CF6D100220B4BC3F824210A4BAE
:405C4000D3F828315BB14FF08052084B1A60BFF34F8FBFF36F8F012402E0002400E0002400F0DAFC204670BD5412030804ED00E010B5B0B10446104BD3F8183143B14FF0FA
:405C80003F0383F31188BFF36F8FBFF34F8FFEE7FFF7E8FE00212046FFF740FEFFF770FF00E0002038B94FF08052044B1A60BFF34F8FBFF36F8F10BD5412030804ED00E058
:405CC000304BD3F8183123B101222E4BC3F82821704710B52B4B0022C3F82821D3F800311B6B1A68B2F1A53F0BD15A68B2F1A53F07D19A68B2F1A53F03D1DB68B3F1A53FD9
:405D000007D0204BD3F80001D3F80011343100F091FD1C4BD3F80C310AE043B94FF03F0383F31188BFF36F8FBFF34F8FFEE7013B03EB83018A0013490A44126B002AECD047
:405D400008469900CC18A2000244546B64685463303019448A0008320244944206D1606803EB83018A0007490A445063054903EB830082000A44526BD268C1F80021C1F88C
:405D80000C3110BD5412030840B94FF03F0383F31188BFF36F8FBFF34F8FFEE710B50C46054BD3F800111831FEF7E0FF01212046FFF7B4FD10BD00BF5412030838B540B948
:405DC0004FF03F0383F31188BFF36F8FBFF34F8FFEE70C461546074AD2F800111831FEF7B9FF0DB14FF0FF3429462046FFF796FD38BD00BF5412030838B5C368DC6844B913
:405E00004FF03F0383F31188BFF36F8FBFF34F8FFEE704F118052846FEF7C2FF154BD3F81831ABB9251D2846FEF7BAFFE36A114AD2F80C21934202D90E4AC2F80C3103EBB5
:405E400083039A0029460C481044FEF783FF03E029460A48FEF77EFFE26A064BD3F80031DB6A9A4204D90120024BC3F8280138BD002038BD541203088412030868120308D4
:405E8000034BD3F820210260D3F814314360704754120308F8B540B94FF03F0383F31188BFF36F8FBFF34F8FFEE7054641B94FF03F0383F31188BFF36F8FBFF34F8FFEE7F6
:405EC0000C4600F087FB124BD3F814016968421A2368B3F1FF3F14D02F680D4ED6F82061B74201D088420ED29A4206D29B1A23602846FFF7C5FF002406E000232360012485
:405F000002E0002400E0012400F086FB2046F8BD541203080122024BC3F82821704700BF54120308014BD3F80001704754120308064BD3F804312BB1044BD3F818311BB95A
:405F400002207047012070470020704754120308002849D038B50346C26A2549D1F80011C96A8A4237D28169002906DB2049D1F80011C96AC1F107018161586902EB8202FD
:405F800091001C4A1144884201D1012200E00022D2B11D461C1D2046FEF702FF144AD2F80031DB6AEB62D2F80C21934202D9104AC2F80C3103EB83039A0021460D48104458
:405FC000FEF7C8FE012038BD094AD2F80021D26ADA62012038BD426C054BD3F80031DB6A9A4203D3002038BD00207047012038BD541203088412030800283DD038B5034694
:40600000204AD2F80021904208D04FF03F0383F31188BFF36F8FBFF34F8FFEE7826C42B94FF03F0383F31188BFF36F8FBFF34F8FFEE7013A8264C06A596C88421ED0FAB993
:406040001C461D1D2846FEF7ABFE636CE362C3F10702A2610B4AD2F80C21934202D9094AC2F80C3103EB83039A00294606481044FEF770FE012038BD00207047002038BDDA
:40608000002038BD541203088412030800284DD038B50346806C40B94FF03F0383F31188BFF36F8FBFF34F8FFEE75A6C8A4200D20A46D96A8A4238D0012836D11C48D0F87D
:4060C0000001834208D14FF03F0383F31188BFF36F8FBFF34F8FFEE7DA629869002802DBC2F107029A61586901EB81018A0011490A44904201D1012200E00022AAB11C466C
:406100001D1D2846FEF74CFEE36A094AD2F80C21934202D9064AC2F80C3103EB83039A00294604481044FEF715FE38BD704700BF5412030884120308064BD3F800312BB11F
:40614000044BD3F80021936C01339364014BD3F80001704754120308064B1A681368B3FA83F35B09036013B9D368186870470020704700BF8013030808B54160006191423E
:406180000AD8D21A83699A4211D2011D0A4B5868FEF7ECFD002008BD9A4201D2994208D2011D054B1868FEF7E1FD002008BD012008BD012008BD00BF8013030870B500F028
:4061C00009FA0E4B9B68B3B90C4C04F10C063046FEF7B0FD04F120052846FEF7ABFD2660656000220C210A20FEF7E6FEA06010B10349FFF72BFA00F00FFA70BD80130308AF
:40620000A439091000B583B0FFF7D8FF0D4B9B6853B10D4B019303230093002380220B490B48FFF7AFFB00E0002040B94FF03F0383F31188BFF36F8FBFF34F8FFEE703B042
:406240005DF804FB80130308B4130308AC390910E964081040B94FF03F0383F31188BFF36F8FBFF34F8FFEE730B585B015460446124A9068F0B11A46019102950394052947
:4062800013DCFFF755FE022807D10023089A01A90A488068FEF7B6FE0DE000231A4601A906488068FEF7AEFE05E0002301A9FEF789FF00E0002005B030BD00BF8013030833
:4062C00070B582B029E0DB681E68DC68251D2846FEF766FD636A20469847E369012B1CD1A36933449E4207D2636024612946104B1868FEF73BFD10E0002100910B4632464C
:406300002046FFF7A7FF40B94FF03F0383F31188BFF36F8FBFF34F8FFEE7054B1B681A68002AD0D1024A51681160536002B070BD8013030838B50546FFF79EFB0446074B84
:406340009B6B984204D2FFF7BBFF01232B6001E000232B60014B9C63204638BD8013030870B582B005460E46134B1B68DB68DC68201DFEF715FDE369012B18D1A1692B46B7
:40638000324629442046FFF7F7FE80B1002100910B462A462046FFF75DFF40B94FF03F0383F31188BFF36F8FBFF34F8FFEE7636A2046984702B070BD8013030870B582B0B7
:4063C00006460C46FFF74EFB01A8FFF7B3FF019B1BBB054644B9B04206D3FFF7D1FB29463046FFF7BDFF1AE02CB10E4B5B681C68B4FA84F464092246711B0A4B9868FFF748
:4064000039F9FFF7BDFB50B94FF08052064B1A60BFF34F8FBFF36F8F01E0FFF7B1FB02B070BD00BF8013030804ED00E030B587B04DE0039B002B4ADB059C636913B1201D22
:40644000FEF7AEFC02A8FFF775FF039B092B3ED8DFE803F00505053D273A05053D270499A5690B46024629442046FFF785FE70B3636A20469847E369012B28D1A26900214A
:4064800000910B46049802442046FFF7E3FEF0B94FF03F0383F31188BFF36F8FBFF34F8FFEE70499A16141B94FF03F0383F31188BFF36F8FBFF34F8FFEE703460246014459
:4064C0002046FFF759FE02E0204600F0F5F9002203A9044B9868FEF745FF0028A9D107B030BD00BF8013030800B583B001A8FFF733FE0199FFF762FFFFF798FFF6E700BFF8
:4065000082B0002301930D4B1B68B3F1FF3F08D04FF03F0383F31188BFF36F8FBFF34F8FFEE74FF03F0383F31188BFF36F8FBFF34F8F019B002BFCD002B07047C051020841
:4065400008480068006880F308884FF0000080F3148862B661B6BFF34F8FBFF36F8F00DF00BF000008ED00E0DFF80C00016841F4700101607047000088ED00E04FF0807337
:4065800040F8043C21F0010140F8081C054B40F80C3C40F8202C6FF0020340F8243C4438704700BF016508100000000000000000074B19680868B0E8F04F80F30988BFF364
:4065C0006F8F4FF0000080F311887047AFF30080541303084FF03F0383F31188BFF36F8FBFF34F8F0A4A136801331360012B0DD1084B1B6813F0FF0F08D04FF03F0383F301
:406600001188BFF36F8FBFF34F8FFEE7704700BFC051020804ED00E0094B1B6843B94FF03F0383F31188BFF36F8FBFF34F8FFEE7013B034A13600BB983F31188704700BF6D
:40664000C0510208000000000000000000000000EFF30980BFF36F8F154B1A681EF0100F08BF20ED108A20E9F04F10602DE909004FF03F0080F31188BFF34F8FBFF36F8FC6
:40668000FFF71EFB4FF0000080F3118809BC19680868B0E8F04F1EF0100F08BFB0EC108A80F30988BFF36F8F704700BFAFF300805413030808B54FF03F0383F31188BFF30C
:4066C0006F8FBFF34F8FFFF7DDF918B14FF08052024B1A60002383F3118808BD04ED00E0084A0023136008490B60084B1B680849A1FB03139B09013B06490B600723136023
:40670000704700BF10E000E018E000E098420208D34D621014E000E010B582B02A4B1A78D2B20192FF221A701B78DBB28DF803309DF80330254A03F03F031370072353608D
:4067400009E0224A5368013B53609DF803305B00DBB28DF803309DF8033013F0800FF0D11A4B5B68042B08D04FF03F0383F31188BFF36F8FBFF34F8FFEE71B0203F4E0635C
:40678000124A5360019BDBB20F4A1370104B1A6842F47F021A601A6842F07F421A60FFF79FFF00240B4B1C60FFF7DEFE0A4A136843F040431360FFF7C3FEFFF781FAFFF756
:4067C0009FFE204602B010BD00E400E0BC13030820ED00E0C051020834EF00E0EFF305830F2B0FD9104A9B5CDBB2104A1278934208D24FF03F0383F31188BFF36F8FBFF37F
:406800004F8FFEE70A4B1B6803F4E063074A5268934208D94FF03F0383F31188BFF36F8FBFF34F8FFEE77047F0E300E0BC1303080CED00E008B54FF03F0383F31188BFF3F1
:406840006F8FBFF34F8F4FF441710248FEF772F9FEE700BFB439091038B5044610F0070F02D020F007040834FFF7FCF8104B1B682BB90F4A02F10C0323F0070313600D4BDC
:40688000D3F82C3B1C4445F6F772944208D8A34208D2074A15681D44064BC3F82C4B02E0002500E00025FFF76BF9284638BD00BFC41303089C68030840B14FF03F0383F31A
:4068C0001188BFF36F8FBFF34F8FFEE7704700BF08B5074B1B7833B900F012FA00F060FA0122034B1A7000F059F800F0DFFE08BDCC73030810B5FFF7EBFF044610B900F0D0
:40690000DDFD044614B900F059FD044614B900F069FC044600F0F6FB0028FBD100F0CAFA00F08CFA204610BD70B5194D0026344629E063090433174A52F8233004F01F024E
:40694000D34013F0010F1CD0EB7E012B02D0022B09D011E0284600F0A5F806462946204600F094F90DE0284600F080F806462946204600F0F3F804E04FF4B8710648FEF7BC
:40698000D9F82C350134022CD3D9304670BD00BF683A0910C8300408043A091070B500230AE01D4A191D02EB8100002444604FF0FF3042F821000133002BF2D0174C0323A6
:4069C00025E06668A27E144B2B4400211976012A03D0D2B1032A07D917E02069A8B1228BF1790AF048FF10E023690BB1F2791A706168002307E003F1080201EB42024FF6F4
:406A0000FF7050800133002BF5D02C342B465D1E002BD6D170BD00BFC8300408683A091010B582B004460846638802A921F8083D1346228A02F0D0F9BDF8003063809DF88A
:406A4000023023719DF8033063719DF80430A37102B010BD30B40B884A889C1A0025CD800079844200DDCC8030BC70472DE9F0418468038B456890F81A8000270BE04246B2
:406A80002146284600F024FA074621462846FFF7E1FF0A3433465E1E002BF0D13846BDE8F08100BF2DE9F04780468468476890F81AA0466A0025A94616E03246398A2088FC
:406AC00002F0B2F92A4631463846FFF7A9FF0C3652462146384600F0FBF9814621463846FFF7B8FF0A340135B8F818309D42E4D34846BDE8F08700BFF0B50C8B8D684F68A7
:406B00000A69012324E010EA030403D17E88B979314402E07988BE79891BEE88B14201D3002100E01946A14202D01678013E1670A14201D014783CB920EA0300084309B986
:406B4000F97900E0012111705B000A350132744604F1FF3E002CD6D1F0BD00BF38B504468A7E154B03441D7E012A04D12846FFF7C3FF054604E04FF438711048FDF7DAFF41
:406B80000D4B23441D76620904F01F04012303FA04F445B90432084B03EB8202536823EA0404546038BD0432034B03EB820253681C43546038BD00BFC8300408303A091077
:406BC000F0B583B00B8B8A684D68D1F810E0844618B96F88A879074402E06888AF79C71B0024012009E0D3889F4201D3002300E003461C430A32400033465E1E002BF2D1A5
:406C000054B19EF8003013B1013B8EF800309EF8003023B1644602E0EB798EF800305CB10E466A88AB790F8BD21A3946B06801F04BFF034610B923E0002321E0B27E022A2F
:406C40001ED100233A46316A01A801F0A9FF034600220AE002A901EB420131F8040C02F1080105EB4101488001329342F2D807E003F1080205EB42024FF6FF7151800133A2
:406C8000002BF5D0204603B0F0BD00BF38B504468A7E194B03441D7E012A03D062B1032A05D909E02846FFF727FF054609E02846FFF786FF054604E040F226410F48FDF71B
:406CC00039FF0D4B23441D76620904F01F04012303FA04F445B90432074B03EB8202536823EA0404546038BD0432034B03EB820253681C43546038BDC8300408303A0910BE
:406D000070B51B4CA422002120460AF0B4FD4CF6DE7323804FF41063638043F2D403A3800823A383A377E377124E203406F18C050FCD0FC40FCD0FC40FCD0FC495E8030043
:406D400084E80300304606F1080403230CE0A268238B04E010F8013B53720A320B46591E002BF7D12C342B465D1E002BEFD170BDC8300408603A091002280DD800F01F0242
:406D8000012303FA02F24009031D044800EB83035B6802EA0300704700207047C83004080023024AD380024A13607047C830040818740308C9B2062902D0831800211971BF
:406DC00030F8121000EB42035980024400231372704700BF70B506460D46012305E0224629463046FFF7E6FF23465C1E002BF6D170BD00BF08B52C23054A03FB00239868AA
:406E000001EB81014A00997E1044FFF7E3FF08BD683A091038B505462C23074A03FB00231B8B04E021462846FFF7E4FF23465C1E002BF7D138BD00BF683A091010B5032376
:406E400003E02046FFF7E6FF23465C1E002BF8D110BD00BFF8B505462C230F4A03FB00235E681B8B14E02C230B4A03FB05239F6804EB8402500004EB44018A00596A0A4405
:406E8000DB7E012B03D1318A385A01F0C1FF23465C1E002BE7D1F8BD683A091010B5032303E02046FFF7D6FF23465C1E002BF8D110BD00BF08B5FFF7F1FF08BD00FA03F38B
:406EC000C2F5807001FB00F102FB0310000A70472DE9F04106460D461746012342E035F8140005EB44035988884207D3431A2A194FF0000E82F808E0012201E00B1A00220D
:406F000092B996F805E073450ED92B191B7A327A934205D3224639462846FFF74BFF20E02A19013313721CE096F804E0734504D996F805E0734514D89AB9FBB2062B10D006
:406F400005EB040898F804E0082301224EEA0121FFF7B4FFC0F30F2205EB44035A8088F8040023465C1E002BB9D10020BDE8F08110B52C23064A03FB0020846801EB81012D
:406F80004B00827EE1184068FFF7A2FF10BD00BF683A091070B506462C23084A03FB00231B8B002505E021463046FFF7E1FF054323465C1E002BF6D1284670BD683A0910FE
:406FC00038B50025032304E02046FFF7E3FF054323465C1E002BF7D1284638BD30B49F280ED940F2FE3399420AD9244CA1FB04454B1B05EB53035B0AC3EB832399422FD06F
:407000009F280DD9B1F5FF7F0AD91D4CA1FB04454B1B05EB53031B0AC3EB4323994221D09F280CD97E290AD9164CA1FB04454B1B05EB53039B09C3EBC313994214D09F28C6
:4070400014D93E2914D9104CA1FB04454B1B05EB53035B09C3EB831399420BD000200AE0042008E0032006E0022004E0002002E0002000E0012030BC704700BF0510400085
:407080002140800011080402054110044A1E032A01D8102300E0002379B183B1642202FB03F3B3FBF0F3002001E001305B00092BFBD90A2B04D9013802E0002000E0002088
:4070C000C0B2704708B501F09DFC08BD08B50A4B1A689169094B5B1ADB09526902EB03135A6822F0F8525A60054A136823F00103136000F02FFF08BD7430040880033240AE
:40710000A8023640024BD86800F08000704700BFC8300408034B0340034AD0681843D060704700BF80000100C8300408034B0340034AD06820EA0300D06070478000010091
:40714000C830040810B5164BDB6813F4803F0ED102280ED843090433114A52F8233000F01F02D34013F0010F05D1012404E0112402E0012400E0002484B92C23094A03FB3F
:407180000023DB7E022B02D101F04EFC06E0012B02D100F0F1FE01E04FF0FF34204610BDC8300408683A091008B50C4BDB6813F4803F0DD10A4B1B78012B05D0022B09D124
:4071C00001F000FB002008BD00F026FE002008BD112008BD4FF0FF3008BD00BFC83004081C740308124BDB6813F0800F1AD110B500244FF0FF3312E02046FFF7A3FF03468E
:4072000060B9012C03D801220A4B5A7002E00022084B5A70FFF7C8FF034606E00134022CEAD902E0112318467047184610BD00BFC83004081C740308124B1B78834220D05F
