:020000041008E2
:4000000000780408EB0208100D0000005103081051030810510308105103081000000000000000000000000000000000814708104D030810000000002148081085480810CC
:400040004D0308104D0308104D0308104D0308104D0308104D0308104D0308104D0308104D0308104D0308104D0308104D0308104D0308104D0308104D0308104D03081000
:400080004D0308104D0308104D0308104D0308104D0308104D0308104D0308104D0308104D0308104D0308104D0308104D0308104D0308104D0308104D0308104D030810C0
:4000C0004D0308104D0308104D0308104D0308104D0308104D0308104D0308104D0308104D0308104D0308104D0308104D0308104D0308104D0308104D0308104D03081080
:400100004D0308104D0308104D0308104D0308104D0308104D0308104D0308104D0308104D0308104D0308104D0308104D0308104D0308104D0308104D0308104D0308103F
:400140004D0308104D0308104D0308104D0308104D0308104D0308104D0308104D0308104D0308104D0308104D0308104D0308104D0308104D0308104D0308104D030810FF
:400180004D0308104D0308104D0308104D0308104D0308104D0308104D0308104D0308104D0308104D0308104D0308104D0308104D0308104D0308104D0308104D030810BF
:4001C0004D0308104D0308104D0308104D0308104D0308104D0308104D0308104D0308104D0308104D0308104D0308104D0308104D0308104D0308104D0308104D0308107F
:400200004D0308104D0308104D0308104D0308104D0308104D0308104D0308104D0308104D0308104D0308104D0308104D0308104D0308104D0308104D0308104D0308103E
:400240004D0308104D0308104D0308104D0308104D0308104D0308104D0308104D0308104D0308104D0308104D0308104D0308104D0308104D0308104D0308104D030810FE
:400280004D0308104D0308104D03081010B5054C237833B9044B13B10448AFF300800123237010BDD457020800000000906E0910084B10B51BB108490848AFF30080084821
:4002C000036803B910BD074B002BFBD0BDE81040184700BF00000000D8570208906E0910A0510208000000007047FFF7FDFF72B6104C114DAC4209DA21686268A368043B6B
:40030000A2BFC858D050FAE70C34F3E70B490C4A00209142BCBF41F8040BFAE709480A490860BFF34F8F00F0CFF900F0A9F900F067F8FEE7946E0910AC6E0910D457020843
:40034000746204080040020808ED00E0FEE7FEE700B504207146084202D0EFF3098001E0EFF30880043002F0DDFCFEE708B50F4B1868002103F080F84FF47A7002F09EFC90
:400380000B4B5A6910225A615B690A4BB3F90030002B09DB5A0903F01F03012101FA03F36032054941F8223008BD00BF84130408000032404CF0081000E100E000B583B0A7
:4003C00003238DF807300C4B18684FF0FF3103F05DF90128F7D102A9022301F8013D00231A460648006802F0F5FE03238DF80730642003F025FDE6E78413040888130408E4
:4004000000B583B003220021012002F0BDFE284B186062B600F082F9002201210A2002F0B3FE244B1860244C2449204602F00CFCB4F90030002B08DB5A0903F01F0001219B
:40044000814060321E4840F82210002B08DB590903F01F03012202FA03F3194A42F82130002401940A230093234680221549164803F070FB01940523009323464FF4C872FD
:400480001249134803F066FB019404230093234680221049104803F05DFB03F08DFB8B210E4802F02FFC04F015FF0028FBD1FEE784130408881304084CF008106D0308103B
:4004C00000E100E02CEC08102912081038EC0810C50E081040EC0810BD03081050EC081008B5012002F0D2F908BD00BF704700BF5C4AD2F8803303F00F0303F1D00152F855
:40050000212002F00702032A04D0042A05D092B9554914E0554A116811E003F1C002514951F8222002F01F02112A06D0132A04D04FF4FA4103E04E4901E04FF400418BBBE2
:40054000484BD3F8902502F00100D3F88825C2F30172D3F8883513F0405F07D0414BD3F88835C3F30173012B02D102E0012300E0002303B108B9032A46D13A48D0F88025E6
:40058000C2F31103D0F88425C2F30C02D0F88005C0F300600130B1FBF2F202FB03F2B2FBF0F131E0012B2FD12E4BD3F8402602F00100D3F80026C2F30172D3F8003613F0A6
:4005C000405F07D0274BD3F80036C3F30173012B02D102E0012300E0002303B108B9032A12D12048D0F8002602F07F02D0F80036C3F30423D0F80006C0F3044002FB01F202
:40060000B2FBF3F2B2FBF0F1164BD3F88033C3F3011321FA03F215494A601648D0F89030C3F3072301330069000E0130B2FBF0F08860B2FBF3F3CB600B6103F5742202F216
:400640003F220D48A0FB0202C2F387420A7503F2E7330A4AA2FB03239B098B61DB03CB61704700BF0000264000127A008C42020800366E010000214083DE1B43D34D6210D1
:4006800008B50D4802F038FCFFF730FFFFF730FF00221146042001F0C1FE084801F054FF074B1B6893F8513013B1064801F0BCFF01F082FD08BD00BFD4F30810F057020814
:4006C000006004085CEC081008B502F086FB074AD2F8883043F47003C2F88830BFF34F8FBFF36F8F02F07DFB08BD00BF00ED00E0F8B506460F4601F04BFC0546064C3B4670
:4007000032460146204600F0EBFD41F2B062294620460CF046FFF8BD7059020808B507F0EDF9142000F0C8FD012000F0CDFD012007F0DCF8002007F01BF96FF07F4007F04F
:400740000DF907F0A9F908BD30B4002408E051F82430054DA5FB03535B0920F8143001349442F4D330BC70471F85EB5110B40446B0F90000012305E034F91320904200DD5C
:40078000104601338B42F7D35DF8044B704700BF10B40446B0F90000012305E034F91320904200DA104601338B42F7D35DF8044B704700BF2DE9F0410646884615461F46D6
:4007C0001146FFF7D3FF044629463046FFF7E0FF00218E4610E036F911301B1B962202FB03F3021B93FBF2F31BB2C3F1960328F81E300EF1010E39448D42ECD8BDE8F08154
:4008000010B52DED028B8AB008EE101A07AA04210CF0BCFE04AA042118EE100A0CF0B6FE504C204607F0AEF8992205214E4807F031FB9922352107A807F02CFB99225A2176
:400840004A4807F027FB204607F09CF899227D21474807F01FFB9922A82104A807F01AFB01210846FFF744FF424B93F8B835002B73D1414807F086F8404BD3ED007AB4EE25
:40088000E78AF1EE10FA30DD01AA042117EE900A0CF07CFE07F000F90A221146384807F0F9FA1A220A21374807F0F4FA2A220A2104A807F0EFFA344C2A223C21204607F0BB
:4008C000E9FA3A220A21314807F0E4FA4A220A2101A807F0DFFA4A223C21204607F0DAFA01210846FFF704FF37E0244BD3ED017AB4EEE78AF1EE10FA2FD501AA042117EE37
:40090000900A0CF043FE07F0C7F80A2211461C4807F0C0FA1A220A211A4807F0BBFA2A220A2104A807F0B6FA174C2A223C21204607F0B0FA3A220A21154807F0ABFA4A2254
:400940000A2101A807F0A6FA4A223C21204607F0A1FA01210846FFF7CBFE0AB0BDEC028B10BD00BFAC0C091090EC081098EC08109CEC0810686A0208CCF60810AC42020851
:40098000A4EC0810B0EC0810D0EC0810D4EC0810F8EC08102DE9F0418046134CA368E668B3FBF6F607F078F8104D05F2BC57A26841463846FFF7C8FE05F68C55E368A2680A
:4009C00029463846FFF7F6FE00231A463146284607F072FA01210846FFF78AFE21696069FFF70EFFBDE8F081AC420208686A020810B5044607F050F81B4806F0C3FF0A2292
:400A000028211A4807F046FA1E223C21184807F041FA32222821174807F03CFA46223C21154807F037FA5A222821144807F032FA6E223C21124807F02DFA82222821114843
:400A400007F028FA96223C210F4807F023FA1E231A460A21084607F0ADFA01210846FFF747FE0123237010BD142209101CED081038ED081040ED08105CED08106CED081032
:400A80008CED081094ED0810ACED081010B504460378013B032B4ED8DFE803F00215283B1E231A460A21084606F0C4FF46231E2232210A2007F07EFA01210846FFF718FE29
:400AC0000223237010BD46231E2232210A2006F0B1FF6E231E225A210A2007F06BFA01210846FFF705FE0323237010BD6E231E225A210A2006F09EFF96231E2282210A2015
:400B000007F058FA01210846FFF7F2FD0423237010BD96231E2282210A2006F08BFF1E231A460A21084607F045FA01210846FFF7DFFD0123237010BD10B5044606F0ACFF84
:400B40000F4806F01FFF0A2228210E4807F0A2F9322228210C4807F09DF95A2228210B4807F098F946231E2232210A2007F022FA01210846FFF7BCFD0123237010BD00BFF4
:400B800014220910B8ED0810D4ED0810E4ED081010B5044606F080FF0F4806F0F3FE0A2228210E4807F076F9322228210C4807F071F95A2228210B4807F06CF946231E2205
:400BC00032210A2007F0F6F901210846FFF790FD0123237010BD00BF14220910F8ED081014EE081030EE081010B5044606F054FF0F4806F0C7FE0A2228210E4807F04AF951
:400C0000322228210C4807F045F95A2228210B4807F040F946231E2232210A2007F0CAF901210846FFF764FD0123237010BD00BF142209104CEE081064EE08107CEE0810CF
:400C400010B5044606F028FF0F4806F09BFE0A2228210E4807F01EF9322228210C4807F019F95A2228210B4807F014F946231E2232210A2007F09EF901210846FFF738FD24
:400C80000123237010BD00BF142209108CEE0810A4EE0810B8EE081010B504460378012B02D0022B13D010BD46231E2232210A2006F0C0FE6E231E225A210A2007F07AF989
:400CC00001210846FFF714FD0223237010BD6E231E225A210A2006F0ADFE46231E2232210A2007F067F901210846FFF701FD0123237010BD30B585B004460D4606F0CCFE05
:400D0000234806F03FFE2B78012B05D10A222821204807F0BFF806E0022B04D10A2228211D4807F0B7F8822228211C4807F0B2F8962228211A4807F0ADF84622282119487A
:400D400007F0A8F846228C21174807F0A3F8237807EE903AF8EE677A9FED147A67EE877A9FED137AC7EE876A16EE900A0CF0D4F801AB04220CF0E6FB46225A2101A807F0EE
:400D800089F801210846FFF7B3FC05B030BD00BF14220910D4EE0810E8EE081004EF081014EF08102CEF081030EF081000004C4200007F4330B585B004460D4606F06CFE2E
:400DC000164806F0DFFD2B78012B05D10A222821134807F05FF806E0022B04D10A222821104807F057F8462228210F4807F052F846228C210D4807F04DF801AA04212068BE
:400E00000CF0C4FB46225A2101A807F043F801210846FFF76DFC05B030BD00BF1422091034EF08104CEF08102CEF081030EF081038B504460D4606F02FFE1A4806F0A2FD1E
:400E40002B78012B05D10A221421174807F022F806E0022B04D10A221421144807F01AF823782BB91E221421114807F013F806E0012B04D11E2214210E4807F00BF80E48FD
:400E800006F080FD5A2214210C4807F003F85A227D210B4806F0FEFF01210846FFF728FC38BD00BF1422091064EF08107CEF08108CEF0810A4EF081070420910BCEF081021
:400EC000C4EF081030B583B0FFF728FC00248DF807408DF80640BC4D2846FFF75BFD4FF0FF320DF10501B94B186802F023FB0128F5D19DF80530002B40F0D6800B2CEED806
:400F0000DFE804F0060C2E42566A7D8E9EACBCC70DF10700FFF76CFD0124E0E79DF80730012B05D10DF10600FFF706FE0224D6E7022B05D10DF10600FFF72AFE0324CEE7DC
:400F4000032B05D10DF10600FFF74EFE0424C6E7042B05D10DF10600FFF772FE0524BEE79DF80630012B06D10DF106019848FFF7C1FE0624B3E7022B06D10DF10601954803
:400F8000FFF7B8FE0724AAE79DF80630012B06D10DF106019048FFF70DFF08249FE7022B06D10DF106018D48FFF704FF092496E79DF80630012B06D10DF106018848FFF750
:400FC00037FF0A248BE7022B06D10DF106018548FFF72EFF0B2482E79DF80630012B05D1794D2846FFF7D6FC002478E7022B7FF476AF7D4D2846FFF7CDFC00246FE7764B47
:401000001B7E182B03D9193B734A137602E00022714B1A760DF106016D48FFF76BFE5EE76D4B5B7E182B03D9193B6B4A537602E00022694B5A760DF106016648FFF75AFEA5
:401040006548D0ED007AB1EE047A77EEC77AC0ED007A0DF10601FFF7ADFE40E75E48D0ED017AB1EE047A77EEC77A17EE903A40F8043F0DF10601FFF79DFE30E75B48002377
:4010800080F8803F0DF1060100F57860FFF7D0FE25E75648002380F8B8350DF1060100F5B760FFF7C5FE1AE7012B72D1012C04D10DF10700FFF7EAFC11E7A31EDBB2032BA0
:4010C00004D80DF10600FFF7E7FD08E7062C10D1414B1B7EE62B03D819333F4A137602E0FF223D4B1A760DF106013948FFF702FEF5E6072C10D1384B5B7EE62B03D81933AB
:40110000354A537602E0FF22334B5A760DF106013048FFF7EFFDE2E6082C0DD12E48D0ED007AB1EE047A77EE877AC0ED007A0DF10601FFF73FFED2E6092C0FD12648D0ED56
:40114000017AB1EE047A77EE877A17EE903A40F8043F0DF10601FFF72DFEC0E60A2C0AD12248012380F8803F0DF1060100F57860FFF75EFEB3E60B2C7FF4B1AE1B48012338
:4011800080F8803F0DF1060100F5B760FFF750FEA5E6022B7FF4A3AE012C04D12846FFF7F9FB00249BE6A31EDBB2032B05D80DF10700FFF71DFC012491E6062C18D1284696
:4011C000FFF7E8FB00248AE604D5030888130408C4420208C5420208AC420208B0420208E87902082070020844F40308686A0208072C04D12846FFF7CDFB00246FE6A4F17C
:401200000803DBB2012B04D82846FFF7C3FB002465E6A4F10A03DBB2012B3FF660AE2846FFF7B8FB00245AE600B583B003F04AFC04F0C0F804F04EF80028FBD103F05CFC1E
:4012400003238DF80730012003F07EFE40B1184B1B780BB98DF807300122154B1A7002E00022134B1A70022003F06EFE48B1104B5B7813B901238DF8073001220C4B5A7004
:4012800002E000220A4B5A709DF80730032B07D000231A460DF107010648006801F09AFF03F076FF04F086F8642002F0C9FDC1E7E97902088813040810B5044600F072F936
:4012C000204600F015FA10BD08B510B100F0AAFD01E000F0C9FD08B9012008BD002008BDF8B507460E4614461D4613B10120FFF7EBFF24B93146384600F038FC15E0631E48
:40130000DBB2012B11D80021384600F01DFA012C07D10121384600F017FA0221304600F013FA0321304600F00FFA15B10020FFF7CBFFF8BD08B50022024BC3F8082100F03B
:401340005FFE08BD00003840014BD3F808017047000038400122014B5A6070470000384010B5074C074A0849204601F003FB236843F0004323600822044B9A6010BD00BF9A
:4013800000006740DC5F040854F00810000632400822044B9A60044A136843F000431360704700BF000632400000674008B50249024801F013FC08BDDC5F040800006740AC
:4013C00008B50146154801F077FA144BD3F8C03F13F0040FF9D0114BD3F8042242F48032C3F80422D3F8042222F48032C3F80422D3F80422D3F8042342F48032C3F80423C5
:40140000D3F8042322F48032C3F80423D3F804230422C3F8C02FD3F8C03F08BD0000674008B50146174801F047FA164BD3F8C03F13F0040FF9D0134BD3F84003D3F804221C
:4014400042F48032C3F80422D3F8042222F48032C3F80422D3F80422D3F8042342F48032C3F80423D3F8042322F48032C3F80423D3F804230422C3F8C02FD3F8C03FC0B2C2
:4014800008BD00BF0000674038B50C46054600B121B940F2E6511B4801F034FC22462946194801F04FFA184AD2F80832C3F30803D2F80822C2F3C032D342F4D1124BD3F8C9
:4014C000042242F48032C3F80422D3F8042222F48032C3F80422D3F80422D3F8042342F48032C3F80423D3F8042322F48032C3F80423D3F804230422C3F8C02FD3F8C03F8E
:40150000204638BDD0EF081000006740044B1B6913F0080F01D0012070470020704700BF800232402DE9F04180460E4617460A4C082565607020FFF743FF4046FFF740FF29
:40154000A56065607220FFF73BFF39463046FFF79BFFA560BDE8F0810006324000B583B002AB03F8011D01221946FFF7DBFF03B05DF804FBF8B507460E46094C082565602B
:401580007020FFF71DFF3846FFF71AFFA56065607320FFF715FF3046FFF742FFA560F8BD0006324038B50425084B5D60084C4023636010236360FFF7D3FE0822054B5A6025
:4015C000656020236360FFF7B5FE38BD00003240800232400006324010B5434C6F22002120460CF004F8631C236704F14E03636704F12203A367FFF79DFE03E0FFF7A4FEF7
:40160000032868D8FFF782FF0028F7D1FFF7A2FE00217220FFF7AEFF00F00F0002285CD14021FFF79BFF00210F20FFF7A3FF10F0800F54D002210B20FFF790FF08222B4999
:401640000120FFF76FFFD1210720FFF787FF02210820FFF783FFC2210920FFF77FFF03210420FFF77BFF01210320FFF777FF00210320FFF773FF0A2001F020FB002400E0BE
:401680001C4601210520FFF769FF642001F016FB03210520FFF762FF322001F00FFB0F210520FFF75BFF322001F008FB00210F20FFF760FF10F0400F05D040210220FFF783
:4016C0004DFF234603E0631C9BB2042CD8D1032B07D9052010BD012010BD022010BD032010BD002010BD00BFEC79020810F0081010F1090F0EDB10F1040F0EDB05280FDD95
:401700000A2810DD0F2811DD142811DD282811DC5A2210E04FF496620DE04FF461720AE04FF4167207E04FF4A57204E0DC2202E0B42200E03C22034BA3F87C20A3F87E20C8
:40174000704700BFEC7902082DE9F84F06460D46047828B1CA4B984205D10127002403E00127FF2400E00027FFF7E4FD4FF00008D0E1C8EBC80AC8EB0A1ADFF80C930AEB57
:40178000090B6F22002158460BF031FF0BF1010EBC4BC3F870E00AF148004844063058670AF1200AD14409F10209C3F878902022002397E10FB934780136032D00F29081FC
:4017C000DFE815F004006500C600270100EB030C14F0400F01D0C02100E080218CF8001049B214F0100F02D04FF0300A01E04FF0200A4AEA01018CF8001014F0040F02D04C
:401800004FF00C0A01E04FF0080A4AEA01018CF8001014F0010F02D04FF0030A01E04FF0020A4AEA01018CF800100EEB020C14F0800F01D0032100E002218CF8001049B20E
:4018400014F0200F02D04FF00C0A01E04FF0080A4AEA01018CF8001014F0080F02D04FF0300A01E04FF0200A4AEA01018CF80010013A92B214F0020F02D06FF03F0A01E0A9
:401880006FF07F0A4AEA01018CF8001028E100EB030C14F0400F01D0802100E040218CF8001049B214F0100F02D04FF0200A01E04FF0100A4AEA01018CF8001014F0040F65
:4018C00002D04FF0080A01E04FF0040A4AEA01018CF8001014F0010F02D04FF0020A01E04FF0010A4AEA01018CF800100EEB020C14F0800F01D0022100E001218CF8001083
:4019000049B214F0200F02D04FF0080A01E04FF0040A4AEA01018CF8001014F0080F02D04FF0200A01E04FF0100A4AEA01018CF80010013A92B214F0020F02D06FF07F0AB6
:4019400001E04FF0400A4AEA01018CF80010C7E000EB030C14F0400F01D0C02100E040218CF8001049B214F0100F02D04FF0300A01E04FF0100A4AEA01018CF8001014F047
:40198000040F02D04FF00C0A01E04FF0040A4AEA01018CF8001014F0010F02D04FF0030A01E04FF0010A4AEA01018CF800100EEB020C14F0800F01D0032100E001218CF8B9
:4019C000001049B214F0200F02D04FF00C0A01E04FF0040A4AEA01018CF8001014F0080F02D04FF0300A01E04FF0100A4AEA01018CF80010013A92B214F0020F02D06FF05B
:401A00003F0A01E04FF0400A4AEA01018CF8001066E000EB030C14F0400F01D0802100E0C0218CF8001049B214F0100F02D04FF0200A01E04FF0300A4AEA01018CF8001052
:401A400014F0040F02D04FF0080A01E04FF00C0A4AEA01018CF8001014F0010F02D04FF0020A01E04FF0030A4AEA01018CF800100EEB020C14F0800F08D0022107E000BFC9
:401A8000FFFF0F10EC7902088C13040803218CF8001049B214F0200F02D04FF0080A01E04FF00C0A4AEA01018CF8001014F0080F02D04FF0200A01E04FF0300A4AEA010100
:401AC0008CF80010013A92B214F0020F02D06FF07F0A01E06FF03F0A4AEA01018CF8001001339BB2202B7FF665AEC8F1AF031BB299101A4A134003D5013B63F00303013324
:401B0000174A02FA83F31B7A09F8013008F101081FFA88F8B8F1AF0F7FF62BAE00240FE0C4EBC403C4EB03136F220E4919440A20FFF7F8FC07210220FFF710FD0134A4B23C
:401B4000AF2CEDD9084BB3F87C40FFF7FDFB8442E4D8FFF7FFFBBDE8F88F00BF0300008010F008108C130408EC7902082DE9F04706460D46FFF7DEFBD2210920FFF7EEFC53
:401B80000024C6E0C4EBC407C4EB0717DFF8008207EB08096F22002148460BF028FD09F1010C784BC3F870C007F1480EC6440EF1060EC3F874E02037B84408F10208C3F818
:401BC0007880202000218EE0771C32786E1C95F800900EEB010582EA090212F0400F04D019F0400F03D0802302E0402300E0C0232B705BB212F0100F05D019F0100F05D02E
:401C00004FF0200A04E04FF0100A01E04FF0300A4AEA03032B7012F0040F05D019F0040F05D04FF0080A04E04FF0040A01E04FF00C0A4AEA03032B7012F0010F05D019F077
:401C4000010F05D04FF0020A04E04FF0010A01E04FF0030A4AEA03032B700CEB000512F0800F04D019F0800F03D0022302E0012300E003232B705BB212F0200F05D019F050
:401C8000200F05D04FF0080A04E04FF0040A01E04FF00C0A4AEA03032B7012F0080F05D019F0080F05D04FF0200A04E04FF0100A01E04FF0300A4AEA03032B70013880B270
:401CC00012F0020F05D019F0020F04D06FF07F0203E0402201E06FF03F0213432B70013189B235463E4620297FF66EAFC4F1AF031BB29910244A134003D5013B63F0030325
:401D00000133224A02FA83F31B7A08F801300134A4B2AF2C7FF636AF002421E0C4EBC405C4EB05151A4B1D446F2229460A20FFF7F9FB07210220FFF711FCC4F1AF0343F3E1
:401D40008D032B44002283F822206F2229460A20FFF7E8FB07210220FFF700FC0134A4B2AF2CDBD9074BB3F87E40FFF7EDFA8442D2D8FFF7EFFAC2210920FFF7EFFBBDE8B4
:401D8000F08700BFEC7902080300008010F008108C130408002307E01349086F5522C254496FCA5401339BB2202BF5D970B5002416E0A6080C4DAA6F04F003030B490B4462
:401DC0001B7A93556F2229460A20FFF7ABFB07210220FFF7C3FBAB6F00229A550134A4B2AF2CE6D970BD00BFEC79020810F0081008B5002304E00021094AD1540133DBB2C1
:401E0000152BF8D900210420FFF7A8FB6F2204490A20FFF787FB07210220FFF79FFB08BDEC79020838B50E4C1023A360142000F045FFFFF7ADFA08220A4B9A604023A360C4
:401E40000425A5600A2000F039FF65600A2000F035FFA5600A2000F031FFFFF7BDFB38BD800232400006324038B5FFF793FFFFF7BFFF1E2000F022FF234C4025656032200E
:401E800000F01CFFA56000210F20FFF773FB10F0400F36D000210B20FFF760FB01210320FFF75CFB03210520FFF758FB01210520FFF754FB322000F001FF80210420FFF7BF
:401EC0004DFB00210520FFF749FB01210720FFF745FB1E2000F0F2FEFFF768FA102363606560142000F0EAFE0822084B5A60042363602025A5601E2000F0E0FE6560002002
:401F000038BD042038BD00BF800232400006324010B582B002AC012344F8043D00231A461449154805F008FF214607F0EEF807F04DFD60B14FF48472B021002007F02BFE09
:401F40004FF48472B021002007F051FE0BE0B0224FF48471002007F01EFEB0224FF48471002007F044FE0549002007F02BFE02B010BD00BFAC6A0910E06A0910D8500208D6
:401F8000012901D1002070474FF0FF30704700BF004870476C7A020808B54FF40041034805F0FCF8024805F03FFD08BD1C9102086863091008B5012001F0E0F9014B1860BF
:401FC00008BD00BF1C11030808B500231A4619460248006801F0FEF808BD00BF1C11030808B54FF0FF31024B186801F04FFB08BD1C11030808B502F07DF808BD704700BFA1
:4020000008B5084B1B783BB9074A0021074800F0EBFE0122034B1A70044B01229A609A6108BD00BF2011030888F00810000038401F4B98422DD00CD840282ED003D8E8B146
:40204000102828D02FE0802829D0B0F5807F28D029E0184B984228D006D8B0F1204F0DD0154B984212D01EE0144B98420AD00133984209D0023B984215D101E00020704712
:402080000F4870470F4870470F4870474FF4A0007047074870470D4870470D4870470D487047034870470C4870474FF4A400704706005200010000F0090000A0040000F0A1
:4020C000010052000200520003005200010050000200500005005200FF00520038B5124B1B6893F83130012B04D840F2C3110F4800F008FE0C4B1D682A6AB5F8B030134431
:402100002C46D5F8B420D358002B0BDB084B1868FFF78EFF6B6801229A6063689B68002BFBD138BD034838BD00600408D4F0081024110308020050001A4B186128B102235A
:402140000370FF23437000234380174B1B6893F850202AB300B583B0B3F93830ADF80030002301931149684600F06EFDBDF90030002B08DB590903F01F03012202FA03F309
:402180000B4A42F82130084B1B6893F8513023B102220849012000F0F3FA03B05DF804FB704700BF24110308006004081152020800E100E0C952020808B50248FFF7BCFFE2
:4021C00008BD00BF381103082DE9F04104460D46174698469DF81860072903D9D921354800F090FD37F00F0303D0DA21314800F089FDB8F1010F03D9DB212E4800F082FD6F
:4022000036F01F0303D0DC212A4800F07BFD22680123AB4022EA030308F0010808FA05F843EA08032360244B1B6893F87D100B59A8000F22824023EA020207F00F0303FA26
:4022400000F717430F51072D04D94FF422711B4800F058FD36F01F0304D040F28921174800F050FD144B1B689A69A41AE4095B6924011919032D0DD81959ED001F22AA4040
:4022800021EA020206F01F0606FA05F515431D51BDE8F081043D4A68ED001F23AB4022EA030306F01F0606FA05F51D434D60BDE8F08100BF14F108100060040854F1081022
:4022C00038B50B4B1B68D3F8B4301B58002B0DDA0D4604460B0C1B0423B140F2D521054800F010FDA9B26160002038BD024838BD0060040894F1081001008A0038B503686F
:40230000002B01DA002300E0094B73B90D460446C2600B0C1B0423B140F2BB21054800F0F1FCA9B2A160002038BD014838BD00BF01008A0094F1081038B504460D4619B921
:402340009921084800F0DEFC074B1B68D3F8B4301B59002B03DAE3682B60002038BD034838BD00BFD4F108100060040801008A00254B1B6893F8313083423AD900293AD0E1
:402380000B6813F01F0F38D170B50D4604461E4B1B6893F83130984204D340F2C3111B4800F0B0FC184B1B68186AB3F8B03004FB0304174E34602A68D208002168680BF0D6
:4023C00016F900212046FFF77BFF346825B940F293310E4800F096FC2A4600212046FFF78DFF60B900210A4B1868FFF769FF40B970BD084870470748704706487047064823
:4024000070BD054870BD00BF0060040894F108103C11030803018A0001018A0010B504461346B2B9A9B9124B1B6893F83130984204D340F2C3110F4800F064FC0C4B1B6882
:402440001A6AB3F8B03004FB03240B4B1C60002010BD43B149B1084A51609360111D2046FFF786FF10BD054810BD044810BD00BF0060040894F108103C11030803018A00C7
:402480002DE9F0411B4B1B68DC68236883422CD90D464609A0EB4610012303FA00F819B900F09BFC074600E00027124B18680368002B01DA002300E00F4B83B9626852F80F
:4024C000263018EA030F05D023EA080342F82630002400E0094C0021FFF7F2FE00E0084C25B9384600F07DFC00E0064C2046BDE8F08100BF3C11030801008A0002018800C1
:402500000301880004018A000B4B1B68DB681A6882420CD94109A0EB4110012202FA00F05B6853F82130184203D004487047044870470448704700BF3C11030801018800CE
:4025400004018A0000018800024B1B680BB9014B18607047481103082DE9F8430446884691461D46089F2C4B1B681BB9B5212B4800F0C8FB284B1B682C2000FB04F01C1857
:40258000EEB21E50C5F3072363602D0CA560244B1B6893F831309E4204D340F2C311214800F0B0FB1E4B1B68196AB3F8B02006FB02162661666893F832309E4204D340F25D
:4025C000DF11184800F09EFB154B1B681D6A803605EB46156561A668330C1B0423B14FF4FF71104800F08EFB330C1B0423B140F2FF110C4800F086FBB3B243EA0646AE60E8
:40260000C4F81C90C4F820800023A36117B1B7F90030A381BDE8F8834811030814F208100060040894F10810F0B58FB0044618B95221274800F066FBA369072B03D9562175
:40264000234800F05FFBE36A1BB95821204800F059FB236B1BB959211D4800F053FB07AD04F114060FCE0FC537682F6002AD26460FCE0FC533682B60164B1B68B3F9362066
:40268000079B1344ADF83030089B0D93A26AE16A0CAD00953B460A98FFF75EFF00210091069B0A460598FFF757FF216B284600F0CBFABDF93030002B08DB590903F01F03E8
:4026C000012202FA03F3044A42F821300FB0F0BD14F208100060040800E100E0F8B506460F461D4614461AB9FD211F4800F00AFB1E4B1B681BB9FE211B4800F003FB1B4B47
:402700001B682C2101FB063001FB07314B68012202FA03F31B04466802FA06F60269EAB18F69EFB91268002A01DA002200E0104AC2B92288134323600369DC6001238B619F
:402740004D620469330C1B0423B140F2BB21094800F0D8FAB2B2A2600020F8BD0648F8BD0648F8BD0548F8BD14F208104811030801008A0094F1081004028A0007028A00DA
:40278000F8B505460F4616460E4B1B6823B94FF4AF710D4800F0B6FA0A4B1B682C2404FB0534236A23B94FF4B171074800F0AAFAE369B34204D9236A43F826700020F8BDFE
:4027C0000248F8BD4811030814F208100A028A0070B582B000230193044620B940F2D111284800F08FFA236923B94FF4E971254800F088FA636923B940F2D311214800F099
:4028000081FA236A23B94FF4EA711E4800F07AFA6369DD682A0C20D012041A601B682069194B1B68D3F8B430C358002B15DA01A9FFF782FD60B9019803681E0CDBB2E26970
:40284000934206D2226A52F8233013B1984700E0002631462069FFF733FDADB275B16369ADB21D601B68636A1BB198470023636202E0A36A03B198470023A36163691B68AB
:4028800002B070BD14F208100060040810B50446074B1B6823B940F2B111064800F032FA034B1B682C2000FB0430FFF791FF10BD4811030814F20810036813F4006F01D0BE
:4028C000802200E04022D0F80832C3F30803934203D0C0F84012012070470020704700BF10B4D0F8003203F00F03072B06D900230DE0CC5CC0F84042013300E000239342BF
:40290000F7D306E031F81340C0F8404201339342F8D35DF8044B704710B51446036813F4006F01D0802200E04022D0F80832C3F30803D31AA34200D81C462246FFF7D0FF51
:40294000204610BDF8B507460D461446D0F8006206F00F060BE0224629463846FFF7DCFF072E01D9430000E003461D44241A002CF1D1F8BD002800F02481F8B5054600299C
:4029800000F0218117460C460B78012B03D93F218F4800F0B7F96378012B07D9052B05D0022B03D040218A4800F0ACF9A378032B03D94121864800F0A5F92378012B07D13E
:4029C0006368023B0E2B03D94321814800F09AF9A36933F00F0303D044217D4800F092F9A368043B0C2B03D94521794800F08AF9E368043B0C2B03D94621754800F082F92E
:402A00006378022B07D0A268E3689A4203D047216F4800F077F9636A33F06D0303D049216B4800F06FF9E36A33F0730303D04A21674800F067F9236B33F4206303D04B21F2
:402A4000634800F05FF96378A678052B07D8DFE803F0060305060603022600E00026A368082B04D8E368082B03D9002302E0002300E0012313B14FF4006200E00022237FA9
:402A800013B14FF4807300E000231A436368013B03F00F03134343F080732B60226A2B6813F4006F01D0802300E040239A4203D35821474800F026F9A26A2B6813F4006F7F
:402AC00001D0802300E040239A4203D35921404800F018F9237D0BB9012100E000216278052A01D1022300E000230B43E17C09B1102100E000210B43617C09B1202100E043
:402B000000210B432178012902D14FF0004100E000210B43B60006F00C063343A169090201F470610B43120602F0407213432B62237C13B14FF4807200E00022A37C13B148
:402B40004FF4007300E000231A43A368013B03F00F031343C5F8003394F82030C5F80433237C13B14FF4807200E00022E368013B03F00F031343C5F8003294F82830C5F8D1
:402B80000432636A03F06D03C5F8C83FE36A03F07303C5F8883F236B03F40073C5F8003F236B03F40063C5F8403F0023C5F8C83E5FB118463B60BB61FB60FB61054B3B62EA
:402BC000F8BD054870470448F8BD0020F8BD00BF98F20810EFCDAB000140AA00036823F00043036019B100220A60CA608A61036A002B04DB0023C0F8C83FC0F8883F704775
:402C000038B50D4B9A680D4B9A420FD10D46044621B940F237110A4800F074F804F11003064A52F8230042F8235038BD1030054B53F8200038BD00BF00ED00E0004002086D
:402C4000D8F208100000081048B338B504460D464368072B03D93221134800F053F8B4F900306268002B08DB5201D2B203F1604303F5614383F8002305E003F00F03520199
:402C8000D2B20A49CA540A4B9A680A4B9A4208D12946B4F90000FFF7B3FF002038BD06487047002038BD00BFD8F2081014ED00E000ED00E0004002080100560010B50446CC
:402CC00005E0084B186800F07FF8A4F50044B4F5004FF6D8044B186800FB04F000F074F810BD00BFA8420208A442020808B5034B1B7800FB03F000F067F808BDA0420208FC
:402D000001BEFEE738B50D46044C1822014620460AF07DFCA5610020FFF7F2FF40570208FEE700BF08B50268254BDA6142681A6282685A62C2689A620269DA6242691A6320
:402D400082695A63C2699A631E4A916AD963D16A1964516A5964516B9964926BDA64F1EE103A13F0900F27D0026A154B1A65426A5A65826A9A65C26ADA65026B1A66426B58
:402D80005A66826B9A66C26BDA66026C1A67426C5A67826C9A67C26CDA67026DC3F88020426DC3F88420826DC3F88820C26DC3F88C20026EC3F89020FFF7B2FF08BD00BF77
:402DC0004057020800ED00E00230800803D001300238FCD100BF00BF7047EFF3108072B6704780F31088704700287DD00346002A7CD070B45068000280B29568AD0405F46D
:402E000080252843D468240404F4403404431069000600F0E0602043147F0CB1012400E0002420430C1DA4011851D06828B903EB81100024C0F808410CE0012805D1146822
:402E400003EB8110C0F8084104E003EB81100124C0F80841106938B9546903EB8110C0F80C419469C0F81041146803EB8110C0F81441906CB0F1FF3F17D0946A04F00F04C9
:402E8000166B360206F470663443956B2D0405F470252543146C2403A4B22C430001C0B2204303EB8114C4F82001506A00F00300D66A360106F030063043556B2D0205F49E
:402EC00040752843D46BA401E4B20443506C800000F00C00204303EB8113C3F82401126AC3F83821002003E0024870470148704770BC70470100B600014B1860704700BF8C
:402F00000060040800F1080343604FF0FF328260C360036100230360704700BF00230361704700BF43684B609A688A609A68516099600861036801330360704730B40D684B
:402F4000B5F1FF3F01D1026907E000F1080200E01A4653681C68A542FAD253684B6099608A605160086103680133036030BC704703694268816891608268416851605A681E
:402F8000904201D182685A60002202611A68013A1A601868704700BF436A23B1036B1868C0F1070070470020704700BF10B5044601F0F8FBA26BE36B9A4201D1012400E0A2
:402FC000002401F011FC204610BD00BF10B5044601F0E8FBA36B0BB9012400E0002401F003FC204610BD00BF70B504461646856B026C3AB9036843BB406801F0E5F80023DF
:40300000636029E06EB980680AF0CBFAA268236C1344A3606268934219D32368A36000201AE0C0680AF0BDFA236C5B42E2681A44E26021688A4202D262681344E360022E24
:4030400007D145B1013D002006E0002004E0002002E0002000E000200135A56370BD00BF026C72B110B50346C4681444C4604068844201D31868D8600846D9680AF091FA99
:4030800010BD704738B5054601F08CFB95F8454064B20AE06B6A53B105F1240000F094FF08B101F01FF8013C64B2002CF2DCFF2385F8453001F098FB01F074FB95F844403D
:4030C00064B20AE02B6953B105F1100000F07CFF08B101F007F8013C64B2002CF2DCFF2385F8443001F080FB38BD00BF38B540B94FF03F0383F31188BFF36F8FBFF34F8FE8
:40310000FEE704460D4601F04DFB2168E26B236C03FB021060600020A063A160013A02FB0313E360FF2384F8443084F845307DB92369ABB104F1100000F046FF80B14FF01F
:403140008052094B1A60BFF34F8FBFF36F8F07E004F11000FFF7D6FE04F12400FFF7D2FE01F042FB012038BD04ED00E010B5029B0C4609B91B6000E01A60D8631C6401219D
:403180001846FFF7B3FF10BD40B94FF03F0383F31188BFF36F8FBFF34F8FFEE7F0B583B0034611B101FB00F000E000201D4617460C46483001F038FC064638B100903B46CA
:4031C00000F1480221462846FFF7D0FF304603B0F0BD00BFF0B585B0019240B94FF03F0383F31188BFF36F8FBFF34F8FFEE7044619B9026C1AB9012202E0012200E00022C3
:4032000042B94FF03F0383F31188BFF36F8FBFF34F8FFEE7022B03D1E26B012A02D102E0012200E0002242B94FF03F0383F31188BFF36F8FBFF34F8FFEE71D460E4600F034
:403240005FFF18B9019B1BB9012302E0012300E0002343B94FF03F0383F31188BFF36F8FBFF34F8FFEE7002701F09CFAA26BE36B9A4201D3022D21D12A4631462046FFF7B4
:40328000B3FE636A6BB104F1240000F09DFE88B14FF08052324B1A60BFF34F8FBFF36F8F08E038B14FF080522D4B1A60BFF34F8FBFF36F8F01F098FA01204EE0019B1BB9F9
:4032C00001F092FA002048E01FB902A800F0C0FE012701F089FA00F0ADFC01F063FA94F844305BB2B3F1FF3F02D1002384F8443094F845305BB2B3F1FF3F02D1002384F81F
:40330000453001F071FA01A902A800F0ABFEF0B92046FFF74BFEA0B1019904F1100000F01BFE2046FFF7AEFE00F012FD00289BD14FF080520A4B1A60BFF34F8FBFF36F8FCD
:4033400092E72046FFF79EFE00F002FD8CE72046FFF798FE00F0FCFC002005B0F0BD00BF04ED00E048B108B5002141600160C1600B460A46FFF72EFF08BD704710B5024647
:4033800000210120FFF700FF0446FFF7EBFF204610BD00BF2DE9F84340B94FF03F0383F31188BFF36F8FBFF34F8FFEE7044619B9006C18B9012002E0012000E0002040B945
:4033C0004FF03F0383F31188BFF36F8FBFF34F8FFEE7022B03D1E06B012802D102E0012000E0002040B94FF03F0383F31188BFF36F8FBFF34F8FFEE71F469046894601F024
:40340000D5FAEFF311864FF03F0383F31188BFF36F8FBFF34F8FA26BE36B9A4201D3022F1ED194F845506DB23A4649462046FFF7DBFDB5F1FF3F0DD1636A9BB104F12400D2
:4034400000F0C2FD80B1B8F1000F0FD00120C8F800000CE06B1C5BB284F84530012006E0002004E0012002E0012000E0012086F31188BDE8F88300BF40B94FF03F0383F372
:403480001188BFF36F8FBFF34F8FFEE770B50446036C43B14FF03F0383F31188BFF36F8FBFF34F8FFEE703681BB943681BB9012302E0012300E0002343B94FF03F0383F3E9
:4034C0001188BFF36F8FBFF34F8FFEE70E4601F06DFAEFF311854FF03F0383F31188BFF36F8FBFF34F8FA26BE36B9A4218D294F845305BB20132A263B3F1FF3F0AD1636A29
:4035000083B104F1240000F05FFD68B176B1012030600CE001335BB284F84530012006E0002004E0012002E0012000E0012085F3118870BDF0B585B0019240B94FF03F038E
:4035400083F31188BFF36F8FBFF34F8FFEE7044619B9036C1BB9012302E0012300E0002343B94FF03F0383F31188BFF36F8FBFF34F8FFEE70E4600F0C3FD18B9019B1BB995
:40358000012302E0012300E0002343B94FF03F0383F31188BFF36F8FBFF34F8FFEE7002701F000F9A56BC5B131462046FFF758FD013DA563236963B104F1100000F004FD92
:4035C00038B14FF08052304B1A60BFF34F8FBFF36F8F01F009F9012053E0019B1BB901F003F900204DE01FB902A800F031FD012701F0FAF800F01EFB01F0D4F894F844303A
:403600005BB2B3F1FF3F02D1002384F8443094F845305BB2B3F1FF3F02D1002384F8453001F0E2F801A902A800F01CFDF0B92046FFF7CCFCA0B1019904F1240000F08CFC6D
:403640002046FFF71FFD00F083FB0028A8D14FF080520D4B1A60BFF34F8FBFF36F8F9FE72046FFF70FFD00F073FB99E72046FFF709FD00F06DFB2046FFF7A8FC00288FD093
:40368000002005B0F0BD00BF04ED00E070B584B0019140B94FF03F0383F31188BFF36F8FBFF34F8FFEE70446036C43B14FF03F0383F31188BFF36F8FBFF34F8FFEE700F00D
:4036C0001FFD18B9019B1BB9012302E0012300E0002343B94FF03F0383F31188BFF36F8FBFF34F8FFEE700252E4601F05BF8A36BCBB1013BA363236813B900F005FE6060DC
:40370000236963B104F1100000F05EFC38B14FF08052414B1A60BFF34F8FBFF36F8F01F063F8012076E0019B6BB945B14FF03F0383F31188BFF36F8FBFF34F8FFEE701F03B
:4037400053F8002066E01EB902A800F081FC012601F04AF800F06EFA01F024F894F844305BB2B3F1FF3F02D1002384F8443094F845305BB2B3F1FF3F02D1002384F845303F
:4037800001F032F801A902A800F06CFC40BB2046FFF71CFCF0B123683BB901F003F8606800F0BEFC054601F01FF8019904F1240000F0D2FB2046FFF765FC00F0C9FA0028FA
:4037C00093D14FF08052144B1A60BFF34F8FBFF36F8F8AE72046FFF755FC00F0B9FA84E72046FFF74FFC00F0B3FA2046FFF7EEFB00283FF47AAF65B100F0D4FF2046FFF7CD
:40380000CBFB0146606800F029FD00F0EDFF002000E0002004B070BD04ED00E000230BE0074A52F8332032B9054A42F8331002EBC303586070470133092BF1D9704700BF72
:403840000460040870B504460D46164600F0AAFF94F844305BB2B3F1FF3F02D1002384F8443094F845305BB2B3F1FF3F02D1002384F8453000F0B8FFA36B2BB932462946F5
:4038800004F1240000F082FB2046FFF7FBFB70BD094B9B6A1B680BB9012300E0002323B14FF0FF32044BDA627047034B9A6AD268D2685268DA6270478811030810B5044690
:4038C000006B01F0E1F8204601F0DEF810BD00BF2DE9F04780460D4616469946DDF820A0099F0A9C9200A521206B09F080FE236B06F18042013A03EB820626F007060023BE
:4039000006E0E95CE21882F83410EA5C12B101330F2BF6D9002384F84330BAF1060F01D94FF0060AC4F82CA0C4F844A00025A564201DFFF7F3FA04F11800FFF7EFFA24617C
:40394000CAF10703A36164622B4606E003F1120204EB8202002151600133042BF6D90023236684F864304A464146304600F0EEFE206007B13C60BDE8F08700BF70B50024C5
:4039800007E004EB8402930010481844FFF7BAFA0134062CF5D90E4C04F1BC063046FFF7B1FA04F1D0052846FFF7ACFA04F11400FFF7A8FA04F1E400FFF7A4FA2046FFF71F
:4039C000A1FAA662C4F8F85070BD00BFB81103088811030838B5044600F0E4FE264BD3F8FC200132C3F8FC20D3F800314BB9224BC3F80041D3F8FC30012B10D1FFF7BEFF31
:403A00000DE01D4BD3F804314BB91B4BD3F80031DA6AE36A9A4202D8174BC3F80041164AD2F808310133C2F80831E36AD2F80C21934202D9104AC2F80C310F4D05F13000D5
:403A400003EB83039A00211D1044FFF76BFA00F0CBFED5F804316BB1D5F80031DA6AE36A9A4207D24FF08052044B1A60BFF34F8FBFF36F8F38BD00BF8811030804ED00E0ED
:403A800038B517E000F08EFE0D4CD4F8F030DD68281DFFF76DFAD4F8FC30013BC4F8FC30D4F81031013BC4F8103100F09DFE2846FFF704FF024BD3F81031002BE2D138BDFA
:403AC0008811030808B5FFF7DBFF064B1B6B012BF9D94FF08052044B1A60BFF34F8FBFF36F8FF0E78811030804ED00E070B504460E46174BD3F81451D3F800010430FFF70F
:403B000037FAB4F1FF3F07D136B11148D0F800110431FFF707FA70BD2C440D4BD3F800315C60A54208D90A4BD3F8F800D3F800110431FFF703FA70BD054DA86AD5F8001154
:403B40000431FFF7FBF9EB6A9C4200D2EC6270BD881103082DE9F04385B006460F4615469846900000F060FF60B18146682000F05BFF044610B1C0F8309004E0484600F03C
:403B800083FF00E000248CB10023039302940D9B01930C9B009343462A4639463046FFF797FE2046FFF716FF012001E04FF0FF3005B0BDE8F08300BF00B583B0194B0193B7
:403BC00000230093802218491848FFF7C3FF012801D100F0FFFB012814D14FF03F0383F31188BFF36F8FBFF34F8F114B4FF0FF32DA620122C3F804210022C3F8142100F024
:403C000073FE0BE0B0F1FF3F08D14FF03F0383F31188BFF36F8FBFF34F8FFEE703B05DF804FB00BFA41203088CF40810C53A081088110308034AD2F818310133C2F818314A
:403C4000704700BF88110308014BD3F814017047881103082DE9F0413C4BD3F81831002B65D13A4BD3F814410134C3F81441CCB99B6A1B6843B14FF03F0383F31188BFF333
:403C80006F8FBFF34F8FFEE7304B9A6AD3F8F8109962C3F8F820D3F820210132C3F82021FFF7F6FD294BDB6A9C4203D2002645E0012600E00026254B9B6A1B680BB9012389
:403CC00000E0002323B14FF0FF32204BDA6235E01E4B9B6ADB68DD686B689C4202D21B4AD3622BE005F104084046FFF741F9AB6A1BB105F11800FFF73BF9EB6A134AD2F854
:403D00000C21934202D9114AC2F80C310F4F07F1300003EB83039A0041461044FFF702F9EA6AD7F80031DB6A9A42C1D2C3E7074AD2F824310133C2F824310026034BD3F850
:403D4000283103B101263046BDE8F08188110308394BD3F8183143B94FF03F0383F31188BFF36F8FBFF34F8FFEE770B500F01AFD314BD3F81821013AC3F81821D3F81831A7
:403D8000002B52D12C4BD3F8FC303BBB00244FE0294D2B6ADC6804F11800FFF7E9F8261D3046FFF7E5F8E36AD5F80C21934201D9C5F80C31204D05F1300003EB83039A00AE
:403DC00031461044FFF7AEF8E26AD5F80031DB6A9A4204D30122C5F8282100E00024164B5B69002BD4D10CB1FFF752FD124BD3F8244164B1FFF72EFF18B101220E4BC3F831
:403E00002821013CF6D100220B4BC3F824210A4BD3F828315BB14FF08052084B1A60BFF34F8FBFF36F8F012402E0002400E0002400F0DAFC204670BD8811030804ED00E01D
:403E400010B5B0B10446104BD3F8183143B14FF03F0383F31188BFF36F8FBFF34F8FFEE7FFF7E8FE00212046FFF740FEFFF770FF00E0002038B94FF08052044B1A60BFF341
:403E80004F8FBFF36F8F10BD8811030804ED00E0304BD3F8183123B101222E4BC3F82821704710B52B4B0022C3F82821D3F800311B6B1A68B2F1A53F0BD15A68B2F1A53F67
:403EC00007D19A68B2F1A53F03D1DB68B3F1A53F07D0204BD3F80001D3F80011343100F091FD1C4BD3F80C310AE043B94FF03F0383F31188BFF36F8FBFF34F8FFEE7013BAF
:403F000003EB83018A0013490A44126B002AECD008469900CC18A2000244546B64685463303019448A0008320244944206D1606803EB83018A0007490A445063054903EBBE
:403F4000830082000A44526BD268C1F80021C1F80C3110BD8811030840B94FF03F0383F31188BFF36F8FBFF34F8FFEE710B50C46054BD3F800111831FEF7E0FF0121204620
:403F8000FFF7B4FD10BD00BF8811030838B540B94FF03F0383F31188BFF36F8FBFF34F8FFEE70C461546074AD2F800111831FEF7B9FF0DB14FF0FF3429462046FFF796FD32
:403FC00038BD00BF8811030838B5C368DC6844B94FF03F0383F31188BFF36F8FBFF34F8FFEE704F118052846FEF7C2FF154BD3F81831ABB9251D2846FEF7BAFFE36A114A47
:40400000D2F80C21934202D90E4AC2F80C3103EB83039A0029460C481044FEF783FF03E029460A48FEF77EFFE26A064BD3F80031DB6A9A4204D90120024BC3F8280138BDFA
:40404000002038BD88110308B81103089C110308034BD3F820210260D3F814314360704788110308F8B540B94FF03F0383F31188BFF36F8FBFF34F8FFEE7054641B94FF052
:404080003F0383F31188BFF36F8FBFF34F8FFEE70C4600F087FB124BD3F814016968421A2368B3F1FF3F14D02F680D4ED6F82061B74201D088420ED29A4206D29B1A23606A
:4040C0002846FFF7C5FF002406E000232360012402E0002400E0012400F086FB2046F8BD881103080122024BC3F82821704700BF88110308014BD3F8000170478811030887
:40410000064BD3F804312BB1044BD3F818311BB902207047012070470020704788110308002849D038B50346C26A2549D1F80011C96A8A4237D28169002906DB2049D1F8D6
:404140000011C96AC1F107018161586902EB820291001C4A1144884201D1012200E00022D2B11D461C1D2046FEF702FF144AD2F80031DB6AEB62D2F80C21934202D9104AB9
:40418000C2F80C3103EB83039A0021460D481044FEF7C8FE012038BD094AD2F80021D26ADA62012038BD426C054BD3F80031DB6A9A4203D3002038BD00207047012038BD5A
:4041C00088110308B811030800283DD038B50346204AD2F80021904208D04FF03F0383F31188BFF36F8FBFF34F8FFEE7826C42B94FF03F0383F31188BFF36F8FBFF34F8F6F
:40420000FEE7013A8264C06A596C88421ED0FAB91C461D1D2846FEF7ABFE636CE362C3F10702A2610B4AD2F80C21934202D9094AC2F80C3103EB83039A002946064810443D
:40424000FEF770FE012038BD00207047002038BD002038BD88110308B811030800284DD038B50346806C40B94FF03F0383F31188BFF36F8FBFF34F8FFEE75A6C8A4200D2D3
:404280000A46D96A8A4238D0012836D11C48D0F80001834208D14FF03F0383F31188BFF36F8FBFF34F8FFEE7DA629869002802DBC2F107029A61586901EB81018A001149DB
:4042C0000A44904201D1012200E00022AAB11C461D1D2846FEF74CFEE36A094AD2F80C21934202D9064AC2F80C3103EB83039A00294604481044FEF715FE38BD704700BFE5
:4043000088110308B8110308064BD3F800312BB1044BD3F80021936C01339364014BD3F80001704788110308064B1A681368B3FA83F35B09036013B9D3681868704700206E
:40434000704700BFB412030808B54160006191420AD8D21A83699A4211D2011D0A4B5868FEF7ECFD002008BD9A4201D2994208D2011D054B1868FEF7E1FD002008BD0120CA
:4043800008BD012008BD00BFB412030870B500F009FA0E4B9B68B3B90C4C04F10C063046FEF7B0FD04F120052846FEF7ABFD2660656000220C210A20FEF7E6FEA06010B1E8
:4043C0000349FFF72BFA00F00FFA70BDB412030894F4081000B583B0FFF7D8FF0D4B9B6853B10D4B019303230093002380220B490B48FFF7AFFB00E0002040B94FF03F0380
:4044000083F31188BFF36F8FBFF34F8FFEE703B05DF804FBB4120308E81203089CF40810B946081040B94FF03F0383F31188BFF36F8FBFF34F8FFEE730B585B0154604463F
:40444000124A9068F0B11A46019102950394052913DCFFF755FE022807D10023089A01A90A488068FEF7B6FE0DE000231A4601A906488068FEF7AEFE05E0002301A9FEF7D5
:4044800089FF00E0002005B030BD00BFB412030870B582B029E0DB681E68DC68251D2846FEF766FD636A20469847E369012B1CD1A36933449E4207D2636024612946104B08
:4044C0001868FEF73BFD10E0002100910B4632462046FFF7A7FF40B94FF03F0383F31188BFF36F8FBFF34F8FFEE7054B1B681A68002AD0D1024A51681160536002B070BDCC
:40450000B412030838B50546FFF79EFB0446074B9B6B984204D2FFF7BBFF01232B6001E000232B60014B9C63204638BDB412030870B582B005460E46134B1B68DB68DC68CE
:40454000201DFEF715FDE369012B18D1A1692B46324629442046FFF7F7FE80B1002100910B462A462046FFF75DFF40B94FF03F0383F31188BFF36F8FBFF34F8FFEE7636A0E
:404580002046984702B070BDB412030870B582B006460C46FFF74EFB01A8FFF7B3FF019B1BBB054644B9B04206D3FFF7D1FB29463046FFF7BDFF1AE02CB10E4B5B681C682C
:4045C000B4FA84F464092246711B0A4B9868FFF739F9FFF7BDFB50B94FF08052064B1A60BFF34F8FBFF36F8F01E0FFF7B1FB02B070BD00BFB412030804ED00E030B587B005
:404600004DE0039B002B4ADB059C636913B1201DFEF7AEFC02A8FFF775FF039B092B3ED8DFE803F00505053D273A05053D270499A5690B46024629442046FFF785FE70B3CE
:40464000636A20469847E369012B28D1A269002100910B46049802442046FFF7E3FEF0B94FF03F0383F31188BFF36F8FBFF34F8FFEE70499A16141B94FF03F0383F3118803
:40468000BFF36F8FBFF34F8FFEE70346024601442046FFF759FE02E0204600F0F5F9002203A9044B9868FEF745FF0028A9D107B030BD00BFB412030800B583B001A8FFF773
:4046C00033FE0199FFF762FFFFF798FFF6E700BF82B0002301930D4B1B68B3F1FF3F08D04FF03F0383F31188BFF36F8FBFF34F8FFEE74FF03F0383F31188BFF36F8FBFF34A
:404700004F8F019B002BFCD002B07047F850020808480068006880F308884FF0000080F3148862B661B6BFF34F8FBFF36F8F00DF00BF000008ED00E0DFF80C00016841F479
:40474000700101607047000088ED00E04FF0807340F8043C21F0010140F8081C054B40F80C3C40F8202C6FF0020340F8243C4438704700BFD14608100000000000000000D1
:40478000074B19680868B0E8F04F80F30988BFF36F8F4FF0000080F311887047AFF30080881203084FF03F0383F31188BFF36F8FBFF34F8F0A4A136801331360012B0DD112
:4047C000084B1B6813F0FF0F08D04FF03F0383F31188BFF36F8FBFF34F8FFEE7704700BFF850020804ED00E0094B1B6843B94FF03F0383F31188BFF36F8FBFF34F8FFEE724
:40480000013B034A13600BB983F31188704700BFF8500208000000000000000000000000EFF30980BFF36F8F154B1A681EF0100F08BF20ED108A20E9F04F10602DE9090072
:404840004FF03F0080F31188BFF34F8FBFF36F8FFFF71EFB4FF0000080F3118809BC19680868B0E8F04F1EF0100F08BFB0EC108A80F30988BFF36F8F704700BFAFF3008011
:404880008812030808B54FF03F0383F31188BFF36F8FBFF34F8FFFF7DDF918B14FF08052024B1A60002383F3118808BD04ED00E0084A0023136008490B60084B1B680849C6
:4048C000A1FB03139B09013B06490B6007231360704700BF10E000E018E000E098420208D34D621014E000E010B582B02A4B1A78D2B20192FF221A701B78DBB28DF80330CF
:404900009DF80330254A03F03F0313700723536009E0224A5368013B53609DF803305B00DBB28DF803309DF8033013F0800FF0D11A4B5B68042B08D04FF03F0383F311886A
:40494000BFF36F8FBFF34F8FFEE71B0203F4E063124A5360019BDBB20F4A1370104B1A6842F47F021A601A6842F07F421A60FFF79FFF00240B4B1C60FFF7DEFE0A4A13687F
:4049800043F040431360FFF7C3FEFFF781FAFFF79FFE204602B010BD00E400E0F012030820ED00E0F850020834EF00E0EFF305830F2B0FD9104A9B5CDBB2104A12789342F8
:4049C00008D24FF03F0383F31188BFF36F8FBFF34F8FFEE70A4B1B6803F4E063074A5268934208D94FF03F0383F31188BFF36F8FBFF34F8FFEE77047F0E300E0F012030829
:404A00000CED00E008B54FF03F0383F31188BFF36F8FBFF34F8F4FF441710248FEF772F9FEE700BFA4F4081038B5044610F0070F02D020F007040834FFF7FCF8104B1B68DF
:404A40002BB90F4A02F10C0323F0070313600D4BD3F85C351C444BF6F772944208D8A34208D2074A15681D44064BC3F85C4502E0002500E00025FFF76BF9284638BD00BFD0
:404A8000F8120308A0CD030840B14FF03F0383F31188BFF36F8FBFF34F8FFEE7704700BF08B5074B1B7833B900F012FA00F060FA0122034B1A7000F059F800F0DFFE08BDAB
:404AC00000D3030810B5FFF7EBFF044610B900F0DDFD044614B900F059FD044614B900F069FC044600F0F6FB0028FBD100F0CAFA00F08CFA204610BD70B5194D00263446E6
:404B000029E063090433174A52F8233004F01F02D34013F0010F1CD0EB7E012B02D0022B09D011E0284600F0A5F806462946204600F094F90DE0284600F080F8064629462F
:404B4000204600F0F3F804E04FF4B8710648FEF7D9F82C350134022CD3D9304670BD00BF58F5081054600408F4F4081070B500230AE01D4A191D02EB8100002444604FF055
:404B8000FF3042F821000133002BF2D0174C032325E06668A27E144B2B4400211976012A03D0D2B1032A07D917E02069A8B1228BF17908F01CFD10E023690BB1F2791A7094
:404BC0006168002307E003F1080201EB42024FF6FF7050800133002BF5D02C342B465D1E002BD6D170BD00BF5460040858F5081010B582B004460846638802A921F8083D5A
:404C00001346228A02F04EF9BDF8003063809DF8023023719DF8033063719DF80430A37102B010BD30B40B884A889C1A0025CD800079844200DDCC8030BC70472DE9F04158
:404C40008468038B456890F81A8000270BE042462146284600F024FA074621462846FFF7E1FF0A3433465E1E002BF0D13846BDE8F08100BF2DE9F04780468468476890F8CE
:404C80001AA0466A0025A94616E03246398A208802F030F92A4631463846FFF7A9FF0C3652462146384600F0FBF9814621463846FFF7B8FF0A340135B8F818309D42E4D381
:404CC0004846BDE8F08700BFF0B50C8B8D684F680A69012324E010EA030403D17E88B979314402E07988BE79891BEE88B14201D3002100E01946A14202D01678013E1670E3
:404D0000A14201D014783CB920EA0300084309B9F97900E0012111705B000A350132744604F1FF3E002CD6D1F0BD00BF38B504468A7E154B03441D7E012A04D12846FFF752
:404D4000C3FF054604E04FF438711048FDF7DAFF0D4B23441D76620904F01F04012303FA04F445B90432084B03EB8202536823EA0404546038BD0432034B03EB8202536821
:404D80001C43546038BD00BF5460040820F50810F0B583B00B8B8A684D68D1F810E0844618B96F88A879074402E06888AF79C71B0024012009E0D3889F4201D3002300E056
:404DC00003461C430A32400033465E1E002BF2D154B19EF8003013B1013B8EF800309EF8003023B1644602E0EB798EF800305CB10E466A88AB790F8BD21A3946B06801F066
:404E00004BFF034610B923E0002321E0B27E022A1ED100233A46316A01A801F0A9FF034600220AE002A901EB420131F8040C02F1080105EB4101488001329342F2D807E00D
:404E400003F1080205EB42024FF6FF7151800133002BF5D0204603B0F0BD00BF38B504468A7E194B03441D7E012A03D062B1032A05D909E02846FFF727FF054609E028461B
:404E8000FFF786FF054604E040F226410F48FDF739FF0D4B23441D76620904F01F04012303FA04F445B90432074B03EB8202536823EA0404546038BD0432034B03EB8202D8
:404EC00053681C43546038BD5460040820F5081070B51B4CA4220021204608F088FB4CF6DE7323804FF41063638043F2D403A3800823A383A377E377124E203406F18C05AF
:404F00000FCD0FC40FCD0FC40FCD0FC495E8030084E80300304606F1080403230CE0A268238B04E010F8013B53720A320B46591E002BF7D12C342B465D1E002BEFD170BDEA
:404F40005460040850F5081002280DD800F01F02012303FA02F24009031D044800EB83035B6802EA0300704700207047546004080023024AD380024A1360704754600408C1
:404F80004CD30308C9B2062902D083180021197130F8121000EB42035980024400231372704700BF70B506460D46012305E0224629463046FFF7E6FF23465C1E002BF6D184
:404FC00070BD00BF08B52C23054A03FB0023986801EB81014A00997E1044FFF7E3FF08BD58F5081038B505462C23074A03FB00231B8B04E021462846FFF7E4FF23465C1E10
:40500000002BF7D138BD00BF58F5081010B5032303E02046FFF7E6FF23465C1E002BF8D110BD00BFF8B505462C230F4A03FB00235E681B8B14E02C230B4A03FB05239F6800
:4050400004EB8402500004EB44018A00596A0A44DB7E012B03D1318A385A01F03FFF23465C1E002BE7D1F8BD58F5081010B5032303E02046FFF7D6FF23465C1E002BF8D111
:4050800010BD00BF08B5FFF7F1FF08BD00FA03F3C2F5807001FB00F102FB0310000A70472DE9F04106460D461746012342E035F8140005EB44035988884207D3431A2A1981
:4050C0004FF0000E82F808E0012201E00B1A002292B996F805E073450ED92B191B7A327A934205D3224639462846FFF74BFF20E02A19013313721CE096F804E0734504D993
:4051000096F805E0734514D89AB9FBB2062B10D005EB040898F804E0082301224EEA0121FFF7B4FFC0F30F2205EB44035A8088F8040023465C1E002BB9D10020BDE8F0813F
:4051400010B52C23064A03FB0020846801EB81014B00827EE1184068FFF7A2FF10BD00BF58F5081070B506462C23084A03FB00231B8B002505E021463046FFF7E1FF054301
:4051800023465C1E002BF6D1284670BD58F5081038B50025032304E02046FFF7E3FF054323465C1E002BF7D1284638BD30B49F280ED940F2FE3399420AD9244CA1FB044537
:4051C0004B1B05EB53035B0AC3EB832399422FD09F280DD9B1F5FF7F0AD91D4CA1FB04454B1B05EB53031B0AC3EB4323994221D09F280CD97E290AD9164CA1FB04454B1BDA
:4052000005EB53039B09C3EBC313994214D09F2814D93E2914D9104CA1FB04454B1B05EB53035B09C3EB831399420BD000200AE0042008E0032006E0022004E0002002E0C7
:40524000002000E0012030BC704700BF051040002140800011080402054110044A1E032A01D8102300E0002379B183B1642202FB03F3B3FBF0F3002001E001305B00092B2F
:40528000FBD90A2B04D9013802E0002000E00020C0B2704708B501F09DFC08BD08B50A4B1A689169094B5B1ADB09526902EB03135A6822F0F8525A60054A136823F00103E6
:4052C000136000F02FFF08BD0060040880033240A8023640024BD86800F08000704700BF54600408034B0340034AD0681843D060704700BF8000010054600408034B0340BB
:40530000034AD06820EA0300D0607047800001005460040810B5164BDB6813F4803F0ED102280ED843090433114A52F8233000F01F02D34013F0010F05D1012404E01124CF
:4053400002E0012400E0002484B92C23094A03FB0023DB7E022B02D101F04EFC06E0012B02D100F0F1FE01E04FF0FF34204610BD5460040858F5081008B50C4BDB6813F4C1
:40538000803F0DD10A4B1B78012B05D0022B09D101F000FB002008BD00F026FE002008BD112008BD4FF0FF3008BD00BF5460040850D30308124BDB6813F0800F1AD110B5DE
:4053C00000244FF0FF3312E02046FFF7A3FF034660B9012C03D801220A4B5A7002E00022084B5A70FFF7C8FF034606E00134022CEAD902E0112318467047184610BD00BF34
:405400005460040850D30308124B1B78834220D010B50446012B02D1FFF740FF03E0022B01D1FFF737FF012C05D100F053FC0122084B1A7010BD022C05D101F0F7F8022271
:40544000044B1A7010BD032C02D00022014B1A7010BD704750D3030830B583B00025074C08E02179002300930E222068FCF7ACFE08340135082DF4D903B030BD14F6081088
:4054800038B51B4A93780133DBB293709078FFF741FF044650B9164B9B78DBB2022B02D10022134B5A70FFF767FF1EE0104B9B78DBB2022B10D10F4D2B8901332B818020FC
:4054C000FFF71CFFEB6823F07F43EB60EB6843EA0464EC60002408E0064BDA6822F07F42DA60DA6842EA0062DA60002CC9D138BD50D303085460040810B50146124BB3F980
:405500000030002B0DDB5A0903F01F03012404FA03F320320D4840F82230BFF34F8FBFF36F8F094C2046FDF78FFBB4F90030002B08DB590903F01F03012202FA03F3034A29
:4055400042F8213010BD00BF24F0081000E100E070B5022801D8002500E001258DB904462C23094A03FB0023DE7E022E02D1282101F00CF9012E04D15521204600F0B6FE5F
:405580000546284670BD00BF58F5081038B50024254604E02046FFF7DBFF05430134022CF8D9284638BD00BF70B5002519E02C230D4A03FB0523DB7E012B11D12C2303FBEA
:4055C00005F3D658002404E006EBC40000F054FD01342C23044A03FB05231B7E9C42F3D30135022DE3D970BD58F508102C23034A03FB002043685889704700BF58F508107E
:405600002C23034A03FB002043685981704700BF58F50810C0EB0032012303FA01F101398A4205D9C0EB0020814203D30520704706207047002070472DE9F04180460E4627
:40564000FFF7D4FF07460022318800F00DFC01463846FFF7ABFD054620B931887800FFF7D9FF054629463846FFF7F8FD04466B1FDBB2012B03D839464046FFF7C1FF200153
:40568000C0B228433073BDE8F08100BFF0B58BB04FF47A73ADF8003040F65503ADF802304FF41663ADF80430534B9A7F534BB3FBF2F3ADF80C3000F00DFB00252E4652E02A
:4056C0002C234F4A03FB0523DB7E012B44D12C2303FB05235C680C23238000232373BDF80C30484AA2FB03235B09274627F80A3F5521284600F0FAFD0497434B1B788DF8B3
:405700001830424B1A884FF47A7303FB02F2404BA3FB0213D21A03EB5203C3F3CF23ADF80E30684601F066FB3A4B984203D9062601E05B006381BDF80C10638941F270727F
:4057400002FB03F29142F4D8032BF2D90AAB03EB850343F80C0C05E001220AAB03EB850343F80C2C0135022DAAD9002427E02C23234A03FB0423DB7E012B1FD12C2303FBC5
:4057800004235D685521204600F0B0FD064305F10A0304930AAB03EB840353F80C3C0293194B1B788DF81830EB89ADF8063005F110030593684601F043FB28800134022CB3
:4057C000D5D9002413E02C230D4A03FB0423DB7E012B0BD12C2303FB042359682046FFF72BFF5521204600F081FD06430134022CE9D930460BB0F0BD54600408A086010080
:4058000058F50810F1197605005102080251020801011000870D0100F8B5002427E02C23144A03FB04235D68DB7E012B02D0022B05D016E029462046FFF7FEFE16E02E88EE
:40584000204601F01FFA07463146FFF7AFFC064601463846FFF702FD0001C0B23043287304E040F259710448FDF74CFA0134022CD5D9F8BD58F50810A0F6081008B5FFF7DA
:40588000CBFFFFF7E9FD0020FFF7BEFD002008BD38B52D4D2A6893692C4CE31ADB09526902EB03135A6822F0F8525A60802363602B6893F87D20135923F0704343F0C0431F
:4058C00013512A689369E31ADB0951691B01CA5822F4F852CA50022363602B6893F87D20135923F0F00343F0600313512A689369E31ADB0951691B01CA5822F4F812CA50B3
:40590000042363602B6893F87D20135923F4706343F4C06313510120FDF7E8F92B6893F87D20135923F0704313512B6893F87D20135923F0F00313512B6893F87D201359AF
:4059400023F47063135138BD00600408800332400F4B19782C220F4B01FB02335B680E4AD2F8D02091B2188801238340013B994206D20A4B1B680A49097823F81120704782
:40598000064A12680649097822F81130704700BF52D3030858F5081000003640F86004085CF6081038B5214C227821492C2302FB03125068227802FB03131A7E013A1D4B44
:4059C0001B78DBB29A421BD91A4C23780133DBB22370164D29782C22154B01FB02339968237803EB83035A000A44134B1A6000F013FA2878217800F02DFB00F077FA38BD4B
:405A000000220C4B1A704FF48030FFF777FC0B4B1B78012B02D1FFF733FD38BD8020FFF76DFC074A13890133138138BD52D3030858F5081058D30308F860040851D30308FD
:405A40005460040808B5074B4FF483721A601B68FFF77EFF044A1389013313810348FFF74DFC08BDF0003640546004088000010010B50C4B1B782C2203FB02F30A4AD35898
:405A80000A4A147803EBC404094B4FF483721A601B68FFF75DFF204600F0EEFAFFF782FF10BD00BF52D3030858F5081058D30308F000364001390843014B1860704700BF44
:405AC000000236400E4B1B6823F4F8730D4A917F0D4AB2FBF1F20D498A4204D843F02003074A136070470A498A4204D843F03003034A1360704743F04003014A13607047F0
:405B0000FC5002085460040800E1F505001BB70000366E01044A054B1A604FF0C17203F580731A60704700BF0000830100043640084A136803F07F0343F0C17343F4803307
:405B4000136002F58072136803F07F0343F400031360704700043640074A136843F0805343F001031360054A054B1A604FF0C17203F580731A607047A80236400000830134
:405B80000004364010B40488012000FA04F4013C04EB840303FA00F00C4BA3FB00035B0901335818844200D220468B4201D8C91A00E00021914203D8904203D2062002E083
:405BC000062000E000205DF8044B70471F85EB510023164A136002F5927213600432136006212C3A11604FF48071083A11600121903A1160A2F580724FF48371116012684A
:405C00000B4A136003220B4B1A604FF4FA6300E0013B094A126812F0040F01D1002BF7D113B90822034B1A60704700BF8C013640F800364040033640F00036401E4B4FF4D4
:405C400083721A601B681D4BB3F90030002B08DB590903F01F03012202FA03F3184A42F821300023174A136030321360043213602C3A13605021983A11600121643A116034
:405C80000C3A13608032136843F08073136002220D4B1A604FF4FA6300E0013B0B4AD2F8842012F0070F01D0002BF6D140F20132074B1A60704700BFF000364024F00810DC
:405CC00000E100E080023640F8003640000036404003364070B5FFF767FCFFF7D9FD4FF48032404B1A604048036843F0805343F00103036000233D4A136002F5E07213609E
:405D00000C32136060321360A2F5CE72136002F582721360083A1360354C2360A2F5807213604FF0487102F5A8721160314D2A6892F87D60304AB15821F07041B150296888
:405D40008D69521BD209496901EB0212516821F0F85141F08061516028490A6842F480520A604FF48071264A1160026842F0805242F0010202604FF0807222490A6040F6B2
:405D80004130A1F58E71086001F584710B602260FFF7C0FE1C4B9B7F013BFF2B0BD8154A12689068B2F87410425822F47F421B029BB213434350FFF785FE144B1B6843F0CE
:405DC000004343F48053124A13600F22114B1A600022A3F588731A600A2203F590731A6070BD00BF04023640A8023640F40036408402364000600408800332409402364055
:405E0000A0023640A402364054600408FC500208000036400003364038B50546FCF7DDFF0D490B6823F07F020C4B1C7825446B7A13430B60FCF7D5FFFCF7CFFF08490B687F
:405E400023F07F02074B1B681C44637A13430B60FCF7C7FF38BD00BF000436405CF6081000053640F860040830B401248C40631E40B10F2904D9A4F10A03B3FBF0F301E01B
:405E8000B3FBF0F3053A012A00D85B080BB9012000E0184630BC704708B50C4B19782C220B4B01FB02335B6859891B7B18045A1F012A01D840F00070053B012B02D8490861
:405EC00000D10121FFF7F6FD08BD00BF52D3030858F5081008B5027B01884089FFF7C4FF80B2014B186008BD1403364008B50D4BB3F90030002B0DDB5A0903F01F03012182
:405F000001FA03F32032084941F82230BFF34F8FBFF36F8F0122054B1A60FFF759FEFFF78DFE08BD24F0081000E100E08001364008B50448FFF7D6F91720FCF7D7FEFFF7DB
:405F4000D5FF08BD80000100F8B50546FCF745FF06462F682C79072C04D94FF471712048FCF7D0FEA4001F4B1B6893F87D00C2590F23A34022EA0301062202FA04F30B43B0
:405F8000C3512C682D79072D04D94FF422711448FCF7B8FE134B1A689369E31ADB0952691B01D118032D0BD8D158ED001F20A84021EA00000B2101FA05F50543D5500BE056
:405FC000043D4B68ED001F22AA4023EA02020B2303FA05F515434D603046FCF702FFF8BD60F6081000600408F8B5144F3B78144D2C2603FB06535868124C002323703B780D
:4060000003FB06539968237803EB83035A000A440D4B1A60FFF700FF3B7803FB06F3EB58207803EBC000094B1860FFF78DFF0848FFF762FAFFF77CFFF8BD00BF52D3030852
:4060400058F5081058D30308F8600408FC600408715A081008B52C2303FB00F0044B185800EBC100034B1860FFF76EFF08BD00BF58F50810FC600408F8B50646FCF7ADFE60
:40608000074634683579072D04D94FF422712348FCF738FE224B1A689369E31ADB0952691B01D118032D08D8D158ED001F2000FA05F521EA0505D55008E0043D4B68ED00E6
:4060C0001F2202FA05F523EA05054D6035683479072C04D94FF471711048FCF713FEA4000F4B1B6893F87D0042590F23A34022EA03010E2202FA04F30B4343513568347932
:40610000072C04D940F281310448FCF7FBFD0123A3406B603846FCF764FEF8BD60F608100060040808B5064B1B78012B06D1054B1868FFF7A1FF0022014B1A7008BD00BF7A
:4061400059D30308FC600408F8B5114E2C2707FB00635D68C0B20F4C20700120FFF754F9FFF7E0FF237803FB07F3F2580A4B1A600A4BDA6822F07F02DA602178DA680A4329
:40618000DA602846FFF7A6FEFFF786FEF8BD00BF58F5081052D30308FC6004085460040838B52C23114A03FB00235D68C9B2104C21709968237803EB83035A000A440D4BFD
:4061C0001A60FFF7C1FF2846FFF726FE20780A4A136803EBC0001060FFF7B6FE0122074B1A700748FFF788F938BD00BF58F5081058D30308F8600408FC60040859D30308A1
:40620000455A08102DE9F84307460D4690462E4908782C222D4B00FB02335E684FF0000985F8009008782A4B1978FFF7B9FFFFF77FFC8024B94503D22B7823EA04032B706A
:4062400064082B7823432B703046FFF7E5FDFFF76FFE204B00E0013B1F4AD26812F0800F01D0002BF7D11D4B1B68B3F80090002CE0D1154B1B782C2203FB02F3134AD3581F
:40628000134A107803EBC000154B1860FFF7F4FE0022144B1A70FFF75FFC4A4639463046FFF770FC98F800202B789A4205D288F800300D4A1371A2F80690084B1B682A780F
:4062C0005A72BDE8F88300BF52D3030858F5081058D303082433030054600408F8600408FC60040859D30308FC5002082DE9F04383B004460F462C233A4A03FB00235E68E0
:4063000001258DF80450B14639F8098B05FA08F808F1FF3801FB08F3334AA2FB03384FEA5818C2B2314B1A703148FFF7E5F8314B1D71DD800025304B1D700AE001AA494600
:406340004046FFF75FFF05432B4A13780133DBB213702C23234A03FB04231A7F264B1B78DBB29A42EAD89DF8043001335B0873720022214B1A7023E02C231A4A03FB0423D6
:406380009A681D4B1B7803EB830302EB43021B4B1A60537A717A8B420BD35B1ADBB207FB03F363331049A1FB0313C3F34713537201E000235372104A13780133DBB2137095
:4063C0002C23084A03FB04231A7F0B4B1B78DBB29A42D1D80022084B1A70284603B0BDE8F08300BF58F508101F85EB5152D30308455A0810FC50020858D30308F860040830
:4064000042890388901E10FB03F080B2704700BF08B52A4BB3F90030002B0DDB5A0903F01F03012101FA03F32032254941F82230BFF34F8FBFF36F8F224B4FF483721A605C
:406440001B68214BD3F8D020D3F8D4309BB213FA82F31E4A128892B2934204D91B4A13889BB2538002E09BB2184A5380184B1B689847184BDB6813F0800F0FD1164A124BBE
:406480001A604FF4407203F5C6731A60134A03F51D731A601F22A3F598731A60074BB3F90030002B08DB590903F01F03012202FA03F3034A42F8213008BD00BF24F00810B5
:4064C00000E100E0F0003640000036405CD30308045102085460040820100C80800E43013F4B1A683F4B1B7813445A7A3E4B13433E4A136000233E4A53803E493E4A1160EC
:40650000012102F5C0721160112102F5807211604FF08071043211603C3213600622374B1A60374A28331A6041F2101204331A60344AC43B1A6040F2033203F5A8731A60F0
:406540004FF4FA6300E0013B2F4A126812F0010F01D0002BF7D12C4B1B6813F0010F03D04FF44272284B1A60284BDA7F284BB3FBF2F3284A934204D9274A934203D8302368
:4065800002E0202300E0402343F0004343F44123194A136040F20132204B1A60002320490B6001F580710B6004310B603C310B6038390B601B482831086042F210200431E8
:4065C0000860C4390B601F21174B1960A3F5F0734FF4837119601B680B4B1A60704700BFF86004085CF60810800E4301000436405CD3030820100C800000364088023640B6
:4066000001010100AA000500400336405460040800E1F505001BB70000366E018C0136408001364001030300D002364010B5FFF72FF949490B6893F87D00484BC25822F0E5
:40664000F002C2500A6892F87D10CA5822F47062CA504FF4837203F57F3303F5B8731A60002404331C60022204331A6088331C6004331C6041F2415204331A604FF44072E8
:4066800004331A60364A03F51D731A6003F580731C60344AA3F544731A60334A10331A6004331C607C331C6004331C6004331C6008331C60FCF791FB2C4A136823F480536A
:4066C0001360FCF78EFB2322294B1A604FF0807204331A60FCF781FB264A136823F0805323F4801343F080531360FCF77AFB224A224B1A6042F2102204331A600C331C60A6
:406700001F2210331A600F2230331A60042210331A6004331C600C331C604FF4427220331A60174AA3F550731A60164BDB7F013BFF2B0BD8084A12689068B2F87410425872
:4067400022F47F421B029BB213434350FEF784FE0D48FEF7D1FE10BD0060040880033240800E4301AA0005002A00000C94023640A0023640A802364001030300B002364007
:4067800020100C8054600408116408102DE9F84380460E462C242B4B04FB0034D4F80890294BC3F800906068FFF72AFE274B1880198889B201FB06F1254EA6FB0136E37EDE
:4067C000022B3CD17609227F657F05FB02F5002109E01D4A1368002018801368402058720A3313600131A942F3D32024402700E01C464046FEF78EFDFEF7BEFD154BDB6842
:4068000013F0800FFAD1104BC3F8009000210FE00D4B1B681A88964203D25A7A22EA07025A725A7A22435A720A33074A13600131A942EDD3C4F347032746002CD8D1BDE89B
:40684000F88300BF58F50810F86004085CD303081F85EB5154600408F8B50546FCF7BDFA06462F682C79072C04D94FF471712048FCF748FAA4001F4B1B6893F87D00C2598B
:406880000F23A34022EA0301062202FA04F30B43C3512C682D79072D04D94FF422711448FCF730FA134B1A689369E31ADB0952691B01D118032D0BD8D158ED001F20A840CF
:4068C00021EA00000A2101FA05F50543D5500BE0043D4B68ED001F22AA4023EA02020A2303FA05F515434D603046FCF77AFAF8BD60F6081000600408F8B50546FCF76DFA11
:4069000006462F682C79072C04D94FF471711F48FCF7F8F9A4001E4B1B6893F87D10CB590F2202FA04F423EA0404CC512C682D79072D04D94FF422711448FCF7E3F9144B81
:406940001A689369E31ADB0952691B01D118032D0BD8D158ED001F20A84021EA0000042101FA05F50543D5500BE0043D4B68ED001F22AA4023EA0202042303FA05F5154398
:406980004D603046FCF72DFAF8BD00BF60F608100060040810B50022104B1A70104B1B689968104A11605A7F0F4CA280187FE0801B68A36003EBC000E060FFF74DFFA068CB
:4069C000FFF79AFF094A0A4B1A608020FEF78AFC1720FCF78BF9FFF783FD10BD58D3030854D30308F86004085CD30308056B08100451020870B50546FCF7EFF906462C68C2
:406A00002D79072D04D94FF422711148FCF77AF9104B1A689369E31ADB0952691B01D118032D08D8D158ED001F2000FA05F521EA0505D55008E0043D4B68ED001F2202FAF7
:406A400005F523EA05054D603046FCF7CAF970BD60F6081000600408F8B50646FCF7BDF9074634683579072D04D94FF422712348FCF748F9224B1A689369E31ADB095269DF
:406A80001B01D118032D08D8D158ED001F2000FA05F521EA0505D55008E0043D4B68ED001F2202FA05F523EA05054D6035683479072C04D94FF471711048FCF723F9A400F0
:406AC0000F4B1B6893F87D0042590F23A34022EA0301062202FA04F30B43435135683479072C04D940F281310448FCF70BF90123A3406B603846FCF774F9F8BD60F60810A0
:406B00000060040810B52C4B19682C4B18782C4C23889AB263889BB2D31A21F81030E068FFF768FF274A13780133DBB21370A388013B9BB2A3805BB1E0680830E060FFF7BA
:406B40008BFE1D4A13680A331360FFF7C9FC10BD1B4AD388013B9BB2D380D3B114469068FFF77AFFA0680830A060FFF7C5FE164B1A68537FA3801368107F03EBC000E060C8
:406B8000FFF76AFE0C4A13680A331360FFF7A8FC10BD0B4B9868FFF75FFF0C4B1B7813B1FEF76EFC10BD0A4A1389013313818020FEF7A4FB10BD00BFF86004085CF60810C5
:406BC0005CD3030858D3030854D3030851D3030854600408074B1B8A53B110B5054CE068FFF708FFA068FFF737FF0023238210BD704700BF5CD3030838B50446C2B2194B26
:406C00001A700220FEF700FCFFF7E4FF164B2C2202FB0434154B1C6065686C892A88144B1A602846FFF7ECFB124B18802B7B013CC4F30B0444EA034444F040640E4B1C60C6
:406C40000E4BDB7F013BFF2B0BD80D4A12689068B2F87410425822F47F421B029BB21343435038BD52D3030858F5081054D30308140336405CD303080002364054600408A2
:406C8000006004082C23034A03FB002043685889704700BF58F50810F0B50023334C237004461E460BE0E588954206D9AE4204D22E4E3371012737702E460A3401338B4249
:406CC000F1D32A4B1B78002B47D14BE0274EB3181B7903EB83056C000519B5F806E002EB42077D003544A5F80AE09BB901EB81056C000A3C0444E688550015446C001B4D90
:406D00002C442681013303EB83035D000544EB88A38120E04D1EEDB2AB420CD1A4F10A030344DD88540014446300104C23441D81C4889C810FE00A3C0444E68855001544C3
:406D40006C000A4D2C442681013303EB83035D000544EB88A381013200E00022034B1B789A42B3D3014B1878F0BD00BF70D303082DE9F041002533E01D4C2C4424793CB95C
:406D800005EB45077E001A4F3E440027378109E0561EB44206D105EB45077E00144F3E440027B7816F002F447E00114F3E44B6F80C80B6F808E0CEEB0807B6F80AC00EEBDC
:406DC0000C0608EB060E01FB07F696FBFEF604FB013434447F34C4F30F2420F815400135034C2478A542C7D32046BDE8F08100BF70D30308014670B582890569CB898088DA
:406E00004FF47A76584306FB00F42888B2FBF0F0B4FBF0F00C7E4B886043B0FBF3F00B884343B3FBF6F35A43044BB2FBF3F3012213B15B085200FBE72A8070BD00E1F505D6
:406E4000014643888A88007EC3EB03435043B3FBF0F00B698A891B88B2FBF3F3104A4343B3FBF2F3CA8853430A22B3FBF2F38A6846F2A710824294BF6422C8221020934217
:406E800005D90138C0B206284FEA5303F7D149694B2253436422B3FBF2F30B80704700BFA086010003B10B880088800080B2824238BF02469A4238BF1A4692B25308FF2B4E
:406EC0000A804FEAD2028CBFFF23DBB2FF2A8B70CB7086BFFF230B710A7170478B0813800F23C9089372002351809080D0801081D3727047937A30B5948890805B00041BE6
:406F0000DBB24ABF013393729372957A538848BF644205F00F05A342957203D9012B03D9013B00E0013353800F2D04D01DB15388B4EB830F04D90023D0801081D37230BDED
:406F4000D488844201D9D08003E01489844238BF1081D07A092802D80130D07230BD1089D488001B80B2834204D9B3EB910F03D9013B00E0013353805388138030BD0000C6
:406F8000064B5A68596B01325A60C2008A18596A51600021117058627047C046006104080F2330B542680E4CD90009190D6C2100AA4202D2013BF7D211E00F2B0FD824689C
:406FC000A21A0A608268C068002A00D05060002801D0026003E00833DB00CB185A6030BD00610408F8B5284C0600E368A26B013B0818D3180D00984206D80368002B03D16F
:407000004368F618FFF7CCFFA36B9D420BD92B1F1F68EF1B3B68002B05D17B683800F6183D00FFF7BDFF0F23DA00A218126C964202D2013BF8D225E00F2B23D80833DA0029
:40704000A21850680022A91904392A606E60A8602D610E6029000831904200D04160EA602200DB00E318A860596023682932F31823601278002A05D1E268D31AA268934265
:4070800000D9A3603000F8BD00610408F0B5234B87B09C6BDB680490013BE318039323686568002B30D1039B6719BB422CD93B680293002B28D0194EDB00726B9B5C012B6C
:4070C00022D17B6820000193F36A0593FFF768FF3B68726BDB00D3185C60019A3900200006F06AFA029B059A934202D1736B5B1B7363019B2800E118FFF774FF049B002B66
:4071000001D0984206D2019D039B6419A342C6D8012000E0002007B0F0BDC04600610408002806D0034BDA6B0260002A00D05060D863704700610408034BC0005B6B181898
:40714000406808307047C04600610408064A10B5D3690133D361526BC300D3181A7801321A70FFF7E9FF10BD00610408036810B5083B094C1B68626BDB00D3181A78012ADF
:4071800004D9E169002901D00139E161013A1A7000230360180010BD006104080322024B914318605960704780D3030810B5041E0FD000F069FF074B5A6BE300D3185B6843
:4071C00019005868FFF70EFF2000FFF7D9FE00F04FFF10BD00610408F7B5224DEB6A002B07D1214B99685868083105F007FD841C03E02B691C1DDB08E418E00000F0CAF8BB
:407200000126071E2CD06A6BC300D3185E68EB6A083601932B69696BDA00144B30001B68984729696E630B00CA000432EF62B218601E834203D2013313600832F9E7DB0026
