:020000041008E2
:4000000000780408EB0208100D0000005103081051030810510308105103081000000000000000000000000000000000B14F08104D0308100000000051500810B550081024
:400040004D0308104D0308104D0308104D0308104D0308104D0308104D0308104D0308104D0308104D0308104D0308104D0308104D0308104D0308104D0308104D03081000
:400080004D0308104D0308104D0308104D0308104D0308104D0308104D0308104D0308104D0308104D0308104D0308104D0308104D0308104D0308104D0308104D030810C0
:4000C0004D0308104D0308104D0308104D0308104D0308104D0308104D0308104D0308104D0308104D0308104D0308104D0308104D0308104D0308104D0308104D03081080
:400100004D0308104D0308104D0308104D0308104D0308104D0308104D0308104D0308104D0308104D0308104D0308104D0308104D0308104D0308104D0308104D0308103F
:400140004D0308104D0308104D0308104D0308104D0308104D0308104D0308104D0308104D0308104D0308104D0308104D0308104D0308104D0308104D0308104D030810FF
:400180004D0308104D0308104D0308104D0308104D0308104D0308104D0308104D0308104D0308104D0308104D0308104D0308104D0308104D0308104D0308104D030810BF
:4001C0004D0308104D0308104D0308104D0308104D0308104D0308104D0308104D0308104D0308104D0308104D0308104D0308104D0308104D0308104D0308104D0308107F
:400200004D0308104D0308104D0308104D0308104D0308104D0308104D0308104D0308104D0308104D0308104D0308104D0308104D0308104D0308104D0308104D0308103E
:400240004D0308104D0308104D0308104D0308104D0308104D0308104D0308104D0308104D0308104D0308104D0308104D0308104D0308104D0308104D0308104D030810FE
:400280004D0308104D0308104D03081010B5054C237833B9044B13B10448AFF300800123237010BDFC4902080000000040C70810084B10B51BB108490848AFF300800848FF
:4002C000036803B910BD074B002BFBD0BDE81040184700BF00000000004A020840C70810C8430208000000007047FFF7FDFF72B6104C114DAC4209DA21686268A368043B2E
:40030000A2BFC858D050FAE70C34F3E70B490C4A00209142BCBF41F8040BFAE709480A490860BFF34F8F00F019FA00F0F3F900F0A7F8FEE744C708105CC70810FC49020844
:40034000D8F503080040020808ED00E0FEE7FEE700B504207146084202D0EFF3098001E0EFF30880043003F0F3F8FEE708B50F4B1868002103F098FC4FF47A7003F0B4F858
:400380000B4B5A6910225A615B690A4BB3F90030002B09DB5A0903F01F03012101FA03F36032054941F8223008BD00BFBCD2030800003240C0B7081000E100E008B5164B40
:4003C0001868002103F07AFD0128F8D10022134B1A801AE01249134800F0C0FA0F4B1A8840F2CF739A420CD100210C4B19800A4B18680B460A4603F005FB4FF47A7004F0C8
:4004000037F9064A138801331380044B1A88B2F5FA6FDFD3D3E700BFF8740308184A02083C940308FC74030808B5104B1868002103F044FD0128F8D14FF47A7300220C49EF
:400440000C4800F09FF94FF47A7300220A490B4800F098F9054B186800231A46194603F0D1FA4FF4FA7004F003F9DEE7F8740308C0D20308FC740308184603083C94030882
:4004800000B583B003220021012003F095FA2E4B186003220021012003F08EFA2B4B1860186800231A46194603F0ACFA62B600F0ABF904F01FFF00F0E3F904F061FF0022AF
:4004C00001210A2003F078FA214B1860214C2249204602F0CFFFB4F90030002B08DB5A0903F01F000121814060321C4840F82210002B08DB590903F01F03012202FA03F32C
:40050000164A42F82130002401940523009323464FF480621249134803F034FF01940423009323464FF480620F49104803F02AFF03F05AFFEC210E4802F0FAFF04F0C8FEF5
:400540000028FBD1FEE700BFBCD20308F8740308C4F20308C0B708106D03081000E100E0A4B60810BD030810B0B6081029040810BCB6081008B5012001F044F908BD00BF13
:40058000704700BF5C4AD2F8803303F00F0303F1D00152F8212002F00702032A04D0042A05D092B9554914E0554A116811E003F1C002514951F8222002F01F02112A06D069
:4005C000132A04D04FF4FA4103E04E4901E04FF400418BBB484BD3F8902502F00100D3F88825C2F30172D3F8883513F0405F07D0414BD3F88835C3F30173012B02D102E081
:40060000012300E0002303B108B9032A46D13A48D0F88025C2F31103D0F88425C2F30C02D0F88005C0F300600130B1FBF2F202FB03F2B2FBF0F131E0012B2FD12E4BD3F8CC
:40064000402602F00100D3F80026C2F30172D3F8003613F0405F07D0274BD3F80036C3F30173012B02D102E0012300E0002303B108B9032A12D12048D0F8002602F07F029B
:40068000D0F80036C3F30423D0F80006C0F3044002FB01F2B2FBF3F2B2FBF0F1164BD3F88033C3F3011321FA03F215494A601648D0F89030C3F3072301330069000E013027
:4006C000B2FBF0F08860B2FBF3F3CB600B6103F5742202F23F220D48A0FB0202C2F387420A7503F2E7330A4AA2FB03239B098B61DB03CB61704700BF0000264000127A005F
:400700008C42020800366E010000214083DE1B43D34D621008B50D4803F006F8FFF730FFFFF730FF00221146042000F033FE084800F0C6FE074B1B6893F8513013B1064888
:4007400000F02EFF00F070FD08BD00BFC8BB08101C4A0208ECF20308C8B6081008B502F054FF074AD2F8883043F47003C2F88830BFF34F8FBFF36F8F02F04BFF08BD00BF00
:4007800000ED00E070B588B005460E4600E001329A42FCD34FF47A740094164B164A322105A804F01FFE23463246294605A804F02BFE1249124801F0C3F8002415E00A225B
:4007C00003A956F824000AF0E2FE0D4D03A9284601F0B6F80B49284601F0B2F840F2E7339C4200D100240134A4B2B4F57A7FE6D308B070BD60E20308AC420208FCB6081098
:400800000000664040B7081008B505F003FF142000F0DEF8012000F0E3F8012005F002FE002005F041FE6FF07F4005F033FE05F0BFFE08BD70B582B004460E460E4B009363
:400840006423002257210D4801F0C2FE28B90A4B64222146094802F029F8074D074C2B4664223146204602F021F82A466421204601F090FF02B070BDE4F303080000634005
:4008800008B5642002F030FED0210220FFF7D2FF00210320FFF7CEFF00210420FFF7CAFF00210520FFF7C6FF00210620FFF7C2FF1F210820FFF7BEFF03210920FFF7BAFFDC
:4008C00029210A20FFF7B6FF1F210C20FFF7B2FF1F210D20FFF7AEFF08BD00BF2DE9F04182B080460D4616461A4C1B4F0097642300225721204601F06BFE3B46642241466E
:40090000204601F0D3FF0097642301225721204601F0D6FE002409E00F4B009364232A1900210C4801F068FF0134E4B2731E9C42F2DB084E084F009764232A19012130466C
:4009400001F05AFF3A466421304601F023FF02B0BDE8F08100006340E4F3030870B584B005460E461446062202A90720FFF7B6FF9DF808301B0403F440339DF8092003EB59
:4009800002239DF80A20134445F824309DF80B209DF80C301B0203EB02439DF80D20134446F824300A22694655F824000AF0EFFD054C6946204600F0C3FF0449204600F0F2
:4009C000BFFF04B070BD00BF0000664040B7081010B5044600F048F9204600F0EBF910BD08B510B100F05AFA01E000F079FA08B9012008BD002008BD08B50022024BC3F824
:400A0000082100F035FB08BD00003840014BD3F808017047000038400122014B5A6070470000384010B5074C074A0849204602F035F8236843F0004323600822044B9A6053
:400A400010BD00BF00006740C8F20308C8B70810000632400822044B9A60044A136843F000431360704700BF000632400000674008B50249024802F045F908BDC8F20308A9
:400A80000000674008B50146154800F0FBFE144BD3F8C03F13F0040FF9D0114BD3F8042242F48032C3F80422D3F8042222F48032C3F80422D3F80422D3F8042342F48032C2
:400AC000C3F80423D3F8042322F48032C3F80423D3F804230422C3F8C02FD3F8C03F08BD0000674008B50146174800F0CBFE164BD3F8C03F13F0040FF9D0134BD3F84003EE
:400B0000D3F8042242F48032C3F80422D3F8042222F48032C3F80422D3F80422D3F8042342F48032C3F80423D3F8042322F48032C3F80423D3F804230422C3F8C02FD3F88B
:400B4000C03FC0B208BD00BF0000674038B50C46054600B121B940F2E6511B4802F0E8FC22462946194800F0D3FE184AD2F80832C3F30803D2F80822C2F3C032D342F4D18D
:400B8000124BD3F8042242F48032C3F80422D3F8042222F48032C3F80422D3F80422D3F8042342F48032C3F80423D3F8042322F48032C3F80423D3F804230422C3F8C02F79
:400BC000D3F8C03F204638BD44B7081000006740044B1B6913F0080F01D0012070470020704700BF800232402DE9F04180460E4617460A4C082565607020FFF743FF4046A2
:400C0000FFF740FFA56065607220FFF73BFF39463046FFF79BFFA560BDE8F0810006324000B583B002AB03F8011D01221946FFF7DBFF03B05DF804FBF8B507460E46094C31
:400C4000082565607020FFF71DFF3846FFF71AFFA56065607320FFF715FF3046FFF742FFA560F8BD0006324038B50425084B5D60084C4023636010236360FFF7D3FE082286
:400C8000054B5A60656020236360FFF7B5FE38BD00003240800232400006324010B5434C6F22002120460AF09AFC631C236704F14E03636704F12203A367FFF79DFE03E036
:400CC000FFF7A4FE032868D8FFF782FF0028F7D1FFF7A2FE00217220FFF7AEFF00F00F0002285CD14021FFF79BFF00210F20FFF7A3FF10F0800F54D002210B20FFF790FFE9
:400D000008222B490120FFF76FFFD1210720FFF787FF02210820FFF783FFC2210920FFF77FFF03210420FFF77BFF01210320FFF777FF00210320FFF773FF0A2002F0D4FBB8
:400D4000002400E01C4601210520FFF769FF642002F0CAFB03210520FFF762FF322002F0C3FB0F210520FFF75BFF322002F0BCFB00210F20FFF760FF10F0400F05D04021C1
:400D80000220FFF74DFF234603E0631C9BB2042CD8D1032B07D9052010BD012010BD022010BD032010BD002010BD00BF9C4B020884B7081010F1090F0EDB10F1040F0EDB22
:400DC00005280FDD0A2810DD0F2811DD142811DD282811DC5A2210E04FF496620DE04FF461720AE04FF4167207E04FF4A57204E0DC2202E0B42200E03C22034BA3F87C2032
:400E0000A3F87E20704700BF9C4B0208002307E01349086F5522C254496FCA5401339BB2202BF5D970B5002416E0A6080C4DAA6F04F003030B490B441B7A93556F222946BF
:400E40000A20FFF7D1FE07210220FFF7E9FEAB6F00229A550134A4B2AF2CE6D970BD00BF9C4B020884B7081008B5002304E00021094AD1540133DBB2152BF8D90021042068
:400E8000FFF7CEFE6F2204490A20FFF7ADFE07210220FFF7C5FE08BD9C4B020838B50E4C1023A360142002F01FFBFFF7D3FD08220A4B9A604023A3600425A5600A2002F062
:400EC00013FB65600A2002F00FFBA5600A2002F00BFBFFF7E3FE38BD800232400006324038B5FFF793FFFFF7BFFF1E2002F0FCFA234C40256560322002F0F6FAA560002158
:400F00000F20FFF799FE10F0400F36D000210B20FFF786FE01210320FFF782FE03210520FFF77EFE01210520FFF77AFE322002F0DBFA80210420FFF773FE00210520FFF72E
:400F40006FFE01210720FFF76BFE1E2002F0CCFAFFF78EFD102363606560142002F0C4FA0822084B5A60042363602025A5601E2002F0BAFA6560002038BD042038BD00BF45
:400F8000800232400006324010B582B002AC012344F8043D00231A461449154805F058FC214606F0D2FC07F0FBF860B14FF48472B021002007F0D9F94FF48472B0210020B6
:400FC00007F0FFF90BE0B0224FF48471002007F0CCF9B0224FF48471002007F0F2F90549002007F0D9F902B010BD00BFA4C40810D8C4081074430208012901D100207047E8
:401000004FF0FF30704700BF08B54FF40041034804F016FF024805F093FA08BDCC62020860BD081008B5012002F0C0FD014B186008BD00BFCCE2020808B500231A4619460D
:401040000248006802F0DEFC08BD00BFCCE2020808B54FF0FF31024B186802F02FFF08BDCCE2020808B503F05DFC08BD704700BF08B5084B1B783BB9074A0021074802F092
:40108000CBFA0122034B1A70044B01229A609A6108BD00BFD0E20208FCB70810000038401F4B98422DD00CD840282ED003D8E8B1102828D02FE0802829D0B0F5807F28D00B
:4010C00029E0184B984228D006D8B0F1204F0DD0154B984212D01EE0144B98420AD00133984209D0023B984215D101E0002070470F4870470F4870470F4870474FF4A00011
:401100007047074870470D4870470D4870470D487047034870470C4870474FF4A400704706005200010000F0090000A0040000F001005200020052000300520001005000F0
:401140000200500005005200FF00520038B5124B1B6893F83130012B04D840F2C3110F4802F0E6F90C4B1D682A6AB5F8B03013442C46D5F8B420D358002B0BDB084B186810
:40118000FFF78EFF6B6801229A6063689B68002BFBD138BD034838BDECF2030848B80810D4E20208020050001A4B186128B102230370FF23437000234380174B1B6893F835
:4011C00050202AB300B583B0B3F93830ADF80030002301931149684602F04CF9BDF90030002B08DB590903F01F03012202FA03F30B4A42F82130084B1B6893F8513023B1C5
:4012000002220849012000F077FA03B05DF804FB704700BFD4E20208ECF203083944020800E100E0F144020808B50248FFF7BCFF08BD00BFE8E2020838B50B4B1B68D3F869
:40124000B4301B58002B0DDA0D4604460B0C1B0423B140F2D521054802F06AF9A9B26160002038BD024838BDECF2030888B8081001008A0038B50368002B01DA002300E0F7
:40128000094B73B90D460446C2600B0C1B0423B140F2BB21054802F04BF9A9B2A160002038BD014838BD00BF01008A0088B8081038B504460D4619B99921084802F038F97A
:4012C000074B1B68D3F8B4301B59002B03DAE3682B60002038BD034838BD00BFC8B80810ECF2030801008A00254B1B6893F8313083423AD900293AD00B6813F01F0F38D161
:4013000070B50D4604461E4B1B6893F83130984204D340F2C3111B4802F00AF9184B1B68186AB3F8B03004FB0304174E34602A68D208002168680AF052F900212046FFF7F3
:401340007BFF346825B940F293310E4802F0F0F82A4600212046FFF78DFF60B900210A4B1868FFF769FF40B970BD084870470748704706487047064870BD054870BD00BF81
:40138000ECF2030888B80810ECE2020803018A0001018A0010B504461346B2B9A9B9124B1B6893F83130984204D340F2C3110F4802F0BEF80C4B1B681A6AB3F8B03004FB5B
:4013C00003240B4B1C60002010BD43B149B1084A51609360111D2046FFF786FF10BD054810BD044810BD00BFECF2030888B80810ECE2020803018A002DE9F0411B4B1B687E
:40140000DC68236883422CD90D464609A0EB4610012303FA00F819B902F0F7F8074600E00027124B18680368002B01DA002300E00F4B83B9626852F8263018EA030F05D036
:4014400023EA080342F82630002400E0094C0021FFF7F2FE00E0084C25B9384602F0D9F800E0064C2046BDE8F08100BFECE2020801008A00020188000301880004018A009B
:401480000B4B1B68DB681A6882420CD94109A0EB4110012202FA00F05B6853F82130184203D004487047044870470448704700BFECE202080101880004018A0000018800E2
:4014C000024B1B680BB9014B18607047F8E202082DE9F8430446884691461D46089F2C4B1B681BB9B5212B4802F022F8284B1B682C2000FB04F01C18EEB21E50C5F3072337
:4015000063602D0CA560244B1B6893F831309E4204D340F2C311214802F00AF81E4B1B68196AB3F8B02006FB02162661666893F832309E4204D340F2DF11184801F0F8FF4C
:40154000154B1B681D6A803605EB46156561A668330C1B0423B14FF4FF71104801F0E8FF330C1B0423B140F2FF110C4801F0E0FFB3B243EA0646AE60C4F81C90C4F82080CF
:401580000023A36117B1B7F90030A381BDE8F883F8E2020808B90810ECF2030888B80810F0B58FB0044618B95221274801F0C0FFA369072B03D95621234801F0B9FFE36A97
:4015C0001BB95821204801F0B3FF236B1BB959211D4801F0ADFF07AD04F114060FCE0FC537682F6002AD26460FCE0FC533682B60164B1B68B3F93620079B1344ADF830303D
:40160000089B0D93A26AE16A0CAD00953B460A98FFF75EFF00210091069B0A460598FFF757FF216B284601F025FFBDF93030002B08DB590903F01F03012202FA03F3044AB3
:4016400042F821300FB0F0BD08B90810ECF2030800E100E0F8B506460F461D4614461AB9FD211F4801F064FF1E4B1B681BB9FE211B4801F05DFF1B4B1B682C2101FB063042
:4016800001FB07314B68012202FA03F31B04466802FA06F60269EAB18F69EFB91268002A01DA002200E0104AC2B92288134323600369DC6001238B614D620469330C1B04B8
:4016C00023B140F2BB21094801F032FFB2B2A2600020F8BD0648F8BD0648F8BD0548F8BD08B90810F8E2020801008A0088B8081004028A0007028A00F8B505460F461646E6
:401700000E4B1B6823B94FF4AF710D4801F010FF0A4B1B682C2404FB0534236A23B94FF4B171074801F004FFE369B34204D9236A43F826700020F8BD0248F8BDF8E2020894
:4017400008B908100A028A0070B582B000230193044620B940F2D111284801F0E9FE236923B94FF4E971254801F0E2FE636923B940F2D311214801F0DBFE236A23B94FF48D
:40178000EA711E4801F0D4FE6369DD682A0C20D012041A601B682069194B1B68D3F8B430C358002B15DA01A9FFF782FD60B9019803681E0CDBB2E269934206D2226A52F846
:4017C000233013B1984700E0002631462069FFF733FDADB275B16369ADB21D601B68636A1BB198470023636202E0A36A03B198470023A36163691B6802B070BD08B9081007
:40180000ECF2030810B50446074B1B6823B940F2B111064801F08CFE034B1B682C2000FB0430FFF791FF10BDF8E2020808B9081010B4D0F8003303F00F03072B06D90023EE
:401840000DE0D0F84043CC54013300E000239342F7D306E0D0F8404321F8134001339342F8D35DF8044B704710B51446D0F80833C3F308039A4200D31C462246FFF7D8FF45
:40188000204610BD036813F4006F01D0802200E04022D0F80832C3F30803934203D0C0F84012012070470020704700BF10B4D0F8003203F00F03072B06D900230DE0CC5C70
:4018C000C0F84042013300E000239342F7D306E031F81340C0F8404201339342F8D35DF8044B704710B51446036813F4006F01D0802200E04022D0F80832C3F30803D31AA8
:40190000A34200D81C462246FFF7D0FF204610BDF8B507460D461446D0F8006206F00F060BE0224629463846FFF7DCFF072E01D9430000E003461D44241A002CF1D1F8BD7E
:4019400030B4036813F4006F01D0802200E04022002408E0D0F80832C3F308039A42F9D0C0F8405201340D5D002DF3D130BC704702E0C0F84012013A002AFAD1704700BF6A
:4019800010B51446036813F4006F01D0802200E04022D0F80832C3F30803D31AA34200D81C462246FFF7E4FF204610BD10B54A6841F201039A4231D1D0F80833C3F30803DF
:4019C000B3B10B6A43F040030B620B7873B1D0F8043343F48033C0F80433D0F8043323F48033C0F80433D0F8043301E0D0F840330B6A43F020030B620B6A23F010030B6299
:401A0000036E23F4204303660023C0F8C83F0123C0F8C03FD0F8C03F202221E0D0F80832C3F30802D0F80832C3F3C03313440A6BD21A4A630A6A12F0080F05D1CA6A1A44C4
:401A4000CA628A6AD31A8B620B6A43F004030B620B6A23F001030B620023C0F8883F1022D0F84C4F40F201131C420DD0036823F00043036000238366C366036843F0004365
:401A80000360036842F040024FF080534B604B6C0BB11046984710BDD0F80C3F13F0020F1DD00222C0F8002FD0F8002FD0F8002F12F0040F02D04FF4001001E04FF48010B7
:401AC0008A6802438A604A68B2F5B81F07D00A7B12B14FF4C01201E04FF4B0124A6013F4807F03D08A6842F400028A6013F0010F03D08A6842F480028A6040F211121342C0
:401B000002D04FF4C0134B60704700BF0023C0F8C83FC0F8883F836E23B140F21713C0F8083F704740F21313C0F8083F182383664FF4B8134B60704738B5D0F80C4F036EF8
:401B400023F4807303660023C0F8C83FC0F8883FC0F8083F40F21713C0F8003FD0F8003F8B6823F480338B604B7B13B18B69CB610BE08D69D0F80822C2F30802D0F8083252
:401B8000C3F3C0331344EB1ACB6140F201131C421BD0036E9B0F032B05D114F4827F14BF0123002300E001235BB1036823F00043036000238366C366036843F00043036076
:401BC00003684FF080534B601BE00B7893B1D0F8043343F48033C0F80433D0F8043323F48033C0F80433D0F804330123C0F8C03FD0F8C03F0B7B0BB10B4B01E04FF080533F
:401C00004B604A6C72B14B7B13B14FF4802001E04FF400308B6813F0F87301D04FF400231843904738BD00BF000010100346002940DB11F0C00F06D0002181664FF0805077
:401C400050602F4844E011F4807F36D111F0010F0ED050682B49884232D1196E11F0804F0CBF012100214FF08050506026482FE011F0020F06D050682249884223D100219B
:401C8000224825E011F0100F05D04FF080515160002108461CE050681A49884216D1517B11B14FF4881101E04FF4A0115160002108460DE0012116480AE00121154807E0AC
:401CC0000121114804E00021134801E00021084679B1196821F00041196000219966D966196841F0004119601B684FF080535360704740F21712C3F8002FD3F8003F704773
:401D00000820AA00000013100620AA000420AA000320AA000720AA000520AA00036853B110B50446012001F0F7FB2368013B23601BB1002010BD002070474FF0004010BDFB
:401D400070B505460C4691F8243013F0FF0F0ED1CB6A63B94B6C0BB108209847E36AB3FA83F35B0984F824300123C5F8883F94F8243013F0FF0F16D063783BB12B6813F485
:401D8000006F01D0802202E0402200E00122FF212846FFF7F5FD236B18442063236A43F00803236270BDE26A012A11D963780BB1013A00E00122A16A2846FFF793FD236BD7
:401DC00003442363E36A1B1AE362A36A1844A062D5F80832C3F30803802B23D0E36A012B20D101F012FCA36A1B78C5F840324026C5F8806FD5F8803F01F00BFC236B0133EE
:401E000023630023E362A36A0133A362C5F8886F63783BB1236A43F002032362636C0BB10420984770BD00BF38B54B68B3F5A81F03D14FF4C0134B6038BD4B68B3F5A01F7C
:401E40004DD10C4605464A69012A11D94B780BB1013A00E0012221692846FFF743FDA3690344A36163691B1A6361236903442361D5F80832C3F30803802B14D06369012B32
:401E800011D101F0C2FB23691B78C5F840324023C5F8803FD5F8803F01F0BBFBA3690133A361002363616369CBB9237B33B14023C5F8883F4FF4A813636005E00023C5F8C8
:401EC000883F4FF4B0136360637843B1A36843F40033A360636C13B14FF48030984738BD70B504460D468A6C82B3036813F4803F06D0D0F84C3F13F0400F03D0022002E041
:401F0000002000E00020236E13F4006F06D1D4F84C3F13F0800300D001231843C0B190470123C4F8C03FD4F8C03F024648B91023C4F8403FD4F8403F40F2D113C4F8483F2A
:401F400007E040F2C113C4F8483F02E0002200E00022D4F8043243F48033C4F80432D4F8043223F48033C4F80432D4F804320AB9012300E00223E366002A59D1666E06F03A
:401F800010066B6C23B10EB1012000E0022098477EB141F202036B602B6A43F001032B626B6B2B63002385F824300123C4F8883F70BD41F201036B602B6A43F010032B627E
:401FC0000123C4F8C83F2B78BBB1EB6BBBB1236E43F400532366ED6B802D05D9A5F18003802B0ED8813D0DE0013D236E43F4004323660023C4F8C83F04E0002502E0002585
:4020000000E03F25236813F4006F01D0802300E040239D4204D34FF42071064801F088FAD4F8043323F0FF03EDB21D43C4F8045370BD00BF48B9081038B54B68B3F5881F3B
:4020400003D0B3F5901F1AD038BD0B69D0F840231A708B6901338B614B69013B4B612BB10B6901330B610423836638BD0B7B13B14FF4C01301E04FF4B0134B6038BD0C4650
:4020800005464A690969FFF7EFFBA3690344A36163691B1A6361226910442061012B24D82B6E23F480732B666369012B16D12B6813F4006F01D0802300E0402323B94FF43A
:4020C0002071184801F034FAD5F8043323F0FF03C5F804334FF48813636038BD0023C5F8C83F4FF4B013636038BD402B01D89C1E00E03F242B6813F4006F01D0802300E0EA
:4021000040239C4204D34FF42071064801F010FAD5F8043323F0FF02E3B21343C5F8043338BD00BF48B9081038B5CB6B002B50D00B78002B3FD00C460546D0F80423D2B26B
:402140000132896BFFF790FB236C03442364E36B1B1AE363A26B1044A063802B06D9A3F18002802A0FD8A3F181040DE02B6E43F400432B66E36B0BB15C1E00E000240023A7
:40218000C5F8C83F00E03F242B6813F4006F01D0802300E040239C4204D34FF42071104801F0C6F9D5F8043323F0FF02E3B21343C5F8043338BD0123C3668A6B0B6CD0F85A
:4021C0004003D0540B6C01330B64CB6B013BCB6338BD0223C3660023C0F8C83F38BD00BF48B90810F8B50B78012B03D00C7A1CB9002702E0002700E00127002800F0A780CB
:40220000002900F0A680002A00F0A58016460C460546013BDBB2022B03D94F214F4801F087F9637803B163791BB150214B4801F07FF994F90330002B03DA5121474801F07F
:4022400077F9237913F0010F03D05221434801F06FF92369102B03D95321404801F068F9E368102B03D954213C4801F061F9637913B14FF4803100E00021E27912B14FF488
:40228000807300E000230B4343F400632B60A37913B94FF4006300E000232269013A02F00F021A43E368013B1B01DBB21343227843EA82732B6617B140F2073301E040F2E4
:4022C0000713C5F800330FB1254B00E0254B2B6763780BB17F2300E00023C5F80433E3785B00DBB2227943EA0243C5F810331E4BC5F80032A3780BB1402300E00123C5F8EF
:4023000004320023C5F8C83EC5F8883EC5F8C83FC5F8883FC5F8083F2378022B02D040F2D11300E00023C5F8483F63783370A37873704FF0805373600020B060B061306287
:402340003064F0633063F0627064B064F8BD0748F8BD0648F8BD0548F8BD00BF8CB9081003002A0013102A00070101000120AA0038B505460C4621B940F2C321194801F0B5
:40238000D7F82B6E9B0F012B17D1174B2344174A93421ED9A4F5BD13A3F5D66302F5611202F56162934216D9A4F57104A4F533440F4B9C4211D80F4838BD84B1286EC0F3D6
:4023C00003102B6E03F00F0318440230B4FBF0F038BD094838BD094838BD002038BD002038BD00BF8CB9081020AD88FF405B730040555C0440420F00801A0600A086010099
:402400002DE9F84307468846914622B940F21221624801F08DF808F1FF34614B9C4204D940F213215D4801F083F83B6E9B0F012B0DD149463846FFF79BFF0546D7F80033A8
:4024400023F40073C7F80033564B3B67A2E0544B9C421FD8544B984509D8A9F5BD13A3F5D663524A934218D90021012328E0504B984507D84F4B4B444F4A934213D9002161
:4024800001231DE04D4B4B444D4A934212D90021012315E00021012312E0002141F288352E460B460CE000214FF461754FF4C8660B4605E001214FF4BE754FF41B760023DA
:4024C000002B66D13F4BB3FBF9F3B6FBF3F404FB03F2964200D90134102C00D910240F2C8CBF00220122B5FBF3F606FB03F39D4200D90136102E00D91026A519B9FBF5F5A8
:402500000FE022B10F2C09D80134002206E00F2E04D801360F2C8CBF00220122A519B9FBF5F5454502D9A3191F2BEAD941B1D7F8003343F40073C7F80033234B3B6707E054
:40254000D7F8003323F40073C7F80033154B3B67E31F092B04D940F283511C4800F0E8FF3B6E23F0F003013C2401E4B223433B66731F0B2B04D94FF4B461144800F0D8FFB9
:402580003B6E23F00F03013E06F00F061E433E6600E000252846BDE8F88300BF8CB908103F420F0013102A00A0860100502D1900801A060020AD88FFA0432100807E25FF9B
:4025C000C02BAF0000CA9A3B03002A00CCB908102DE9F04182B005460C4617469846089E11F0800F04D04FF4D961314800F0A0FF304B984504D940F2C9612D4800F098FF6B
:40260000012F04D940F2CA61294800F091FF0023C5F8483F7368B3F1805F41D14FF47A7303FB08F30193244B7360012F14BF00230123737340F21713C5F8003FD5F8003FD5
:402640000423C5F8C03FD5F8C03FD5F8043243F48033C5F80432D5F8043223F48033C5F80432D5F804326400E4B23C43C5F840420223AB66D5F8004F24F0F804E405E40D14
:40268000D5F8403F03F0C0031C4301A8FFF746FB54EA0001EED032462846FFF7C7FA00E0064840F2D113C5F8483F02B0BDE8F0818CB9081037894100000013100220AA00A2
:4026C0002DE9F04182B005460F4614469846089E11F0800F04D040F229712A4800F028FF294B984504D940F22A71264800F020FF012C04D940F22B71224800F019FF73688D
:4027000013F4801F39D04FF47A7303FB08F301931E4B7360012C14BF0023012373736B6E13F0200F01D0092300E00123AB666B6E13F0200F05D0002009E001A8FFF7EEFA37
:4027400000E0002018B9AB6E13F0010FF5D170B97F00FFB23C43C5F84042D5F8000F40F20714044001A8FFF7D9FA2043F5D0324601462846FFF75AFA00E0054802B0BDE87D
:40278000F08100BF8CB9081037894100000013100220AA0070B582B005460C461646134B994204D940F28C71114800F0C1FE736813F4801F17D04FF47A7303FB04F40194DC
:4027C0001823AB66D5F8004F24F0EE04E405E40D01A8FFF7A3FA54EA0001F3D032462846FFF724FA00E0034802B070BD378941008CB908100220AA002DE9F04383B007465C
:4028000088461C460A9D914622B94FF4FB61244800F08EFE234B9C4204D940F2D971204800F086FEB8F1010F04D940F2DA711C4800F07EFE6B68B3F5881F2BD14FF47A73D6
:4028400003FB04F40194D7F8C06F06F00406D7F8001F40F201140C4001A8FFF75FFA44EA00010EB90029EED046B1D7F8403389F800300523C7F8C03FD7F8C03F2A463846ED
:40288000FFF7D4F9034630B9B8F1000F03D10422BA6600E0044B184603B0BDE8F08300BF8CB90810378941000220AA00F0B583B005460F4614461E46134B9A4204D940F68D
:4028C0003201124800F034FE7368B3F5A01F17D14FF47A7303FB04F40194C5F84072D5F8004F24F0F804E405E40D01A8FFF716FA54EA0001F3D032462846FFF797F900E0D2
:40290000034803B0F0BD00BF378941008CB908100220AA0070B504460E46D0F88C3E13F0010F07D04FF480534B600123C0F8803ED0F8803ED4F84C5F40F201131D420FD0E8
:40294000336A15F4807F02D04FF4807200E08022134333620023C4F8C83F45F010050EE015F0100F0BD0D4F80833C3F3080333B1F36B23B10123C4F8C43FC4F8C83FD4F8D1
:40298000CC3F13F0010F08D031462046FFF7CCFB0123C4F8C03FD4F8C03F15F0100F0AD031462046FFF702F81023C4F8403FD4F8403FD4F84C5F15F0C00F0DD03146204654
:4029C000FFF78EFA0123C4F8803ED4F8803EC023C4F8403FD4F8403FD4F88C3F13F0410F08D031462046FFF7ABF90123C4F8803FD4F8803F70BD00BF70B506460D46D0F8ED
:402A0000004E14F0020F0AD0836E2BB1002383668B6843F080738B604FF4C0136B6014F0010F05D029463046FFF736F824F0040414F0080F08D029463046FFF7FDFA0123A4
:402A4000C6F8C03FD6F8C03F14F0040F08D029463046FFF7E9F90123C6F8803FD6F8803F6B68B3F5C01F03D129463046FFF764F86B68B3F5B01F03D129463046FFF746F856
:402A800070BD00BF08B54B6813F4801F02D0FFF7B3FF08BDFFF73EFF08BD00BF002800F02481F8B50546002900F0218117460C460B78012B03D93F218F4800F039FD63783C
:402AC000012B07D9052B05D0022B03D040218A4800F02EFDA378032B03D94121864800F027FD2378012B07D16368023B0E2B03D94321814800F01CFDA36933F00F0303D008
:402B000044217D4800F014FDA368043B0C2B03D94521794800F00CFDE368043B0C2B03D94621754800F004FD6378022B07D0A268E3689A4203D047216F4800F0F9FC636A87
:402B400033F06D0303D049216B4800F0F1FCE36A33F0730303D04A21674800F0E9FC236B33F4206303D04B21634800F0E1FC6378A678052B07D8DFE803F00603050606037F
:402B8000022600E00026A368082B04D8E368082B03D9002302E0002300E0012313B14FF4006200E00022237F13B14FF4807300E000231A436368013B03F00F03134343F04B
:402BC00080732B60226A2B6813F4006F01D0802300E040239A4203D35821474800F0A8FCA26A2B6813F4006F01D0802300E040239A4203D35921404800F09AFC237D0BB953
:402C0000012100E000216278052A01D1022300E000230B43E17C09B1102100E000210B43617C09B1202100E000210B432178012902D14FF0004100E000210B43B60006F051
:402C40000C063343A169090201F470610B43120602F0407213432B62237C13B14FF4807200E00022A37C13B14FF4007300E000231A43A368013B03F00F031343C5F80033DF
:402C800094F82030C5F80433237C13B14FF4807200E00022E368013B03F00F031343C5F8003294F82830C5F80432636A03F06D03C5F8C83FE36A03F07303C5F8883F236B46
:402CC00003F40073C5F8003F236B03F40063C5F8403F0023C5F8C83E5FB118463B60BB61FB60FB61054B3B62F8BD054870470448F8BD0020F8BD00BF0CBA0810EFCDAB0008
:402D00000140AA00036823F00043036019B100220A60CA608A61036A002B04DB0023C0F8C83FC0F8883F70472DE9F84305460C46036813F4006F02D04FF0800801E04FF002
:402D40004008D5F8007207F00F07A26A012A19D9D4F82490E262561EB9F1000F00D026B940F27351254800F0E3FB324649462846FEF7B8FDA36A1B1AA362072F00D9400010
:402D800048446062D5F80832C3F30803984533D0A36A012B30D10023A362072F02D8636A1E7801E0636A1E8800F02FFCC5F840624FF40073C5F8803FD5F8803F00F029FCA7
:402DC000D5F8883F23F4007222F0010242F4007623F4EE6323F0030323B140F22A41084800F0A6FBC5F8886F236843F002032360236B0BB101209847BDE8F8834CBA0810A0
:402E000048B908102DE9F04105460C46036813F4006F01D0802600E040267608A769D4F81C8017B1B8F1000F04D14FF49961314800F07EFB424639462846FEF715FD236A84
:402E400003442362E3691B1AE36173BBA368FBB1E3689E4201D8013E00E05E1E2B6813F4006F01D0802300E040239E4204D34FF42071214800F05CFBD5F8043323F0FF0329
:402E8000F6B21E43C5F804630123C5F8C83F02E00023C5F8C83F636823F001036360236B33B304209847BDE8F081A169D5F8002302F00F02072A00D940000844A0619E428E
:402EC00016D95C1E2B6813F4006F01D0802300E040239C4204D34FF42071074800F028FBD5F8043323F0FF02E3B21343C5F80433BDE8F0814CBA081048B90810002800F062
:402F0000A48170B50546002900F0A18116460C460B78022B03D93F21A24800F009FB637B023BDBB2062B03D940219E4800F000FBA37B3BB1022B05D0032B03D04121994812
:402F400000F0F6FA94F82130012B03D94221954800F0EEFA94F82830012B03D94321914800F0E6FA2378012B06D86368083B082B94BF0023012307E0A37F2BB16368013B0F
:402F8000062B94BF002301231BB14521854800F0CFFAA368053B042B03D94621814800F0C7FA6369FF2B03D947217E4800F0C0FAA369FF2B03D948217A4800F0B9FAA37CAE
:402FC0006BB1237833B9A368092B05D1A37B2BB1012304E0012302E0012300E000231BB14A21704800F0A4FA636B23F4366323F00D031BB14C216B4800F09AFAE36B23F4F7
:40300000EE6323F003031BB14D21664800F090FA2378022B01D1A37F13B16268013A00E00022237F13B14FF4803100E00021A368082B02D84FF4006300E000230B4302F0E1
:403040000F02134343F000732B60226B2B6813F4006F01D0802300E040239A4203D36221504800F065FAA26B2B6813F4006F01D0802300E040239A4203D36321494800F0CB
:4030800057FA626A2B6813F4006F01D0802300E040239A4203D36421424800F049FA23781B0603F040732B64637F0BB1402200E00022A37C13B14FF4806300E000231343EA
:4030C000227C12B14FF4807200E000221343627C12B14FF4007200E000221A43E36A013B1B0403F470231343627B013A02F007021343A27B120102F030021343AB64237BE5
:4031000013B14FF4807200E00022E37B23B92378022B03D1012302E0012300E0002313B14FF4007300E000231A43A368013B03F00F031343C5F80033227DA3691B0403F464
:403140007F031343C5F81033E26AD5F8003303F00F0303339A4201D3102A03D97A21114800F0E6F9E37F23B12378012B03D0002302E0002300E0012313B14FF4807200E092
:403180000022637B013B03F007031A43A37B1B0103F0300313436B64237B2BB14FF4807203E000BF8CBA08100022A368013B03F00F0313432278012A02D14FF4803200E014
:4031C00000221343C5F8003294F83030C5F8043394F8203013B14FF0007200E0002294F82130012B02D14FF0807300E00023134394F82820012A02D14FF4803200E0002205
:40320000134394F8242013432B6594F83830C5F80432636B23F4926323F002031B051B0DC5F8C83FE36B23F08C035B055B0DC5F8883F76B1002070603060B060F0603062C8
:40324000F0623063044B736370BD04487047034870BD002070BD00BFEFCDAB000160AA000B694A69934202D34869181A7047CA694869101A184470472DE9F04107460D46AB
:40328000036813F4006F02D04FF0800801E04FF040084FEA5808D7F80863C6F308062C6926E00134EB689C4200D100246B699C420FD12B6B0BB1082098476B699C4208D126
:4032C0000023C7F8C83F0CB1013C13E0EC68013C10E0D7F84023D7F8003303F00F03072B02D8AB681A5502E0AB6823F81420013E002ED6D12C61EC6829463846FFF7B0FFE5
:40330000201A804519D908B1441E00E000243B6813F4006F01D0802300E040239C4204D34FF42071064800F003F9D7F8040320F0FF03E0B21843C7F80403BDE8F08100BF7A
:4033400048B9081038B504460D46D0F8003E13F0080F35D0D0F8CC3F13F448730AD04A681A434A60C0F8C03FD0F8C03F0B6B0BB110209847D4F8CC3F13F4006F09D06B68A5
:4033800043F400636B604FF40063C4F8C03FD4F8C03FD4F8CC3F13F0010F11D0EB6923B129462046FFF72EFD05E0AB681BB129462046FFF761FF0123C4F8C03FD4F8C03FFA
:4033C000D4F8003E13F0040F2ED0D4F88C3F13F4A0630AD02A681A432A60C4F8803FD4F8803F2B6B0BB120209847D4F88C3F13F0010F08D029462046FFF796FC0123C4F885
:40340000803FD4F8803FD4F88C3F13F4007F0BD00022C4F8882F2B6823F001032B60EA622B6B0BB10220984738BD00BF38B50D4B9A680D4B9A420FD10D46044621B940F229
:4034400037110A4800F074F804F11003064A52F8230042F8235038BD1030054B53F8200038BD00BF00ED00E000400208CCBA08100000081048B338B504460D464368072B11
:4034800003D93221134800F053F8B4F900306268002B08DB5201D2B203F1604303F5614383F8002305E003F00F035201D2B20A49CA540A4B9A680A4B9A4208D12946B4F93B
:4034C0000000FFF7B3FF002038BD06487047002038BD00BFCCBA081014ED00E000ED00E0004002080100560010B5044605E0084B186800F081F8A4F50044B4F5004FF6D876
:40350000044B186800FB04F000F076F810BD00BFA8420208A442020808B5034B1B7800FB03F000F069F808BDA042020801BEFEE738B50D46044C18220146204608F057F80F
:40354000A5610020FFF7F2FF68490208FEE700BF08B50268254BDA6142681A6282685A62C2689A620269DA6242691A6382695A63C2699A631E4A916AD963D16A1964516A6A
:403580005964516B9964926BDA64F1EE103A13F0900F27D0026A154B1A65426A5A65826A9A65C26ADA65026B1A66426B5A66826B9A66C26BDA66026C1A67426C5A67826C8C
:4035C0009A67C26CDA67026DC3F88020426DC3F88420826DC3F88820C26DC3F88C20026EC3F89020FFF7B2FF08BD00BF6849020800ED00E0000000000230800803D001304F
:403600000238FCD100BF00BF7047EFF3108072B6704780F31088704700287DD00346002A7CD070B45068000280B29568AD0405F480252843D468240404F4403404431069B0
:40364000000600F0E0602043147F0CB1012400E0002420430C1DA4011851D06828B903EB81100024C0F808410CE0012805D1146803EB8110C0F8084104E003EB8110012472
:40368000C0F80841106938B9546903EB8110C0F80C419469C0F81041146803EB8110C0F81441906CB0F1FF3F17D0946A04F00F04166B360206F470663443956B2D0405F45F
:4036C00070252543146C2403A4B22C430001C0B2204303EB8114C4F82001506A00F00300D66A360106F030063043556B2D0205F440752843D46BA401E4B20443506C800063
:4037000000F00C00204303EB8113C3F82401126AC3F83821002003E0024870470148704770BC70470100B600014B1860704700BFECF2030800F1080343604FF0FF32826086
:40374000C360036100230360704700BF00230361704700BF43684B609A688A609A68516099600861036801330360704730B40D68B5F1FF3F01D1026907E000F1080200E07D
:403780001A4653681C68A542FAD253684B6099608A605160086103680133036030BC704703694268816891608268416851605A68904201D182685A60002202611A68013A2F
:4037C0001A601868704700BF436A23B1036B1868C0F1070070470020704700BF10B5044601F0F8FBA26BE36B9A4201D1012400E0002401F011FC204610BD00BF10B50446C1
:4038000001F0E8FBA36B0BB9012400E0002401F003FC204610BD00BF70B504461646856B026C3AB9036843BB406801F0E5F80023636029E06EB9806807F0ABFEA268236CA5
:403840001344A3606268934219D32368A36000201AE0C06807F09DFE236C5B42E2681A44E26021688A4202D262681344E360022E07D145B1013D002006E0002004E00020F8
:4038800002E0002000E000200135A56370BD00BF026C72B110B50346C4681444C4604068844201D31868D8600846D96807F071FE10BD704738B5054601F08CFB95F8454060
:4038C00064B20AE06B6A53B105F1240000F094FF08B101F01FF8013C64B2002CF2DCFF2385F8453001F098FB01F074FB95F8444064B20AE02B6953B105F1100000F07CFF32
:4039000008B101F007F8013C64B2002CF2DCFF2385F8443001F080FB38BD00BF38B540B94FF03F0383F31188BFF36F8FBFF34F8FFEE704460D4601F04DFB2168E26B236C88
:4039400003FB021060600020A063A160013A02FB0313E360FF2384F8443084F845307DB92369ABB104F1100000F046FF80B14FF08052094B1A60BFF34F8FBFF36F8F07E030
:4039800004F11000FFF7D6FE04F12400FFF7D2FE01F042FB012038BD04ED00E010B5029B0C4609B91B6000E01A60D8631C6401211846FFF7B3FF10BD40B94FF03F0383F359
:4039C0001188BFF36F8FBFF34F8FFEE7F0B583B0034611B101FB00F000E000201D4617460C46483001F038FC064638B100903B4600F1480221462846FFF7D0FF304603B047
:403A0000F0BD00BFF0B585B0019240B94FF03F0383F31188BFF36F8FBFF34F8FFEE7044619B9026C1AB9012202E0012200E0002242B94FF03F0383F31188BFF36F8FBFF38B
:403A40004F8FFEE7022B03D1E26B012A02D102E0012200E0002242B94FF03F0383F31188BFF36F8FBFF34F8FFEE71D460E4600F05FFF18B9019B1BB9012302E0012300E030
:403A8000002343B94FF03F0383F31188BFF36F8FBFF34F8FFEE7002701F09CFAA26BE36B9A4201D3022D21D12A4631462046FFF7B3FE636A6BB104F1240000F09DFE88B19E
:403AC0004FF08052324B1A60BFF34F8FBFF36F8F08E038B14FF080522D4B1A60BFF34F8FBFF36F8F01F098FA01204EE0019B1BB901F092FA002048E01FB902A800F0C0FE33
:403B0000012701F089FA00F0ADFC01F063FA94F844305BB2B3F1FF3F02D1002384F8443094F845305BB2B3F1FF3F02D1002384F8453001F071FA01A902A800F0ABFEF0B964
:403B40002046FFF74BFEA0B1019904F1100000F01BFE2046FFF7AEFE00F012FD00289BD14FF080520A4B1A60BFF34F8FBFF36F8F92E72046FFF79EFE00F002FD8CE72046B3
:403B8000FFF798FE00F0FCFC002005B0F0BD00BF04ED00E048B108B5002141600160C1600B460A46FFF72EFF08BD704710B5024600210120FFF700FF0446FFF7EBFF204671
:403BC00010BD00BF2DE9F84340B94FF03F0383F31188BFF36F8FBFF34F8FFEE7044619B9006C18B9012002E0012000E0002040B94FF03F0383F31188BFF36F8FBFF34F8FF4
:403C0000FEE7022B03D1E06B012802D102E0012000E0002040B94FF03F0383F31188BFF36F8FBFF34F8FFEE71F469046894601F0D5FAEFF311864FF03F0383F31188BFF321
:403C40006F8FBFF34F8FA26BE36B9A4201D3022F1ED194F845506DB23A4649462046FFF7DBFDB5F1FF3F0DD1636A9BB104F1240000F0C2FD80B1B8F1000F0FD00120C8F8BC
:403C800000000CE06B1C5BB284F84530012006E0002004E0012002E0012000E0012086F31188BDE8F88300BF40B94FF03F0383F31188BFF36F8FBFF34F8FFEE770B5044655
:403CC000036C43B14FF03F0383F31188BFF36F8FBFF34F8FFEE703681BB943681BB9012302E0012300E0002343B94FF03F0383F31188BFF36F8FBFF34F8FFEE70E4601F0CB
:403D00006DFAEFF311854FF03F0383F31188BFF36F8FBFF34F8FA26BE36B9A4218D294F845305BB20132A263B3F1FF3F0AD1636A83B104F1240000F05FFD68B176B10120E9
:403D400030600CE001335BB284F84530012006E0002004E0012002E0012000E0012085F3118870BDF0B585B0019240B94FF03F0383F31188BFF36F8FBFF34F8FFEE70446C2
:403D800019B9036C1BB9012302E0012300E0002343B94FF03F0383F31188BFF36F8FBFF34F8FFEE70E4600F0C3FD18B9019B1BB9012302E0012300E0002343B94FF03F0321
:403DC00083F31188BFF36F8FBFF34F8FFEE7002701F000F9A56BC5B131462046FFF758FD013DA563236963B104F1100000F004FD38B14FF08052304B1A60BFF34F8FBFF3C3
:403E00006F8F01F009F9012053E0019B1BB901F003F900204DE01FB902A800F031FD012701F0FAF800F01EFB01F0D4F894F844305BB2B3F1FF3F02D1002384F8443094F8C1
:403E400045305BB2B3F1FF3F02D1002384F8453001F0E2F801A902A800F01CFDF0B92046FFF7CCFCA0B1019904F1240000F08CFC2046FFF71FFD00F083FB0028A8D14FF0C0
:403E800080520D4B1A60BFF34F8FBFF36F8F9FE72046FFF70FFD00F073FB99E72046FFF709FD00F06DFB2046FFF7A8FC00288FD0002005B0F0BD00BF04ED00E070B584B0A6
:403EC000019140B94FF03F0383F31188BFF36F8FBFF34F8FFEE70446036C43B14FF03F0383F31188BFF36F8FBFF34F8FFEE700F01FFD18B9019B1BB9012302E0012300E0C9
:403F0000002343B94FF03F0383F31188BFF36F8FBFF34F8FFEE700252E4601F05BF8A36BCBB1013BA363236813B900F005FE6060236963B104F1100000F05EFC38B14FF0E3
:403F40008052414B1A60BFF34F8FBFF36F8F01F063F8012076E0019B6BB945B14FF03F0383F31188BFF36F8FBFF34F8FFEE701F053F8002066E01EB902A800F081FC012644
:403F800001F04AF800F06EFA01F024F894F844305BB2B3F1FF3F02D1002384F8443094F845305BB2B3F1FF3F02D1002384F8453001F032F801A902A800F06CFC40BB204695
:403FC000FFF71CFCF0B123683BB901F003F8606800F0BEFC054601F01FF8019904F1240000F0D2FB2046FFF765FC00F0C9FA002893D14FF08052144B1A60BFF34F8FBFF34A
:404000006F8F8AE72046FFF755FC00F0B9FA84E72046FFF74FFC00F0B3FA2046FFF7EEFB00283FF47AAF65B100F0D4FF2046FFF7CBFB0146606800F029FD00F0EDFF00202D
:4040400000E0002004B070BD04ED00E000230BE0074A52F8332032B9054A42F8331002EBC303586070470133092BF1D9704700BFF0F2030870B504460D46164600F0AAFF6D
:4040800094F844305BB2B3F1FF3F02D1002384F8443094F845305BB2B3F1FF3F02D1002384F8453000F0B8FFA36B2BB93246294604F1240000F082FB2046FFF7FBFB70BDCF
:4040C000094B9B6A1B680BB9012300E0002323B14FF0FF32044BDA627047034B9A6AD268D2685268DA62704738E3020810B50446006B01F0E1F8204601F0DEF810BD00BFDE
:404100002DE9F04780460D4616469946DDF820A0099F0A9C9200A521206B07F060FA236B06F18042013A03EB820626F00706002306E0E95CE21882F83410EA5C12B1013369
:404140000F2BF6D9002384F84330BAF1060F01D94FF0060AC4F82CA0C4F844A00025A564201DFFF7F3FA04F11800FFF7EFFA2461CAF10703A36164622B4606E003F1120266
:4041800004EB8202002151600133042BF6D90023236684F864304A464146304600F0EEFE206007B13C60BDE8F08700BF70B5002407E004EB8402930010481844FFF7BAFA1E
:4041C0000134062CF5D90E4C04F1BC063046FFF7B1FA04F1D0052846FFF7ACFA04F11400FFF7A8FA04F1E400FFF7A4FA2046FFF7A1FAA662C4F8F85070BD00BF68E302083C
:4042000038E3020838B5044600F0E4FE264BD3F8FC200132C3F8FC20D3F800314BB9224BC3F80041D3F8FC30012B10D1FFF7BEFF0DE01D4BD3F804314BB91B4BD3F8003113
:40424000DA6AE36A9A4202D8174BC3F80041164AD2F808310133C2F80831E36AD2F80C21934202D9104AC2F80C310F4D05F1300003EB83039A00211D1044FFF76BFA00F05D
:40428000CBFED5F804316BB1D5F80031DA6AE36A9A4207D24FF08052044B1A60BFF34F8FBFF36F8F38BD00BF38E3020804ED00E038B517E000F08EFE0D4CD4F8F030DD6825
:4042C000281DFFF76DFAD4F8FC30013BC4F8FC30D4F81031013BC4F8103100F09DFE2846FFF704FF024BD3F81031002BE2D138BD38E3020808B5FFF7DBFF064B1B6B012BE7
:40430000F9D94FF08052044B1A60BFF34F8FBFF36F8FF0E738E3020804ED00E070B504460E46174BD3F81451D3F800010430FFF737FAB4F1FF3F07D136B11148D0F8001174
:404340000431FFF707FA70BD2C440D4BD3F800315C60A54208D90A4BD3F8F800D3F800110431FFF703FA70BD054DA86AD5F800110431FFF7FBF9EB6A9C4200D2EC6270BD72
:4043800038E302082DE9F04385B006460F4615469846900000F060FF60B18146682000F05BFF044610B1C0F8309004E0484600F083FF00E000248CB10023039302940D9B58
:4043C00001930C9B009343462A4639463046FFF797FE2046FFF716FF012001E04FF0FF3005B0BDE8F08300BF00B583B0194B019300230093802218491848FFF7C3FF01282F
:4044000001D100F0FFFB012814D14FF03F0383F31188BFF36F8FBFF34F8F114B4FF0FF32DA620122C3F804210022C3F8142100F073FE0BE0B0F1FF3F08D14FF03F0383F3CA
:404440001188BFF36F8FBFF34F8FFEE703B05DF804FB00BF54E4020880BC0810F542081038E30208034AD2F818310133C2F81831704700BF38E30208014BD3F81401704799
:4044800038E302082DE9F0413C4BD3F81831002B65D13A4BD3F814410134C3F81441CCB99B6A1B6843B14FF03F0383F31188BFF36F8FBFF34F8FFEE7304B9A6AD3F8F810A2
:4044C0009962C3F8F820D3F820210132C3F82021FFF7F6FD294BDB6A9C4203D2002645E0012600E00026254B9B6A1B680BB9012300E0002323B14FF0FF32204BDA6235E003
:404500001E4B9B6ADB68DD686B689C4202D21B4AD3622BE005F104084046FFF741F9AB6A1BB105F11800FFF73BF9EB6A134AD2F80C21934202D9114AC2F80C310F4F07F189
:40454000300003EB83039A0041461044FFF702F9EA6AD7F80031DB6A9A42C1D2C3E7074AD2F824310133C2F824310026034BD3F8283103B101263046BDE8F08138E30208A8
:40458000394BD3F8183143B94FF03F0383F31188BFF36F8FBFF34F8FFEE770B500F01AFD314BD3F81821013AC3F81821D3F81831002B52D12C4BD3F8FC303BBB00244FE0BE
:4045C000294D2B6ADC6804F11800FFF7E9F8261D3046FFF7E5F8E36AD5F80C21934201D9C5F80C31204D05F1300003EB83039A0031461044FFF7AEF8E26AD5F80031DB6A75
:404600009A4204D30122C5F8282100E00024164B5B69002BD4D10CB1FFF752FD124BD3F8244164B1FFF72EFF18B101220E4BC3F82821013CF6D100220B4BC3F824210A4BC4
:40464000D3F828315BB14FF08052084B1A60BFF34F8FBFF36F8F012402E0002400E0002400F0DAFC204670BD38E3020804ED00E010B5B0B10446104BD3F8183143B14FF05C
:404680003F0383F31188BFF36F8FBFF34F8FFEE7FFF7E8FE00212046FFF740FEFFF770FF00E0002038B94FF08052044B1A60BFF34F8FBFF36F8F10BD38E3020804ED00E0BA
:4046C000304BD3F8183123B101222E4BC3F82821704710B52B4B0022C3F82821D3F800311B6B1A68B2F1A53F0BD15A68B2F1A53F07D19A68B2F1A53F03D1DB68B3F1A53FEF
:4047000007D0204BD3F80001D3F80011343100F091FD1C4BD3F80C310AE043B94FF03F0383F31188BFF36F8FBFF34F8FFEE7013B03EB83018A0013490A44126B002AECD05D
:4047400008469900CC18A2000244546B64685463303019448A0008320244944206D1606803EB83018A0007490A445063054903EB830082000A44526BD268C1F80021C1F8A2
:404780000C3110BD38E3020840B94FF03F0383F31188BFF36F8FBFF34F8FFEE710B50C46054BD3F800111831FEF7E0FF01212046FFF7B4FD10BD00BF38E3020838B540B9F6
:4047C0004FF03F0383F31188BFF36F8FBFF34F8FFEE70C461546074AD2F800111831FEF7B9FF0DB14FF0FF3429462046FFF796FD38BD00BF38E3020838B5C368DC6844B975
:404800004FF03F0383F31188BFF36F8FBFF34F8FFEE704F118052846FEF7C2FF154BD3F81831ABB9251D2846FEF7BAFFE36A114AD2F80C21934202D90E4AC2F80C3103EBCB
:4048400083039A0029460C481044FEF783FF03E029460A48FEF77EFFE26A064BD3F80031DB6A9A4204D90120024BC3F8280138BD002038BD38E3020868E302084CE30208CE
:40488000034BD3F820210260D3F814314360704738E30208F8B540B94FF03F0383F31188BFF36F8FBFF34F8FFEE7054641B94FF03F0383F31188BFF36F8FBFF34F8FFEE758
:4048C0000C4600F087FB124BD3F814016968421A2368B3F1FF3F14D02F680D4ED6F82061B74201D088420ED29A4206D29B1A23602846FFF7C5FF002406E00023236001249B
:4049000002E0002400E0012400F086FB2046F8BD38E302080122024BC3F82821704700BF38E30208014BD3F80001704738E30208064BD3F804312BB1044BD3F818311BB954
:4049400002207047012070470020704738E30208002849D038B50346C26A2549D1F80011C96A8A4237D28169002906DB2049D1F80011C96AC1F107018161586902EB82025F
:4049800091001C4A1144884201D1012200E00022D2B11D461C1D2046FEF702FF144AD2F80031DB6AEB62D2F80C21934202D9104AC2F80C3103EB83039A0021460D4810446E
:4049C000FEF7C8FE012038BD094AD2F80021D26ADA62012038BD426C054BD3F80031DB6A9A4203D3002038BD00207047012038BD38E3020868E3020800283DD038B5034642
:404A0000204AD2F80021904208D04FF03F0383F31188BFF36F8FBFF34F8FFEE7826C42B94FF03F0383F31188BFF36F8FBFF34F8FFEE7013A8264C06A596C88421ED0FAB9A9
:404A40001C461D1D2846FEF7ABFE636CE362C3F10702A2610B4AD2F80C21934202D9094AC2F80C3103EB83039A00294606481044FEF770FE012038BD00207047002038BDF0
:404A8000002038BD38E3020868E3020800284DD038B50346806C40B94FF03F0383F31188BFF36F8FBFF34F8FFEE75A6C8A4200D20A46D96A8A4238D0012836D11C48D0F82B
:404AC0000001834208D14FF03F0383F31188BFF36F8FBFF34F8FFEE7DA629869002802DBC2F107029A61586901EB81018A0011490A44904201D1012200E00022AAB11C4682
:404B00001D1D2846FEF74CFEE36A094AD2F80C21934202D9064AC2F80C3103EB83039A00294604481044FEF715FE38BD704700BF38E3020868E30208064BD3F800312BB1CD
:404B4000044BD3F80021936C01339364014BD3F80001704738E30208064B1A681368B3FA83F35B09036013B9D368186870470020704700BF64E4020808B5416000619142EC
:404B80000AD8D21A83699A4211D2011D0A4B5868FEF7ECFD002008BD9A4201D2994208D2011D054B1868FEF7E1FD002008BD012008BD012008BD00BF64E4020870B500F08A
:404BC00009FA0E4B9B68B3B90C4C04F10C063046FEF7B0FD04F120052846FEF7ABFD2660656000220C210A20FEF7E6FEA06010B10349FFF72BFA00F00FFA70BD64E4020811
:404C000088BC081000B583B0FFF7D8FF0D4B9B6853B10D4B019303230093002380220B490B48FFF7AFFB00E0002040B94FF03F0383F31188BFF36F8FBFF34F8FFEE703B0F2
:404C40005DF804FB64E4020898E4020890BC0810E94E081040B94FF03F0383F31188BFF36F8FBFF34F8FFEE730B585B015460446124A9068F0B11A460191029503940529A5
:404C800013DCFFF755FE022807D10023089A01A90A488068FEF7B6FE0DE000231A4601A906488068FEF7AEFE05E0002301A9FEF789FF00E0002005B030BD00BF64E4020895
:404CC00070B582B029E0DB681E68DC68251D2846FEF766FD636A20469847E369012B1CD1A36933449E4207D2636024612946104B1868FEF73BFD10E0002100910B46324662
:404D00002046FFF7A7FF40B94FF03F0383F31188BFF36F8FBFF34F8FFEE7054B1B681A68002AD0D1024A51681160536002B070BD64E4020838B50546FFF79EFB0446074BE6
:404D40009B6B984204D2FFF7BBFF01232B6001E000232B60014B9C63204638BD64E4020870B582B005460E46134B1B68DB68DC68201DFEF715FDE369012B18D1A1692B4619
:404D8000324629442046FFF7F7FE80B1002100910B462A462046FFF75DFF40B94FF03F0383F31188BFF36F8FBFF34F8FFEE7636A2046984702B070BD64E4020870B582B019
:404DC00006460C46FFF74EFB01A8FFF7B3FF019B1BBB054644B9B04206D3FFF7D1FB29463046FFF7BDFF1AE02CB10E4B5B681C68B4FA84F464092246711B0A4B9868FFF75E
:404E000039F9FFF7BDFB50B94FF08052064B1A60BFF34F8FBFF36F8F01E0FFF7B1FB02B070BD00BF64E4020804ED00E030B587B04DE0039B002B4ADB059C636913B1201D84
:404E4000FEF7AEFC02A8FFF775FF039B092B3ED8DFE803F00505053D273A05053D270499A5690B46024629442046FFF785FE70B3636A20469847E369012B28D1A269002160
:404E800000910B46049802442046FFF7E3FEF0B94FF03F0383F31188BFF36F8FBFF34F8FFEE70499A16141B94FF03F0383F31188BFF36F8FBFF34F8FFEE70346024601446F
:404EC0002046FFF759FE02E0204600F0F5F9002203A9044B9868FEF745FF0028A9D107B030BD00BF64E4020800B583B001A8FFF733FE0199FFF762FFFFF798FFF6E700BF5A
:404F000082B0002301930D4B1B68B3F1FF3F08D04FF03F0383F31188BFF36F8FBFF34F8FFEE74FF03F0383F31188BFF36F8FBFF34F8F019B002BFCD002B070479443020891
:404F400008480068006880F308884FF0000080F3148862B661B6BFF34F8FBFF36F8F00DF00BF000008ED00E0DFF80C00016841F4700101607047000088ED00E04FF080734D
:404F800040F8043C21F0010140F8081C054B40F80C3C40F8202C6FF0020340F8243C4438704700BF014F08100000000000000000074B19680868B0E8F04F80F30988BFF390
:404FC0006F8F4FF0000080F311887047AFF3008038E402084FF03F0383F31188BFF36F8FBFF34F8F0A4A136801331360012B0DD1084B1B6813F0FF0F08D04FF03F0383F363
:405000001188BFF36F8FBFF34F8FFEE7704700BF9443020804ED00E0094B1B6843B94FF03F0383F31188BFF36F8FBFF34F8FFEE7013B034A13600BB983F31188704700BFBD
:4050400094430208000000000000000000000000EFF30980BFF36F8F154B1A681EF0100F08BF20ED108A20E9F04F10602DE909004FF03F0080F31188BFF34F8FBFF36F8F16
:40508000FFF71EFB4FF0000080F3118809BC19680868B0E8F04F1EF0100F08BFB0EC108A80F30988BFF36F8F704700BFAFF3008038E4020808B54FF03F0383F31188BFF36E
:4050C0006F8FBFF34F8FFFF7DDF918B14FF08052024B1A60002383F3118808BD04ED00E0084A0023136008490B60084B1B680849A1FB03139B09013B06490B600723136039
:40510000704700BF10E000E018E000E098420208D34D621014E000E010B582B02A4B1A78D2B20192FF221A701B78DBB28DF803309DF80330254A03F03F03137007235360A3
:4051400009E0224A5368013B53609DF803305B00DBB28DF803309DF8033013F0800FF0D11A4B5B68042B08D04FF03F0383F31188BFF36F8FBFF34F8FFEE71B0203F4E06372
:40518000124A5360019BDBB20F4A1370104B1A6842F47F021A601A6842F07F421A60FFF79FFF00240B4B1C60FFF7DEFE0A4A136843F040431360FFF7C3FEFFF781FAFFF76C
:4051C0009FFE204602B010BD00E400E0A0E4020820ED00E09443020834EF00E0EFF305830F2B0FD9104A9B5CDBB2104A1278934208D24FF03F0383F31188BFF36F8FBFF31B
:405200004F8FFEE70A4B1B6803F4E063074A5268934208D94FF03F0383F31188BFF36F8FBFF34F8FFEE77047F0E300E0A0E402080CED00E008B54FF03F0383F31188BFF353
:405240006F8FBFF34F8F4FF441710248FEF770F9FEE700BF98BC081038B5044610F0070F02D020F007040834FFF7FCF8104B1B682BB90F4A02F10C0323F0070313600D4B8E
:40528000D3F82C3B1C4445F6F772944208D8A34208D2074A15681D44064BC3F82C4B02E0002500E00025FFF76BF9284638BD00BFA8E402088039030840B14FF03F0383F3C7
:4052C0001188BFF36F8FBFF34F8FFEE7704700BF024BD86800F08000704700BF40F3030808B502490248FDF7CDFB08BDE4F303080000634010B5144B1B788BB9134C144AB9
:4053000014492046FCF76EFF134A14492046FDF777F813491348FEF7ADF801220A4B1A70104BB3F90030002B08DB590903F01F03012202FA03F30C4A42F82130034A1368FA
:4053400043F00043136010BDB044030800006340E4F30308E8BC081013607500801A0600E1520810B8B7081000E100E008B502490248FDF7E7FF08BD30F403080000664056
:4053800008B5114B1B785BB9104A11491148FDF7B5FD11491148FEF76DF801220A4B1A700E4BB3F90030002B08DB590903F01F03012202FA03F30A4A42F82130054A1368F3
:4053C00043F00043136008BDB144030830F40308FCBC0810000066406D530810A8B7081000E100E070B5049C826004F18044013C05460C4401801E46A2001846002106F016
:40540000EEF86E6070BD00BF2DE9F04F0546A1B06C681E9000881A94264600F18048AC681F9308F1FF3827461494DB0806EB8804159011911C921B941D9300F0838396466D
:405440001A46C3082546169304465B0138461844043B199304F00703179305F120030F930B462033109306F120030E9373462033189013931292109A0F9C52F8203C44F8E8
:40548000203C52F81C3C44F81C3C11460A4651F8183C44F8183C51F8143C44F8143C51F8103C44F8103C51F80C3C44F80C3C52F8083C44F8083C52F8043C0E9A44F8043C73
:4054C00052F8203C0093134652F81C2C03921A46194653F8183C049352F8143C059351F80C3C52F8102C079351F8083C0692089316980B1F002800F08A83149B0B900022F2
:40550000203301F11C040193164617460A92914692469346904615460294019B029A53F8204C52F8201C09912046009905F0C8FE414605F0BDFD03990D90204605F0C0FE7D
:40554000594605F0B5FD04998346204605F0B8FE514605F0ADFD05998246204605F0B0FE494605F0A5FD06998146204605F0A8FE0A9905F09DFD07998046204605F0A0FEAB
:40558000394605F095FD08990746204605F098FE314605F08DFD09990646204605F090FE029B019C53F81CEC294654F81C5CCDF800E005F07DFD03990C90284605F080FE4C
:4055C0000D9B0146184605F073FD04990A90284605F076FE594605F06BFD05998346284605F06EFE514605F063FD06998246284605F066FE494605F05BFD079981462846EE
:4056000005F05EFE414605F053FD029B089953F818CCCDF80CC080462846019405F050FE394605F045FD29460746099854F8184C05F046FE314605F03BFD00990646284650
:4056400005F03EFE0C9A114605F032FD04990546204605F035FE0A9B0146184605F028FD05990A90204605F02BFE594605F020FD06998346204605F023FE514605F018FD0C
:4056800007998246204605F01BFE494605F010FD08998146204605F013FE414605F008FD21468046099805F00BFE394605F000FD21460746009805F003FE314605F0F8FC49
:4056C00003990646204605F0FBFD029A019C52F814ECCDF810E029460B9D013D0B9505F0E7FC54F8145C05990C90284605F0E8FD0A9B0146184605F0DBFC0A90069928466F
:4057000005F0DEFD594605F0D3FC07998346284605F0D6FD514605F0CBFC029B089953F810CCCDF814C082462846019405F0C8FD494605F0BDFC29468146099854F8104C05
:4057400005F0BEFD414605F0B3FC29468046009805F0B6FD394605F0ABFC29460746039805F0AEFD314605F0A3FC04990646284605F0A6FD0C9A114605F09AFC069905465B
:40578000204605F09DFD0A9B0146184605F090FC07990D90204605F093FD594605F088FC08998346204605F08BFD514605F080FC21468246099805F083FD494605F078FC57
:4057C00021468146009805F07BFD414605F070FC21460A90039805F073FD394605F068FC21460746049805F06BFD314605F060FC05990646204605F063FD029B019C53F816
:405800000C8CCDF81880294605F052FC54F80C5C07990C90284605F053FD0D9B0146184605F046FC029A019B52F808EC089953F8084CCDF81CE08046284605F041FD59461D
:4058400005F036FC29468346099805F039FD514605F02EFC29468246009805F031FD494605F026FC29468146039805F029FD0A9905F01EFC29460A90049805F021FD3946DA
:4058800005F016FC29460746059805F019FD314605F00EFC06990646284605F011FD0C9A114605F005FC08990546204605F008FD0146404605F0FCFB21468046099805F0F0
:4058C000FFFC594605F0F4FB21468346009805F0F7FC514605F0ECFB21468246039805F0EFFC494605F0E4FB21468146049805F0E7FC0A9B194605F0DBFB21460A900598EB
:4059000005F0DEFC394605F0D3FB21460746069805F0D6FC314605F0CBFB029B019A53F804CC0799CDF820C00646204652F8044C05F0C6FC294605F0BBFB21460546099803
:4059400005F0BEFC414605F0B3FB21468046009805F0B6FC594605F0ABFB21468346039805F0AEFC514605F0A3FB21468246049805F0A6FC494605F09BFB214681460598CD
:4059800005F09EFC0A9B194605F092FB21460A90069805F095FC394605F08AFB21460746079805F08DFC314605F082FB08990646204605F085FC029B019A294602F1200473
:4059C00003F120020194029205F072FB0B9B0546002B7FF4A2AD199B0E990196189E02460B44179900297BD0CDF80880DDF81480CDF814B0DDF820B0CDF820A0DDF81CA0CB
:405A0000CDF81C90DDF818900697049F04933346039E099153F8044B0393049B009953F8045B049320460B9205F04AFC0146029805F03EFB31460290204605F041FC01460F
:405A4000059805F035FB39460590204605F038FC0146089805F02CFB41460890204605F02FFC0146079805F023FB49460790204605F026FC01460A9805F01AFB51460A9059
:405A8000204605F01DFC0146069805F011FB59460690204605F014FC0146019805F008FB29460190204605F00BFC0B9A00960146104605F0FDFA099B013B3E460993474661
:405AC0000246C846039BD146DA46AB46A2D1DDF80880DDF814B0DDF820A0DDF81C90069F13990A9841F8208C0B4641F81CBC41F818AC41F8149C41F8100C41F80C7C43F89A
:405B0000042C0F9A019943F8081C20320F92109A20332032109213930E9A129B2032013B0E9212937FF4A7AC1D9B1B9A5B011A441B92119A1A4411921A9A1A441A921C9A27
:405B40001A441C921F9B13F007092CD01B9B1A9EDDF870A0CDF80090A3F104084F46119A159C52F8043B48F8043FDDF8509011920025B34659F8041B5BF8040B05F0A0FB33
:405B80000146284605F094FA013C0546F2D1013F4AF8040B06F10406E1D11A9BDDF8009003EB89031A93159B591E1E9B8E085C681FD01A9B04F110021033304653F8105C88
:405BC00042F8105C53F80C5C42F80C5C53F8085C42F8085C53F8045C42F8045C013803F1100302F11002E9D11A9A33011A441C441A9211F0030307D01A99221F51F8040B9D
:405C000042F8040F013BF9D121B0BDE8F08F0022149E019217460A929146924693469046DFE600BF064B5A68596B01325A60C2008A18596A51600021117058627047C04625
:405C400068F403080F2330B542680E4CD90009190D6C2100AA4202D2013BF7D211E00F2B0FD82468A21A0A608268C068002A00D05060002801D0026003E00833DB00CB1891
:405C80005A6030BD68F40308F8B5284C0600E368A26B013B0818D3180D00984206D80368002B03D14368F618FFF7CCFFA36B9D420BD92B1F1F68EF1B3B68002B05D17B6834
:405CC0003800F6183D00FFF7BDFF0F23DA00A218126C964202D2013BF8D225E00F2B23D80833DA00A21850680022A91904392A606E60A8602D610E6029000831904200D037
:405D00004160EA602200DB00E318A860596023682932F31823601278002A05D1E268D31AA268934200D9A3603000F8BD68F40308F0B5234B87B09C6BDB680490013BE31824
:405D4000039323686568002B30D1039B6719BB422CD93B680293002B28D0194EDB00726B9B5C012B22D17B6820000193F36A0593FFF768FF3B68726BDB00D3185C60019AD3
:405D80003900200005F010FC029B059A934202D1736B5B1B7363019B2800E118FFF774FF049B002B01D0984206D2019D039B6419A342C6D8012000E0002007B0F0BDC04641
:405DC00068F40308002806D0034BDA6B0260002A00D05060D863704768F40308034BC0005B6B1818406808307047C04668F40308064A10B5D3690133D361526BC300D3181A
:405E00001A7801321A70FFF7E9FF10BD68F40308036810B5083B094C1B68626BDB00D3181A78012A04D9E169002901D00139E161013A1A7000230360180010BD68F4030832
:405E40000322024B9143186059607047B444030810B5041E0FD000F05FFD074B5A6BE300D3185B6819005868FFF70EFF2000FFF7D9FE00F045FD10BD68F40308F7B5224DED
:405E8000EB6A002B07D1214B99685868083105F0DFF8841C03E02B691C1DDB08E418E00000F0CAF80126071E2CD06A6BC300D3185E68EB6A083601932B69696BDA00144B3E
:405EC00030001B68984729696E630B00CA000432EF62B218601E834203D2013313600832F9E7DB00F31800265E60074B5A685962511A091959601C61019BB34202D01800D7
:405F0000FFF7A6FF3000FEBD68F40308B4440308B843020870B5184C230028331A78002A29D101321A70154B0F32DA609A68002A02D15A6892089A605A221025226200226B
:405F400028009040D100611801320864102AF7D15868196803000125143BCB180E3A22616363A163E0605D6065626560FFF78CFEFFF784FF256370BD68F40308B44403086C
:405F8000F0B5040085B0FFF7C5FF0323294E03349C43376C201DB84200D30700F26B1400002C06D0231F196823688F4232D01C00F6E7F268B36B944663440193043B0293F4
:405FC0001B680393039A019B9D1A2B68002B06D02000FFF7ADFE029B1D68019B5D1B2B68002B23D16B689F4220DC28001C1DFFF729FEF368E41BDB1BF36073692C19DB1975
:4060000073616B68D81B02D02900FFF73DFE231F1F600BE0002B01D0616859606168002900D00B60A24201D12368F363200005B0F0BDC04668F40308F0B585B00400FFF7E9
:4060400069FF3C4D2E6CB44203D3032303349C4326002B680C360196B34241D32B6B6A689A420FD96B686F6A013B6B60FB0003936B6BFA009B185A686A6201221A70002F95
:406080000AD12DE0013B2B63FFF7F8FE2B6B01332B630028E6D023E00F23DA00AA18126C964201D2013BF8D21A00DB004433EB180F2A0DD81968002907D08C68002C04D00A
:4060C00061688E420ED9A168F5E701320833EFE73000FFF72DFE0028DED03800FFF7A2FD002723E0636802939E1B2B6C0C339E4201D2029B01932000FFF7A4FD6B6B039ADC
:406100009B185C60019B019A63600023A360019B2760E1180B1F24611A601300029A934204DA1300019A981AFFF7AEFD380005B0F0BDC04668F4030810B504000020844272
:4061400008D000F0E9FB2000FFF776FF040000F0D7FB200010BD000037B5050000F0DCFB2800FFF7E9FF041E0AD0FFF741FE064B01901B682A000021984701A8FFF748FED2
:4061800000F0BEFB20003EBDBC430208514BF0B51B688FB0DA69D469A589A84208DBE189814205D32168451B09910121494215E0A168002900D184E00D88A84200DA80E04A
:4061C0004E8886427DD3451B4968A8B266688000081809960021455E0221415E0891691C6FD022215E5E2420195E0691127E0A92A27C0A9951430C91227C0B922A229B5E67
:406200001800079301F0C2FB324F0D903A680699D369926B300005920C9A5543099A551904950125A27C02950392DA7E01929B7E0B9A00930A9B01F015FD089B01331BD0A1
:406240000220079B184301F0A1FB3B680899DA699B6B300005930C9B4B430999CB180493A37C02950393D37E06990193937E0B9A00930A9B01F0F6FC164D2B68DB695A7E19
:406280001B7E9A4217D9079B022B14D00420584001F07CFB2B68069AD8690B99437E057E9B18827E51438A19C17E069869430918300001F0C7FB6B4634229B18187801F094
:4062C00065FB044B617C1A68538CCB1853840FB0F0BDC04698430208044B1B68DB69DB69002901D01A7C0A60587C70479843020802230B80704710B5C3699A89914203DBB0
:40630000DA8901208A4210D29B68181E0DD01A880020914209D35C888C4206D3891A5B688900C85AC04380B2C00B10BDFF2230B5040014400A40A21A92B213B2002B01DAC8
:40634000524213B25B431D00FF23020A1A4014000A0A1340E21A92B213B2002B01DA524213B2000C5B43090C411A89B208B25B19002801DA494208B280B24043C01830BD5D
:4063800070B500282CD0002926D0002A25D013880D881C1C2EB21BB2B34200DD2C1C048053884D881C1C2EB21BB2B34200DD2C1C448093888D881C1C2EB21BB2B34200DA4C
:4063C0002C1C8480D388C9881A1C0CB21BB2A34200DA0A1CC28003E01100082205F0D9F870BD00280DD0038889B2CB180380838892B2C91843888180D3184380C388D2189C
:40640000C280704770B505000C0000F085FA044B1B685D849C8400F073FA002070BDC0469843020870B5050000F076FA034B1B681C7E1D7600F064FA200070BD984302084E
:4064400030B503000222845E06200A5E0020944213DC02228C5E06255A5F94420DDC00229C5E04254A5F944207DC00228A5E0421595ED00FCB179142584130BD10B500F0AE
:406480004BFA01F039FF01F0B3FF02F01FFD00F037FA10BD10B5040000F03EFA200001F095FD00F02DFA10BD10B5040000F034FA200001F093FD00F023FA10BD70B50400CC
:4064C0000D0000F029FA094B094A1C80094B21001D80094B1B685B7C9B0098582A00C3681B6A984700F00CFA70BDC04650F5030878F5030840F503089843020870B50024D6
:40650000094D0A4E10C53368210028007022984733680422210006489847064B1D60064B1C70064B1C6070BDC4440308BC43020878F503089843020860F503083CF50308BA
:40654000014BD8607047C04698430208F0B50700160085B00C00019300F0DEF9042001F015FA124B00901A68D36CDD199E19176D019B3C19FF1802AB18001D809E805C8030
:40658000DF8002F023FC002806D1009801F0FEF900F0B6F905B0F0BD3B0032002100280001F050FA02F062FBEDE7C04698430208002110B50800FFF725FF034A0348130039
:4065C0000100FFF7C3FF10BDFF3F000001C0FFFF024BDA6FD86742607047C046C4440308094B10B51A68002A0CD101321A60FAF70BFD00F0C9F9FAF7C7FC0448044B036025
:40660000FFF7E6FF10BDC046C444030844450308FD64081070B5FFF7E3FF2E22324B1A70FAF724FD314C324D2100324B0C3123672B681A1DDA630432A2619B631B645B7C31
:406640002D4A9B009858C3681B6B98472B4B6366EB6823622B680833A36101232377E37702F028FD2300032268331A70244BE064606F6363A36301F0A9FCA86801F0AEFC74
:40668000204A214B1A6001F003FC050001F0D2FD060001F0D5FD002E01D0002808D101F0B9FD060001F0BBFD0100300001F0BCFD00210800FFF702FF02F056FC00F08AF904
:4066C000A36F002B0AD0A36F002B07D01B68002B00D09847A36F5B68A367F4E701220B4B28001A7070BDC04631F50308C44403089843020880C4081078F5030878C40810A9
:40670000785634FF94C4081070F5030858F503080300002083420ADC054A9B009858002805D0C3681B68002B01D00068F7E7704778F5030810B5FFF745FB10BDF8B50600E1
:406740000D0017001C1E01DD00201BE01C20FFF717FC0028F8D0002D01D005610BE00A4BA200D358002B06D01A68002A01D01300FAE71B690361002384618782C660036028
:4067800043608360F8BDC04678F5030883690C499A0010B554580368A04204D15350002B01D000225A604268002A00D013600368002B00D05A6000230360436010BDC04604
:4067C00078F5030830B5002801D101203BE08269002AFADC1C4B19788A4201DB012119701A49920053580D00002B02D15050180029E05968002901D00B00FAE7C168096823
:40680000DC6824688C4203DD1B68002BF8D1DCE78C420AD1848A012C07D11C68002C04D02300E4682468A142F7DD5968002902D00860416000E0A85058600022984200D08D
:406840001A000260002030BD29F5030878F5030870B51C00FFF772FF051E0AD0FFF7B2FFEB681B68002B04D1034B16341B68A400E550280070BDC0469843020800207047C1
:4068800010B5002804D00468FFF79CFF2000F8E710BD0000044B10B51A68002A00D1186000F0D0F810BDC0465445030870B5002478250C4B1B689C420FDAFAF7D3FB0A4B7B
:4068C0001A682B006343D3181A68904207D0002A01D1186003E00134EBE7002000E0200070BDC046A8430208B445030810B5034C2068FFF767FA0023236010BDB44503081B
:40690000044A10B55368013B5360002B01D1FAF793FB10BDB4450308F7B5184C6368002B04D0FAF79FFBA368984204D0FAF790FBFAF798FBA060636801336360012B1BD155
:40694000FFF7B4FF0E4B07005E680193B04213D0002E0FDB78256E4323687D439E19FFF78DFF236870675D19064B2A1D686F1A60FFF786FF019B5F60F7BDC046B4450308A0
:40698000A84302089843020870B50E4D782428000D4B0C30EB60FFF71BFE0C4E33685C432000FFF7EDFA0A4B220000211B682860984701235B427360FAF734FBFFF776FF99
:4069C00070BDC046B4450308ED680810A8430208BC430208F8B500267827124B124C1B68124D9E4214DA3B00734324682968E418251D7022280004F0CCFD0023236023008C
:406A00000C33A361043BE563236465640136E4E7FFF74CFF782358432368181804302860F8BDC046A8430208B4450308984302080078704701207047012070470170012042
:406A400070470000034B10B51B68002B00D0984710BDC046C84503080200FF231100000A194010B51840120C40181340C0188030FF30024904F0FEFA10BDC046FD020000C6
:406A8000002800D000487047FFFFFF0001207047F7B58068C46A856B624307245218D2080192026A0C409200002D18D080212141CCB2A446C94301248218151F019E2D68B4
:406AC000AD192F783E000E40234201D066463E436400043A2E70E4B29042EED117E001210D00A540ECB2A446ED438218141F019E2468A41927783E002E400B4201D0664646
:406B00003E434900043A2670C9B29042EED1F7BD70B5072584680D40E36AA06B5A43236A5218D2089B00002810D0802129410020CDB20121E318043B1E68B65C2E4200D026
:406B400008434900C9B29C42F5D10EE001210E00AE40E318F5B2043B1E68B65C2E4200D008434900C9B29C42F5D170BDF8B50D0016000400FFF7CCFF070023699B689847B3
:406B80003B003200434029002000FFF781FFF8BDF0B580688BB00090066AC06A5B1A42435F1CA44B5218D2081B680190039200981A7C806BD20779D50722082311405B1AD4
:406BC000002839D0F8321000DD1B0841AA40C4B21040C2B238009F4200DD1800381A009D0190B00028189F4200DB221CD3B29C46FF25031F039A1B689B183A00002905D095
:406C000064461A7862401A70019A0133072A05DD1E78083AF6431E700133F7E7002A06D00824A21A2C0094401E7866401E70009B04388342DDD1FAE0FF221000DD1B884092
:406C40002A41C4B21040C2B238009F4200DD1800381A009D0190B00028189F4200DB221CD3B29C46FF25031F039A1B689B183A00002905D064461A7862401A70019A013308
:406C8000072A05DD1E78083AF6431E700133F7E7002A06D00824A21A2C0014411E7866401E70009B04388342DDD1C0E00722DB6B11401B68FF22019308230491591A1300B5
:406CC00000285AD00498CC1B0341A2401A40D8B2D3B23A008F4200DD0A00BA1A09928F4200DB031CDAB2DB435BB20893012307920293013E009AB300D458039B3D00E418D1
:406D0000049B002B0BD02278089B019902981340014201D0079B1343099D23700134072D14DD029A0199444B11404A1E91412B400593059A414B49421B68D2102000C9B242
:406D400006929847069BE418059BED1A002D0DD0082321785D1BF733AB400A000198029D9A43284201D00B43DAB22270029B5B00DBB20293002EBCD159E00498CC1B8340E3
:406D800022411A40D8B2D3B23A008F4200DD0A00BA1A09928F4200DB031CDAB2DB435BB20893012307920293013E009AB300D458039B3D00E418049B002B0BD02278089BC6
:406DC000019902981340014201D0079B1343099D23700134072D14DD029A0199164B11404A1E91412B400593059A144B49421B68D2102000C9B206929847069BE418059B0B
:406E0000ED1A002D0DD0082321785D1BF7332B410A000198029D9A43284201D00B43DAB22270029B5B00DBB20293002EBCD10BB0F0BDC04698430208F8FF0000BC43020881
:406E4000F8B505000E0014001F00069B9C4207DC22003B0031002800FFF79AFE0134F4E7F8BD002382680B804B80D36A013B8B80136B013BCB80704700B58368481E0D28D6
:406E800018D804F0D1F8090B0D0F17171711131A1A070707002011E0586A0FE0986A0DE0D86A0BE0186B09E0186A07E001201B6A984003E00120404200E0012000BD0000CE
:406EC00009390020062902D8014B8900C8587047BCC4081010B501290FD1094B1B68587CFFF716FC03699B68984701F0E8F9054B012803D0044B082800D00023180010BD9E
:406F00009843020830C50810A4C5081010B5002206218069FAF770F810BD10B5002205218069FAF769F810BD73B504000E00150000210822684604F052FB6A460321A06946
:406F400000960195FAF758F873BD0000F7B51D000F4B14001B6806001A7C0F00D20708D5A54213DB220039003000FFF7FFFD0134F6E7DB6B1B680193AC4207DC2200019B09
:406F800039003000FFF784FD0134F5E7F7BDC04698430208F0B591B00193179B0390581E06910592072801D900F05EFC04F046F8230021005C041F005C045C045C0408006E
:406FC0000723069A1340802211001941C9B29A40099101219940D3B2199A0A939446019BC9B263440293059B07910893FBE2059B50E2059BB0E11A9A069B94466344099356
:407000000723099A134080221A41D2B20A9201229A40D3B20C93059B0793059A079B9B1A169A9A4201DC00F01FFC1B9BBE4C5B680693039B9B680293D96A1A6A079B5943F7
:40704000099BC918CB08049303232168087C1840022800D1A1E0984200D10FE1012800D10CE11B9B06981B680893834210D1CB6B089A1D681A60099A019B09999B18013BD9
:40708000079A0398FFF784FD2368DB6B1D6043E1029B92009B6B002B3ED00127029B9E1808990FAA394011700699049B39405170321F12680A99D218019B1A989C46199BBA
:4070C0000B936346002B20D08025054113780D930B9B1C782C40651EAC410FAD2D5D0D9C8C43002D01D00D9C0C4301301470082803D10B9801300B900020490801D10132B0
:40710000803101235B429C44DBE7029B7A00043ED7B2B342C4D1FFE00127029B9E1808990FAA394011700699049B39405170321F11681A98C918019B0C9A9C46199B0B93D6
:407140006346002B22D0802505410B780D930B9B1C782C40651EAC410FAD2D5D0D9C9443002D01D00D9C144301300C70082803D10B9801300B9000205200D2B2002A01D14F
:407180000131013201235B429C44D9E7029B7A00043ED7B2B342C2D1BEE0029B92009B6B002B34D0029B9A1801230893089B06990A9819400B91111F0968049B019D1A9C22
:4071C000199EC918002D19D08023234137783B4209D00B781F009C460B9B8743002B01D0674607430F700134082C01D100240136400801D101318030013DE3E7089B043AF4
:407200005900CBB20893029B9342CFD184E0029B9A18012308930899069B019D0B40111F08680B93049B0C991A9C199EC018002D1BD08023234137783B4209D003781F00A9
