:020000041008E2
:4000000000780408EB0208100D0000005103081051030810510308105103081000000000000000000000000000000000318208104D03081000000000D1820810358308100C
:400040004D0308104D0308104D0308104D0308104D0308104D0308104D0308104D0308104D0308104D0308104D0308104D0308104D0308104D0308104D0308104D03081000
:400080004D0308104D0308104D0308104D0308104D0308104D0308104D0308104D0308104D0308104D0308104D0308104D0308104D0308104D0308104D0308104D030810C0
:4000C0004D0308104D0308104D0308104D0308104D0308104D0308104D0308104D0308104D0308104D0308104D0308104D0308104D0308104D0308104D0308104D03081080
:400100004D0308104D0308104D0308104D0308104D0308104D0308104D0308104D0308104D0308104D0308104D0308104D0308104D0308104D0308104D0308104D0308103F
:400140004D0308104D0308104D0308104D0308104D0308104D0308104D0308104D0308104D0308104D0308104D0308104D0308104D0308104D0308104D0308104D030810FF
:400180004D0308104D0308104D0308104D0308104D0308104D0308104D0308104D0308104D0308104D0308104D0308104D0308104D0308104D0308104D0308104D030810BF
:4001C0004D0308104D0308104D0308104D0308104D0308104D0308104D0308104D0308104D0308104D0308104D0308104D0308104D0308104D0308104D0308104D0308107F
:400200004D0308104D0308104D0308104D0308104D0308104D0308104D0308104D0308104D0308104D0308104D0308104D0308104D0308104D0308104D0308104D0308103E
:400240004D0308104D0308104D0308104D0308104D0308104D0308104D0308104D0308104D0308104D0308104D0308104D0308104D0308104D0308104D0308104D030810FE
:400280004D0308104D0308104D03081010B5054C237833B9044B13B10448AFF300800123237010BD9C5802080000000040DA0910084B10B51BB108490848AFF3008008483C
:4002C000036803B910BD074B002BFBD0BDE81040184700BF00000000A058020840DA091068520208000000007047FFF7FDFF72B6104C114DAC4209DA21686268A368043BBD
:40030000A2BFC858D050FAE70C34F3E70B490C4A00209142BCBF41F8040BFAE709480A490860BFF34F8F00F0D9FA00F0B3FA00F031F9FEE744DA09105CDA09109C58020861
:40034000C01404080040020808ED00E0FEE7FEE700B504207146084202D0EFF3098001E0EFF30880043006F071F9FEE708B50F4B1868002106F014FD4FF47A7006F032F9CC
:400380000B4B5A6910225A615B690A4BB3F90030002B09DB5A0903F01F03012101FA03F36032054941F8223008BD00BF0476030800003240505A091000E100E000B583B056
:4003C00003238DF807300C4B18684FF0FF3106F0F1FD0128F7D102A9022301F8013D00231A460648006806F089FB03238DF80730642007F023FAE6E7047603086C8603087D
:4004000008B54FF47A7300220B490C4800F07AFA4FF47A7300220A490A4800F073FA4FF4FA7007F00BFA084B186807F07FF8074B186807F08FFAE4E768B503081496030869
:4004400070860308B4A5030864B503081096030808B50022154B1A800DE000F02BFC134C22881349134801F005FB032007F0E6F92388013323800D4B1B88B3F57A7FECD3DE
:40048000E7D10022094B1A800B490C4804F0D6FA4FF4FA7007F0D2F9094B186807F046F8084B186807F056FAD3E700BFDE7A0208B4A5030814960308B854091000006640B7
:4004C0001096030854B5030830B585B0254B1B88002B3DD14FF47A7300222349234800F0BBFA234C20604FF47A720021214800F047FA214D2860D4ED007A0A226946FDEE33
:40050000E77A17EE900A13F03AF81C4C1C49204604F094FA6946204604F090FAD5ED007A0A2202A9FDEEE77A17EE900A13F027F81449204604F082FA1349204604F07EFABD
:4005400002A9204604F07AFA1049204604F076FA4FF4FA7007F072F90D4B186807F0FAF9B4E700BFDE7A0208B4A503081496030858B50308708603085CB50308000066405E
:40058000005509100C550910085509101055091064B5030880B582B003220021012006F087FA3F4B186062B600F0EEFB0AF0F2F901F0F2F90AF034FA00F0C8FB0022012123
:4005C0000A2006F075FA374B1860374C3749204605F0CEFFB4F90030002B08DB5A0903F01F00012181406032314840F82210002B08DB590903F01F03012202FA03F32C4A7F
:4006000042F82130002401940A230093234680222849294806F058FF01940523009323464FF480622549264806F04EFF019404250095234680222349234806F045FF234BA2
:400640000193009523464FF480622149214806F03BFF214F0197009523464FF480621F491F4806F031FF1F4E0196009523464FF480621D491D4806F027FF386807F06AF998
:40068000306807F067F906F095FF4FF48771184805F0CCFF08F09EFB0028FBD1FEE700BF047603086C860308505A09106D03081000E100E060550910211B08106C550910B3
:4006C0009515081074550910BD03081054B50308845509105104081010960308905509100104081064B503089C550910C9040810A855091008B5012004F002F908BD00BFC5
:40070000704700BF5C4AD2F8803303F00F0303F1D00152F8212002F00702032A04D0042A05D092B9554914E0554A116811E003F1C002514951F8222002F01F02112A06D0E7
:40074000132A04D04FF4FA4103E04E4901E04FF400418BBB484BD3F8902502F00100D3F88825C2F30172D3F8883513F0405F07D0414BD3F88835C3F30173012B02D102E0FF
:40078000012300E0002303B108B9032A46D13A48D0F88025C2F31103D0F88425C2F30C02D0F88005C0F300600130B1FBF2F202FB03F2B2FBF0F131E0012B2FD12E4BD3F84B
:4007C000402602F00100D3F80026C2F30172D3F8003613F0405F07D0274BD3F80036C3F30173012B02D102E0012300E0002303B108B9032A12D12048D0F8002602F07F021A
:40080000D0F80036C3F30423D0F80006C0F3044002FB01F2B2FBF3F2B2FBF0F1164BD3F88033C3F3011321FA03F215494A601648D0F89030C3F3072301330069000E0130A5
:40084000B2FBF0F08860B2FBF3F3CB600B6103F5742202F23F220D48A0FB0202C2F387420A7503F2E7330A4AA2FB03239B098B61DB03CB61704700BF0000264000127A00DD
:400880008C42020800366E010000214083DE1B43D34D621008B50D4805F0C2FFFFF730FFFFF730FF00221146042003F0F1FD084803F084FE074B1B6893F8513013B10648C1
:4008C00003F0ECFE03F0B2FC08BD00BFD85E0910B85802087C110408B455091008B505F010FF074AD2F8883043F47003C2F88830BFF34F8FBFF36F8F05F007FF08BD00BF63
:4009000000ED00E070B588B005460E4600E001329A42FCD34FF47A740094144B144A322105A80BF0A3FB23463246294605A80BF0AFFB1049104804F081F8002410E00A2215
:4009400003A956F8240012F01AFE0B4D03A9284604F074F80949284604F070F80134A4B2B4F57A7FEBD308B070BD00BF08760308AC420208E8550910000066400C550910CB
:4009800010B400231C4611E003F18042013A50F8221050F82320914206D2591C50F821108A4201D90134A4B201339BB2B3F57A7FEAD307EE904AF8EE677AF1EE046A87EE06
:4009C000A67ADFED047A67EE277A17EE900A5DF8044B70470000704230B5ADF54D7D002306E050F8215004AC44F82350013301319142F6D301AB03AAC82104A80BF09EFAF6
:400A00006B4602AAC82104A80BF0C4F99DED037ADDED027A77EE677A17EE900A0DF54D7D30BD00BF30B5ADF54B7D002306E050F8215002AC44F82350013301319142F6D3F2
:400A400001AAC82102A80BF03DFA01980DF54B7D30BD00BF000000002DE9F0472DED028B98B0814688469A46414CA4FB0232940925E0C82505FB04F6671C05FB07F52A466E
:400A800031464846FFF7A8FF18AB03EB840444F8140C2A4631464846FFF7C4FF44F8280C2A4631464046FFF797FF44F83C0C2A4631464046FFF7B6FF44F8500C3C462C4B3B
:400AC000A3FB0A23B4EB931FD3D303AA052113A80BF0F8F902AA05210EA80BF0F3F901AA052109A80BF0EEF96A46052104A80BF0E9F9DDED027ADDED036A86EEA77ADDEDAC
:400B0000006A9DED016AC6EE267A87EE278A18EE100A11F097FE00224FF080430AF078F80FA3D3E9002311F0E1FE04460D46DFED117A68EE277A17EE900A11F083FE2246B3
:400B40002B4611F021FD08A3D3E9002311F01CFD12F0A4F918B0BDEC028BBDE8F08700BF000000E09188F93F000000C0CCAC5D401F85EB517EA30AC210B5642005F032FD89
:400B8000104C114BE361114B2362114B636268236370204602F0F0FA0B2363730423A3730023E373152222730C2262710322A271E37111232371204602F02EFB636A32201C
:400BC000984710BD385A0208310C0810D50B0810E56508102DE9F04182B0884616461D46114C124F009700231A460146204604F06DFD3B4600224146204604F0D5FE00249A
:400C000006E00A4B0022315D074804F0CDFE0134AC42F6DB054A0021034804F039FE002002B0BDE8F08100BF000064407C1204082DE9F04383B08046894616461D461B4CC5
:400C40001B4F009700231A460146204604F03EFD3B4600224946204604F0A6FE0097002301224146204604F0A9FD002408E0104B00930023321919460C4804F03BFE013403
:400C80006B1E9C42F3DB1A46084C094D0095002332440121204604F02DFE2A460021204604F0F6FD002003B0BDE8F083000064407C12040810B50A4C0A4A2146012002F030
:400CC00003FB237813F0040F09D0074812F0E2FC22786FF3820222700022044B1A7010BD00760308385A02082C56091060B5030800B585B001238DF8043000228DF80520F8
:400D00009DF8063043F0010303F0FD0343F00C0362F304138DF80630BDF806300E2262F34813ADF806309DF8083043F03F038DF808300A238DF80930034901A802F08EFA56
:400D400005B05DF804FB00BF385A020808B509F0DBFDFFF711FFFFF7CBFF08BDF8B506460F4603F04FF90546064C3B4632460146204602F0EFFA41F2B0622946204612F033
:400D800000FCF8BD645A020808B50CF04DFB142002F0CCFA012002F0D1FA01200CF03CFA00200CF07BFA6FF07F400CF06DFA0CF009FB08BD30B4002408E051F82430054DE6
:400DC000A5FB03535B0920F8143001349442F4D330BC70471F85EB5110B40446B0F90000012305E034F91320904200DD104601338B42F7D35DF8044B704700BF10B40446D0
:400E0000B0F90000012305E034F91320904200DA104601338B42F7D35DF8044B704700BF2DE9F0410646884615461F461146FFF7D3FF044629463046FFF7E0FF00218E4680
:400E400010E036F911301B1B962202FB03F3021B93FBF2F31BB2C3F1960328F81E300EF1010E39448D42ECD8BDE8F08110B52DED028B8AB008EE101A07AA042112F056FBF6
:400E800004AA042118EE100A12F050FB624C20460CF00EFA9922052160480CF091FC9922352107A80CF08CFC99225A215C480CF087FC20460CF0FCF999227D2159480CF0DE
:400EC0007FFC9922A82104A80CF07AFC01210846FFF744FF544B1B78002B73D153480CF0E7F9514BD3ED017AB4EEE78AF1EE10FA30DD01AA042117EE900A12F017FB0CF0B5
:400F000061FA0A2211464A480CF05AFC1A220A2148480CF055FC2A220A2104A80CF050FC454C2A223C2120460CF04AFC3A220A2142480CF045FC4A220A2101A80CF040FC98
:400F40004A223C2120460CF03BFC01210846FFF705FF37E0344BD3ED027AB4EEE78AF1EE10FA2FD501AA042117EE900A12F0DEFA0CF028FA0A2211462D480CF021FC1A221F
:400F80000A212C480CF01CFC2A220A2104A80CF017FC294C2A223C2120460CF011FC3A220A2127480CF00CFC4A220A2101A80CF007FC4A223C2120460CF002FC01210846ED
:400FC000FFF7CCFE1F4B93F8B8350BBB1E4B1B78F3B916480CF06CF90CF0F4F90A22114613480CF0EDFB1A220A2118480CF0E8FB2A220A2116480CF0E3FB3A220A2115483E
:401000000CF0DEFB0120104B18700146FFF7A6FE0AB0BDEC028B10BD307809103C56091044560910485609107443020850620910505609105C5609107C5609108056091073
:40104000A45609105C6B020860B50308C8560910DC560910F85609102DE9F0418046144DEB682E69B3FBF6F60CF0ACF9114C04F2BC57EA6841463846FFF79CFE04F68C54C9
:401080002B69EA6821463846FFF7CAFE00231A46314620460CF0A6FB01210846FFF75EFE054B1968054B1868FFF7E0FEBDE8F081744302085C6B02085CB5030858B5030897
:4010C00010B504460CF07EF91B480CF0F1F80A2228211A480CF074FB1E223C2118480CF06FFB3222282117480CF06AFB46223C2115480CF065FB5A22282114480CF060FB2E
:401100006E223C2112480CF05BFB8222282111480CF056FB96223C210F480CF051FB1E231A460A2108460CF0DBFB01210846FFF715FE0123237010BD988D09101857091020
:40114000345709103C57091058570910685709108857091090570910A857091010B504460378013B032B4ED8DFE803F00215283B1E231A460A2108460CF0F2F846231E2278
:4011800032210A200CF0ACFB01210846FFF7E6FD0223237010BD46231E2232210A200CF0DFF86E231E225A210A200CF099FB01210846FFF7D3FD0323237010BD6E231E22B5
:4011C0005A210A200CF0CCF896231E2282210A200CF086FB01210846FFF7C0FD0423237010BD96231E2282210A200CF0B9F81E231A460A2108460CF073FB01210846FFF740
:40120000ADFD0123237010BD10B504460CF0DAF80F480CF04DF80A2228210E480CF0D0FA322228210C480CF0CBFA5A2228210B480CF0C6FA46231E2232210A200CF050FB87
:4012400001210846FFF78AFD0123237010BD00BF988D0910B4570910D0570910E057091010B504460CF0AEF80F480CF021F80A2228210E480CF0A4FA322228210C480CF0DD
:401280009FFA5A2228210B480CF09AFA46231E2232210A200CF024FB01210846FFF75EFD0123237010BD00BF988D0910F4570910105809102C58091010B504460CF082F863
:4012C0000F480BF0F5FF0A2228210E480CF078FA322228210C480CF073FA5A2228210B480CF06EFA46231E2232210A200CF0F8FA01210846FFF732FD0123237010BD00BFAD
:40130000988D091048580910605809107858091010B504460CF056F80F480BF0C9FF0A2228210E480CF04CFA322228210C480CF047FA5A2228210B480CF042FA46231E2255
:4013400032210A200CF0CCFA01210846FFF706FD0123237010BD00BF988D091088580910A0580910B458091010B504460378012B02D0022B13D010BD46231E2232210A208A
:401380000BF0EEFF6E231E225A210A200CF0A8FA01210846FFF7E2FC0223237010BD6E231E225A210A200BF0DBFF46231E2232210A200CF095FA01210846FFF7CFFC012317
:4013C000237010BD30B585B004460D460BF0FAFF23480BF06DFF2B78012B05D10A22282120480CF0EDF906E0022B04D10A2228211D480CF0E5F9822228211C480CF0E0F9EA
:40140000962228211A480CF0DBF94622282119480CF0D6F946228C2117480CF0D1F9237807EE903AF8EE677A9FED147A67EE877A9FED137AC7EE876A16EE900A11F002FA77
:4014400001AB042212F04EF846225A2101A80CF0B7F901210846FFF781FC05B030BD00BF988D0910D0580910E45809100059091010590910285909102C59091000004C4248
:4014800000007F4330B585B004460D460BF09AFF16480BF00DFF2B78012B05D10A22282113480CF08DF906E0022B04D10A22282110480CF085F9462228210F480CF080F917
:4014C00046228C210D480CF07BF901AA0421206812F02CF846225A2101A80CF071F901210846FFF73BFC05B030BD00BF988D09103059091048590910285909102C590910D2
:4015000038B504460D460BF05DFF1A480BF0D0FE2B78012B05D10A22142117480CF050F906E0022B04D10A22142114480CF048F923782BB91E22142111480CF041F906E0AA
:40154000012B04D11E2214210E480CF039F90E480BF0AEFE5A2214210C480CF031F95A227D210B480CF02CF901210846FFF7F6FB38BD00BF988D09106059091078590910B6
:4015800088590910A0590910F4AD0910B8590910C059091010B582B0FFF7F6FB00248DF807408DF80640B348FFF756FD4FF0FF320DF10501B04B186805F050FC0128F5D10D
:4015C000AE4B186806F0C6F99DF80530002B40F0DB800B2CEAD8DFE804F0060C2E42566A8394A4B4C4CF0DF10700FFF769FD0124DCE79DF80730012B05D10DF10600FFF734
:4016000003FE0224D2E7022B05D10DF10600FFF727FE0324CAE7032B05D10DF10600FFF74BFE0424C2E7042B05D10DF10600FFF76FFE0524BAE79DF80630012B06D10DF1B6
:4016400006018F48FFF7BEFE0624AFE7022B06D10DF106018B48FFF7B5FE0724A6E79DF80630012B06D10DF106018748FFF70AFF08249BE7022B06D10DF106018348FFF7C4
:4016800001FF092492E79DF80630012B06D10DF106017F48FFF734FF0A2487E7022B06D10DF106017B48FFF72BFF0B247EE79DF80630012B08D16F48FFF7CEFC6F4B186824
:4016C00005F034FF002471E7022B7FF46FAF6948FFF7C2FC694B186805F028FF002465E76C4B1B7D182B03D9193B6A4A137502E00022684B1A750DF106016148FFF762FE1B
:4017000054E7644B5B7D182B03D9193B614A537502E000225F4B5A750DF106015948FFF751FE5C48D0ED017AB1EE047A77EEC77A17EE903A40F8043F0DF10601FFF7A2FE15
:4017400034E75448D0ED027AB1EE047A77EEC77A17EE903A40F8083F0DF10601FFF792FE24E74D48002380F8B8350DF1060100F5B760FFF7C5FE19E74648002303700DF1C9
:401780000601FFF7BDFE11E7012B40F08780012C04D10DF10700FFF7E1FC07E7A31EDBB2032B04D80DF10600FFF7DEFDFEE6062C10D1384B1B7DE62B03D81933354A1375D0
:4017C00002E0FF22334B1A750DF106012C48FFF7F9FDEBE6072C10D12E4B5B7DE62B03D819332C4A537502E0FF222A4B5A750DF106012448FFF7E6FDD8E6082C0FD12548F8
:40180000D0ED017AB1EE047A77EE877A17EE903A40F8043F0DF10601FFF734FEC6E6092C0FD11C48D0ED027AB1EE047A77EE877A17EE903A40F8083F0DF10601FFF722FE2C
:40184000B4E60A2C0AD11448012380F8B8350DF1060100F5B760FFF753FEA7E60B2C7FF4A5AE0C48012303700DF10601FFF748FE9CE600BF149603086C86030854B50308C3
:401880008843020889430208784302087C43020814710208744302085C6B0208022B7FF485AE34B92748FFF7D7FB274B186805F03DFE012C08D12348FFF7CEFB224B186898
:4018C00005F034FE002471E6A31EDBB2032B05D80DF10700FFF7F4FB012467E6062C08D11848FFF7B9FB184B186805F01FFE00245CE6072C08D11348FFF7AEFB124B18683E
:4019000005F014FE002451E6A4F10803DBB2012B08D80C48FFF7A0FB0B4B186805F006FE002443E6A4F10A03DBB2012B3FF63EAE0448FFF791FB044B186805F0F7FD0024E5
:4019400034E600BF1496030854B5030870B582B004460E460E4B00936423002257210D4803F0B4FE28B90A4B64222146094804F01BF8074D074C2B4664223146204604F0DF
:4019800013F82A466421204603F082FF02B070BDC81204080000634008B5642004F022FE00210220FFF7D2FF00210320FFF7CEFF00210420FFF7CAFF00210520FFF7C6FF7A
:4019C00000210620FFF7C2FF00210820FFF7BEFF03210920FFF7BAFF6B210A20FFF7B6FFAF210C20FFF7B2FFAF210D20FFF7AEFF08BD00BF2DE9F04182B080460D461646DB
:401A00001A4C1B4F0097642300225721204603F05DFE3B4664224146204603F0C5FF0097642301225721204603F0C8FE002409E00F4B009364232A1900210C4803F05AFF62
:401A40000134E4B2731E9C42F2DB084E084F009764232A190121304603F04CFF3A466421304603F015FF02B0BDE8F08100006340C812040870B584B005460E46144606222E
:401A800002A90720FFF7B6FF9DF808301B0403F440339DF8092003EB02239DF80A20134445F824309DF80B301B0403F440339DF80C2003EB02239DF80D20134446F8243003
:401AC0000A22694655F8240011F059FD054C6946204602F0B3FF0449204602F0AFFF04B070BD00BF000066400C55091010B504462146034802F044FF0028F9D010BD00BFB3
:401B000000006640054BD3F80833C3F30803002BF8D0024BD3F84003704700BF0000664000B583B006F04EFD07F0C4F907F052F90028FBD106F060FD03238DF80730012015
:401B400006F082FF40B1184B1B780BB98DF807300122154B1A7002E00022134B1A70022006F072FF48B1104B5B7813B901238DF8073001220C4B5A7002E000220A4B5A70CB
:401B80009DF80730032B07D000231A460DF107010648006804F0B2FF07F07AF807F08AF9642005F04BFEC1E7DC7A02086C86030840B1C2694AB1026A52B1436A5BB94FF040
:401BC000FF3070474FF0FF3070474FF0FF3070474FF0FF3070470020704700BF0222C271082343711021017103218171C2734373142303730023837343688360C36803613D
:401C0000704700BF4B790C2B0BD84A7A93420BD0027802F0F00203F00F0313430370002070476FF00300704700207047CB79072B0CD8CA7A93420CD0027802F08F021B0181
:401C400003F0700313430370002070476FF0030070470020704700BF8B790C2B0BD88A7A93420BD0027802F0F00203F00F0313430370002070476FF00300704700207047EA
:401C80004B7B0D2B0BD84A7C93420BD0027802F0F00203F00F0313430370002070476FF00300704700207047CB7B022B09D8027802F0CF021B0103F030031343037000201E
:401CC00070476FF0030070478B7B042B0BD88A7C93420BD0027802F0F80203F0070313430370002070476FF003007047002070477BB138B51C46DD6975B182B19B78012BFA
:401D000001D140F0800013460A4601466078A84738BD4FF0FF3070474FF0FF3038BD6FF00B0038BD38B504460D460B46022201464020FFF7DDFF034680B929462046FFF7C9
:401D400061FF034650B929462046FFF76FFF034620B92946601CFFF77FFF0346184638BD38B504460D460B46022201464220FFF7BFFF034680B929462046FFF781FF0346E9
:401D800050B929462046FFF78FFF034620B92946601CFFF799FF0346184638BD00B583B002A9002301F8013D034601220220FFF79FFF9DF80730C3F34303012B06D0022B84
:401DC00007D0032B08D0072B0BD108E06FF0050007E06FF0060004E06FF0070001E06FF0080003B05DF804FB2DE9F843002B34D00546894690461E461C6A002C30D0002A17
:401E000031D09B78012B01D100F07F05337A112B02D0337C152B19D143464A4629467078A0470746736A0120984714E0376A012309EB040229467078B84707460135EDB2DC
:401E4000736A012098470134E4B201E000242746A3B29845EAD85FB108E04FF0FF3707E04FF0FF3704E06FF00B0701E06FF001073846BDE8F88300BF10B582B0044602A8A6
:401E8000002320F8043D2146FFF74CFF0346B0B92346012201A94020FFF7A6FF034670B963796372E379E372234601220DF105014120FFF799FF034608B9A279A272184631
:401EC00002B010BD10B582B0044602A8002320F8043D2146FFF744FF0346B0B92346012201A94220FFF780FF034670B9637B6374E37BE374234601220DF105014320FFF7D8
:401F000073FF034608B9A27BA274184602B010BD30B583B004460D4600238DF807300B46012201464020FFF7E3FE034628BB2A79122A14D1237863F07F0323702B46012208
:401F400021464020FFF750FF0346B0B92B4602220DF107015820FFF747FF03460DE0227812F0800F09D002F07F0222702B46012221464020FFF738FF0346184603B030BD46
:401F800030B583B000238DF807300279A2F11003DBB2022B1AD8037A9A421AD0044601460DF10700FFF7B4FF054698B923460122211D7E20FFF718FF0546237A102B02D1D4
:401FC000636A052098472379237203E06FF0030500E00025284603B030BD00BF38B5027BA2F11403DBB2012B01D9172A1DD1037C9A421DD004460346012200F10C017E2053
:40200000FFF7F2FE0546237C142B03D1636A5120984707E0172B05D1237B152B02D1636A0A209847237B237403E06FF0030500E00025284638BD00BF30B583B005460C46BF
:4020400002A9002301F8013D234601225020FFF74FFE034660BB2B7813F0010F18D09DF8072002F0FE032978C1F340021A4302F0FD02C1F3800342EA430202F0FB02C1F33B
:40208000C00342EA83038DF807300023E37007E09DF8073023F007038DF80730FF23E370234601220DF107015020FFF79DFE0346184603B030BD00BF10B582B0044602A9F3
:4020C000002301F8013D034601226220FFF710FE034678B99DF8072012F0020F0AD002F0FD0202A901F8012D234601226220FFF77BFE0346184602B010BD00BF70B582B0F5
:4021000005460C4600238DF804308DF805308DF806300B46032201A95520FFF7E9FD024698BB9DF804006B781949CE5CF3435BB218409DF806100B402D78032D1BD8DFE87D
:4021400005F002070D138DF804008DF8063014E030438DF804008DF806300EE033438DF806308DF8040008E030438DF8040033438DF8063001E06FF0030232B923460322D7
:4021800001A95520FFF730FE0246104602B070BDCC59091030B583B005460C4602A9002301F8013D234601225920FFF7A1FD034688B99DF8073003F07F022B78C3F3801318
:4021C00042EAC31302A901F8013D234601225920FFF70AFE0346184603B030BD30B583B005460C4600238DF80730ADF804300B4601220DF107015F20FFF77AFD034688B954
:402200009DF8073003F0FC038DF807308DF804306B788DF805302346022201A95F20FFF7E3FD0346184603B030BD00BF30B583B005460C4602A9002301F8013D23460122F6
:402240005020FFF755FD0346F0B92B7813F0200F0AD09DF8073003F0F80343F007038DF807300123E37007E09DF8073023F007038DF80730FF23E370234601220DF1070148
:402280005020FFF7B1FD0346184603B030BD00BF30B583B005460C4602A9002301F8013D234601225920FFF723FD034688B99DF8073003F07F022B78C3F3001342EAC313F7
:4022C00002A901F8013D234601225920FFF78CFD0346184603B030BD30B583B005460C46437802A901F8013D234601226020FFF77BFD034630BB234601220DF1070162201D
:40230000FFF7F6FC0346E8B99DF8072002F0F302297801F0030342EA830202F0CF02C1F3810342EA031303F0FD02C1F3401342EA430302A901F8013D234601226220FFF751
:4023400053FD0346184603B030BD00BF30B583B004460D4602A9002301F8013D2B4601225220FFF7C5FC034658BB237813F0010F07D09DF8073003F0FE0343F001038DF833
:402380000730237813F0020F07D09DF8073003F0FD0343F002038DF80730237813F0040F07D09DF8073003F0FB0343F004038DF807302B4601220DF107015220FFF714FD5F
:4023C0000346184603B030BD30B583B005460C4602A9002301F8013D234601225920FFF787FC034688B99DF8073003F07F026B78C3F3800342EAC31302A901F8013D23462B
:4024000001225920FFF7F0FC0346184603B030BD30B583B005460C4600238DF80730ADF804300B4601220DF107015F20FFF760FC034688BB9DF8073003F003022B88C3F366
:40244000C50342EA830302A901F8013D234601225F20FFF7C9FC0346F0B9234601220DF107016220FFF744FC0346A8B99DF8073003F0FE026B78C3F3400313438DF80730A7
:402480008DF80530AB7802A901F8043D234602226120FFF7A9FC0346184603B030BD00BF70B582B005460E46144602A9002301F8013D134601225020FFF71AFC034608BB52
:4024C0006B78042B0BD19DF8073003F0DF027378C3F3C00342EA43138DF807300AE09DF8073003F0EF027378C3F3C00342EA03138DF80730234601220DF107015020FFF7B8
:4025000073FC0346184602B070BD00BF30B583B005460C4602A9002301F8013D234601225820FFF7E5FB034688B99DF8073003F0F7026B78C3F3800342EAC30302A901F85F
:40254000013D234601225820FFF74EFC0346184603B030BD70B582B006460D46144602A9002321F8043D134602226320FFF7C0FB034650BB9DF804307278032A06D12A88AC
:40258000C2F3C21203F0F8031343DBB22A78C2F3401103F0BF0343EA8113C2F3801103F07F0343EAC1138DF804309DF80530C2F3040203F0E0031A438DF80520234602223F
:4025C00001A96320FFF710FC0346184602B070BD30B583B005460C4602A9002301F8013D234601225220FFF783FB034688B99DF8073003F0F7022B7803F0010342EAC3032C
:4026000002A901F8013D234601225220FFF7ECFB0346184603B030BD30B583B00D460023ADF80430037813F0C00306D115238DF8043003238DF8053032E00446402B03D1AB
:402640002D238DF804302BE0802B06D11D238DF8043007238DF8053022E0C02B20D10B46022201A97A20FFF743FBC8B99DF8043003F0E7032278C2F3410143EAC10303F080
:40268000F803C2F3C20213438DF804309DF8053003F0F8026378C3F3020313438DF805302B46022201A97A20FFF79EFB03B030BD30B583B005460C4602A9002301F8013D78
:4026C000234601225020FFF713FB034688B99DF8073003F0BF02AB7803F0010342EA831302A901F8013D234601225020FFF77CFB0346184603B030BD30B583B005460C46AD
:4027000000238DF804308DF805300B46022201A96520FFF7EDFA034678BB9DF8042002F0FC032978C1F301021A4302F0F30201F00C031A4302F00F0201F0F00313438DF8A1
:4027400004309DF8052002F0C0036978C1F305021A4302F0BF02C1F3801342EA831202F07F0201F0800313438DF805302346022201A96520FFF738FB0346184603B030BDDF
:4027800030B583B005460C4602A9002301F8013D234601225020FFF7ABFA034688B99DF8073003F07F026B78C3F3C00342EAC31302A901F8013D234601225020FFF714FBBD
:4027C0000346184603B030BD30B583B005460C4600238DF804308DF805300B46022201A96720FFF785FA034608BB9DF8043003F0C0022B78C3F3050313438DF804309DF89D
:40280000053003F0CF026B78C3F3410342EA031303F0F8032A88C2F3821213438DF805302346022201A96720FFF7DEFA0346184603B030BD30B583B005460C4602A9002331
:4028400001F8013D234601225120FFF751FA034688B99DF8073003F0F702AB78C3F3001342EAC30302A901F8013D234601225120FFF7BAFA0346184603B030BD30B583B0DB
:4028800005460C4602A9002301F8013D234601225820FFF72DFA034688B99DF8073003F07F02AB78C3F3C00342EAC31302A901F8013D234601225820FFF796FA03461846DA
:4028C00003B030BD30B583B005460C4600238DF804308DF8053002A901F8023D234601225C20FFF705FA0346E0B99DF8062002F0FC03A978C1F301021A4302F0FB02C1F3A7
:40290000800342EA83038DF806306B788DF805302B7802A901F8043D234603225A20FFF763FA0346184603B030BD00BF30B583B005460C4602A9002301F8013D23460122DB
:402940005120FFF7D5F90346E0B99DF8072002F0FE032978C1F300021A4302F0FD02C1F3400342EA430202F0FB02C1F3800342EA830302A901F8013D234601225120FFF7D7
:4029800033FA0346184603B030BD00BF30B583B005460C4602A9002301F8013D234601225820FFF7A5F9034688B99DF8073003F07F022B78C3F3401342EAC31302A901F876
:4029C000013D234601225820FFF70EFA0346184603B030BD30B583B005460C4600238DF804308DF805308DF806300B46012201A95C20FFF77DF90346B8B99DF8043003F0CE
:402A00003F022B78C3F3C10342EA83138DF80430AB788DF805306B788DF806302346032201A95C20FFF7E0F90346184603B030BD10B582B0044602A9002301F8013D0346E9
:402A400001225120FFF754F9034670B99DF8073003F0EF0343F0100302A901F8013D234601225120FFF7C0F90346184602B010BD30B583B005460C4602A9002301F8013DA8
:402A8000234601225620FFF733F9024670BB6B781849C85C9DF8073023EA00035BB20101C9B223EA0103DBB22D78032D13D8DFE805F00205090D8DF807300EE00B438DF8FD
:402AC00007300AE003438DF8073006E003430B438DF8073001E06FF003023AB9234601220DF107015620FFF77FF90246104603B030BD00BFCC59091030B583B005460C46DF
:402B000002A9002301F8013D234601225120FFF7EFF8034688B92B7A03F001029DF8073023F0200343EA421302A901F8013D234601225120FFF758F90346184603B030BDA0
:402B400030B583B005460C4602A9002301F8013D234601225120FFF7CBF8034688B92B7AC3F340029DF8073023F0400343EA821302A901F8013D234601225120FFF734F9D8
:402B80000346184603B030BD30B583B005460C4602A9002301F8013D234601225320FFF7A7F80346002844D12B78012B1CD19DF8072002F0F702A97801F0010342EAC30290
:402BC00002F0FB02C1F3400342EA830303F0FD02C1F3800342EA430303F0FE03C1F3C0010B438DF807301CE09DF8072002F07F02A97801F0010342EAC31202F0BF02C1F386
:402C0000400342EA831202F0DF02C1F3800342EA431202F0EF02C1F3C00342EA03138DF80730234601220DF107015320FFF7DCF80346184603B030BD30B583B004460D46E2
:402C400002A9002301F8013D2B4601225420FFF74FF8034650BB2378012B0BD19DF8073003F0EF02A378C3F3001342EA03138DF807300AE09DF8073003F0DF02A378C3F326
:402C8000001342EA43138DF807309DF8073003F0F0026388C3F34313134302A901F8013D2B4601225420FFF79FF80346184603B030BD00BF38B504460D46FFF765FF03461B
:402CC00020B929462046FFF7B7FF0346184638BD70B505460E4614461146FFF7EBFF0346A8B92046FFF7E8F9034680B921462846FFF704FA034650B921463046FFF74AFAEE
:402D0000034620B921463046FFF768FA0346184670BD00BF70B505460C460846FEF748FF70B985B12E1D21463046FFF785F9034658B9224631462846FFF7CAFF034604E0CF
:402D40004FF0FF3301E04FF0FF33184670BD00BF70B505460E4614461146FFF7ABFF034680B921462846FFF7C9F9034650B921463046FFF78DFA034620B921463046FFF781
:402D8000ABFA0346184670BD70B505460C460846FEF70EFF70B985B12E1D21463046FFF745FA034658B9224631462846FFF7D0FF034604E04FF0FF3301E04FF0FF33184612
:402DC00070BD00BF70B505460E4614461146FFF771FF034680B921462846FFF78FF9034650B921463046FFF7EFFA034620B921463046FFF70DFB0346184670BD70B50546E8
:402E00000C460846FEF7D4FE70B985B12E1D21463046FFF79BFA034658B9224631462846FFF7D0FF034604E04FF0FF3301E04FF0FF33184670BD00BF70B505460E46144655
:402E40001146FFF737FF034688B921462846FFF755F9034658B921463046FFF757FB034628B9224631462846FFF774FB0346184670BD00BF70B504460D460846FEF798FEA3
:402E8000A8B9BCB1261D2A4631462046FFF708FB034688B929462046FFF70CFF034658B92A4631462046FFF7C7FF034604E04FF0FF3301E04FF0FF33184670BD70B505460D
:402EC0000C460846FEF774FEC8B9DDB12E1D21463046FFF77DFB0346B0B921462846FFF7E9FE034680B921462846FFF707F9034650B921463046FFF78FFB034604E04FF05A
:402F0000FF3301E04FF0FF33184670BD70B505460C460846FEF74CFEC8B9DDB12E1D21463046FFF7C5FB0346B0B921462846FFF7C1FE034680B921462846FFF7DFF803469D
:402F400050B921463046FFF7D7FB034604E04FF0FF3301E04FF0FF33184670BD70B505460C460846FEF724FEC8B9DDB12E1D21463046FFF705FC0346B0B921462846FFF756
:402F800099FE034680B921462846FFF7B7F8034650B921463046FFF717FC034604E04FF0FF3301E04FF0FF33184670BD70B505460C460846FEF7FCFDF8B90DB32E1D2146AA
:402FC0003046FFF737FC0346E0B921462846FFF771FE0346B0B921462846FFF78FF8034680B921463046FFF749FC034650B921463046FFF767FC034604E04FF0FF3301E071
:403000004FF0FF33184670BD70B505460C460846FEF7CEFDF8B90DB32E1D21463046FFF785FC0346E0B921462846FFF743FE0346B0B921462846FFF761F8034680B9214607
:403040003046FFF7A3FC034650B921463046FFF7C1FC034604E04FF0FF3301E04FF0FF33184670BD38B505460C460846FEF7A0FD88B99DB12046FFF7DBFC034680B92146D3
:403080002846FFF717FE034650B921462846FFF7EFFC034604E04FF0FF3301E04FF0FF33184638BD38B599B14A6AA2B10C460546FFF722FD034680B921462846FFF7FAFD18
:4030C000034650B921462846FFF7D2FC034604E04FF0FF3301E04FF0FF33184638BD00BF38B599B14A6AA2B10C460546FFF728FD034680B921462846FFF7DCFD034650B975
:4031000021462846FFF7B4FC034604E04FF0FF3301E04FF0FF33184638BD00BF30B583B0B6238DF80730F0B10446436AF3B1034601220DF107017E20FEF756FE0546636AB8
:403140000120984755B9A378012B07D1234601220DF107017F20FEF7CBFD054645B92046FEF73CFD04E04FF0FF3501E04FF0FF35284603B030BD00BF30B583B00446FEF788
:4031800017FD014650B9A378012B07D1234601220DF107017F20FEF7ABFD014609BB00232370032207E02346012221460020FEF79FFD01462A46531EDDB212B12378D12B3C
:4031C000F1D149B92378D12B09D1FF23E3702046FFF7A4FF014604E06FF0020101E06FF00201084603B030BD60B1426A6AB110B50446FEF7C5FE034658B92046FEF7EEFE28
:40320000034606E04FF0FF3301E04FF0FF3318467047184610BD00BFB0B1426ABAB110B50446FEF729FE0346A8B92046FEF74AFE034680B92046FFF7D7FF034658B9204639
:40324000FEF7ACFD034606E04FF0FF3301E04FF0FF3318467047184610BD00BF08B543780D2B2FD8DFE803F0070A13101016191F1C0D2225282BFFF74DFD08BDFFF784FD7D
:4032800008BDFFF7BBFD08BDFFF7F4FD08BDFFF715FE08BDFFF73AFE08BDFFF75FFE08BDFFF784FE08BDFFF7AFFE08BDFFF7DAFE08BDFFF7F7FE08BDFFF712FF08BDFFF7A7
:4032C000F9FC08BD002008BD70B50D4616460F2805D1134604221C20FEF70AFD70BD044610F0010F05D0134601221C20FEF700FD00E0002014F0020F05D033460122A9184A
:403300001D20FEF7F5FC14F0040F05D033460122A91C1E20FEF7ECFC14F0080F05D033460122E91C1F20FEF7E3FC70BD10B5044600F072F9204600F015FA10BD08B510B117
:4033400000F0AAFD01E000F0C9FD08B9012008BD002008BDF8B507460E4614461D4613B10120FFF7EBFF24B93146384600F038FC15E0631EDBB2012B11D80021384600F026
:403380001DFA012C07D10121384600F017FA0221304600F013FA0321304600F00FFA15B10020FFF7CBFFF8BD08B50022024BC3F8082100F05FFE08BD00003840014BD3F81B
:4033C00008017047000038400122014B5A6070470000384010B5074C074A0849204602F0DBFB236843F0004323600822044B9A6010BD00BF0000674058110408585A0910EB
:40340000000632400822044B9A60044A136843F000431360704700BF000632400000674008B50249024802F0EBFC08BD581104080000674008B50146154801F0A1FA144B02
:40344000D3F8C03F13F0040FF9D0114BD3F8042242F48032C3F80422D3F8042222F48032C3F80422D3F80422D3F8042342F48032C3F80423D3F8042322F48032C3F80423AA
:40348000D3F804230422C3F8C02FD3F8C03F08BD0000674008B50146174801F071FA164BD3F8C03F13F0040FF9D0134BD3F84003D3F8042242F48032C3F80422D3F8042234
:4034C00022F48032C3F80422D3F80422D3F8042342F48032C3F80423D3F8042322F48032C3F80423D3F804230422C3F8C02FD3F8C03FC0B208BD00BF0000674038B50C4672
:40350000054600B121B940F2E6511B4803F08EF822462946194801F079FA184AD2F80832C3F30803D2F80822C2F3C032D342F4D1124BD3F8042242F48032C3F80422D3F856
:40354000042222F48032C3F80422D3F80422D3F8042342F48032C3F80423D3F8042322F48032C3F80423D3F804230422C3F8C02FD3F8C03F204638BDDC5909100000674057
:40358000044B1B6913F0080F01D0012070470020704700BF800232402DE9F04180460E4617460A4C082565607020FFF743FF4046FFF740FFA56065607220FFF73BFF394657
:4035C0003046FFF79BFFA560BDE8F0810006324000B583B002AB03F8011D01221946FFF7DBFF03B05DF804FBF8B507460E46094C082565607020FFF71DFF3846FFF71AFF67
:40360000A56065607320FFF715FF3046FFF742FFA560F8BD0006324038B50425084B5D60084C4023636010236360FFF7D3FE0822054B5A60656020236360FFF7B5FE38BD4A
:4036400000003240800232400006324010B5434C6F22002120460FF0BAFF631C236704F14E03636704F12203A367FFF79DFE03E0FFF7A4FE032868D8FFF782FF0028F7D12D
:40368000FFF7A2FE00217220FFF7AEFF00F00F0002285CD14021FFF79BFF00210F20FFF7A3FF10F0800F54D002210B20FFF790FF08222B490120FFF76FFFD1210720FFF737
:4036C00087FF02210820FFF783FFC2210920FFF77FFF03210420FFF77BFF01210320FFF777FF00210320FFF773FF0A2002F07AFF002400E01C4601210520FFF769FF6420C8
:4037000002F070FF03210520FFF762FF322002F069FF0F210520FFF75BFF322002F062FF00210F20FFF760FF10F0400F05D040210220FFF74DFF234603E0631C9BB2042CBC
:40374000D8D1032B07D9052010BD012010BD022010BD032010BD002010BD00BFE07A02081C5A091010F1090F0EDB10F1040F0EDB05280FDD0A2810DD0F2811DD142811DDAE
:40378000282811DC5A2210E04FF496620DE04FF461720AE04FF4167207E04FF4A57204E0DC2202E0B42200E03C22034BA3F87C20A3F87E20704700BFE07A02082DE9F84F5F
:4037C00006460D46047828B1CA4B984205D10127002403E00127FF2400E00027FFF7E4FD4FF00008D0E1C8EBC80AC8EB0A1ADFF80C930AEB090B6F22002158460FF0E7FEB1
:403800000BF1010EBC4BC3F870E00AF148004844063058670AF1200AD14409F10209C3F878902022002397E10FB934780136032D00F29081DFE815F004006500C6002701C7
:4038400000EB030C14F0400F01D0C02100E080218CF8001049B214F0100F02D04FF0300A01E04FF0200A4AEA01018CF8001014F0040F02D04FF00C0A01E04FF0080A4AEA13
:4038800001018CF8001014F0010F02D04FF0030A01E04FF0020A4AEA01018CF800100EEB020C14F0800F01D0032100E002218CF8001049B214F0200F02D04FF00C0A01E0EE
:4038C0004FF0080A4AEA01018CF8001014F0080F02D04FF0300A01E04FF0200A4AEA01018CF80010013A92B214F0020F02D06FF03F0A01E06FF07F0A4AEA01018CF8001092
:4039000028E100EB030C14F0400F01D0802100E040218CF8001049B214F0100F02D04FF0200A01E04FF0100A4AEA01018CF8001014F0040F02D04FF0080A01E04FF0040A25
:403940004AEA01018CF8001014F0010F02D04FF0020A01E04FF0010A4AEA01018CF800100EEB020C14F0800F01D0022100E001218CF8001049B214F0200F02D04FF0080AE2
:4039800001E04FF0040A4AEA01018CF8001014F0080F02D04FF0200A01E04FF0100A4AEA01018CF80010013A92B214F0020F02D06FF07F0A01E04FF0400A4AEA01018CF843
:4039C0000010C7E000EB030C14F0400F01D0C02100E040218CF8001049B214F0100F02D04FF0300A01E04FF0100A4AEA01018CF8001014F0040F02D04FF00C0A01E04FF071
:403A0000040A4AEA01018CF8001014F0010F02D04FF0030A01E04FF0010A4AEA01018CF800100EEB020C14F0800F01D0032100E001218CF8001049B214F0200F02D04FF023
:403A40000C0A01E04FF0040A4AEA01018CF8001014F0080F02D04FF0300A01E04FF0100A4AEA01018CF80010013A92B214F0020F02D06FF03F0A01E04FF0400A4AEA010120
:403A80008CF8001066E000EB030C14F0400F01D0802100E0C0218CF8001049B214F0100F02D04FF0200A01E04FF0300A4AEA01018CF8001014F0040F02D04FF0080A01E080
:403AC0004FF00C0A4AEA01018CF8001014F0010F02D04FF0020A01E04FF0030A4AEA01018CF800100EEB020C14F0800F08D0022107E000BFFFFF0F10E07A020808C50308EB
:403B000003218CF8001049B214F0200F02D04FF0080A01E04FF00C0A4AEA01018CF8001014F0080F02D04FF0200A01E04FF0300A4AEA01018CF80010013A92B214F0020F6E
:403B400002D06FF07F0A01E06FF03F0A4AEA01018CF8001001339BB2202B7FF665AEC8F1AF031BB299101A4A134003D5013B63F003030133174A02FA83F31B7A09F8013011
:403B800008F101081FFA88F8B8F1AF0F7FF62BAE00240FE0C4EBC403C4EB03136F220E4919440A20FFF7F8FC07210220FFF710FD0134A4B2AF2CEDD9084BB3F87C40FFF7E5
:403BC000FDFB8442E4D8FFF7FFFBBDE8F88F00BF030000801C5A091008C50308E07A02082DE9F04706460D46FFF7DEFBD2210920FFF7EEFC0024C6E0C4EBC407C4EB07175A
:403C0000DFF8008207EB08096F22002148460FF0DEFC09F1010C784BC3F870C007F1480EC6440EF1060EC3F874E02037B84408F10208C3F87880202000218EE0771C3278CB
:403C40006E1C95F800900EEB010582EA090212F0400F04D019F0400F03D0802302E0402300E0C0232B705BB212F0100F05D019F0100F05D04FF0200A04E04FF0100A01E00A
:403C80004FF0300A4AEA03032B7012F0040F05D019F0040F05D04FF0080A04E04FF0040A01E04FF00C0A4AEA03032B7012F0010F05D019F0010F05D04FF0020A04E04FF00B
:403CC000010A01E04FF0030A4AEA03032B700CEB000512F0800F04D019F0800F03D0022302E0012300E003232B705BB212F0200F05D019F0200F05D04FF0080A04E04FF08B
:403D0000040A01E04FF00C0A4AEA03032B7012F0080F05D019F0080F05D04FF0200A04E04FF0100A01E04FF0300A4AEA03032B70013880B212F0020F05D019F0020F04D071
:403D40006FF07F0203E0402201E06FF03F0213432B70013189B235463E4620297FF66EAFC4F1AF031BB29910244A134003D5013B63F003030133224A02FA83F31B7A08F8B3
:403D800001300134A4B2AF2C7FF636AF002421E0C4EBC405C4EB05151A4B1D446F2229460A20FFF7F9FB07210220FFF711FCC4F1AF0343F38D032B44002283F822206F2279
:403DC00029460A20FFF7E8FB07210220FFF700FC0134A4B2AF2CDBD9074BB3F87E40FFF7EDFA8442D2D8FFF7EFFAC2210920FFF7EFFBBDE8F08700BFE07A02080300008066
:403E00001C5A091008C50308002307E01349086F5522C254496FCA5401339BB2202BF5D970B5002416E0A6080C4DAA6F04F003030B490B441B7A93556F2229460A20FFF7A8
:403E4000ABFB07210220FFF7C3FBAB6F00229A550134A4B2AF2CE6D970BD00BFE07A02081C5A091008B5002304E00021094AD1540133DBB2152BF8D900210420FFF7A8FB62
:403E80006F2204490A20FFF787FB07210220FFF79FFB08BDE07A020838B50E4C1023A360142002F09FFBFFF7ADFA08220A4B9A604023A3600425A5600A2002F093FB656029
:403EC0000A2002F08FFBA5600A2002F08BFBFFF7BDFB38BD800232400006324038B5FFF793FFFFF7BFFF1E2002F07CFB234C40256560322002F076FBA56000210F20FFF7FD
:403F000073FB10F0400F36D000210B20FFF760FB01210320FFF75CFB03210520FFF758FB01210520FFF754FB322002F05BFB80210420FFF74DFB00210520FFF749FB012132
:403F40000720FFF745FB1E2002F04CFBFFF768FA102363606560142002F044FB0822084B5A60042363602025A5601E2002F03AFB6560002038BD042038BD00BF800232407F
:403F80000006324010B582B002AC012344F8043D00231A461449154809F064FB21460AF04AFD0BF0A9F960B14FF48472B02100200BF087FA4FF48472B02100200BF0ADFAE6
:403FC0000BE0B0224FF4847100200BF07AFAB0224FF4847100200BF0A0FA054900200BF087FA02B010BD00BF30D6091064D609109C510208012901D1002070474FF0FF30AC
:40400000704700BF00487047607B020808B54FF40041034808F058FD024809F09BF908BD10920208ECCE091008B5012002F03AFE014B186008BD00BF1012030808B50023D5
:404040001A4619460248006802F058FD08BD00BF1012030808B54FF0FF31024B186802F0A9FF08BD1012030808B503F09DFD08BD704700BF08B5084B1B783BB9074A0021C4
:40408000074802F045FB0122034B1A70044B01229A609A6108BD00BF141203088C5A0910000038401F4B98422DD00CD840282ED003D8E8B1102828D02FE0802829D0B0F56D
:4040C000807F28D029E0184B984228D006D8B0F1204F0DD0154B984212D01EE0144B98420AD00133984209D0023B984215D101E0002070470F4870470F4870470F487047CD
:404100004FF4A0007047074870470D4870470D4870470D487047034870470C4870474FF4A400704706005200010000F0090000A0040000F00100520002005200030052002E
:40414000010050000200500005005200FF00520038B5124B1B6893F83130012B04D840F2C3110F4802F062FA0C4B1D682A6AB5F8B03013442C46D5F8B420D358002B0BDBE5
:40418000084B1868FFF78EFF6B6801229A6063689B68002BFBD138BD034838BD7C110408D85A091018120308020050001A4B186128B102230370FF23437000234380174BE8
:4041C0001B6893F850202AB300B583B0B3F93830ADF80030002301931149684602F0C8F9BDF90030002B08DB590903F01F03012202FA03F30B4A42F82130084B1B6893F860
:40420000513023B102220849012000F0F3FA03B05DF804FB704700BF181203087C110408D952020800E100E09153020808B50248FFF7BCFF08BD00BF2C1203082DE9F041BB
:4042400004460D46174698469DF81860072903D9D921354802F0EAF937F00F0303D0DA21314802F0E3F9B8F1010F03D9DB212E4802F0DCF936F01F0303D0DC212A4802F069
:40428000D5F922680123AB4022EA030308F0010808FA05F843EA08032360244B1B6893F87D100B59A8000F22824023EA020207F00F0303FA00F717430F51072D04D94FF4A5
:4042C00022711B4802F0B2F936F01F0304D040F28921174802F0AAF9144B1B689A69A41AE4095B6924011919032D0DD81959ED001F22AA4021EA020206F01F0606FA05F5D1
:4043000015431D51BDE8F081043D4A68ED001F23AB4022EA030306F01F0606FA05F51D434D60BDE8F08100BF185B09107C110408585B091038B50B4B1B68D3F8B4301B58B2
:40434000002B0DDA0D4604460B0C1B0423B140F2D521054802F06AF9A9B26160002038BD024838BD7C110408985B091001008A0038B50368002B01DA002300E0094B73B939
:404380000D460446C2600B0C1B0423B140F2BB21054802F04BF9A9B2A160002038BD014838BD00BF01008A00985B091038B504460D4619B99921084802F038F9074B1B6840
:4043C000D3F8B4301B59002B03DAE3682B60002038BD034838BD00BFD85B09107C11040801008A00254B1B6893F8313083423AD900293AD00B6813F01F0F38D170B50D4629
:4044000004461E4B1B6893F83130984204D340F2C3111B4802F00AF9184B1B68186AB3F8B03004FB0304174E34602A68D208002168680FF0CCF800212046FFF77BFF3468A6
:4044400025B940F293310E4802F0F0F82A4600212046FFF78DFF60B900210A4B1868FFF769FF40B970BD084870470748704706487047064870BD054870BD00BF7C110408CD
:40448000985B09103012030803018A0001018A0010B504461346B2B9A9B9124B1B6893F83130984204D340F2C3110F4802F0BEF80C4B1B681A6AB3F8B03004FB03240B4B6D
:4044C0001C60002010BD43B149B1084A51609360111D2046FFF786FF10BD054810BD044810BD00BF7C110408985B09103012030803018A002DE9F0411B4B1B68DC68236822
:4045000083422CD90D464609A0EB4610012303FA00F819B902F0F5F8074600E00027124B18680368002B01DA002300E00F4B83B9626852F8263018EA030F05D023EA0803BE
:4045400042F82630002400E0094C0021FFF7F2FE00E0084C25B9384602F0D7F800E0064C2046BDE8F08100BF3012030801008A00020188000301880004018A000B4B1B6836
:40458000DB681A6882420CD94109A0EB4110012202FA00F05B6853F82130184203D004487047044870470448704700BF301203080101880004018A0000018800024B1B6845
:4045C0000BB9014B186070473C1203082DE9F8430446884691461D46089F2C4B1B681BB9B5212B4802F022F8284B1B682C2000FB04F01C18EEB21E50C5F3072363602D0C65
:40460000A560244B1B6893F831309E4204D340F2C311214802F00AF81E4B1B68196AB3F8B02006FB02162661666893F832309E4204D340F2DF11184801F0F8FF154B1B6834
:404640001D6A803605EB46156561A668330C1B0423B14FF4FF71104801F0E8FF330C1B0423B140F2FF110C4801F0E0FFB3B243EA0646AE60C4F81C90C4F820800023A3615A
:4046800017B1B7F90030A381BDE8F8833C120308185C09107C110408985B0910F0B58FB0044618B95221274801F0C0FFA369072B03D95621234801F0B9FFE36A1BB95821B3
:4046C000204801F0B3FF236B1BB959211D4801F0ADFF07AD04F114060FCE0FC537682F6002AD26460FCE0FC533682B60164B1B68B3F93620079B1344ADF83030089B0D9316
:40470000A26AE16A0CAD00953B460A98FFF75EFF00210091069B0A460598FFF757FF216B284601F025FFBDF93030002B08DB590903F01F03012202FA03F3044A42F821303A
:404740000FB0F0BD185C09107C11040800E100E0F8B506460F461D4614461AB9FD211F4801F064FF1E4B1B681BB9FE211B4801F05DFF1B4B1B682C2101FB063001FB073104
:404780004B68012202FA03F31B04466802FA06F60269EAB18F69EFB91268002A01DA002200E0104AC2B92288134323600369DC6001238B614D620469330C1B0423B140F2B5
:4047C000BB21094801F032FFB2B2A2600020F8BD0648F8BD0648F8BD0548F8BD185C09103C12030801008A00985B091004028A0007028A00F8B505460F4616460E4B1B6802
:4048000023B94FF4AF710D4801F010FF0A4B1B682C2404FB0534236A23B94FF4B171074801F004FFE369B34204D9236A43F826700020F8BD0248F8BD3C120308185C09103D
:404840000A028A0070B582B000230193044620B940F2D111284801F0E9FE236923B94FF4E971254801F0E2FE636923B940F2D311214801F0DBFE236A23B94FF4EA711E4874
:4048800001F0D4FE6369DD682A0C20D012041A601B682069194B1B68D3F8B430C358002B15DA01A9FFF782FD60B9019803681E0CDBB2E269934206D2226A52F8233013B1BF
:4048C000984700E0002631462069FFF733FDADB275B16369ADB21D601B68636A1BB198470023636202E0A36A03B198470023A36163691B6802B070BD185C09107C110408A0
:4049000010B50446074B1B6823B940F2B111064801F08CFE034B1B682C2000FB0430FFF791FF10BD3C120308185C091010B4D0F8003303F00F03072B06D900230DE0D0F8C8
:404940004043CC54013300E000239342F7D306E0D0F8404321F8134001339342F8D35DF8044B704710B51446D0F80833C3F308039A4200D31C462246FFF7D8FF204610BD96
:40498000036813F4006F01D0802200E04022D0F80832C3F30803934203D0C0F84012012070470020704700BF10B4D0F8003203F00F03072B06D900230DE0CC5CC0F8404238
:4049C000013300E000239342F7D306E031F81340C0F8404201339342F8D35DF8044B704710B51446036813F4006F01D0802200E04022D0F80832C3F30803D31AA34200D8F4
:404A00001C462246FFF7D0FF204610BDF8B507460D461446D0F8006206F00F060BE0224629463846FFF7DCFF072E01D9430000E003461D44241A002CF1D1F8BD30B40368BB
:404A400013F4006F01D0802200E04022002408E0D0F80832C3F308039A42F9D0C0F8405201340D5D002DF3D130BC704702E0C0F84012013A002AFAD1704700BF10B5144669
:404A8000036813F4006F01D0802200E04022D0F80832C3F30803D31AA34200D81C462246FFF7E4FF204610BD10B54A6841F201039A4231D1D0F80833C3F30803B3B10B6AF4
:404AC00043F040030B620B7873B1D0F8043343F48033C0F80433D0F8043323F48033C0F80433D0F8043301E0D0F840330B6A43F020030B620B6A23F010030B62036E23F4B9
:404B0000204303660023C0F8C83F0123C0F8C03FD0F8C03F202221E0D0F80832C3F30802D0F80832C3F3C03313440A6BD21A4A630A6A12F0080F05D1CA6A1A44CA628A6AFB
:404B4000D31A8B620B6A43F004030B620B6A23F001030B620023C0F8883F1022D0F84C4F40F201131C420DD0036823F00043036000238366C366036843F000430360036886
:404B800042F040024FF080534B604B6C0BB11046984710BDD0F80C3F13F0020F1DD00222C0F8002FD0F8002FD0F8002F12F0040F02D04FF4001001E04FF480108A6802431D
:404BC0008A604A68B2F5B81F07D00A7B12B14FF4C01201E04FF4B0124A6013F4807F03D08A6842F400028A6013F0010F03D08A6842F480028A6040F21112134202D04FF4B1
:404C0000C0134B60704700BF0023C0F8C83FC0F8883F836E23B140F21713C0F8083F704740F21313C0F8083F182383664FF4B8134B60704738B5D0F80C4F036E23F48073D2
:404C400003660023C0F8C83FC0F8883FC0F8083F40F21713C0F8003FD0F8003F8B6823F480338B604B7B13B18B69CB610BE08D69D0F80822C2F30802D0F80832C3F3C03382
:404C80001344EB1ACB6140F201131C421BD0036E9B0F032B05D114F4827F14BF0123002300E001235BB1036823F00043036000238366C366036843F00043036003684FF044
:404CC00080534B601BE00B7893B1D0F8043343F48033C0F80433D0F8043323F48033C0F80433D0F804330123C0F8C03FD0F8C03F0B7B0BB10B4B01E04FF080534B604A6C57
:404D000072B14B7B13B14FF4802001E04FF400308B6813F0F87301D04FF400231843904738BD00BF000010100346002940DB11F0C00F06D0002181664FF0805050602F4880
:404D400044E011F4807F36D111F0010F0ED050682B49884232D1196E11F0804F0CBF012100214FF08050506026482FE011F0020F06D050682249884223D10021224825E022
:404D800011F0100F05D04FF080515160002108461CE050681A49884216D1517B11B14FF4881101E04FF4A0115160002108460DE0012116480AE00121154807E0012111486F
:404DC00004E00021134801E00021084679B1196821F00041196000219966D966196841F0004119601B684FF080535360704740F21712C3F8002FD3F8003F70470820AA00EB
:404E0000000013100620AA000420AA000320AA000720AA000520AA00036853B110B50446012001F0F7FB2368013B23601BB1002010BD002070474FF0004010BD70B505462C
:404E40000C4691F8243013F0FF0F0ED1CB6A63B94B6C0BB108209847E36AB3FA83F35B0984F824300123C5F8883F94F8243013F0FF0F16D063783BB12B6813F4006F01D084
:404E8000802202E0402200E00122FF212846FFF7F5FD236B18442063236A43F00803236270BDE26A012A11D963780BB1013A00E00122A16A2846FFF793FD236B0344236319
:404EC000E36A1B1AE362A36A1844A062D5F80832C3F30803802B23D0E36A012B20D101F010FCA36A1B78C5F840324026C5F8806FD5F8803F01F009FC236B013323630023E5
:404F0000E362A36A0133A362C5F8886F63783BB1236A43F002032362636C0BB10420984770BD00BF38B54B68B3F5A81F03D14FF4C0134B6038BD4B68B3F5A01F4DD10C4684
:404F400005464A69012A11D94B780BB1013A00E0012221692846FFF743FDA3690344A36163691B1A6361236903442361D5F80832C3F30803802B14D06369012B11D101F09E
:404F8000C0FB23691B78C5F840324023C5F8803FD5F8803F01F0B9FBA3690133A361002363616369CBB9237B33B14023C5F8883F4FF4A813636005E00023C5F8883F4FF464
:404FC000B0136360637843B1A36843F40033A360636C13B14FF48030984738BD70B504460D468A6C82B3036813F4803F06D0D0F84C3F13F0400F03D0022002E0002000E01A
:405000000020236E13F4006F06D1D4F84C3F13F0800300D001231843C0B190470123C4F8C03FD4F8C03F024648B91023C4F8403FD4F8403F40F2D113C4F8483F07E040F2E0
:40504000C113C4F8483F02E0002200E00022D4F8043243F48033C4F80432D4F8043223F48033C4F80432D4F804320AB9012300E00223E366002A59D1666E06F010066B6C35
:4050800023B10EB1012000E0022098477EB141F202036B602B6A43F001032B626B6B2B63002385F824300123C4F8883F70BD41F201036B602B6A43F010032B620123C4F85A
:4050C000C83F2B78BBB1EB6BBBB1236E43F400532366ED6B802D05D9A5F18003802B0ED8813D0DE0013D236E43F4004323660023C4F8C83F04E0002502E0002500E03F25F0
:40510000236813F4006F01D0802300E040239D4204D34FF42071064801F088FAD4F8043323F0FF03EDB21D43C4F8045370BD00BF585C091038B54B68B3F5881F03D0B3F51F
:40514000901F1AD038BD0B69D0F840231A708B6901338B614B69013B4B612BB10B6901330B610423836638BD0B7B13B14FF4C01301E04FF4B0134B6038BD0C4605464A699C
:405180000969FFF7EFFBA3690344A36163691B1A6361226910442061012B24D82B6E23F480732B666369012B16D12B6813F4006F01D0802300E0402323B94FF42071184816
:4051C00001F034FAD5F8043323F0FF03C5F804334FF48813636038BD0023C5F8C83F4FF4B013636038BD402B01D89C1E00E03F242B6813F4006F01D0802300E040239C4269
:4052000004D34FF42071064801F010FAD5F8043323F0FF02E3B21343C5F8043338BD00BF585C091038B5CB6B002B50D00B78002B3FD00C460546D0F80423D2B20132896BA0
:40524000FFF790FB236C03442364E36B1B1AE363A26B1044A063802B06D9A3F18002802A0FD8A3F181040DE02B6E43F400432B66E36B0BB15C1E00E000240023C5F8C83FD9
:4052800000E03F242B6813F4006F01D0802300E040239C4204D34FF42071104801F0C6F9D5F8043323F0FF02E3B21343C5F8043338BD0123C3668A6B0B6CD0F84003D05486
:4052C0000B6C01330B64CB6B013BCB6338BD0223C3660023C0F8C83F38BD00BF585C0910F8B50B78012B03D00C7A1CB9002702E0002700E00127002800F0A780002900F034
:40530000A680002A00F0A58016460C460546013BDBB2022B03D94F214F4801F087F9637803B163791BB150214B4801F07FF994F90330002B03DA5121474801F077F923795B
:4053400013F0010F03D05221434801F06FF92369102B03D95321404801F068F9E368102B03D954213C4801F061F9637913B14FF4803100E00021E27912B14FF4807300E090
:4053800000230B4343F400632B60A37913B94FF4006300E000232269013A02F00F021A43E368013B1B01DBB21343227843EA82732B6617B140F2073301E040F20713C5F8AF
:4053C00000330FB1254B00E0254B2B6763780BB17F2300E00023C5F80433E3785B00DBB2227943EA0243C5F810331E4BC5F80032A3780BB1402300E00123C5F8043200233C
:40540000C5F8C83EC5F8883EC5F8C83FC5F8883FC5F8083F2378022B02D040F2D11300E00023C5F8483F63783370A37873704FF0805373600020B060B06130623064F063C8
:405440003063F0627064B064F8BD0748F8BD0648F8BD0548F8BD00BF9C5C091003002A0013102A00070101000120AA0038B505460C4621B940F2C321194801F0D7F82B6E4F
:405480009B0F012B17D1174B2344174A93421ED9A4F5BD13A3F5D66302F5611202F56162934216D9A4F57104A4F533440F4B9C4211D80F4838BD84B1286EC0F303102B6E61
:4054C00003F00F0318440230B4FBF0F038BD094838BD094838BD002038BD002038BD00BF9C5C091020AD88FF405B730040555C0440420F00801A0600A08601002DE9F8430F
:4055000007468846914622B940F21221624801F08DF808F1FF34614B9C4204D940F213215D4801F083F83B6E9B0F012B0DD149463846FFF79BFF0546D7F8003323F400733E
:40554000C7F80033564B3B67A2E0544B9C421FD8544B984509D8A9F5BD13A3F5D663524A934218D90021012328E0504B984507D84F4B4B444F4A934213D9002101231DE099
:405580004D4B4B444D4A934212D90021012315E00021012312E0002141F288352E460B460CE000214FF461754FF4C8660B4605E001214FF4BE754FF41B760023002B66D168
:4055C0003F4BB3FBF9F3B6FBF3F404FB03F2964200D90134102C00D910240F2C8CBF00220122B5FBF3F606FB03F39D4200D90136102E00D91026A519B9FBF5F50FE022B117
:405600000F2C09D80134002206E00F2E04D801360F2C8CBF00220122A519B9FBF5F5454502D9A3191F2BEAD941B1D7F8003343F40073C7F80033234B3B6707E0D7F80033E3
:4056400023F40073C7F80033154B3B67E31F092B04D940F283511C4800F0E8FF3B6E23F0F003013C2401E4B223433B66731F0B2B04D94FF4B461144800F0D8FF3B6E23F0CE
:405680000F03013E06F00F061E433E6600E000252846BDE8F88300BF9C5C09103F420F0013102A00A0860100502D1900801A060020AD88FFA0432100807E25FFC02BAF00D8
:4056C00000CA9A3B03002A00DC5C09102DE9F04182B005460C4617469846089E11F0800F04D04FF4D961314800F0A0FF304B984504D940F2C9612D4800F098FF012F04D913
:4057000040F2CA61294800F091FF0023C5F8483F7368B3F1805F41D14FF47A7303FB08F30193244B7360012F14BF00230123737340F21713C5F8003FD5F8003F0423C5F8CD
:40574000C03FD5F8C03FD5F8043243F48033C5F80432D5F8043223F48033C5F80432D5F804326400E4B23C43C5F840420223AB66D5F8004F24F0F804E405E40DD5F8403F7B
:4057800003F0C0031C4301A8FFF746FB54EA0001EED032462846FFF7C7FA00E0064840F2D113C5F8483F02B0BDE8F0819C5C091037894100000013100220AA002DE9F041C2
:4057C00082B005460F4614469846089E11F0800F04D040F229712A4800F028FF294B984504D940F22A71264800F020FF012C04D940F22B71224800F019FF736813F4801FFD
:4058000039D04FF47A7303FB08F301931E4B7360012C14BF0023012373736B6E13F0200F01D0092300E00123AB666B6E13F0200F05D0002009E001A8FFF7EEFA00E00020AC
:4058400018B9AB6E13F0010FF5D170B97F00FFB23C43C5F84042D5F8000F40F20714044001A8FFF7D9FA2043F5D0324601462846FFF75AFA00E0054802B0BDE8F08100BF1C
:405880009C5C091037894100000013100220AA0070B582B005460C461646134B994204D940F28C71114800F0C1FE736813F4801F17D04FF47A7303FB04F401941823AB66DB
:4058C000D5F8004F24F0EE04E405E40D01A8FFF7A3FA54EA0001F3D032462846FFF724FA00E0034802B070BD378941009C5C09100220AA002DE9F04383B0074688461C4693
:405900000A9D914622B94FF4FB61244800F08EFE234B9C4204D940F2D971204800F086FEB8F1010F04D940F2DA711C4800F07EFE6B68B3F5881F2BD14FF47A7303FB04F4DF
:405940000194D7F8C06F06F00406D7F8001F40F201140C4001A8FFF75FFA44EA00010EB90029EED046B1D7F8403389F800300523C7F8C03FD7F8C03F2A463846FFF7D4F9EF
:40598000034630B9B8F1000F03D10422BA6600E0044B184603B0BDE8F08300BF9C5C0910378941000220AA00F0B583B005460F4614461E46134B9A4204D940F632011248DE
:4059C00000F034FE7368B3F5A01F17D14FF47A7303FB04F40194C5F84072D5F8004F24F0F804E405E40D01A8FFF716FA54EA0001F3D032462846FFF797F900E0034803B030
:405A0000F0BD00BF378941009C5C09100220AA0070B504460E46D0F88C3E13F0010F07D04FF480534B600123C0F8803ED0F8803ED4F84C5F40F201131D420FD0336A15F45B
:405A4000807F02D04FF4807200E08022134333620023C4F8C83F45F010050EE015F0100F0BD0D4F80833C3F3080333B1F36B23B10123C4F8C43FC4F8C83FD4F8CC3F13F038
:405A8000010F08D031462046FFF7CCFB0123C4F8C03FD4F8C03F15F0100F0AD031462046FFF702F81023C4F8403FD4F8403FD4F84C5F15F0C00F0DD031462046FFF78EFAB3
:405AC0000123C4F8803ED4F8803EC023C4F8403FD4F8403FD4F88C3F13F0410F08D031462046FFF7ABF90123C4F8803FD4F8803F70BD00BF70B506460D46D0F8004E14F0E8
:405B0000020F0AD0836E2BB1002383668B6843F080738B604FF4C0136B6014F0010F05D029463046FFF736F824F0040414F0080F08D029463046FFF7FDFA0123C6F8C03F08
:405B4000D6F8C03F14F0040F08D029463046FFF7E9F90123C6F8803FD6F8803F6B68B3F5C01F03D129463046FFF764F86B68B3F5B01F03D129463046FFF746F870BD00BFF6
:405B800008B54B6813F4801F02D0FFF7B3FF08BDFFF73EFF08BD00BF002800F02481F8B50546002900F0218117460C460B78012B03D93F218F4800F039FD6378012B07D9EB
:405BC000052B05D0022B03D040218A4800F02EFDA378032B03D94121864800F027FD2378012B07D16368023B0E2B03D94321814800F01CFDA36933F00F0303D044217D48B9
:405C000000F014FDA368043B0C2B03D94521794800F00CFDE368043B0C2B03D94621754800F004FD6378022B07D0A268E3689A4203D047216F4800F0F9FC636A33F06D03ED
:405C400003D049216B4800F0F1FCE36A33F0730303D04A21674800F0E9FC236B33F4206303D04B21634800F0E1FC6378A678052B07D8DFE803F0060305060603022600E0D9
:405C80000026A368082B04D8E368082B03D9002302E0002300E0012313B14FF4006200E00022237F13B14FF4807300E000231A436368013B03F00F03134343F080732B60A4
:405CC000226A2B6813F4006F01D0802300E040239A4203D35821474800F0A8FCA26A2B6813F4006F01D0802300E040239A4203D35921404800F09AFC237D0BB9012100E09E
:405D000000216278052A01D1022300E000230B43E17C09B1102100E000210B43617C09B1202100E000210B432178012902D14FF0004100E000210B43B60006F00C0633439A
:405D4000A169090201F470610B43120602F0407213432B62237C13B14FF4807200E00022A37C13B14FF4007300E000231A43A368013B03F00F031343C5F8003394F820305A
:405D8000C5F80433237C13B14FF4807200E00022E368013B03F00F031343C5F8003294F82830C5F80432636A03F06D03C5F8C83FE36A03F07303C5F8883F236B03F4007387
:405DC000C5F8003F236B03F40063C5F8403F0023C5F8C83E5FB118463B60BB61FB60FB61054B3B62F8BD054870470448F8BD0020F8BD00BF1C5D0910EFCDAB000140AA00A2
:405E0000036823F00043036019B100220A60CA608A61036A002B04DB0023C0F8C83FC0F8883F70472DE9F84305460C46036813F4006F02D04FF0800801E04FF04008D5F8A7
:405E4000007207F00F07A26A012A19D9D4F82490E262561EB9F1000F00D026B940F27351254800F0E3FB324649462846FEF7B8FDA36A1B1AA362072F00D9400048446062A6
:405E8000D5F80832C3F30803984533D0A36A012B30D10023A362072F02D8636A1E7801E0636A1E8800F02DFCC5F840624FF40073C5F8803FD5F8803F00F027FCD5F8883F34
:405EC00023F4007222F0010242F4007623F4EE6323F0030323B140F22A41084800F0A6FBC5F8886F236843F002032360236B0BB101209847BDE8F8835C5D0910585C091082
:405F00002DE9F04105460C46036813F4006F01D0802600E040267608A769D4F81C8017B1B8F1000F04D14FF49961314800F07EFB424639462846FEF715FD236A03442362A0
:405F4000E3691B1AE36173BBA368FBB1E3689E4201D8013E00E05E1E2B6813F4006F01D0802300E040239E4204D34FF42071214800F05CFBD5F8043323F0FF03F6B21E43BB
:405F8000C5F804630123C5F8C83F02E00023C5F8C83F636823F001036360236B33B304209847BDE8F081A169D5F8002302F00F02072A00D940000844A0619E4216D95C1EFD
:405FC0002B6813F4006F01D0802300E040239C4204D34FF42071074800F028FBD5F8043323F0FF02E3B21343C5F80433BDE8F0815C5D0910585C0910002800F0A48170B5E8
:406000000546002900F0A18116460C460B78022B03D93F21A24800F009FB637B023BDBB2062B03D940219E4800F000FBA37B3BB1022B05D0032B03D04121994800F0F6FA4B
:4060400094F82130012B03D94221954800F0EEFA94F82830012B03D94321914800F0E6FA2378012B06D86368083B082B94BF0023012307E0A37F2BB16368013B062B94BF3A
:40608000002301231BB14521854800F0CFFAA368053B042B03D94621814800F0C7FA6369FF2B03D947217E4800F0C0FAA369FF2B03D948217A4800F0B9FAA37C6BB123784A
:4060C00033B9A368092B05D1A37B2BB1012304E0012302E0012300E000231BB14A21704800F0A4FA636B23F4366323F00D031BB14C216B4800F09AFAE36B23F4EE6323F019
:4061000003031BB14D21664800F090FA2378022B01D1A37F13B16268013A00E00022237F13B14FF4803100E00021A368082B02D84FF4006300E000230B4302F00F021343AD
:4061400043F000732B60226B2B6813F4006F01D0802300E040239A4203D36221504800F065FAA26B2B6813F4006F01D0802300E040239A4203D36321494800F057FA626AE4
:406180002B6813F4006F01D0802300E040239A4203D36421424800F049FA23781B0603F040732B64637F0BB1402200E00022A37C13B14FF4806300E000231343227C12B175
:4061C0004FF4807200E000221343627C12B14FF4007200E000221A43E36A013B1B0403F470231343627B013A02F007021343A27B120102F030021343AB64237B13B14FF40E
:40620000807200E00022E37B23B92378022B03D1012302E0012300E0002313B14FF4007300E000231A43A368013B03F00F031343C5F80033227DA3691B0403F47F03134362
:40624000C5F81033E26AD5F8003303F00F0303339A4201D3102A03D97A21114800F0E6F9E37F23B12378012B03D0002302E0002300E0012313B14FF4807200E00022637B39
:40628000013B03F007031A43A37B1B0103F0300313436B64237B2BB14FF4807203E000BF9C5D09100022A368013B03F00F0313432278012A02D14FF4803200E000221343B7
:4062C000C5F8003294F83030C5F8043394F8203013B14FF0007200E0002294F82130012B02D14FF0807300E00023134394F82820012A02D14FF4803200E00022134394F86A
:40630000242013432B6594F83830C5F80432636B23F4926323F002031B051B0DC5F8C83FE36B23F08C035B055B0DC5F8883F76B1002070603060B060F0603062F062306394
:40634000044B736370BD04487047034870BD002070BD00BFEFCDAB000160AA000B694A69934202D34869181A7047CA694869101A184470472DE9F04107460D46036813F4ED
:40638000006F02D04FF0800801E04FF040084FEA5808D7F80863C6F308062C6926E00134EB689C4200D100246B699C420FD12B6B0BB1082098476B699C4208D10023C7F885
:4063C000C83F0CB1013C13E0EC68013C10E0D7F84023D7F8003303F00F03072B02D8AB681A5502E0AB6823F81420013E002ED6D12C61EC6829463846FFF7B0FF201A804597
:4064000019D908B1441E00E000243B6813F4006F01D0802300E040239C4204D34FF42071064800F003F9D7F8040320F0FF03E0B21843C7F80403BDE8F08100BF585C09107B
:4064400038B504460D46D0F8003E13F0080F35D0D0F8CC3F13F448730AD04A681A434A60C0F8C03FD0F8C03F0B6B0BB110209847D4F8CC3F13F4006F09D06B6843F40063F3
:406480006B604FF40063C4F8C03FD4F8C03FD4F8CC3F13F0010F11D0EB6923B129462046FFF72EFD05E0AB681BB129462046FFF761FF0123C4F8C03FD4F8C03FD4F8003E59
:4064C00013F0040F2ED0D4F88C3F13F4A0630AD02A681A432A60C4F8803FD4F8803F2B6B0BB120209847D4F88C3F13F0010F08D029462046FFF796FC0123C4F8803FD4F8D3
:40650000803FD4F88C3F13F4007F0BD00022C4F8882F2B6823F001032B60EA622B6B0BB10220984738BD00BF38B50D4B9A680D4B9A420FD10D46044621B940F237110A48E9
:4065400000F074F804F11003064A52F8230042F8235038BD1030054B53F8200038BD00BF00ED00E000400208DC5D09100000081048B338B504460D464368072B03D9322197
:40658000134800F053F8B4F900306268002B08DB5201D2B203F1604303F5614383F8002305E003F00F035201D2B20A49CA540A4B9A680A4B9A4208D12946B4F90000FFF743
:4065C000B3FF002038BD06487047002038BD00BFDC5D091014ED00E000ED00E0004002080100560010B5044605E0084B186800F07FF8A4F50044B4F5004FF6D8044B1868BA
:4066000000FB04F000F074F810BD00BFA8420208A442020808B5034B1B7800FB03F000F067F808BDA042020801BEFEE738B50D46044C1822014620460DF03CF8A5610020A1
:40664000FFF7F2FF08580208FEE700BF08B50268254BDA6142681A6282685A62C2689A620269DA6242691A6382695A63C2699A631E4A916AD963D16A1964516A5964516B37
:406680009964926BDA64F1EE103A13F0900F27D0026A154B1A65426A5A65826A9A65C26ADA65026B1A66426B5A66826B9A66C26BDA66026C1A67426C5A67826C9A67C26CA5
:4066C000DA67026DC3F88020426DC3F88420826DC3F88820C26DC3F88C20026EC3F89020FFF7B2FF08BD00BF0858020800ED00E00230800803D001300238FCD100BF00BF19
:406700007047EFF3108072B6704780F31088704700287DD00346002A7CD070B45068000280B29568AD0405F480252843D468240404F4403404431069000600F0E06020436B
:40674000147F0CB1012400E0002420430C1DA4011851D06828B903EB81100024C0F808410CE0012805D1146803EB8110C0F8084104E003EB81100124C0F80841106938B96F
:40678000546903EB8110C0F80C419469C0F81041146803EB8110C0F81441906CB0F1FF3F17D0946A04F00F04166B360206F470663443956B2D0405F470252543146C2403F5
:4067C000A4B22C430001C0B2204303EB8114C4F82001506A00F00300D66A360106F030063043556B2D0205F440752843D46BA401E4B20443506C800000F00C00204303EB89
:406800008113C3F82401126AC3F83821002003E0024870470148704770BC70470100B600014B1860704700BF7C11040800F1080343604FF0FF328260C360036100230360E5
:40684000704700BF00230361704700BF43684B609A688A609A68516099600861036801330360704730B40D68B5F1FF3F01D1026907E000F1080200E01A4653681C68A542D3
:40688000FAD253684B6099608A605160086103680133036030BC704703694268816891608268416851605A68904201D182685A60002202611A68013A1A601868704700BF14
:4068C000436A23B1036B1868C0F1070070470020704700BF10B5044601F0BCFCA26BE36B9A4201D1012400E0002401F0D5FC204610BD00BF10B5044601F0ACFCA36B0BB90C
:40690000012400E0002401F0C7FC204610BD00BF70B504461646856B026C3AB9036843BB406801F0ABF90023636029E06EB980680CF027FEA268236C1344A3606268934215
:4069400019D32368A36000201AE0C0680CF019FE236C5B42E2681A44E26021688A4202D262681344E360022E07D145B1013D002006E0002004E0002002E0002000E000203D
:406980000135A56370BD00BF026C72B110B50346C4681444C4604068844201D31868D8600846D9680CF0EDFD10BD704738B5054601F050FC95F8454064B20AE06B6A53B113
:4069C00005F1240001F05AF808B101F0E5F8013C64B2002CF2DCFF2385F8453001F05CFC01F038FC95F8444064B20AE02B6953B105F1100001F042F808B101F0CDF8013C5E
:406A000064B2002CF2DCFF2385F8443001F044FC38BD00BF38B540B94FF03F0383F31188BFF36F8FBFF34F8FFEE704460D4601F011FC2168E26B236C03FB021060600020C3
:406A4000A063A160013A02FB0313E360FF2384F8443084F845307DB92369ABB104F1100001F00CF880B14FF08052094B1A60BFF34F8FBFF36F8F07E004F11000FFF7D6FE60
:406A800004F12400FFF7D2FE01F006FC012038BD04ED00E010B5029B0C4609B91B6000E01A60D8631C6401211846FFF7B3FF10BD40B94FF03F0383F31188BFF36F8FBFF337
:406AC0004F8FFEE7F0B583B0034611B101FB00F000E000201D4617460C46483001F0FCFC064638B100903B4600F1480221462846FFF7D0FF304603B0F0BD00BFF0B585B007
:406B0000019240B94FF03F0383F31188BFF36F8FBFF34F8FFEE7044619B9026C1AB9012202E0012200E0002242B94FF03F0383F31188BFF36F8FBFF34F8FFEE7022B03D1DC
:406B4000E26B012A02D102E0012200E0002242B94FF03F0383F31188BFF36F8FBFF34F8FFEE71D460E4601F025F818B9019B1BB9012302E0012300E0002343B94FF03F0363
:406B800083F31188BFF36F8FBFF34F8FFEE7002701F060FBA26BE36B9A4201D3022D21D12A4631462046FFF7B3FE636A6BB104F1240000F063FF88B14FF08052324B1A6079
:406BC000BFF34F8FBFF36F8F08E038B14FF080522D4B1A60BFF34F8FBFF36F8F01F05CFB01204EE0019B1BB901F056FB002048E01FB902A800F086FF012701F04DFB00F068
:406C000017FD01F027FB94F844305BB2B3F1FF3F02D1002384F8443094F845305BB2B3F1FF3F02D1002384F8453001F035FB01A902A800F071FFF0B92046FFF74BFEA0B10D
:406C4000019904F1100000F0E1FE2046FFF7AEFE00F07CFD00289BD14FF080520A4B1A60BFF34F8FBFF36F8F92E72046FFF79EFE00F06CFD8CE72046FFF798FE00F066FDFF
:406C8000002005B0F0BD00BF04ED00E048B108B5002141600160C1600B460A46FFF72EFF08BD704710B5024600210120FFF700FF0446FFF7EBFF204610BD00BF2DE9F843D7
:406CC00040B94FF03F0383F31188BFF36F8FBFF34F8FFEE7044619B9006C18B9012002E0012000E0002040B94FF03F0383F31188BFF36F8FBFF34F8FFEE7022B03D1E06B6F
:406D0000012802D102E0012000E0002040B94FF03F0383F31188BFF36F8FBFF34F8FFEE71F469046894601F099FBEFF311864FF03F0383F31188BFF36F8FBFF34F8FA26BC1
:406D4000E36B9A4201D3022F1ED194F845506DB23A4649462046FFF7DBFDB5F1FF3F0DD1636A9BB104F1240000F088FE80B1B8F1000F0FD00120C8F800000CE06B1C5BB2DF
:406D800084F84530012006E0002004E0012002E0012000E0012086F31188BDE8F88300BF40B94FF03F0383F31188BFF36F8FBFF34F8FFEE770B50446036C43B14FF03F03C0
:406DC00083F31188BFF36F8FBFF34F8FFEE703681BB943681BB9012302E0012300E0002343B94FF03F0383F31188BFF36F8FBFF34F8FFEE70E4601F031FBEFF311854FF09B
:406E00003F0383F31188BFF36F8FBFF34F8FA26BE36B9A4218D294F845305BB20132A263B3F1FF3F0AD1636A83B104F1240000F025FE68B176B1012030600CE001335BB252
:406E400084F84530012006E0002004E0012002E0012000E0012085F3118870BDF0B585B0019240B94FF03F0383F31188BFF36F8FBFF34F8FFEE7044619B9036C1BB9012315
:406E800002E0012300E0002343B94FF03F0383F31188BFF36F8FBFF34F8FFEE70E4600F089FE18B9019B1BB9012302E0012300E0002343B94FF03F0383F31188BFF36F8FA3
:406EC000BFF34F8FFEE7002701F0C4F9A56BC5B131462046FFF758FD013DA563236963B104F1100000F0CAFD38B14FF08052304B1A60BFF34F8FBFF36F8F01F0CDF90120F1
:406F000053E0019B1BB901F0C7F900204DE01FB902A800F0F7FD012701F0BEF900F088FB01F098F994F844305BB2B3F1FF3F02D1002384F8443094F845305BB2B3F1FF3FC0
:406F400002D1002384F8453001F0A6F901A902A800F0E2FDF0B92046FFF7CCFCA0B1019904F1240000F052FD2046FFF71FFD00F0EDFB0028A8D14FF080520D4B1A60BFF3E1
:406F80004F8FBFF36F8F9FE72046FFF70FFD00F0DDFB99E72046FFF709FD00F0D7FB2046FFF7A8FC00288FD0002005B0F0BD00BF04ED00E070B584B0019140B94FF03F03EB
:406FC00083F31188BFF36F8FBFF34F8FFEE70446036C43B14FF03F0383F31188BFF36F8FBFF34F8FFEE700F0E5FD18B9019B1BB9012302E0012300E0002343B94FF03F033E
:4070000083F31188BFF36F8FBFF34F8FFEE700252E4601F01FF9A36BCBB1013BA363236813B900F0CBFE6060236963B104F1100000F024FD38B14FF08052414B1A60BFF376
:407040004F8FBFF36F8F01F027F9012076E0019B6BB945B14FF03F0383F31188BFF36F8FBFF34F8FFEE701F017F9002066E01EB902A800F047FD012601F00EF900F0D8FA92
:4070800001F0E8F894F844305BB2B3F1FF3F02D1002384F8443094F845305BB2B3F1FF3F02D1002384F8453001F0F6F801A902A800F032FD40BB2046FFF71CFCF0B1236866
:4070C0003BB901F0C7F8606800F084FD054601F0E3F8019904F1240000F098FC2046FFF765FC00F033FB002893D14FF08052144B1A60BFF34F8FBFF36F8F8AE72046FFF707
:4071000055FC00F023FB84E72046FFF74FFC00F01DFB2046FFF7EEFB00283FF47AAF65B101F098F82046FFF7CBFB0146606800F0EFFD01F0B1F8002000E0002004B070BDCE
:4071400004ED00E000230BE0074A52F8332032B9054A42F8331002EBC303586070470133092BF1D9704700BF8011040870B504460D46164601F06EF894F844305BB2B3F1FE
:40718000FF3F02D1002384F8443094F845305BB2B3F1FF3F02D1002384F8453001F07CF8A36B2BB93246294604F1240000F048FC2046FFF7FBFB70BD024640B94FF03F0308
:4071C00083F31188BFF36F8FBFF34F8FFEE741690A4B994201D1012300E0002343B1926A07498A4206D002B100232BB9002070470020704700207047012070477C120308F6
:4072000090120308094B9B6A1B680BB9012300E0002323B14FF0FF32044BDA627047034B9A6AD268D2685268DA6270477C12030810B50446006B01F07FF9204601F07CF999
